{
  "_format": "hh-sol-artifact-1",
  "contractName": "Existing",
  "sourceName": "contracts/corrections/Deployed.sol",
  "abi": [
    {
      "inputs": [
        {
          "internalType": "address",
          "name": "_addr",
          "type": "address"
        }
      ],
      "name": "call",
      "outputs": [],
      "stateMutability": "nonpayable",
      "type": "function"
    },
    {
      "inputs": [],
      "name": "getA",
      "outputs": [
        {
          "internalType": "uint256",
          "name": "result",
          "type": "uint256"
        }
      ],
      "stateMutability": "view",
      "type": "function"
    },
    {
      "inputs": [
        {
          "internalType": "uint256",
          "name": "_val",
          "type": "uint256"
        }
      ],
      "name": "setA",
      "outputs": [],
      "stateMutability": "nonpayable",
      "type": "function"
    }
  ],
  "bytecode": "0x608060405234801561001057600080fd5b5061021b806100206000396000f3fe608060405234801561001057600080fd5b50600436106100415760003560e01c8063d46300fd14610046578063ee919d5014610060578063f55332ab14610075575b600080fd5b61004e6100a5565b60405190815260200160405180910390f35b61007361006e366004610183565b610122565b005b61007361008336600461019c565b600080546001600160a01b0319166001600160a01b0392909216919091179055565b60008060009054906101000a90046001600160a01b03166001600160a01b0316636d4ce63c6040518163ffffffff1660e01b8152600401602060405180830381865afa1580156100f9573d6000803e3d6000fd5b505050506040513d601f19601f8201168201806040525081019061011d91906101cc565b905090565b6000546040516360fe47b160e01b8152600481018390526001600160a01b03909116906360fe47b190602401600060405180830381600087803b15801561016857600080fd5b505af115801561017c573d6000803e3d6000fd5b5050505050565b60006020828403121561019557600080fd5b5035919050565b6000602082840312156101ae57600080fd5b81356001600160a01b03811681146101c557600080fd5b9392505050565b6000602082840312156101de57600080fd5b505191905056fea264697066735822122033ef921b69b5da0060e0fecc8ca949f36727a409b46287be6a09effd52a5c86664736f6c63430008110033",
  "linkReferences": {},
  "deployedLinkReferences": {}
}