{
  "_format": "hh-sol-artifact-1",
  "contractName": "Ex1",
  "sourceName": "contracts/exercices/Exercice1.sol",
  "abi": [
    {
      "inputs": [],
      "name": "getBalance",
      "outputs": [
        {
          "internalType": "uint256",
          "name": "",
          "type": "uint256"
        }
      ],
      "stateMutability": "view",
      "type": "function"
    },
    {
      "inputs": [
        {
          "internalType": "address",
          "name": "_addr",
          "type": "address"
        }
      ],
      "name": "getBalanceForAddress",
      "outputs": [
        {
          "internalType": "uint256",
          "name": "",
          "type": "uint256"
        }
      ],
      "stateMutability": "view",
      "type": "function"
    },
    {
      "inputs": [
        {
          "internalType": "address",
          "name": "_destination",
          "type": "address"
        }
      ],
      "name": "sendEth",
      "outputs": [],
      "stateMutability": "payable",
      "type": "function"
    },
    {
      "inputs": [
        {
          "internalType": "address",
          "name": "_state",
          "type": "address"
        }
      ],
      "name": "setState",
      "outputs": [],
      "stateMutability": "nonpayable",
      "type": "function"
    }
  ],
  "bytecode": "0x608060405234801561001057600080fd5b50610245806100206000396000f3fe60806040526004361061003f5760003560e01c806312065fe01461004457806334c901af1461007157806376a54c6014610093578063b24046f5146100a6575b600080fd5b34801561005057600080fd5b506000546001600160a01b0316315b60405190815260200160405180910390f35b34801561007d57600080fd5b5061009161008c3660046101df565b6100ce565b005b6100916100a13660046101df565b610141565b3480156100b257600080fd5b5061005f6100c13660046101df565b6001600160a01b03163190565b6001600160a01b03811661011f5760405162461bcd60e51b8152602060048201526013602482015272043616e2774207365742061646472657373203606c1b60448201526064015b60405180910390fd5b600080546001600160a01b0319166001600160a01b0392909216919091179055565b6000816001600160a01b03163460405160006040518083038185875af1925050503d806000811461018e576040519150601f19603f3d011682016040523d82523d6000602084013e610193565b606091505b50509050806101db5760405162461bcd60e51b8152602060048201526014602482015273657468206e6f6e207472616e7366c3a972c3a97360601b6044820152606401610116565b5050565b6000602082840312156101f157600080fd5b81356001600160a01b038116811461020857600080fd5b939250505056fea264697066735822122075b9c974c1ef599c6ae57efccc86628316b49f9e0b32e69da4f8d9f9c4a603bc64736f6c63430008110033",
  "linkReferences": {},
  "deployedLinkReferences": {}
}