{
  "contractName": "Bank",
  "abi": [
    {
      "inputs": [
        {
          "internalType": "uint256",
          "name": "_amout",
          "type": "uint256"
        }
      ],
      "name": "deposit",
      "outputs": [],
      "stateMutability": "nonpayable",
      "type": "function"
    },
    {
      "inputs": [
        {
          "internalType": "address",
          "name": "_recipient",
          "type": "address"
        },
        {
          "internalType": "uint256",
          "name": "_amout",
          "type": "uint256"
        }
      ],
      "name": "transer",
      "outputs": [],
      "stateMutability": "nonpayable",
      "type": "function"
    },
    {
      "inputs": [
        {
          "internalType": "address",
          "name": "_address",
          "type": "address"
        }
      ],
      "name": "balanceOf",
      "outputs": [
        {
          "internalType": "uint256",
          "name": "",
          "type": "uint256"
        }
      ],
      "stateMutability": "view",
      "type": "function"
    }
  ],
  "bytecode": "0x608060405234801561001057600080fd5b50610625806100206000396000f3fe608060405234801561001057600080fd5b50600436106100415760003560e01c806370a0823114610046578063b6b55f2514610076578063e4f02c3a14610092575b600080fd5b610060600480360381019061005b919061034f565b6100ae565b60405161006d9190610395565b60405180910390f35b610090600480360381019061008b91906103dc565b6100f6565b005b6100ac60048036038101906100a79190610409565b61014e565b005b60008060008373ffffffffffffffffffffffffffffffffffffffff1673ffffffffffffffffffffffffffffffffffffffff168152602001908152602001600020549050919050565b806000803373ffffffffffffffffffffffffffffffffffffffff1673ffffffffffffffffffffffffffffffffffffffff16815260200190815260200160002060008282546101449190610478565b9250508190555050565b600073ffffffffffffffffffffffffffffffffffffffff168273ffffffffffffffffffffffffffffffffffffffff16036101bd576040517f08c379a00000000000000000000000000000000000000000000000000000000081526004016101b49061052f565b60405180910390fd5b806000803373ffffffffffffffffffffffffffffffffffffffff1673ffffffffffffffffffffffffffffffffffffffff16815260200190815260200160002054101561023e576040517f08c379a00000000000000000000000000000000000000000000000000000000081526004016102359061059b565b60405180910390fd5b806000803373ffffffffffffffffffffffffffffffffffffffff1673ffffffffffffffffffffffffffffffffffffffff168152602001908152602001600020600082825461028c91906105bb565b92505081905550806000808473ffffffffffffffffffffffffffffffffffffffff1673ffffffffffffffffffffffffffffffffffffffff16815260200190815260200160002060008282546102e19190610478565b925050819055505050565b600080fd5b600073ffffffffffffffffffffffffffffffffffffffff82169050919050565b600061031c826102f1565b9050919050565b61032c81610311565b811461033757600080fd5b50565b60008135905061034981610323565b92915050565b600060208284031215610365576103646102ec565b5b60006103738482850161033a565b91505092915050565b6000819050919050565b61038f8161037c565b82525050565b60006020820190506103aa6000830184610386565b92915050565b6103b98161037c565b81146103c457600080fd5b50565b6000813590506103d6816103b0565b92915050565b6000602082840312156103f2576103f16102ec565b5b6000610400848285016103c7565b91505092915050565b600080604083850312156104205761041f6102ec565b5b600061042e8582860161033a565b925050602061043f858286016103c7565b9150509250929050565b7f4e487b7100000000000000000000000000000000000000000000000000000000600052601160045260246000fd5b60006104838261037c565b915061048e8361037c565b92508282019050808211156104a6576104a5610449565b5b92915050565b600082825260208201905092915050565b7f596f752063616e6e6f74207472616e7366657220746f2074686520616464726560008201527f7373207a65726f00000000000000000000000000000000000000000000000000602082015250565b60006105196027836104ac565b9150610524826104bd565b604082019050919050565b600060208201905081810360008301526105488161050c565b9050919050565b7f62616c616e636520697320746f6f206c6f770000000000000000000000000000600082015250565b60006105856012836104ac565b91506105908261054f565b602082019050919050565b600060208201905081810360008301526105b481610578565b9050919050565b60006105c68261037c565b91506105d18361037c565b92508282039050818111156105e9576105e8610449565b5b9291505056fea2646970667358221220a6ce42e00a3ef57d2c01827a364839b242880f2d343779f70549ac213293ae1964736f6c63430008110033",
  "immutableReferences": {},
  "source": "// SPDX-License-Identifier: GPL-3.0\npragma solidity 0.8.17;\n \ncontract Bank {\n   mapping(address => uint) _balances;\n\n   function deposit(uint _amout) public {\n       _balances[msg.sender] += _amout;\n   }\n\n   function transer(address _recipient, uint _amout) public {\n        require(_recipient != address(0), \"You cannot transfer to the address zero\");\n        require(_balances[msg.sender] >= _amout, \"balance is too low\");\n        _balances[msg.sender] -= _amout;\n        _balances[_recipient] += _amout;\n   }\n\n   function balanceOf(address _address) public view returns (uint){\n       return _balances[_address];\n   }\n}\n",
  "sourcePath": "/home/ted/repositories/rinkeby/packages/rinkeby-sandbox-contracts/contracts/exercices/Bank.sol",
  "compiler": {
    "name": "solc",
    "version": "0.8.17+commit.8df45f5f.Emscripten.clang"
  },
  "schemaVersion": "3.4.10",
  "updatedAt": "2022-10-14T11:50:40.060Z",
  "devdoc": {
    "kind": "dev",
    "methods": {},
    "version": 1
  },
  "userdoc": {
    "kind": "user",
    "methods": {},
    "version": 1
  }
}