{
  "contractName": "Caller",
  "abi": [
    {
      "inputs": [],
      "name": "child",
      "outputs": [
        {
          "internalType": "contract Child",
          "name": "",
          "type": "address"
        }
      ],
      "stateMutability": "view",
      "type": "function"
    },
    {
      "inputs": [],
      "name": "getChildValue",
      "outputs": [
        {
          "internalType": "uint256",
          "name": "",
          "type": "uint256"
        }
      ],
      "stateMutability": "nonpayable",
      "type": "function"
    }
  ],
  "bytecode": "0x60806040526040516100109061007e565b604051809103906000f08015801561002c573d6000803e3d6000fd5b506000806101000a81548173ffffffffffffffffffffffffffffffffffffffff021916908373ffffffffffffffffffffffffffffffffffffffff16021790555034801561007857600080fd5b5061008b565b6101708061041083390190565b6103768061009a6000396000f3fe608060405234801561001057600080fd5b50600436106100365760003560e01c8063237b5e961461003b578063cfd1101614610059575b600080fd5b610043610077565b604051610050919061023d565b60405180910390f35b61006161009b565b60405161006e9190610271565b60405180910390f35b60008054906101000a900473ffffffffffffffffffffffffffffffffffffffff1681565b60008060009054906101000a900473ffffffffffffffffffffffffffffffffffffffff1673ffffffffffffffffffffffffffffffffffffffff166355241077600a6040518263ffffffff1660e01b81526004016100f891906102c7565b600060405180830381600087803b15801561011257600080fd5b505af1158015610126573d6000803e3d6000fd5b5050505060008054906101000a900473ffffffffffffffffffffffffffffffffffffffff1673ffffffffffffffffffffffffffffffffffffffff1663209652556040518163ffffffff1660e01b8152600401602060405180830381865afa158015610195573d6000803e3d6000fd5b505050506040513d601f19601f820116820180604052508101906101b99190610313565b905090565b600073ffffffffffffffffffffffffffffffffffffffff82169050919050565b6000819050919050565b60006102036101fe6101f9846101be565b6101de565b6101be565b9050919050565b6000610215826101e8565b9050919050565b60006102278261020a565b9050919050565b6102378161021c565b82525050565b6000602082019050610252600083018461022e565b92915050565b6000819050919050565b61026b81610258565b82525050565b60006020820190506102866000830184610262565b92915050565b6000819050919050565b60006102b16102ac6102a78461028c565b6101de565b610258565b9050919050565b6102c181610296565b82525050565b60006020820190506102dc60008301846102b8565b92915050565b600080fd5b6102f081610258565b81146102fb57600080fd5b50565b60008151905061030d816102e7565b92915050565b600060208284031215610329576103286102e2565b5b6000610337848285016102fe565b9150509291505056fea264697066735822122061d25a3248acc3dcb8ef156212c66f5df012f081cb27afe51d325717f1a1ffc064736f6c63430008110033608060405234801561001057600080fd5b50610150806100206000396000f3fe608060405234801561001057600080fd5b50600436106100365760003560e01c8063209652551461003b5780635524107714610059575b600080fd5b610043610075565b60405161005091906100a1565b60405180910390f35b610073600480360381019061006e91906100ed565b61007e565b005b60008054905090565b8060008190555050565b6000819050919050565b61009b81610088565b82525050565b60006020820190506100b66000830184610092565b92915050565b600080fd5b6100ca81610088565b81146100d557600080fd5b50565b6000813590506100e7816100c1565b92915050565b600060208284031215610103576101026100bc565b5b6000610111848285016100d8565b9150509291505056fea26469706673582212203317dfac84446b2b44016effae20a5d3f23047e8df3ab0129b47a5dc49d2238964736f6c63430008110033",
  "immutableReferences": {},
  "source": "// SPDX-License-Identifier: GPL-3.0\npragma solidity 0.8.17.0;\n\ncontract Parent {\n    uint value;\n\n    function setValue(uint _value) external {\n        value = _value;\n    }\n\n}\n\ncontract Child is Parent {\n    function getValue() external view returns (uint) {\n        return value;\n    }\n}\n\ncontract Caller {\n\n    Child public child = new Child();\n \n    function getChildValue() external returns (uint) {\n        child.setValue(10);\n        return child.getValue();\n    }\n}",
  "sourcePath": "/home/ted/repositories/rinkeby/packages/rinkeby-sandbox-contracts/contracts/exercices/Inheritage.sol",
  "compiler": {
    "name": "solc",
    "version": "0.8.17+commit.8df45f5f.Emscripten.clang"
  },
  "schemaVersion": "3.4.10",
  "updatedAt": "2022-10-20T13:05:01.799Z",
  "devdoc": {
    "kind": "dev",
    "methods": {},
    "version": 1
  },
  "userdoc": {
    "kind": "user",
    "methods": {},
    "version": 1
  }
}