{
  "contractName": "Contacts",
  "abi": [
    {
      "anonymous": false,
      "inputs": [
        {
          "indexed": false,
          "internalType": "uint256",
          "name": "id",
          "type": "uint256"
        }
      ],
      "name": "ContactAdded",
      "type": "event"
    },
    {
      "inputs": [
        {
          "internalType": "uint256",
          "name": "",
          "type": "uint256"
        }
      ],
      "name": "contacts",
      "outputs": [
        {
          "internalType": "uint256",
          "name": "id",
          "type": "uint256"
        },
        {
          "internalType": "string",
          "name": "name",
          "type": "string"
        },
        {
          "internalType": "string",
          "name": "phone",
          "type": "string"
        }
      ],
      "stateMutability": "view",
      "type": "function",
      "constant": true
    },
    {
      "inputs": [],
      "name": "count",
      "outputs": [
        {
          "internalType": "uint256",
          "name": "",
          "type": "uint256"
        }
      ],
      "stateMutability": "view",
      "type": "function",
      "constant": true
    },
    {
      "inputs": [
        {
          "internalType": "string",
          "name": "_name",
          "type": "string"
        },
        {
          "internalType": "string",
          "name": "_phone",
          "type": "string"
        }
      ],
      "name": "createContact",
      "outputs": [],
      "stateMutability": "nonpayable",
      "type": "function"
    }
  ],
  "bytecode": "0x60806040526000805534801561001457600080fd5b50610961806100246000396000f3fe608060405234801561001057600080fd5b50600436106100415760003560e01c806306661abd146100465780633dce492014610064578063e0f478cb14610080575b600080fd5b61004e6100b2565b60405161005b91906102cc565b60405180910390f35b61007e60048036038101906100799190610441565b6100bb565b005b61009a600480360381019061009591906104e5565b610179565b6040516100a993929190610591565b60405180910390f35b60008054905090565b6000808154809291906100cd90610605565b9190505550604051806060016040528060005481526020018381526020018281525060016000805481526020019081526020016000206000820151816000015560208201518160010190816101229190610859565b5060408201518160020190816101389190610859565b509050507f60da173734e634b435b89d21dbdee2234cd9f870cd0f38bba3eb1d8489decd8d60005460405161016d91906102cc565b60405180910390a15050565b60016020528060005260406000206000915090508060000154908060010180546101a29061067c565b80601f01602080910402602001604051908101604052809291908181526020018280546101ce9061067c565b801561021b5780601f106101f05761010080835404028352916020019161021b565b820191906000526020600020905b8154815290600101906020018083116101fe57829003601f168201915b5050505050908060020180546102309061067c565b80601f016020809104026020016040519081016040528092919081815260200182805461025c9061067c565b80156102a95780601f1061027e576101008083540402835291602001916102a9565b820191906000526020600020905b81548152906001019060200180831161028c57829003601f168201915b5050505050905083565b6000819050919050565b6102c6816102b3565b82525050565b60006020820190506102e160008301846102bd565b92915050565b6000604051905090565b600080fd5b600080fd5b600080fd5b600080fd5b6000601f19601f8301169050919050565b7f4e487b7100000000000000000000000000000000000000000000000000000000600052604160045260246000fd5b61034e82610305565b810181811067ffffffffffffffff8211171561036d5761036c610316565b5b80604052505050565b60006103806102e7565b905061038c8282610345565b919050565b600067ffffffffffffffff8211156103ac576103ab610316565b5b6103b582610305565b9050602081019050919050565b82818337600083830152505050565b60006103e46103df84610391565b610376565b905082815260208101848484011115610400576103ff610300565b5b61040b8482856103c2565b509392505050565b600082601f830112610428576104276102fb565b5b81356104388482602086016103d1565b91505092915050565b60008060408385031215610458576104576102f1565b5b600083013567ffffffffffffffff811115610476576104756102f6565b5b61048285828601610413565b925050602083013567ffffffffffffffff8111156104a3576104a26102f6565b5b6104af85828601610413565b9150509250929050565b6104c2816102b3565b81146104cd57600080fd5b50565b6000813590506104df816104b9565b92915050565b6000602082840312156104fb576104fa6102f1565b5b6000610509848285016104d0565b91505092915050565b600081519050919050565b600082825260208201905092915050565b60005b8381101561054c578082015181840152602081019050610531565b60008484015250505050565b600061056382610512565b61056d818561051d565b935061057d81856020860161052e565b61058681610305565b840191505092915050565b60006060820190506105a660008301866102bd565b81810360208301526105b88185610558565b905081810360408301526105cc8184610558565b9050949350505050565b7f4e487b7100000000000000000000000000000000000000000000000000000000600052601160045260246000fd5b6000610610826102b3565b91507fffffffffffffffffffffffffffffffffffffffffffffffffffffffffffffffff8203610642576106416105d6565b5b600182019050919050565b7f4e487b7100000000000000000000000000000000000000000000000000000000600052602260045260246000fd5b6000600282049050600182168061069457607f821691505b6020821081036106a7576106a661064d565b5b50919050565b60008190508160005260206000209050919050565b60006020601f8301049050919050565b600082821b905092915050565b60006008830261070f7fffffffffffffffffffffffffffffffffffffffffffffffffffffffffffffffff826106d2565b61071986836106d2565b95508019841693508086168417925050509392505050565b6000819050919050565b600061075661075161074c846102b3565b610731565b6102b3565b9050919050565b6000819050919050565b6107708361073b565b61078461077c8261075d565b8484546106df565b825550505050565b600090565b61079961078c565b6107a4818484610767565b505050565b5b818110156107c8576107bd600082610791565b6001810190506107aa565b5050565b601f82111561080d576107de816106ad565b6107e7846106c2565b810160208510156107f6578190505b61080a610802856106c2565b8301826107a9565b50505b505050565b600082821c905092915050565b600061083060001984600802610812565b1980831691505092915050565b6000610849838361081f565b9150826002028217905092915050565b61086282610512565b67ffffffffffffffff81111561087b5761087a610316565b5b610885825461067c565b6108908282856107cc565b600060209050601f8311600181146108c357600084156108b1578287015190505b6108bb858261083d565b865550610923565b601f1984166108d1866106ad565b60005b828110156108f9578489015182556001820191506020850194506020810190506108d4565b868310156109165784890151610912601f89168261081f565b8355505b6001600288020188555050505b50505050505056fea2646970667358221220b441ee1f8a8f8545aa85f7ba08da41815f12e0315e34ced23814d9e575cf0e0764736f6c63430008110033",
  "immutableReferences": {},
  "source": "// SPDX-License-Identifier: GPL-3.0\npragma solidity 0.8.17;\n\ncontract Contacts {\n  uint _count = 0; // state variable\n  \n  struct Contact {\n    uint id;\n    string name;\n    string phone;\n  }\n\n  event ContactAdded(uint id);\n\n  mapping(uint => Contact) public contacts;\n  \n  function count() public view returns (uint) {\n    return _count;\n  }\n\n  function createContact(string memory _name, string memory _phone) public {\n    _count++;\n    contacts[_count] = Contact(_count, _name, _phone);\n    emit ContactAdded(_count);\n  }\n}",
  "sourcePath": "/home/ted/repositories/rinkeby/packages/rinkeby-sandbox-contracts/contracts/samples/Contacts.sol",
  "compiler": {
    "name": "solc",
    "version": "0.8.17+commit.8df45f5f.Emscripten.clang"
  },
  "schemaVersion": "3.4.10",
  "updatedAt": "2022-10-14T11:51:25.751Z",
  "networkType": "ethereum",
  "devdoc": {
    "kind": "dev",
    "methods": {},
    "version": 1
  },
  "userdoc": {
    "kind": "user",
    "methods": {},
    "version": 1
  }
}