{
  "contractName": "Ex1",
  "abi": [
    {
      "inputs": [
        {
          "internalType": "address",
          "name": "_state",
          "type": "address"
        }
      ],
      "name": "setState",
      "outputs": [],
      "stateMutability": "nonpayable",
      "type": "function"
    },
    {
      "inputs": [],
      "name": "getBalance",
      "outputs": [
        {
          "internalType": "uint256",
          "name": "",
          "type": "uint256"
        }
      ],
      "stateMutability": "view",
      "type": "function"
    },
    {
      "inputs": [
        {
          "internalType": "address",
          "name": "_addr",
          "type": "address"
        }
      ],
      "name": "getBalanceForAddress",
      "outputs": [
        {
          "internalType": "uint256",
          "name": "",
          "type": "uint256"
        }
      ],
      "stateMutability": "view",
      "type": "function"
    },
    {
      "inputs": [
        {
          "internalType": "address",
          "name": "_destination",
          "type": "address"
        }
      ],
      "name": "sendEth",
      "outputs": [],
      "stateMutability": "payable",
      "type": "function"
    }
  ],
  "bytecode": "0x608060405234801561001057600080fd5b506104dd806100206000396000f3fe60806040526004361061003f5760003560e01c806312065fe01461004457806334c901af1461006f57806376a54c6014610098578063b24046f5146100b4575b600080fd5b34801561005057600080fd5b506100596100f1565b60405161006691906102cd565b60405180910390f35b34801561007b57600080fd5b506100966004803603810190610091919061034b565b610131565b005b6100b260048036038101906100ad919061034b565b6101e3565b005b3480156100c057600080fd5b506100db60048036038101906100d6919061034b565b610293565b6040516100e891906102cd565b60405180910390f35b60008060009054906101000a900473ffffffffffffffffffffffffffffffffffffffff1673ffffffffffffffffffffffffffffffffffffffff1631905090565b600073ffffffffffffffffffffffffffffffffffffffff168173ffffffffffffffffffffffffffffffffffffffff16036101a0576040517f08c379a0000000000000000000000000000000000000000000000000000000008152600401610197906103d5565b60405180910390fd5b806000806101000a81548173ffffffffffffffffffffffffffffffffffffffff021916908373ffffffffffffffffffffffffffffffffffffffff16021790555050565b60008173ffffffffffffffffffffffffffffffffffffffff163460405161020990610426565b60006040518083038185875af1925050503d8060008114610246576040519150601f19603f3d011682016040523d82523d6000602084013e61024b565b606091505b505090508061028f576040517f08c379a000000000000000000000000000000000000000000000000000000000815260040161028690610487565b60405180910390fd5b5050565b60008173ffffffffffffffffffffffffffffffffffffffff16319050919050565b6000819050919050565b6102c7816102b4565b82525050565b60006020820190506102e260008301846102be565b92915050565b600080fd5b600073ffffffffffffffffffffffffffffffffffffffff82169050919050565b6000610318826102ed565b9050919050565b6103288161030d565b811461033357600080fd5b50565b6000813590506103458161031f565b92915050565b600060208284031215610361576103606102e8565b5b600061036f84828501610336565b91505092915050565b600082825260208201905092915050565b7f43616e2774207365742061646472657373203000000000000000000000000000600082015250565b60006103bf601383610378565b91506103ca82610389565b602082019050919050565b600060208201905081810360008301526103ee816103b2565b9050919050565b600081905092915050565b50565b60006104106000836103f5565b915061041b82610400565b600082019050919050565b600061043182610403565b9150819050919050565b7f657468206e6f6e207472616e7366c3a972c3a973000000000000000000000000600082015250565b6000610471601483610378565b915061047c8261043b565b602082019050919050565b600060208201905081810360008301526104a081610464565b905091905056fea26469706673582212207caa2d4a22faab66cb95eb9a232a491b493660ff73552c256f2596b0d723f5d964736f6c63430008110033",
  "immutableReferences": {},
  "source": "// SPDX-License-Identifier: MIT\npragma solidity  ^0.8.7;\n\ncontract Ex1 {\n    address state;\n\n    function setState(address _state) public {\n        require(_state != address(0), \"Can't set address 0\");\n\n        state = _state;\n    }\n\n    function getBalance() public view returns(uint) {\n        return state.balance;\n    }\n\n    function getBalanceForAddress(address _addr) public view returns(uint) {\n        return _addr.balance;\n    }\n\n    function sendEth (address _destination) payable  public {\n        (bool sent,) = payable(_destination).call{value:msg.value}(\"\");\n        require(sent, unicode\"eth non transfrs\");\n    }\n}",
  "sourcePath": "/home/ted/repositories/rinkeby/packages/rinkeby-sandbox-contracts/contracts/exercices/Exercice1.sol",
  "compiler": {
    "name": "solc",
    "version": "0.8.17+commit.8df45f5f.Emscripten.clang"
  },
  "schemaVersion": "3.4.10",
  "updatedAt": "2022-10-14T11:50:40.064Z",
  "devdoc": {
    "kind": "dev",
    "methods": {},
    "version": 1
  },
  "userdoc": {
    "kind": "user",
    "methods": {},
    "version": 1
  }
}