{
  "contractName": "Existing",
  "abi": [
    {
      "inputs": [
        {
          "internalType": "address",
          "name": "_addr",
          "type": "address"
        }
      ],
      "name": "call",
      "outputs": [],
      "stateMutability": "nonpayable",
      "type": "function"
    },
    {
      "inputs": [],
      "name": "getA",
      "outputs": [
        {
          "internalType": "uint256",
          "name": "result",
          "type": "uint256"
        }
      ],
      "stateMutability": "view",
      "type": "function"
    },
    {
      "inputs": [
        {
          "internalType": "uint256",
          "name": "_val",
          "type": "uint256"
        }
      ],
      "name": "setA",
      "outputs": [],
      "stateMutability": "nonpayable",
      "type": "function"
    }
  ],
  "bytecode": "0x608060405234801561001057600080fd5b50610399806100206000396000f3fe608060405234801561001057600080fd5b50600436106100415760003560e01c8063d46300fd14610046578063ee919d5014610064578063f55332ab14610080575b600080fd5b61004e61009c565b60405161005b919061021d565b60405180910390f35b61007e60048036038101906100799190610269565b610133565b005b61009a600480360381019061009591906102f4565b6101c1565b005b60008060009054906101000a900473ffffffffffffffffffffffffffffffffffffffff1673ffffffffffffffffffffffffffffffffffffffff16636d4ce63c6040518163ffffffff1660e01b8152600401602060405180830381865afa15801561010a573d6000803e3d6000fd5b505050506040513d601f19601f8201168201806040525081019061012e9190610336565b905090565b60008054906101000a900473ffffffffffffffffffffffffffffffffffffffff1673ffffffffffffffffffffffffffffffffffffffff166360fe47b1826040518263ffffffff1660e01b815260040161018c919061021d565b600060405180830381600087803b1580156101a657600080fd5b505af11580156101ba573d6000803e3d6000fd5b5050505050565b806000806101000a81548173ffffffffffffffffffffffffffffffffffffffff021916908373ffffffffffffffffffffffffffffffffffffffff16021790555050565b6000819050919050565b61021781610204565b82525050565b6000602082019050610232600083018461020e565b92915050565b600080fd5b61024681610204565b811461025157600080fd5b50565b6000813590506102638161023d565b92915050565b60006020828403121561027f5761027e610238565b5b600061028d84828501610254565b91505092915050565b600073ffffffffffffffffffffffffffffffffffffffff82169050919050565b60006102c182610296565b9050919050565b6102d1816102b6565b81146102dc57600080fd5b50565b6000813590506102ee816102c8565b92915050565b60006020828403121561030a57610309610238565b5b6000610318848285016102df565b91505092915050565b6000815190506103308161023d565b92915050565b60006020828403121561034c5761034b610238565b5b600061035a84828501610321565b9150509291505056fea26469706673582212203b32ac22555708df98ea52ff8153f3763bbc438b12b9971355a67dc2bf1a067064736f6c63430008110033",
  "immutableReferences": {},
  "source": "// SPDX-License-Identifier: GPL-3.0\npragma solidity 0.8.17;\n\ncontract Deployed{\n    function set (uint num) public {}\n    function get() public view returns (uint){}\n}\n\ncontract Existing {\n\n    Deployed dc;\n\n    function call(address _addr) public {\n        dc = Deployed (_addr);\n    }\n\n    function getA () public view returns (uint result){\n        return dc.get();\n    }\n\n    function setA(uint _val) public{\n        dc.set(_val);\n    }\n\n}",
  "sourcePath": "/home/ted/repositories/rinkeby/packages/rinkeby-sandbox-contracts/contracts/corrections/Deployed.sol",
  "compiler": {
    "name": "solc",
    "version": "0.8.17+commit.8df45f5f.Emscripten.clang"
  },
  "schemaVersion": "3.4.10",
  "updatedAt": "2022-10-18T16:38:09.256Z",
  "devdoc": {
    "kind": "dev",
    "methods": {},
    "version": 1
  },
  "userdoc": {
    "kind": "user",
    "methods": {},
    "version": 1
  }
}