{
  "contractName": "GuessAndWin",
  "abi": [
    {
      "inputs": [],
      "stateMutability": "nonpayable",
      "type": "constructor"
    },
    {
      "anonymous": false,
      "inputs": [
        {
          "indexed": false,
          "internalType": "address",
          "name": "_admin",
          "type": "address"
        }
      ],
      "name": "GameRestarted",
      "type": "event"
    },
    {
      "anonymous": false,
      "inputs": [
        {
          "indexed": true,
          "internalType": "address",
          "name": "previousOwner",
          "type": "address"
        },
        {
          "indexed": true,
          "internalType": "address",
          "name": "newOwner",
          "type": "address"
        }
      ],
      "name": "OwnershipTransferred",
      "type": "event"
    },
    {
      "anonymous": false,
      "inputs": [
        {
          "indexed": false,
          "internalType": "address",
          "name": "_player",
          "type": "address"
        },
        {
          "indexed": false,
          "internalType": "string",
          "name": "_word",
          "type": "string"
        }
      ],
      "name": "PlayerWon",
      "type": "event"
    },
    {
      "inputs": [],
      "name": "owner",
      "outputs": [
        {
          "internalType": "address",
          "name": "",
          "type": "address"
        }
      ],
      "stateMutability": "view",
      "type": "function"
    },
    {
      "inputs": [],
      "name": "renounceOwnership",
      "outputs": [],
      "stateMutability": "nonpayable",
      "type": "function"
    },
    {
      "inputs": [
        {
          "internalType": "address",
          "name": "newOwner",
          "type": "address"
        }
      ],
      "name": "transferOwnership",
      "outputs": [],
      "stateMutability": "nonpayable",
      "type": "function"
    },
    {
      "inputs": [],
      "name": "newPlayer",
      "outputs": [],
      "stateMutability": "nonpayable",
      "type": "function"
    },
    {
      "inputs": [
        {
          "internalType": "string",
          "name": "_word",
          "type": "string"
        },
        {
          "internalType": "string",
          "name": "_indice",
          "type": "string"
        }
      ],
      "name": "defineWordAndIndice",
      "outputs": [],
      "stateMutability": "nonpayable",
      "type": "function"
    },
    {
      "inputs": [],
      "name": "getIndice",
      "outputs": [
        {
          "internalType": "string",
          "name": "",
          "type": "string"
        }
      ],
      "stateMutability": "view",
      "type": "function"
    },
    {
      "inputs": [
        {
          "internalType": "string",
          "name": "_word",
          "type": "string"
        }
      ],
      "name": "proposeWord",
      "outputs": [
        {
          "internalType": "bool",
          "name": "",
          "type": "bool"
        }
      ],
      "stateMutability": "nonpayable",
      "type": "function"
    },
    {
      "inputs": [
        {
          "internalType": "address",
          "name": "_newAdmin",
          "type": "address"
        }
      ],
      "name": "newGame",
      "outputs": [],
      "stateMutability": "nonpayable",
      "type": "function"
    }
  ],
  "bytecode": "0x608060405234801561001057600080fd5b5061002d61002261007360201b60201c565b61007b60201b60201c565b33600160006101000a81548173ffffffffffffffffffffffffffffffffffffffff021916908373ffffffffffffffffffffffffffffffffffffffff16021790555061013f565b600033905090565b60008060009054906101000a900473ffffffffffffffffffffffffffffffffffffffff169050816000806101000a81548173ffffffffffffffffffffffffffffffffffffffff021916908373ffffffffffffffffffffffffffffffffffffffff1602179055508173ffffffffffffffffffffffffffffffffffffffff168173ffffffffffffffffffffffffffffffffffffffff167f8be0079c531659141344cd1fd0a4f28419497f9722a3daafe3b4186f6b6457e060405160405180910390a35050565b61151b8061014e6000396000f3fe608060405234801561001057600080fd5b50600436106100885760003560e01c8063c2e0b1e61161005b578063c2e0b1e6146100ef578063df7b01c61461010b578063f008179d14610127578063f2fde38b1461014557610088565b8063715018a61461008d57806375479c34146100975780638da5cb5b146100a1578063bc3ba76c146100bf575b600080fd5b610095610161565b005b61009f610175565b005b6100a96102fd565b6040516100b69190610a07565b60405180910390f35b6100d960048036038101906100d49190610b7c565b610326565b6040516100e69190610be0565b60405180910390f35b61010960048036038101906101049190610c27565b6105fe565b005b61012560048036038101906101209190610c54565b610699565b005b61012f6106c5565b60405161013c9190610d4b565b60405180910390f35b61015f600480360381019061015a9190610c27565b6107f9565b005b61016961087c565b61017360006108fa565b565b6000151560026000600354815260200190815260200160002060003373ffffffffffffffffffffffffffffffffffffffff1673ffffffffffffffffffffffffffffffffffffffff16815260200190815260200160002060000160009054906101000a900460ff1615151461021e576040517f08c379a000000000000000000000000000000000000000000000000000000000815260040161021590610db9565b60405180910390fd5b6040518060600160405280600115158152602001600060ff1681526020016040518060200160405280600081525081525060026000600354815260200190815260200160002060003373ffffffffffffffffffffffffffffffffffffffff1673ffffffffffffffffffffffffffffffffffffffff16815260200190815260200160002060008201518160000160006101000a81548160ff02191690831515021790555060208201518160000160016101000a81548160ff021916908360ff16021790555060408201518160010190816102f79190610fef565b50905050565b60008060009054906101000a900473ffffffffffffffffffffffffffffffffffffffff16905090565b600060026000600354815260200190815260200160002060003373ffffffffffffffffffffffffffffffffffffffff1673ffffffffffffffffffffffffffffffffffffffff16815260200190815260200160002060000160009054906101000a900460ff166103ca576040517f08c379a00000000000000000000000000000000000000000000000000000000081526004016103c19061110d565b60405180910390fd5b600360026000600354815260200190815260200160002060003373ffffffffffffffffffffffffffffffffffffffff1673ffffffffffffffffffffffffffffffffffffffff16815260200190815260200160002060000160019054906101000a900460ff1660ff1610610472576040517f08c379a000000000000000000000000000000000000000000000000000000000815260040161046990611179565b60405180910390fd5b60026000600354815260200190815260200160002060003373ffffffffffffffffffffffffffffffffffffffff1673ffffffffffffffffffffffffffffffffffffffff168152602001908152602001600020600001600181819054906101000a900460ff16809291906104e4906111d5565b91906101000a81548160ff021916908360ff160217905550508160026000600354815260200190815260200160002060003373ffffffffffffffffffffffffffffffffffffffff1673ffffffffffffffffffffffffffffffffffffffff168152602001908152602001600020600101908161055f9190610fef565b5060006004604051602001610574919061128c565b604051602081830303815290604052805190602001208360405160200161059b91906112d4565b6040516020818303038152906040528051906020012014905080156105f5577fb2d622d09a0b6dda2e86bc41135d5f1462397cde0b7e3476bc92865e98405c023360046040516105ec92919061136f565b60405180910390a15b80915050919050565b61060661087c565b80600160006101000a81548173ffffffffffffffffffffffffffffffffffffffff021916908373ffffffffffffffffffffffffffffffffffffffff1602179055506003600081548092919061065a9061139f565b91905055507f381778991636d7ccceb5dd63f347dc881843f9b038e9d2e004621aab8bbfb8e88160405161068e9190610a07565b60405180910390a150565b6106a161087c565b81600490816106b09190610fef565b5080600590816106c09190610fef565b505050565b606060026000600354815260200190815260200160002060003373ffffffffffffffffffffffffffffffffffffffff1673ffffffffffffffffffffffffffffffffffffffff16815260200190815260200160002060000160009054906101000a900460ff16610769576040517f08c379a00000000000000000000000000000000000000000000000000000000081526004016107609061110d565b60405180910390fd5b6005805461077690610e08565b80601f01602080910402602001604051908101604052809291908181526020018280546107a290610e08565b80156107ef5780601f106107c4576101008083540402835291602001916107ef565b820191906000526020600020905b8154815290600101906020018083116107d257829003601f168201915b5050505050905090565b61080161087c565b600073ffffffffffffffffffffffffffffffffffffffff168173ffffffffffffffffffffffffffffffffffffffff1603610870576040517f08c379a000000000000000000000000000000000000000000000000000000000815260040161086790611459565b60405180910390fd5b610879816108fa565b50565b6108846109be565b73ffffffffffffffffffffffffffffffffffffffff166108a26102fd565b73ffffffffffffffffffffffffffffffffffffffff16146108f8576040517f08c379a00000000000000000000000000000000000000000000000000000000081526004016108ef906114c5565b60405180910390fd5b565b60008060009054906101000a900473ffffffffffffffffffffffffffffffffffffffff169050816000806101000a81548173ffffffffffffffffffffffffffffffffffffffff021916908373ffffffffffffffffffffffffffffffffffffffff1602179055508173ffffffffffffffffffffffffffffffffffffffff168173ffffffffffffffffffffffffffffffffffffffff167f8be0079c531659141344cd1fd0a4f28419497f9722a3daafe3b4186f6b6457e060405160405180910390a35050565b600033905090565b600073ffffffffffffffffffffffffffffffffffffffff82169050919050565b60006109f1826109c6565b9050919050565b610a01816109e6565b82525050565b6000602082019050610a1c60008301846109f8565b92915050565b6000604051905090565b600080fd5b600080fd5b600080fd5b600080fd5b6000601f19601f8301169050919050565b7f4e487b7100000000000000000000000000000000000000000000000000000000600052604160045260246000fd5b610a8982610a40565b810181811067ffffffffffffffff82111715610aa857610aa7610a51565b5b80604052505050565b6000610abb610a22565b9050610ac78282610a80565b919050565b600067ffffffffffffffff821115610ae757610ae6610a51565b5b610af082610a40565b9050602081019050919050565b82818337600083830152505050565b6000610b1f610b1a84610acc565b610ab1565b905082815260208101848484011115610b3b57610b3a610a3b565b5b610b46848285610afd565b509392505050565b600082601f830112610b6357610b62610a36565b5b8135610b73848260208601610b0c565b91505092915050565b600060208284031215610b9257610b91610a2c565b5b600082013567ffffffffffffffff811115610bb057610baf610a31565b5b610bbc84828501610b4e565b91505092915050565b60008115159050919050565b610bda81610bc5565b82525050565b6000602082019050610bf56000830184610bd1565b92915050565b610c04816109e6565b8114610c0f57600080fd5b50565b600081359050610c2181610bfb565b92915050565b600060208284031215610c3d57610c3c610a2c565b5b6000610c4b84828501610c12565b91505092915050565b60008060408385031215610c6b57610c6a610a2c565b5b600083013567ffffffffffffffff811115610c8957610c88610a31565b5b610c9585828601610b4e565b925050602083013567ffffffffffffffff811115610cb657610cb5610a31565b5b610cc285828601610b4e565b9150509250929050565b600081519050919050565b600082825260208201905092915050565b60005b83811015610d06578082015181840152602081019050610ceb565b60008484015250505050565b6000610d1d82610ccc565b610d278185610cd7565b9350610d37818560208601610ce8565b610d4081610a40565b840191505092915050565b60006020820190508181036000830152610d658184610d12565b905092915050565b7f506c6179657220616c7265616479207265676973746572656400000000000000600082015250565b6000610da3601983610cd7565b9150610dae82610d6d565b602082019050919050565b60006020820190508181036000830152610dd281610d96565b9050919050565b7f4e487b7100000000000000000000000000000000000000000000000000000000600052602260045260246000fd5b60006002820490506001821680610e2057607f821691505b602082108103610e3357610e32610dd9565b5b50919050565b60008190508160005260206000209050919050565b60006020601f8301049050919050565b600082821b905092915050565b600060088302610e9b7fffffffffffffffffffffffffffffffffffffffffffffffffffffffffffffffff82610e5e565b610ea58683610e5e565b95508019841693508086168417925050509392505050565b6000819050919050565b6000819050919050565b6000610eec610ee7610ee284610ebd565b610ec7565b610ebd565b9050919050565b6000819050919050565b610f0683610ed1565b610f1a610f1282610ef3565b848454610e6b565b825550505050565b600090565b610f2f610f22565b610f3a818484610efd565b505050565b5b81811015610f5e57610f53600082610f27565b600181019050610f40565b5050565b601f821115610fa357610f7481610e39565b610f7d84610e4e565b81016020851015610f8c578190505b610fa0610f9885610e4e565b830182610f3f565b50505b505050565b600082821c905092915050565b6000610fc660001984600802610fa8565b1980831691505092915050565b6000610fdf8383610fb5565b9150826002028217905092915050565b610ff882610ccc565b67ffffffffffffffff81111561101157611010610a51565b5b61101b8254610e08565b611026828285610f62565b600060209050601f8311600181146110595760008415611047578287015190505b6110518582610fd3565b8655506110b9565b601f19841661106786610e39565b60005b8281101561108f5784890151825560018201915060208501945060208101905061106a565b868310156110ac57848901516110a8601f891682610fb5565b8355505b6001600288020188555050505b505050505050565b7f43616c6c6572206973206e6f74207265676973746572656420706c6179657200600082015250565b60006110f7601f83610cd7565b9150611102826110c1565b602082019050919050565b60006020820190508181036000830152611126816110ea565b9050919050565b7f506c6179657220616c726561647920747269656420332074696d657300000000600082015250565b6000611163601c83610cd7565b915061116e8261112d565b602082019050919050565b6000602082019050818103600083015261119281611156565b9050919050565b7f4e487b7100000000000000000000000000000000000000000000000000000000600052601160045260246000fd5b600060ff82169050919050565b60006111e0826111c8565b915060ff82036111f3576111f2611199565b5b600182019050919050565b600081905092915050565b6000815461121681610e08565b61122081866111fe565b9450600182166000811461123b576001811461125057611283565b60ff1983168652811515820286019350611283565b61125985610e39565b60005b8381101561127b5781548189015260018201915060208101905061125c565b838801955050505b50505092915050565b60006112988284611209565b915081905092915050565b60006112ae82610ccc565b6112b881856111fe565b93506112c8818560208601610ce8565b80840191505092915050565b60006112e082846112a3565b915081905092915050565b600081546112f881610e08565b6113028186610cd7565b9450600182166000811461131d576001811461133357611366565b60ff198316865281151560200286019350611366565b61133c85610e39565b60005b8381101561135e5781548189015260018201915060208101905061133f565b808801955050505b50505092915050565b600060408201905061138460008301856109f8565b818103602083015261139681846112eb565b90509392505050565b60006113aa82610ebd565b91507fffffffffffffffffffffffffffffffffffffffffffffffffffffffffffffffff82036113dc576113db611199565b5b600182019050919050565b7f4f776e61626c653a206e6577206f776e657220697320746865207a65726f206160008201527f6464726573730000000000000000000000000000000000000000000000000000602082015250565b6000611443602683610cd7565b915061144e826113e7565b604082019050919050565b6000602082019050818103600083015261147281611436565b9050919050565b7f4f776e61626c653a2063616c6c6572206973206e6f7420746865206f776e6572600082015250565b60006114af602083610cd7565b91506114ba82611479565b602082019050919050565b600060208201905081810360008301526114de816114a2565b905091905056fea264697066735822122012e011ac75d720ae4add709593726b38a8ebd979337f49677907b76d943c68df64736f6c63430008110033",
  "immutableReferences": {},
  "source": "// SPDX-License-Identifier: GPL-3.0\npragma solidity 0.8.17.0;\n\nimport '@openzeppelin/contracts/access/Ownable.sol';\n\ncontract GuessAndWin is Ownable {\n\n    struct Player {\n        bool isRegistered;\n        uint8 tries;\n        string proposedWord;\n    }\n\n    address admin;\n\n    mapping(uint => mapping(address => Player)) private games;\n    uint private currentGame;\n\n    string private word;\n    string private indice;\n    \n    event PlayerWon(address _player, string _word);\n    event GameRestarted(address _admin);\n\n    constructor() {\n        admin = msg.sender;\n    }\n    \n    modifier onlyPlayer() {\n        require(games[currentGame][msg.sender].isRegistered, 'Caller is not registered player');\n        _;\n    }\n\n    function newPlayer() external {\n        require(games[currentGame][msg.sender].isRegistered == false, 'Player already registered');\n        games[currentGame][msg.sender] = Player(true, 0, '');\n    }\n\n    function defineWordAndIndice(string memory _word, string memory _indice) external onlyOwner {\n        word = _word;\n        indice = _indice;\n    }\n\n    function getIndice() external view onlyPlayer returns (string memory) {\n        return indice;\n    }\n\n    function proposeWord(string memory _word) external onlyPlayer returns (bool) {\n        require(games[currentGame][msg.sender].tries < 3, 'Player already tried 3 times');\n        games[currentGame][msg.sender].tries++;\n        games[currentGame][msg.sender].proposedWord = _word;\n        bool correct = keccak256(abi.encodePacked(_word)) == keccak256(abi.encodePacked(word));\n        if (correct) {\n            emit PlayerWon(msg.sender, word);\n        }\n        return correct;\n    }\n\n    function newGame(address _newAdmin) external onlyOwner {\n        admin = _newAdmin;\n        currentGame++;\n        emit GameRestarted(_newAdmin);\n    }\n\n}",
  "sourcePath": "/home/ted/repositories/rinkeby/packages/rinkeby-sandbox-contracts/contracts/exercices/GuessAndWin.sol",
  "compiler": {
    "name": "solc",
    "version": "0.8.17+commit.8df45f5f.Emscripten.clang"
  },
  "schemaVersion": "3.4.10",
  "updatedAt": "2022-10-20T13:05:01.796Z",
  "devdoc": {
    "kind": "dev",
    "methods": {
      "owner()": {
        "details": "Returns the address of the current owner."
      },
      "renounceOwnership()": {
        "details": "Leaves the contract without owner. It will not be possible to call `onlyOwner` functions anymore. Can only be called by the current owner. NOTE: Renouncing ownership will leave the contract without an owner, thereby removing any functionality that is only available to the owner."
      },
      "transferOwnership(address)": {
        "details": "Transfers ownership of the contract to a new account (`newOwner`). Can only be called by the current owner."
      }
    },
    "version": 1
  },
  "userdoc": {
    "kind": "user",
    "methods": {},
    "version": 1
  }
}