{
  "contractName": "Notes",
  "abi": [
    {
      "anonymous": false,
      "inputs": [
        {
          "indexed": true,
          "internalType": "address",
          "name": "previousOwner",
          "type": "address"
        },
        {
          "indexed": true,
          "internalType": "address",
          "name": "newOwner",
          "type": "address"
        }
      ],
      "name": "OwnershipTransferred",
      "type": "event"
    },
    {
      "inputs": [],
      "name": "owner",
      "outputs": [
        {
          "internalType": "address",
          "name": "",
          "type": "address"
        }
      ],
      "stateMutability": "view",
      "type": "function"
    },
    {
      "inputs": [],
      "name": "renounceOwnership",
      "outputs": [],
      "stateMutability": "nonpayable",
      "type": "function"
    },
    {
      "inputs": [
        {
          "internalType": "address",
          "name": "newOwner",
          "type": "address"
        }
      ],
      "name": "transferOwnership",
      "outputs": [],
      "stateMutability": "nonpayable",
      "type": "function"
    },
    {
      "inputs": [
        {
          "internalType": "enum Notes.Subject",
          "name": "_subject",
          "type": "uint8"
        }
      ],
      "name": "registerTeacher",
      "outputs": [],
      "stateMutability": "nonpayable",
      "type": "function"
    },
    {
      "inputs": [
        {
          "internalType": "string",
          "name": "_studentName",
          "type": "string"
        },
        {
          "internalType": "uint8",
          "name": "_note",
          "type": "uint8"
        }
      ],
      "name": "addNote",
      "outputs": [],
      "stateMutability": "nonpayable",
      "type": "function"
    },
    {
      "inputs": [
        {
          "internalType": "string",
          "name": "_studentName",
          "type": "string"
        },
        {
          "internalType": "uint8",
          "name": "_note",
          "type": "uint8"
        },
        {
          "internalType": "uint8",
          "name": "_noteIndex",
          "type": "uint8"
        }
      ],
      "name": "setNote",
      "outputs": [],
      "stateMutability": "nonpayable",
      "type": "function"
    },
    {
      "inputs": [
        {
          "internalType": "string",
          "name": "_studentName",
          "type": "string"
        },
        {
          "internalType": "enum Notes.Subject",
          "name": "_subject",
          "type": "uint8"
        },
        {
          "internalType": "uint8",
          "name": "_noteIndex",
          "type": "uint8"
        }
      ],
      "name": "getNote",
      "outputs": [
        {
          "internalType": "uint8",
          "name": "",
          "type": "uint8"
        }
      ],
      "stateMutability": "view",
      "type": "function"
    },
    {
      "inputs": [
        {
          "internalType": "string",
          "name": "_studentName",
          "type": "string"
        },
        {
          "internalType": "enum Notes.Subject",
          "name": "_subject",
          "type": "uint8"
        }
      ],
      "name": "getStudentSubjectAverage",
      "outputs": [
        {
          "internalType": "uint8",
          "name": "",
          "type": "uint8"
        }
      ],
      "stateMutability": "view",
      "type": "function"
    },
    {
      "inputs": [
        {
          "internalType": "string",
          "name": "_studentName",
          "type": "string"
        }
      ],
      "name": "getStudentAverage",
      "outputs": [
        {
          "internalType": "uint8",
          "name": "",
          "type": "uint8"
        }
      ],
      "stateMutability": "view",
      "type": "function"
    },
    {
      "inputs": [
        {
          "internalType": "enum Notes.Subject",
          "name": "_subject",
          "type": "uint8"
        }
      ],
      "name": "getGlobalSubjectAverage",
      "outputs": [
        {
          "internalType": "uint8",
          "name": "",
          "type": "uint8"
        }
      ],
      "stateMutability": "view",
      "type": "function"
    },
    {
      "inputs": [],
      "name": "getGlobalAverage",
      "outputs": [
        {
          "internalType": "uint8",
          "name": "",
          "type": "uint8"
        }
      ],
      "stateMutability": "view",
      "type": "function"
    }
  ],
  "bytecode": "0x60806040523480156200001157600080fd5b5062000032620000266200003860201b60201c565b6200004060201b60201c565b62000104565b600033905090565b60008060009054906101000a900473ffffffffffffffffffffffffffffffffffffffff169050816000806101000a81548173ffffffffffffffffffffffffffffffffffffffff021916908373ffffffffffffffffffffffffffffffffffffffff1602179055508173ffffffffffffffffffffffffffffffffffffffff168173ffffffffffffffffffffffffffffffffffffffff167f8be0079c531659141344cd1fd0a4f28419497f9722a3daafe3b4186f6b6457e060405160405180910390a35050565b61255a80620001146000396000f3fe608060405234801561001057600080fd5b50600436106100a95760003560e01c80638da5cb5b116100715780638da5cb5b1461016657806399b9a34c14610184578063c04a8f7d146101b4578063d4c5ae68146101d0578063f2fde38b146101ec578063ffc434ad14610208576100a9565b8063057a0629146100ae5780632c70b4db146100de578063715018a61461010e5780638520c08d1461011857806389ad042014610136575b600080fd5b6100c860048036038101906100c39190611adf565b610224565b6040516100d59190611b62565b60405180910390f35b6100f860048036038101906100f39190611b7d565b6102bd565b6040516101059190611b62565b60405180910390f35b61011661042b565b005b61012061043f565b60405161012d9190611b62565b60405180910390f35b610150600480360381019061014b9190611baa565b61077b565b60405161015d9190611b62565b60405180910390f35b61016e610a71565b60405161017b9190611c38565b60405180910390f35b61019e60048036038101906101999190611c53565b610a9a565b6040516101ab9190611b62565b60405180910390f35b6101ce60048036038101906101c99190611b7d565b610bf0565b005b6101ea60048036038101906101e59190611cb3565b610d2f565b005b61020660048036038101906102019190611d53565b61125c565b005b610222600480360381019061021d9190611d80565b6112df565b005b600060028585604051610238929190611e1f565b9081526020016040518091039020600001600084600281111561025e5761025d611e38565b5b60028111156102705761026f611e38565b5b81526020019081526020016000208260ff168154811061029357610292611e67565b5b90600052602060002090602091828204019190069054906101000a900460ff169050949350505050565b600080600080600090505b6003805490508160ff161015610415576000600260038360ff16815481106102f3576102f2611e67565b5b9060005260206000200160405161030a9190611f8e565b9081526020016040518091039020905060005b81600001600088600281111561033657610335611e38565b5b600281111561034857610347611e38565b5b8152602001908152602001600020805490508160ff1610156104005781600001600088600281111561037d5761037c611e38565b5b600281111561038f5761038e611e38565b5b81526020019081526020016000208160ff16815481106103b2576103b1611e67565b5b90600052602060002090602091828204019190069054906101000a900460ff16856103dd9190611fd4565b945083806103ea90612009565b94505080806103f890612009565b91505061031d565b5050808061040d90612009565b9150506102c8565b5080826104229190612061565b92505050919050565b610433611814565b61043d6000611892565b565b600080600080600090505b6003805490508160ff161015610767576000600260038360ff168154811061047557610474611e67565b5b9060005260206000200160405161048c9190611f8e565b9081526020016040518091039020905060005b816000016000600160028111156104b9576104b8611e38565b5b60028111156104cb576104ca611e38565b5b8152602001908152602001600020805490508160ff161015610584578160000160006001600281111561050157610500611e38565b5b600281111561051357610512611e38565b5b81526020019081526020016000208160ff168154811061053657610535611e67565b5b90600052602060002090602091828204019190069054906101000a900460ff16856105619190611fd4565b9450838061056e90612009565b945050808061057c90612009565b91505061049f565b5060005b8160000160008060028111156105a1576105a0611e38565b5b60028111156105b3576105b2611e38565b5b8152602001908152602001600020805490508160ff16101561066b578160000160008060028111156105e8576105e7611e38565b5b60028111156105fa576105f9611e38565b5b81526020019081526020016000208160ff168154811061061d5761061c611e67565b5b90600052602060002090602091828204019190069054906101000a900460ff16856106489190611fd4565b9450838061065590612009565b945050808061066390612009565b915050610588565b5060005b81600001600060028081111561068857610687611e38565b5b600281111561069a57610699611e38565b5b8152602001908152602001600020805490508160ff161015610752578160000160006002808111156106cf576106ce611e38565b5b60028111156106e1576106e0611e38565b5b81526020019081526020016000208160ff168154811061070457610703611e67565b5b90600052602060002090602091828204019190069054906101000a900460ff168561072f9190611fd4565b9450838061073c90612009565b945050808061074a90612009565b91505061066f565b5050808061075f90612009565b91505061044a565b5080826107749190612061565b9250505090565b60008060008060028686604051610793929190611e1f565b9081526020016040518091039020905060005b816000016000600160028111156107c0576107bf611e38565b5b60028111156107d2576107d1611e38565b5b8152602001908152602001600020805490508160ff16101561088b578160000160006001600281111561080857610807611e38565b5b600281111561081a57610819611e38565b5b81526020019081526020016000208160ff168154811061083d5761083c611e67565b5b90600052602060002090602091828204019190069054906101000a900460ff16846108689190611fd4565b9350828061087590612009565b935050808061088390612009565b9150506107a6565b5060005b8160000160008060028111156108a8576108a7611e38565b5b60028111156108ba576108b9611e38565b5b8152602001908152602001600020805490508160ff161015610972578160000160008060028111156108ef576108ee611e38565b5b600281111561090157610900611e38565b5b81526020019081526020016000208160ff168154811061092457610923611e67565b5b90600052602060002090602091828204019190069054906101000a900460ff168461094f9190611fd4565b9350828061095c90612009565b935050808061096a90612009565b91505061088f565b5060005b81600001600060028081111561098f5761098e611e38565b5b60028111156109a1576109a0611e38565b5b8152602001908152602001600020805490508160ff161015610a59578160000160006002808111156109d6576109d5611e38565b5b60028111156109e8576109e7611e38565b5b81526020019081526020016000208160ff1681548110610a0b57610a0a611e67565b5b90600052602060002090602091828204019190069054906101000a900460ff1684610a369190611fd4565b93508280610a4390612009565b9350508080610a5190612009565b915050610976565b508183610a669190612061565b935050505092915050565b60008060009054906101000a900473ffffffffffffffffffffffffffffffffffffffff16905090565b60008060028585604051610aaf929190611e1f565b90815260200160405180910390209050600080600090505b826000016000866002811115610ae057610adf611e38565b5b6002811115610af257610af1611e38565b5b8152602001908152602001600020805490508160ff161015610b9c57826000016000866002811115610b2757610b26611e38565b5b6002811115610b3957610b38611e38565b5b81526020019081526020016000208160ff1681548110610b5c57610b5b611e67565b5b90600052602060002090602091828204019190069054906101000a900460ff1682610b879190611fd4565b91508080610b9490612009565b915050610ac7565b50816000016000856002811115610bb657610bb5611e38565b5b6002811115610bc857610bc7611e38565b5b81526020019081526020016000208054905081610be59190612061565b925050509392505050565b600073ffffffffffffffffffffffffffffffffffffffff1660016000836002811115610c1f57610c1e611e38565b5b6002811115610c3157610c30611e38565b5b815260200190815260200160002060009054906101000a900473ffffffffffffffffffffffffffffffffffffffff1673ffffffffffffffffffffffffffffffffffffffff1614610cb6576040517f08c379a0000000000000000000000000000000000000000000000000000000008152600401610cad906120ef565b60405180910390fd5b3360016000836002811115610cce57610ccd611e38565b5b6002811115610ce057610cdf611e38565b5b815260200190815260200160002060006101000a81548173ffffffffffffffffffffffffffffffffffffffff021916908373ffffffffffffffffffffffffffffffffffffffff16021790555050565b60016000600280811115610d4657610d45611e38565b5b6002811115610d5857610d57611e38565b5b815260200190815260200160002060009054906101000a900473ffffffffffffffffffffffffffffffffffffffff1673ffffffffffffffffffffffffffffffffffffffff163373ffffffffffffffffffffffffffffffffffffffff161480610e42575060016000806002811115610dd257610dd1611e38565b5b6002811115610de457610de3611e38565b5b815260200190815260200160002060009054906101000a900473ffffffffffffffffffffffffffffffffffffffff1673ffffffffffffffffffffffffffffffffffffffff163373ffffffffffffffffffffffffffffffffffffffff16145b80610ed057506001600060016002811115610e6057610e5f611e38565b5b6002811115610e7257610e71611e38565b5b815260200190815260200160002060009054906101000a900473ffffffffffffffffffffffffffffffffffffffff1673ffffffffffffffffffffffffffffffffffffffff163373ffffffffffffffffffffffffffffffffffffffff16145b610f0f576040517f08c379a0000000000000000000000000000000000000000000000000000000008152600401610f069061215b565b60405180910390fd5b610f198484611956565b600060028585604051610f2d929190611e1f565b9081526020016040518091039020905060016000600280811115610f5457610f53611e38565b5b6002811115610f6657610f65611e38565b5b815260200190815260200160002060009054906101000a900473ffffffffffffffffffffffffffffffffffffffff1673ffffffffffffffffffffffffffffffffffffffff163373ffffffffffffffffffffffffffffffffffffffff16036110455782816000016000600280811115610fe157610fe0611e38565b5b6002811115610ff357610ff2611e38565b5b81526020019081526020016000208360ff168154811061101657611015611e67565b5b90600052602060002090602091828204019190066101000a81548160ff021916908360ff160217905550611255565b6001600080600281111561105c5761105b611e38565b5b600281111561106e5761106d611e38565b5b815260200190815260200160002060009054906101000a900473ffffffffffffffffffffffffffffffffffffffff1673ffffffffffffffffffffffffffffffffffffffff163373ffffffffffffffffffffffffffffffffffffffff160361114d57828160000160008060028111156110e9576110e8611e38565b5b60028111156110fb576110fa611e38565b5b81526020019081526020016000208360ff168154811061111e5761111d611e67565b5b90600052602060002090602091828204019190066101000a81548160ff021916908360ff160217905550611254565b600160006001600281111561116557611164611e38565b5b600281111561117757611176611e38565b5b815260200190815260200160002060009054906101000a900473ffffffffffffffffffffffffffffffffffffffff1673ffffffffffffffffffffffffffffffffffffffff163373ffffffffffffffffffffffffffffffffffffffff16036112535782816000016000600160028111156111f3576111f2611e38565b5b600281111561120557611204611e38565b5b81526020019081526020016000208360ff168154811061122857611227611e67565b5b90600052602060002090602091828204019190066101000a81548160ff021916908360ff1602179055505b5b5b5050505050565b611264611814565b600073ffffffffffffffffffffffffffffffffffffffff168173ffffffffffffffffffffffffffffffffffffffff16036112d3576040517f08c379a00000000000000000000000000000000000000000000000000000000081526004016112ca906121ed565b60405180910390fd5b6112dc81611892565b50565b600160006002808111156112f6576112f5611e38565b5b600281111561130857611307611e38565b5b815260200190815260200160002060009054906101000a900473ffffffffffffffffffffffffffffffffffffffff1673ffffffffffffffffffffffffffffffffffffffff163373ffffffffffffffffffffffffffffffffffffffff1614806113f257506001600080600281111561138257611381611e38565b5b600281111561139457611393611e38565b5b815260200190815260200160002060009054906101000a900473ffffffffffffffffffffffffffffffffffffffff1673ffffffffffffffffffffffffffffffffffffffff163373ffffffffffffffffffffffffffffffffffffffff16145b80611480575060016000600160028111156114105761140f611e38565b5b600281111561142257611421611e38565b5b815260200190815260200160002060009054906101000a900473ffffffffffffffffffffffffffffffffffffffff1673ffffffffffffffffffffffffffffffffffffffff163373ffffffffffffffffffffffffffffffffffffffff16145b6114bf576040517f08c379a00000000000000000000000000000000000000000000000000000000081526004016114b69061215b565b60405180910390fd5b6114c98383611956565b6000600284846040516114dd929190611e1f565b908152602001604051809103902090506001600060028081111561150457611503611e38565b5b600281111561151657611515611e38565b5b815260200190815260200160002060009054906101000a900473ffffffffffffffffffffffffffffffffffffffff1673ffffffffffffffffffffffffffffffffffffffff163373ffffffffffffffffffffffffffffffffffffffff16036115f8578060000160006002808111156115905761158f611e38565b5b60028111156115a2576115a1611e38565b5b81526020019081526020016000208290806001815401808255809150506001900390600052602060002090602091828204019190069091909190916101000a81548160ff021916908360ff16021790555061180e565b6001600080600281111561160f5761160e611e38565b5b600281111561162157611620611e38565b5b815260200190815260200160002060009054906101000a900473ffffffffffffffffffffffffffffffffffffffff1673ffffffffffffffffffffffffffffffffffffffff163373ffffffffffffffffffffffffffffffffffffffff16036117035780600001600080600281111561169b5761169a611e38565b5b60028111156116ad576116ac611e38565b5b81526020019081526020016000208290806001815401808255809150506001900390600052602060002090602091828204019190069091909190916101000a81548160ff021916908360ff16021790555061180d565b600160006001600281111561171b5761171a611e38565b5b600281111561172d5761172c611e38565b5b815260200190815260200160002060009054906101000a900473ffffffffffffffffffffffffffffffffffffffff1673ffffffffffffffffffffffffffffffffffffffff163373ffffffffffffffffffffffffffffffffffffffff160361180c57806000016000600160028111156117a8576117a7611e38565b5b60028111156117ba576117b9611e38565b5b81526020019081526020016000208290806001815401808255809150506001900390600052602060002090602091828204019190069091909190916101000a81548160ff021916908360ff1602179055505b5b5b50505050565b61181c611a0a565b73ffffffffffffffffffffffffffffffffffffffff1661183a610a71565b73ffffffffffffffffffffffffffffffffffffffff1614611890576040517f08c379a000000000000000000000000000000000000000000000000000000000815260040161188790612259565b60405180910390fd5b565b60008060009054906101000a900473ffffffffffffffffffffffffffffffffffffffff169050816000806101000a81548173ffffffffffffffffffffffffffffffffffffffff021916908373ffffffffffffffffffffffffffffffffffffffff1602179055508173ffffffffffffffffffffffffffffffffffffffff168173ffffffffffffffffffffffffffffffffffffffff167f8be0079c531659141344cd1fd0a4f28419497f9722a3daafe3b4186f6b6457e060405160405180910390a35050565b60028282604051611968929190611e1f565b908152602001604051809103902060010160009054906101000a900460ff16611a065760038282909180600181540180825580915050600190039060005260206000200160009091929091929091929091925091826119c8929190612454565b506001600283836040516119dd929190611e1f565b908152602001604051809103902060010160006101000a81548160ff0219169083151502179055505b5050565b600033905090565b600080fd5b600080fd5b600080fd5b600080fd5b600080fd5b60008083601f840112611a4157611a40611a1c565b5b8235905067ffffffffffffffff811115611a5e57611a5d611a21565b5b602083019150836001820283011115611a7a57611a79611a26565b5b9250929050565b60038110611a8e57600080fd5b50565b600081359050611aa081611a81565b92915050565b600060ff82169050919050565b611abc81611aa6565b8114611ac757600080fd5b50565b600081359050611ad981611ab3565b92915050565b60008060008060608587031215611af957611af8611a12565b5b600085013567ffffffffffffffff811115611b1757611b16611a17565b5b611b2387828801611a2b565b94509450506020611b3687828801611a91565b9250506040611b4787828801611aca565b91505092959194509250565b611b5c81611aa6565b82525050565b6000602082019050611b776000830184611b53565b92915050565b600060208284031215611b9357611b92611a12565b5b6000611ba184828501611a91565b91505092915050565b60008060208385031215611bc157611bc0611a12565b5b600083013567ffffffffffffffff811115611bdf57611bde611a17565b5b611beb85828601611a2b565b92509250509250929050565b600073ffffffffffffffffffffffffffffffffffffffff82169050919050565b6000611c2282611bf7565b9050919050565b611c3281611c17565b82525050565b6000602082019050611c4d6000830184611c29565b92915050565b600080600060408486031215611c6c57611c6b611a12565b5b600084013567ffffffffffffffff811115611c8a57611c89611a17565b5b611c9686828701611a2b565b93509350506020611ca986828701611a91565b9150509250925092565b60008060008060608587031215611ccd57611ccc611a12565b5b600085013567ffffffffffffffff811115611ceb57611cea611a17565b5b611cf787828801611a2b565b94509450506020611d0a87828801611aca565b9250506040611d1b87828801611aca565b91505092959194509250565b611d3081611c17565b8114611d3b57600080fd5b50565b600081359050611d4d81611d27565b92915050565b600060208284031215611d6957611d68611a12565b5b6000611d7784828501611d3e565b91505092915050565b600080600060408486031215611d9957611d98611a12565b5b600084013567ffffffffffffffff811115611db757611db6611a17565b5b611dc386828701611a2b565b93509350506020611dd686828701611aca565b9150509250925092565b600081905092915050565b82818337600083830152505050565b6000611e068385611de0565b9350611e13838584611deb565b82840190509392505050565b6000611e2c828486611dfa565b91508190509392505050565b7f4e487b7100000000000000000000000000000000000000000000000000000000600052602160045260246000fd5b7f4e487b7100000000000000000000000000000000000000000000000000000000600052603260045260246000fd5b7f4e487b7100000000000000000000000000000000000000000000000000000000600052602260045260246000fd5b60006002820490506001821680611edd57607f821691505b602082108103611ef057611eef611e96565b5b50919050565b60008190508160005260206000209050919050565b60008154611f1881611ec5565b611f228186611de0565b94506001821660008114611f3d5760018114611f5257611f85565b60ff1983168652811515820286019350611f85565b611f5b85611ef6565b60005b83811015611f7d57815481890152600182019150602081019050611f5e565b838801955050505b50505092915050565b6000611f9a8284611f0b565b915081905092915050565b7f4e487b7100000000000000000000000000000000000000000000000000000000600052601160045260246000fd5b6000611fdf82611aa6565b9150611fea83611aa6565b9250828201905060ff81111561200357612002611fa5565b5b92915050565b600061201482611aa6565b915060ff820361202757612026611fa5565b5b600182019050919050565b7f4e487b7100000000000000000000000000000000000000000000000000000000600052601260045260246000fd5b600061206c82611aa6565b915061207783611aa6565b92508261208757612086612032565b5b828204905092915050565b600082825260208201905092915050565b7f5465616368657220616c72656164792072656769737465726564000000000000600082015250565b60006120d9601a83612092565b91506120e4826120a3565b602082019050919050565b60006020820190508181036000830152612108816120cc565b9050919050565b7f6f6e6c79207465616368657273206772616e7465640000000000000000000000600082015250565b6000612145601583612092565b91506121508261210f565b602082019050919050565b6000602082019050818103600083015261217481612138565b9050919050565b7f4f776e61626c653a206e6577206f776e657220697320746865207a65726f206160008201527f6464726573730000000000000000000000000000000000000000000000000000602082015250565b60006121d7602683612092565b91506121e28261217b565b604082019050919050565b60006020820190508181036000830152612206816121ca565b9050919050565b7f4f776e61626c653a2063616c6c6572206973206e6f7420746865206f776e6572600082015250565b6000612243602083612092565b915061224e8261220d565b602082019050919050565b6000602082019050818103600083015261227281612236565b9050919050565b600082905092915050565b7f4e487b7100000000000000000000000000000000000000000000000000000000600052604160045260246000fd5b60006020601f8301049050919050565b600082821b905092915050565b6000600883026123007fffffffffffffffffffffffffffffffffffffffffffffffffffffffffffffffff826122c3565b61230a86836122c3565b95508019841693508086168417925050509392505050565b6000819050919050565b6000819050919050565b600061235161234c61234784612322565b61232c565b612322565b9050919050565b6000819050919050565b61236b83612336565b61237f61237782612358565b8484546122d0565b825550505050565b600090565b612394612387565b61239f818484612362565b505050565b5b818110156123c3576123b860008261238c565b6001810190506123a5565b5050565b601f821115612408576123d981611ef6565b6123e2846122b3565b810160208510156123f1578190505b6124056123fd856122b3565b8301826123a4565b50505b505050565b600082821c905092915050565b600061242b6000198460080261240d565b1980831691505092915050565b6000612444838361241a565b9150826002028217905092915050565b61245e8383612279565b67ffffffffffffffff81111561247757612476612284565b5b6124818254611ec5565b61248c8282856123c7565b6000601f8311600181146124bb57600084156124a9578287013590505b6124b38582612438565b86555061251b565b601f1984166124c986611ef6565b60005b828110156124f1578489013582556001820191506020850194506020810190506124cc565b8683101561250e578489013561250a601f89168261241a565b8355505b6001600288020188555050505b5050505050505056fea2646970667358221220c5fd5fad84632d3c6ada9a0030356216c4c636a0c1caa7876bb918b73ddca81364736f6c63430008110033",
  "immutableReferences": {},
  "source": "// SPDX-License-Identifier: GPL-3.0\npragma solidity 0.8.17.0;\n\nimport '@openzeppelin/contracts/access/Ownable.sol';\n\ncontract Notes is Ownable {\n\n    enum Subject {\n        Math,\n        Fr,\n        Bio\n    }\n\n    struct Student {\n        mapping(Subject => uint8[]) notes;\n        bool exists;\n    }\n\n    mapping(Subject => address) teachers;\n\n    mapping(string => Student) students;\n\n    string[] studentNames;\n\n    modifier onlyTeacher {\n        require(msg.sender == teachers[Subject.Bio] || msg.sender == teachers[Subject.Math] || msg.sender == teachers[Subject.Fr], 'only teachers granted');\n        _;\n    }\n\n    function registerTeacher(Subject _subject) external {\n        require(teachers[_subject] == address(0), 'Teacher already registered');\n        teachers[_subject] = msg.sender;\n    }\n\n    function addNote(string calldata _studentName, uint8 _note) external onlyTeacher {\n        registerStudentIfNotExist(_studentName);\n\n        Student storage student = students[_studentName];\n        if (msg.sender == teachers[Subject.Bio]) {\n            student.notes[Subject.Bio].push(_note);\n        } else if (msg.sender == teachers[Subject.Math]) {\n            student.notes[Subject.Math].push(_note);\n        } else if (msg.sender == teachers[Subject.Fr]) {\n            student.notes[Subject.Fr].push(_note);\n        }\n    }\n\n    function setNote(string calldata _studentName, uint8 _note, uint8 _noteIndex) external onlyTeacher {\n        registerStudentIfNotExist(_studentName);\n\n        Student storage student = students[_studentName];\n        if (msg.sender == teachers[Subject.Bio]) {\n            student.notes[Subject.Bio][_noteIndex] = _note;\n        } else if (msg.sender == teachers[Subject.Math]) {\n            student.notes[Subject.Math][_noteIndex] = _note;\n        } else if (msg.sender == teachers[Subject.Fr]) {\n            student.notes[Subject.Fr][_noteIndex] = _note;\n        }\n    }\n\n    function getNote(string calldata _studentName, Subject _subject, uint8 _noteIndex) external view returns (uint8) {\n        return students[_studentName].notes[_subject][_noteIndex];\n    }\n\n    function getStudentSubjectAverage(string calldata _studentName, Subject _subject) public view returns (uint8) {\n        Student storage student = students[_studentName];\n        uint8 sum;\n        for (uint8 i = 0; i < student.notes[_subject].length; i++) {\n            sum += student.notes[_subject][i];\n        }\n        return sum / uint8(student.notes[_subject].length);\n    }\n\n    function getStudentAverage(string calldata _studentName) public view returns (uint8) {\n        uint8 sum;\n        uint8 notesCount;\n\n        Student storage student = students[_studentName];\n\n        for (uint8 i = 0; i < student.notes[Subject.Fr].length; i++) {\n            sum += student.notes[Subject.Fr][i];\n            notesCount++;\n        }\n        for (uint8 i = 0; i < student.notes[Subject.Math].length; i++) {\n            sum += student.notes[Subject.Math][i];\n            notesCount++;\n        }\n        for (uint8 i = 0; i < student.notes[Subject.Bio].length; i++) {\n            sum += student.notes[Subject.Bio][i];\n            notesCount++;\n        }\n        return sum / uint8(notesCount);\n    }\n\n    function getGlobalSubjectAverage(Subject _subject) public view returns (uint8) {\n        uint8 sum;\n        uint8 notesCount;\n\n        for (uint8 i = 0; i < studentNames.length; i++) {\n            Student storage student = students[studentNames[i]];\n            for (uint8 j = 0; j < student.notes[_subject].length; j++) {\n                sum += student.notes[_subject][j];\n                notesCount++;\n            }\n        }\n        return sum / uint8(notesCount);\n    }\n\n    function getGlobalAverage() public view returns (uint8) {\n        uint8 sum;\n        uint8 notesCount;\n\n        for (uint8 i = 0; i < studentNames.length; i++) {\n            Student storage student = students[studentNames[i]];\n            for (uint8 j = 0; j < student.notes[Subject.Fr].length; j++) {\n                sum += student.notes[Subject.Fr][j];\n                notesCount++;\n            }\n            for (uint8 j = 0; j < student.notes[Subject.Math].length; j++) {\n                sum += student.notes[Subject.Math][j];\n                notesCount++;\n            }\n            for (uint8 j = 0; j < student.notes[Subject.Bio].length; j++) {\n                sum += student.notes[Subject.Bio][j];\n                notesCount++;\n            }\n        }\n        return sum / uint8(notesCount);\n    }\n\n    function registerStudentIfNotExist(string calldata _studentName) private {\n        if (!students[_studentName].exists) {\n            studentNames.push(_studentName);\n            students[_studentName].exists = true;\n        }\n    }\n\n}",
  "sourcePath": "/home/ted/repositories/rinkeby/packages/rinkeby-sandbox-contracts/contracts/exercices/Notes.sol",
  "compiler": {
    "name": "solc",
    "version": "0.8.17+commit.8df45f5f.Emscripten.clang"
  },
  "schemaVersion": "3.4.10",
  "updatedAt": "2022-10-20T13:05:01.776Z",
  "devdoc": {
    "kind": "dev",
    "methods": {
      "owner()": {
        "details": "Returns the address of the current owner."
      },
      "renounceOwnership()": {
        "details": "Leaves the contract without owner. It will not be possible to call `onlyOwner` functions anymore. Can only be called by the current owner. NOTE: Renouncing ownership will leave the contract without an owner, thereby removing any functionality that is only available to the owner."
      },
      "transferOwnership(address)": {
        "details": "Transfers ownership of the contract to a new account (`newOwner`). Can only be called by the current owner."
      }
    },
    "version": 1
  },
  "userdoc": {
    "kind": "user",
    "methods": {},
    "version": 1
  }
}