{
  "contractName": "Parent",
  "abi": [
    {
      "inputs": [
        {
          "internalType": "uint256",
          "name": "_value",
          "type": "uint256"
        }
      ],
      "name": "setValue",
      "outputs": [],
      "stateMutability": "nonpayable",
      "type": "function"
    }
  ],
  "bytecode": "0x608060405234801561001057600080fd5b5060e38061001f6000396000f3fe6080604052348015600f57600080fd5b506004361060285760003560e01c80635524107714602d575b600080fd5b60436004803603810190603f91906085565b6045565b005b8060008190555050565b600080fd5b6000819050919050565b6065816054565b8114606f57600080fd5b50565b600081359050607f81605e565b92915050565b6000602082840312156098576097604f565b5b600060a4848285016072565b9150509291505056fea26469706673582212207b6fc54cc2fa1da501ea00f62686fde3d0aa87de5f2b0a4754bb27ee1fc996f264736f6c63430008110033",
  "immutableReferences": {},
  "source": "// SPDX-License-Identifier: GPL-3.0\npragma solidity 0.8.17;\n\ncontract Parent {\n    uint value;\n\n    function setValue(uint _value) external {\n        value = _value;\n    }\n\n}\n\ncontract Child is Parent {\n    function getValue() external view returns (uint) {\n        return value;\n    }\n}\n\ncontract Caller {\n\n    Child public child = new Child();\n \n    function getChildValue() external returns (uint) {\n        child.setValue(10);\n        return child.getValue();\n    }\n}",
  "sourcePath": "/home/ted/repositories/rinkeby/packages/rinkeby-sandbox-contracts/contracts/exercices/Inheritage.sol",
  "compiler": {
    "name": "solc",
    "version": "0.8.17+commit.8df45f5f.Emscripten.clang"
  },
  "schemaVersion": "3.4.10",
  "updatedAt": "2022-10-14T11:50:40.072Z",
  "devdoc": {
    "kind": "dev",
    "methods": {},
    "version": 1
  },
  "userdoc": {
    "kind": "user",
    "methods": {},
    "version": 1
  }
}