{
  "contractName": "People",
  "abi": [
    {
      "inputs": [],
      "name": "moi",
      "outputs": [
        {
          "internalType": "string",
          "name": "name",
          "type": "string"
        },
        {
          "internalType": "uint256",
          "name": "age",
          "type": "uint256"
        }
      ],
      "stateMutability": "view",
      "type": "function"
    },
    {
      "inputs": [
        {
          "internalType": "uint256",
          "name": "",
          "type": "uint256"
        }
      ],
      "name": "persons",
      "outputs": [
        {
          "internalType": "string",
          "name": "name",
          "type": "string"
        },
        {
          "internalType": "uint256",
          "name": "age",
          "type": "uint256"
        }
      ],
      "stateMutability": "view",
      "type": "function"
    },
    {
      "inputs": [
        {
          "internalType": "string",
          "name": "_name",
          "type": "string"
        },
        {
          "internalType": "uint256",
          "name": "_age",
          "type": "uint256"
        }
      ],
      "name": "modifyPerson",
      "outputs": [],
      "stateMutability": "nonpayable",
      "type": "function"
    },
    {
      "inputs": [
        {
          "internalType": "string",
          "name": "_name",
          "type": "string"
        },
        {
          "internalType": "uint256",
          "name": "_age",
          "type": "uint256"
        }
      ],
      "name": "add",
      "outputs": [],
      "stateMutability": "nonpayable",
      "type": "function"
    },
    {
      "inputs": [],
      "name": "remove",
      "outputs": [],
      "stateMutability": "nonpayable",
      "type": "function"
    }
  ],
  "bytecode": "0x608060405234801561001057600080fd5b5061098c806100206000396000f3fe608060405234801561001057600080fd5b50600436106100575760003560e01c806313bc01941461005c57806336555b85146100785780639073613014610094578063a2f9eac6146100b3578063a7f43779146100e4575b600080fd5b61007660048036038101906100719190610502565b6100ee565b005b610092600480360381019061008d9190610502565b61010e565b005b61009c61017a565b6040516100aa9291906105ec565b60405180910390f35b6100cd60048036038101906100c8919061061c565b610214565b6040516100db9291906105ec565b60405180910390f35b6100ec6102d0565b005b816000800190816100ff9190610855565b50806000600101819055505050565b60006040518060400160405280848152602001838152509050600281908060018154018082558091505060019003906000526020600020906002020160009091909190915060008201518160000190816101689190610855565b50602082015181600101555050505050565b600080600001805461018b90610678565b80601f01602080910402602001604051908101604052809291908181526020018280546101b790610678565b80156102045780601f106101d957610100808354040283529160200191610204565b820191906000526020600020905b8154815290600101906020018083116101e757829003601f168201915b5050505050908060010154905082565b6002818154811061022457600080fd5b906000526020600020906002020160009150905080600001805461024790610678565b80601f016020809104026020016040519081016040528092919081815260200182805461027390610678565b80156102c05780601f10610295576101008083540402835291602001916102c0565b820191906000526020600020905b8154815290600101906020018083116102a357829003601f168201915b5050505050908060010154905082565b60028054806102e2576102e1610927565b5b6001900381819060005260206000209060020201600080820160006103079190610315565b600182016000905550509055565b50805461032190610678565b6000825580601f106103335750610352565b601f0160209004906000526020600020908101906103519190610355565b5b50565b5b8082111561036e576000816000905550600101610356565b5090565b6000604051905090565b600080fd5b600080fd5b600080fd5b600080fd5b6000601f19601f8301169050919050565b7f4e487b7100000000000000000000000000000000000000000000000000000000600052604160045260246000fd5b6103d982610390565b810181811067ffffffffffffffff821117156103f8576103f76103a1565b5b80604052505050565b600061040b610372565b905061041782826103d0565b919050565b600067ffffffffffffffff821115610437576104366103a1565b5b61044082610390565b9050602081019050919050565b82818337600083830152505050565b600061046f61046a8461041c565b610401565b90508281526020810184848401111561048b5761048a61038b565b5b61049684828561044d565b509392505050565b600082601f8301126104b3576104b2610386565b5b81356104c384826020860161045c565b91505092915050565b6000819050919050565b6104df816104cc565b81146104ea57600080fd5b50565b6000813590506104fc816104d6565b92915050565b600080604083850312156105195761051861037c565b5b600083013567ffffffffffffffff81111561053757610536610381565b5b6105438582860161049e565b9250506020610554858286016104ed565b9150509250929050565b600081519050919050565b600082825260208201905092915050565b60005b8381101561059857808201518184015260208101905061057d565b60008484015250505050565b60006105af8261055e565b6105b98185610569565b93506105c981856020860161057a565b6105d281610390565b840191505092915050565b6105e6816104cc565b82525050565b6000604082019050818103600083015261060681856105a4565b905061061560208301846105dd565b9392505050565b6000602082840312156106325761063161037c565b5b6000610640848285016104ed565b91505092915050565b7f4e487b7100000000000000000000000000000000000000000000000000000000600052602260045260246000fd5b6000600282049050600182168061069057607f821691505b6020821081036106a3576106a2610649565b5b50919050565b60008190508160005260206000209050919050565b60006020601f8301049050919050565b600082821b905092915050565b60006008830261070b7fffffffffffffffffffffffffffffffffffffffffffffffffffffffffffffffff826106ce565b61071586836106ce565b95508019841693508086168417925050509392505050565b6000819050919050565b600061075261074d610748846104cc565b61072d565b6104cc565b9050919050565b6000819050919050565b61076c83610737565b61078061077882610759565b8484546106db565b825550505050565b600090565b610795610788565b6107a0818484610763565b505050565b5b818110156107c4576107b960008261078d565b6001810190506107a6565b5050565b601f821115610809576107da816106a9565b6107e3846106be565b810160208510156107f2578190505b6108066107fe856106be565b8301826107a5565b50505b505050565b600082821c905092915050565b600061082c6000198460080261080e565b1980831691505092915050565b6000610845838361081b565b9150826002028217905092915050565b61085e8261055e565b67ffffffffffffffff811115610877576108766103a1565b5b6108818254610678565b61088c8282856107c8565b600060209050601f8311600181146108bf57600084156108ad578287015190505b6108b78582610839565b86555061091f565b601f1984166108cd866106a9565b60005b828110156108f5578489015182556001820191506020850194506020810190506108d0565b86831015610912578489015161090e601f89168261081b565b8355505b6001600288020188555050505b505050505050565b7f4e487b7100000000000000000000000000000000000000000000000000000000600052603160045260246000fdfea264697066735822122040a2f7d258be76cddfa109dea54d62e64ffd8f391343dac117153a9f493bd92364736f6c63430008110033",
  "immutableReferences": {},
  "source": "// SPDX-License-Identifier: GPL-3.0\npragma solidity 0.8.17.0;\n\ncontract People {\n\n    struct Person {\n        string name;\n        uint age;\n    }\n\n    Person public moi;\n    Person[] public persons;\n\n    function modifyPerson(string memory _name, uint _age) public {\n        moi.name = _name;\n        moi.age = _age;\n    }\n\n    function add(string memory _name, uint _age) public {\n        Person memory person = Person(_name, _age);\n        persons.push(person);\n    }\n\n    function remove() public {\n        persons.pop();\n    }\n\n}",
  "sourcePath": "/home/ted/repositories/rinkeby/packages/rinkeby-sandbox-contracts/contracts/exercices/People.sol",
  "compiler": {
    "name": "solc",
    "version": "0.8.17+commit.8df45f5f.Emscripten.clang"
  },
  "schemaVersion": "3.4.10",
  "updatedAt": "2022-10-20T13:05:01.807Z",
  "devdoc": {
    "kind": "dev",
    "methods": {},
    "version": 1
  },
  "userdoc": {
    "kind": "user",
    "methods": {},
    "version": 1
  }
}