{
  "contractName": "Random",
  "abi": [
    {
      "inputs": [],
      "name": "random",
      "outputs": [
        {
          "internalType": "uint256",
          "name": "",
          "type": "uint256"
        }
      ],
      "stateMutability": "nonpayable",
      "type": "function"
    }
  ],
  "bytecode": "0x60806040526000805534801561001457600080fd5b506102c1806100246000396000f3fe608060405234801561001057600080fd5b506004361061002b5760003560e01c80635ec01e4d14610030575b600080fd5b61003861004e565b60405161004591906100c1565b60405180910390f35b60008060008154809291906100629061010b565b919050555060644233600054604051602001610080939291906101ee565b6040516020818303038152906040528051906020012060001c6100a3919061025a565b905090565b6000819050919050565b6100bb816100a8565b82525050565b60006020820190506100d660008301846100b2565b92915050565b7f4e487b7100000000000000000000000000000000000000000000000000000000600052601160045260246000fd5b6000610116826100a8565b91507fffffffffffffffffffffffffffffffffffffffffffffffffffffffffffffffff8203610148576101476100dc565b5b600182019050919050565b6000819050919050565b61016e610169826100a8565b610153565b82525050565b600073ffffffffffffffffffffffffffffffffffffffff82169050919050565b600061019f82610174565b9050919050565b60008160601b9050919050565b60006101be826101a6565b9050919050565b60006101d0826101b3565b9050919050565b6101e86101e382610194565b6101c5565b82525050565b60006101fa828661015d565b60208201915061020a82856101d7565b60148201915061021a828461015d565b602082019150819050949350505050565b7f4e487b7100000000000000000000000000000000000000000000000000000000600052601260045260246000fd5b6000610265826100a8565b9150610270836100a8565b9250826102805761027f61022b565b5b82820690509291505056fea2646970667358221220f743c5340af2d6c7cbe717337cfd01693f6da7a3f47f7a52a190e869bc233bdf64736f6c63430008110033",
  "immutableReferences": {},
  "source": "// SPDX-License-Identifier: GPL-3.0\npragma solidity 0.8.17;\n\ncontract Random {\n   uint private nonce = 0;\n\n   function random() public returns(uint) {\n       nonce++;\n       return  uint(keccak256(abi.encodePacked(block.timestamp, msg.sender, nonce))) % 100;\n   }\n}\n",
  "sourcePath": "/home/ted/repositories/rinkeby/packages/rinkeby-sandbox-contracts/contracts/exercices/Random.sol",
  "compiler": {
    "name": "solc",
    "version": "0.8.17+commit.8df45f5f.Emscripten.clang"
  },
  "schemaVersion": "3.4.10",
  "updatedAt": "2022-10-14T11:50:40.076Z",
  "devdoc": {
    "kind": "dev",
    "methods": {},
    "version": 1
  },
  "userdoc": {
    "kind": "user",
    "methods": {},
    "version": 1
  }
}