{
  "contractName": "Saving",
  "abi": [
    {
      "anonymous": false,
      "inputs": [
        {
          "indexed": false,
          "internalType": "address",
          "name": "sender",
          "type": "address"
        },
        {
          "indexed": false,
          "internalType": "uint256",
          "name": "amount",
          "type": "uint256"
        }
      ],
      "name": "Deposit",
      "type": "event"
    },
    {
      "anonymous": false,
      "inputs": [
        {
          "indexed": true,
          "internalType": "address",
          "name": "previousOwner",
          "type": "address"
        },
        {
          "indexed": true,
          "internalType": "address",
          "name": "newOwner",
          "type": "address"
        }
      ],
      "name": "OwnershipTransferred",
      "type": "event"
    },
    {
      "anonymous": false,
      "inputs": [
        {
          "indexed": false,
          "internalType": "uint256",
          "name": "amount",
          "type": "uint256"
        }
      ],
      "name": "Withdraw",
      "type": "event"
    },
    {
      "inputs": [],
      "name": "owner",
      "outputs": [
        {
          "internalType": "address",
          "name": "",
          "type": "address"
        }
      ],
      "stateMutability": "view",
      "type": "function"
    },
    {
      "inputs": [],
      "name": "renounceOwnership",
      "outputs": [],
      "stateMutability": "nonpayable",
      "type": "function"
    },
    {
      "inputs": [
        {
          "internalType": "address",
          "name": "newOwner",
          "type": "address"
        }
      ],
      "name": "transferOwnership",
      "outputs": [],
      "stateMutability": "nonpayable",
      "type": "function"
    },
    {
      "stateMutability": "payable",
      "type": "receive"
    },
    {
      "inputs": [],
      "name": "withdraw",
      "outputs": [],
      "stateMutability": "payable",
      "type": "function"
    },
    {
      "inputs": [
        {
          "internalType": "uint256",
          "name": "index",
          "type": "uint256"
        }
      ],
      "name": "getDeposit",
      "outputs": [
        {
          "internalType": "uint256",
          "name": "",
          "type": "uint256"
        }
      ],
      "stateMutability": "view",
      "type": "function"
    }
  ],
  "bytecode": "0x608060405234801561001057600080fd5b5061002d61002261003260201b60201c565b61003a60201b60201c565b6100fe565b600033905090565b60008060009054906101000a900473ffffffffffffffffffffffffffffffffffffffff169050816000806101000a81548173ffffffffffffffffffffffffffffffffffffffff021916908373ffffffffffffffffffffffffffffffffffffffff1602179055508173ffffffffffffffffffffffffffffffffffffffff168173ffffffffffffffffffffffffffffffffffffffff167f8be0079c531659141344cd1fd0a4f28419497f9722a3daafe3b4186f6b6457e060405160405180910390a35050565b610ae88061010d6000396000f3fe60806040526004361061004e5760003560e01c80633ccfd60b146100c5578063715018a6146100cf5780638da5cb5b146100e65780639f9fb96814610111578063f2fde38b1461014e576100c0565b366100c0573460026000600354815260200190815260200160002081905550600360008154809291906100809061058b565b91905055507fe1fffcc4923d04b559f4d29a8bfc6cda04eb5b0d3c460751c2402c5c5cc9109c33346040516100b6929190610623565b60405180910390a1005b600080fd5b6100cd610177565b005b3480156100db57600080fd5b506100e4610323565b005b3480156100f257600080fd5b506100fb610337565b604051610108919061064c565b60405180910390f35b34801561011d57600080fd5b5061013860048036038101906101339190610698565b610360565b60405161014591906106c5565b60405180910390f35b34801561015a57600080fd5b506101756004803603810190610170919061070c565b610385565b005b61017f610408565b6000600154036101c4576040517f08c379a00000000000000000000000000000000000000000000000000000000081526004016101bb906107bc565b60405180910390fd5b60006018603c80426001546101d991906107dc565b6101e3919061083f565b6101ed919061083f565b6101f7919061083f565b9050605a811161023c576040517f08c379a0000000000000000000000000000000000000000000000000000000008152600401610233906108e2565b60405180910390fd5b60003373ffffffffffffffffffffffffffffffffffffffff164760405161026290610933565b60006040518083038185875af1925050503d806000811461029f576040519150601f19603f3d011682016040523d82523d6000602084013e6102a4565b606091505b50509050806102e8576040517f08c379a00000000000000000000000000000000000000000000000000000000081526004016102df90610994565b60405180910390fd5b7f5b6b431d4476a211bb7d41c20d1aab9ae2321deee0d20be3d9fc9b1093fa6e3d3460405161031791906106c5565b60405180910390a15050565b61032b610408565b6103356000610486565b565b60008060009054906101000a900473ffffffffffffffffffffffffffffffffffffffff16905090565b600061036a610408565b60026000838152602001908152602001600020549050919050565b61038d610408565b600073ffffffffffffffffffffffffffffffffffffffff168173ffffffffffffffffffffffffffffffffffffffff16036103fc576040517f08c379a00000000000000000000000000000000000000000000000000000000081526004016103f390610a26565b60405180910390fd5b61040581610486565b50565b61041061054a565b73ffffffffffffffffffffffffffffffffffffffff1661042e610337565b73ffffffffffffffffffffffffffffffffffffffff1614610484576040517f08c379a000000000000000000000000000000000000000000000000000000000815260040161047b90610a92565b60405180910390fd5b565b60008060009054906101000a900473ffffffffffffffffffffffffffffffffffffffff169050816000806101000a81548173ffffffffffffffffffffffffffffffffffffffff021916908373ffffffffffffffffffffffffffffffffffffffff1602179055508173ffffffffffffffffffffffffffffffffffffffff168173ffffffffffffffffffffffffffffffffffffffff167f8be0079c531659141344cd1fd0a4f28419497f9722a3daafe3b4186f6b6457e060405160405180910390a35050565b600033905090565b7f4e487b7100000000000000000000000000000000000000000000000000000000600052601160045260246000fd5b6000819050919050565b600061059682610581565b91507fffffffffffffffffffffffffffffffffffffffffffffffffffffffffffffffff82036105c8576105c7610552565b5b600182019050919050565b600073ffffffffffffffffffffffffffffffffffffffff82169050919050565b60006105fe826105d3565b9050919050565b61060e816105f3565b82525050565b61061d81610581565b82525050565b60006040820190506106386000830185610605565b6106456020830184610614565b9392505050565b60006020820190506106616000830184610605565b92915050565b600080fd5b61067581610581565b811461068057600080fd5b50565b6000813590506106928161066c565b92915050565b6000602082840312156106ae576106ad610667565b5b60006106bc84828501610683565b91505092915050565b60006020820190506106da6000830184610614565b92915050565b6106e9816105f3565b81146106f457600080fd5b50565b600081359050610706816106e0565b92915050565b60006020828403121561072257610721610667565b5b6000610730848285016106f7565b91505092915050565b600082825260208201905092915050565b7f776974686472617720666f7262696464656e206265666f72652066697273742060008201527f6465706f73697400000000000000000000000000000000000000000000000000602082015250565b60006107a6602783610739565b91506107b18261074a565b604082019050919050565b600060208201905081810360008301526107d581610799565b9050919050565b60006107e782610581565b91506107f283610581565b925082820390508181111561080a57610809610552565b5b92915050565b7f4e487b7100000000000000000000000000000000000000000000000000000000600052601260045260246000fd5b600061084a82610581565b915061085583610581565b92508261086557610864610810565b5b828204905092915050565b7f776974686472617720666f7262696464656e206265666f72652039302064617960008201527f73206166746572206669727374206465706f7369740000000000000000000000602082015250565b60006108cc603583610739565b91506108d782610870565b604082019050919050565b600060208201905081810360008301526108fb816108bf565b9050919050565b600081905092915050565b50565b600061091d600083610902565b91506109288261090d565b600082019050919050565b600061093e82610910565b9150819050919050565b7f7769746864726177206661696c65640000000000000000000000000000000000600082015250565b600061097e600f83610739565b915061098982610948565b602082019050919050565b600060208201905081810360008301526109ad81610971565b9050919050565b7f4f776e61626c653a206e6577206f776e657220697320746865207a65726f206160008201527f6464726573730000000000000000000000000000000000000000000000000000602082015250565b6000610a10602683610739565b9150610a1b826109b4565b604082019050919050565b60006020820190508181036000830152610a3f81610a03565b9050919050565b7f4f776e61626c653a2063616c6c6572206973206e6f7420746865206f776e6572600082015250565b6000610a7c602083610739565b9150610a8782610a46565b602082019050919050565b60006020820190508181036000830152610aab81610a6f565b905091905056fea26469706673582212204fbb8ebadcbf9c9bdf7a538ec1b9523ce0bca67861dc7045362062aaf432be6b64736f6c63430008110033",
  "immutableReferences": {},
  "source": "// SPDX-License-Identifier: GPL-3.0\npragma solidity 0.8.17;\n\nimport '@openzeppelin/contracts/access/Ownable.sol';\n\ncontract Saving is Ownable {\n    \n    uint firstDepositDate;\n\n    mapping(uint => uint) private history;\n\n    uint private depositsCount;\n\n    event Deposit(address sender, uint amount);\n\n    event Withdraw(uint amount);\n\n    // modifier isAdmin() {\n    //     require(msg.sender == admin, 'Forbidden');\n    //     _;\n    // }\n\n    receive() external payable {\n        history[depositsCount] = msg.value;\n        depositsCount++;\n        emit Deposit(msg.sender, msg.value);\n    }\n\n    function withdraw() external payable onlyOwner {\n        require(firstDepositDate != 0, 'withdraw forbidden before first deposit');\n\n        uint nbDaysSinceFirstDeposit = (firstDepositDate - block.timestamp) / 60 / 60 / 24;\n        require(nbDaysSinceFirstDeposit > 90, 'withdraw forbidden before 90 days after first deposit');\n\n        (bool sent,) = msg.sender.call{value:address(this).balance}(\"\");\n        require(sent, 'withdraw failed');\n\n        emit Withdraw(msg.value);\n    }\n\n    function getDeposit(uint index) external view onlyOwner returns (uint) {\n        return history[index];\n    }\n}",
  "sourcePath": "/home/ted/repositories/rinkeby/packages/rinkeby-sandbox-contracts/contracts/exercices/Saving.sol",
  "compiler": {
    "name": "solc",
    "version": "0.8.17+commit.8df45f5f.Emscripten.clang"
  },
  "schemaVersion": "3.4.10",
  "updatedAt": "2022-10-14T11:50:40.082Z",
  "devdoc": {
    "kind": "dev",
    "methods": {
      "owner()": {
        "details": "Returns the address of the current owner."
      },
      "renounceOwnership()": {
        "details": "Leaves the contract without owner. It will not be possible to call `onlyOwner` functions anymore. Can only be called by the current owner. NOTE: Renouncing ownership will leave the contract without an owner, thereby removing any functionality that is only available to the owner."
      },
      "transferOwnership(address)": {
        "details": "Transfers ownership of the contract to a new account (`newOwner`). Can only be called by the current owner."
      }
    },
    "version": 1
  },
  "userdoc": {
    "kind": "user",
    "methods": {},
    "version": 1
  }
}