{
  "contractName": "Whitelist",
  "abi": [
    {
      "anonymous": false,
      "inputs": [
        {
          "indexed": false,
          "internalType": "address",
          "name": "_address",
          "type": "address"
        }
      ],
      "name": "Authorized",
      "type": "event"
    },
    {
      "inputs": [
        {
          "internalType": "address",
          "name": "_address",
          "type": "address"
        }
      ],
      "name": "authorize",
      "outputs": [],
      "stateMutability": "nonpayable",
      "type": "function"
    }
  ],
  "bytecode": "0x608060405234801561001057600080fd5b506102dc806100206000396000f3fe608060405234801561001057600080fd5b506004361061002b5760003560e01c8063b6a5d7de14610030575b600080fd5b61004a600480360381019061004591906101d2565b61004c565b005b600115156000803373ffffffffffffffffffffffffffffffffffffffff1673ffffffffffffffffffffffffffffffffffffffff16815260200190815260200160002060009054906101000a900460ff161515146100de576040517f08c379a00000000000000000000000000000000000000000000000000000000081526004016100d59061025c565b60405180910390fd5b60016000808373ffffffffffffffffffffffffffffffffffffffff1673ffffffffffffffffffffffffffffffffffffffff16815260200190815260200160002060006101000a81548160ff0219169083151502179055507fdc84e3a4c83602050e3865df792a4e6800211a79ac60db94e703a820ce89292481604051610164919061028b565b60405180910390a150565b600080fd5b600073ffffffffffffffffffffffffffffffffffffffff82169050919050565b600061019f82610174565b9050919050565b6101af81610194565b81146101ba57600080fd5b50565b6000813590506101cc816101a6565b92915050565b6000602082840312156101e8576101e761016f565b5b60006101f6848285016101bd565b91505092915050565b600082825260208201905092915050565b7f6e6f7420617574686f72697a6564000000000000000000000000000000000000600082015250565b6000610246600e836101ff565b915061025182610210565b602082019050919050565b6000602082019050818103600083015261027581610239565b9050919050565b61028581610194565b82525050565b60006020820190506102a0600083018461027c565b9291505056fea2646970667358221220702b31f61c667e1f3b2238f562c04b1999544f73196cef935d18f0fbfefd31c564736f6c63430008110033",
  "immutableReferences": {},
  "source": "// SPDX-License-Identifier: GPL-3.0\npragma solidity 0.8.17.0;\n \ncontract Whitelist {\n    mapping(address=> bool) whitelist;\n    event Authorized(address _address);\n\n    function authorize(address _address) public check {\n        whitelist[_address] = true;\n        emit Authorized(_address);\n    }\n\n    modifier check() {\n        require(whitelist[msg.sender] == true, 'not authorized');\n        _;\n    }\n}\n",
  "sourcePath": "/home/ted/repositories/rinkeby/packages/rinkeby-sandbox-contracts/contracts/exercices/Whitelist.sol",
  "compiler": {
    "name": "solc",
    "version": "0.8.17+commit.8df45f5f.Emscripten.clang"
  },
  "schemaVersion": "3.4.10",
  "updatedAt": "2022-10-20T13:05:01.814Z",
  "devdoc": {
    "kind": "dev",
    "methods": {},
    "version": 1
  },
  "userdoc": {
    "kind": "user",
    "methods": {},
    "version": 1
  }
}