{
  "_format": "hh-sol-artifact-1",
  "contractName": "Notes",
  "sourceName": "contracts/corrections/Lycee.sol",
  "abi": [
    {
      "anonymous": false,
      "inputs": [
        {
          "indexed": true,
          "internalType": "address",
          "name": "previousOwner",
          "type": "address"
        },
        {
          "indexed": true,
          "internalType": "address",
          "name": "newOwner",
          "type": "address"
        }
      ],
      "name": "OwnershipTransferred",
      "type": "event"
    },
    {
      "anonymous": false,
      "inputs": [
        {
          "indexed": false,
          "internalType": "string",
          "name": "_name",
          "type": "string"
        },
        {
          "indexed": false,
          "internalType": "string",
          "name": "_class",
          "type": "string"
        },
        {
          "indexed": false,
          "internalType": "address",
          "name": "_addr",
          "type": "address"
        }
      ],
      "name": "studentAdded",
      "type": "event"
    },
    {
      "anonymous": false,
      "inputs": [
        {
          "indexed": false,
          "internalType": "string",
          "name": "_class",
          "type": "string"
        },
        {
          "indexed": false,
          "internalType": "string",
          "name": "_course",
          "type": "string"
        },
        {
          "indexed": false,
          "internalType": "address",
          "name": "_addr",
          "type": "address"
        }
      ],
      "name": "teacherAdded",
      "type": "event"
    },
    {
      "inputs": [
        {
          "internalType": "string",
          "name": "_name",
          "type": "string"
        },
        {
          "internalType": "string",
          "name": "_class",
          "type": "string"
        },
        {
          "internalType": "address",
          "name": "_addr",
          "type": "address"
        }
      ],
      "name": "addStudent",
      "outputs": [],
      "stateMutability": "nonpayable",
      "type": "function"
    },
    {
      "inputs": [
        {
          "internalType": "string",
          "name": "_class",
          "type": "string"
        }
      ],
      "name": "calculateMoyenneGenerale",
      "outputs": [
        {
          "internalType": "uint256",
          "name": "",
          "type": "uint256"
        }
      ],
      "stateMutability": "view",
      "type": "function"
    },
    {
      "inputs": [
        {
          "internalType": "string",
          "name": "_class",
          "type": "string"
        },
        {
          "internalType": "string",
          "name": "_course",
          "type": "string"
        }
      ],
      "name": "calculateMoyennePerCourse",
      "outputs": [
        {
          "internalType": "uint256",
          "name": "",
          "type": "uint256"
        }
      ],
      "stateMutability": "view",
      "type": "function"
    },
    {
      "inputs": [
        {
          "internalType": "string",
          "name": "_name",
          "type": "string"
        }
      ],
      "name": "calculateMoyenneStudent",
      "outputs": [
        {
          "internalType": "uint256",
          "name": "",
          "type": "uint256"
        }
      ],
      "stateMutability": "view",
      "type": "function"
    },
    {
      "inputs": [
        {
          "internalType": "string",
          "name": "_name",
          "type": "string"
        }
      ],
      "name": "isPassing",
      "outputs": [
        {
          "internalType": "bool",
          "name": "",
          "type": "bool"
        }
      ],
      "stateMutability": "view",
      "type": "function"
    },
    {
      "inputs": [],
      "name": "owner",
      "outputs": [
        {
          "internalType": "address",
          "name": "",
          "type": "address"
        }
      ],
      "stateMutability": "view",
      "type": "function"
    },
    {
      "inputs": [],
      "name": "renounceOwnership",
      "outputs": [],
      "stateMutability": "nonpayable",
      "type": "function"
    },
    {
      "inputs": [
        {
          "internalType": "string",
          "name": "_course",
          "type": "string"
        },
        {
          "internalType": "string",
          "name": "_nameStudent",
          "type": "string"
        },
        {
          "internalType": "uint256",
          "name": "_note",
          "type": "uint256"
        }
      ],
      "name": "setNote",
      "outputs": [],
      "stateMutability": "nonpayable",
      "type": "function"
    },
    {
      "inputs": [
        {
          "internalType": "string",
          "name": "_class",
          "type": "string"
        },
        {
          "internalType": "string",
          "name": "_course",
          "type": "string"
        },
        {
          "internalType": "address",
          "name": "_addr",
          "type": "address"
        }
      ],
      "name": "setTeacher",
      "outputs": [],
      "stateMutability": "nonpayable",
      "type": "function"
    },
    {
      "inputs": [
        {
          "internalType": "address",
          "name": "newOwner",
          "type": "address"
        }
      ],
      "name": "transferOwnership",
      "outputs": [],
      "stateMutability": "nonpayable",
      "type": "function"
    }
  ],
  "bytecode": "0x608060405234801561001057600080fd5b5061001a3361001f565b61006f565b600080546001600160a01b038381166001600160a01b0319831681178455604051919092169283917f8be0079c531659141344cd1fd0a4f28419497f9722a3daafe3b4186f6b6457e09190a35050565b6111ef8061007e6000396000f3fe608060405234801561001057600080fd5b506004361061009e5760003560e01c8063715018a611610066578063715018a6146101275780638da5cb5b1461012f578063c2ef37711461014a578063d304b1ea1461015d578063f2fde38b1461017057600080fd5b806302a3c89b146100a35780630b90cbc9146100c95780630dc0ffb1146100de57806327b51db21461010157806342de061914610114575b600080fd5b6100b66100b1366004610d13565b610183565b6040519081526020015b60405180910390f35b6100dc6100d7366004610d5f565b610232565b005b6100f16100ec366004610d13565b6102d5565b60405190151581526020016100c0565b6100dc61010f366004610dd3565b6102ff565b6100dc610122366004610d5f565b610533565b6100dc610647565b6000546040516001600160a01b0390911681526020016100c0565b6100b6610158366004610e40565b61065b565b6100b661016b366004610d13565b61094f565b6100dc61017e366004610ea4565b610a47565b600061018d610ac0565b600061019883610b1a565b90506003600182815481106101af576101af610ebf565b906000526020600020906006020160050154600183815481106101d4576101d4610ebf565b906000526020600020906006020160040154600184815481106101f9576101f9610ebf565b9060005260206000209060060201600301546102159190610eeb565b61021f9190610eeb565b6102299190610efe565b9150505b919050565b61023a610ac0565b8060028460405161024b9190610f44565b9081526020016040518091039020836040516102679190610f44565b90815260405190819003602001812080546001600160a01b03939093166001600160a01b0319909316929092179091557f80a01e1d3291c6b3092f33ed56018c7bf68c833d0ea02c22585a85453a95fb05906102c890859085908590610f8c565b60405180910390a1505050565b60006102df610ac0565b600a6102ea83610183565b106102f757506001919050565b506000919050565b600061030a83610b1a565b905060026001828154811061032157610321610ebf565b906000526020600020906006020160010160405161033f9190611004565b90815260200160405180910390208460405161035b9190610f44565b90815260405190819003602001902054336001600160a01b03909116146103df5760405162461bcd60e51b815260206004820152602d60248201527f796f75207265206e6f74207468652074656163686572206f662074686973207360448201526c747564656e7420636f7572736560981b60648201526084015b60405180910390fd5b610408846040518060400160405280600781526020016662696f6c6f677960c81b815250610bbf565b1561043b57816001828154811061042157610421610ebf565b90600052602060002090600602016003018190555061052d565b61046284604051806040016040528060058152602001646d6174687360d81b815250610bbf565b1561049557816001828154811061047b5761047b610ebf565b90600052602060002090600602016004018190555061052d565b6104bd84604051806040016040528060068152602001650cce4cadcc6d60d31b815250610bbf565b156104f05781600182815481106104d6576104d6610ebf565b90600052602060002090600602016005018190555061052d565b60405162461bcd60e51b8152602060048201526012602482015271747970652061207265616c20636f7572736560701b60448201526064016103d6565b50505050565b61053b610ac0565b6040805160c081018252848152602081018490526001600160a01b038316918101919091526000606082018190526080820181905260a082018190526001805480820182559152815160069091027fb10e2d527612073b26eecdfd717e6a320cf44b4afac2b0732d9fcbe2b7fa0cf6019081906105b890826110c9565b50602082015160018201906105cd90826110c9565b506040828101516002830180546001600160a01b0319166001600160a01b03909216919091179055606083015160038301556080830151600483015560a090920151600590910155517fc5a733a207b7a059be3101c664dd32331efcaa32bb12d0531ae1b7d4607a7415906102c890859085908590610f8c565b61064f610ac0565b6106596000610c20565b565b600060028360405161066d9190610f44565b9081526020016040518091039020826040516106899190610f44565b90815260405190819003602001902054336001600160a01b03909116146107065760405162461bcd60e51b815260206004820152602b60248201527f796f75277265206e6f74207468652074656163686572206f662074686973206360448201526a6c61737320636f7572736560a81b60648201526084016103d6565b60008060005b60015481101561092a576107cc866001838154811061072d5761072d610ebf565b9060005260206000209060060201600101805461074990610fca565b80601f016020809104026020016040519081016040528092919081815260200182805461077590610fca565b80156107c25780601f10610797576101008083540402835291602001916107c2565b820191906000526020600020905b8154815290600101906020018083116107a557829003601f168201915b5050505050610bbf565b15610918576107fa856040518060400160405280600781526020016662696f6c6f677960c81b815250610bbf565b1561083f576001818154811061081257610812610ebf565b9060005260206000209060060201600301548361082f9190610eeb565b925061083c600183610eeb565b91505b61086685604051806040016040528060058152602001646d6174687360d81b815250610bbf565b156108ab576001818154811061087e5761087e610ebf565b9060005260206000209060060201600401548361089b9190610eeb565b92506108a8600183610eeb565b91505b6108d385604051806040016040528060068152602001650cce4cadcc6d60d31b815250610bbf565b1561091857600181815481106108eb576108eb610ebf565b906000526020600020906006020160050154836109089190610eeb565b9250610915600183610eeb565b91505b8061092281611189565b91505061070c565b506000816109398460646111a2565b6109439190610efe565b93505050505b92915050565b6000610959610ac0565b60008060005b600154811015610a3457610980856001838154811061072d5761072d610ebf565b15610a22576001818154811061099857610998610ebf565b906000526020600020906006020160050154600182815481106109bd576109bd610ebf565b906000526020600020906006020160040154600183815481106109e2576109e2610ebf565b9060005260206000209060060201600301546109fe9190610eeb565b610a089190610eeb565b610a129084610eeb565b9250610a1f600383610eeb565b91505b80610a2c81611189565b91505061095f565b50610a3f8183610efe565b949350505050565b610a4f610ac0565b6001600160a01b038116610ab45760405162461bcd60e51b815260206004820152602660248201527f4f776e61626c653a206e6577206f776e657220697320746865207a65726f206160448201526564647265737360d01b60648201526084016103d6565b610abd81610c20565b50565b6000546001600160a01b031633146106595760405162461bcd60e51b815260206004820181905260248201527f4f776e61626c653a2063616c6c6572206973206e6f7420746865206f776e657260448201526064016103d6565b6000805b600154811015610bb65782604051602001610b399190610f44565b6040516020818303038152906040528051906020012060018281548110610b6257610b62610ebf565b9060005260206000209060060201600001604051602001610b839190611004565b6040516020818303038152906040528051906020012003610ba45792915050565b80610bae81611189565b915050610b1e565b50600092915050565b60008082604051602001610bd39190610f44565b6040516020818303038152906040528051906020012084604051602001610bfa9190610f44565b6040516020818303038152906040528051906020012003610c19575060015b9392505050565b600080546001600160a01b038381166001600160a01b0319831681178455604051919092169283917f8be0079c531659141344cd1fd0a4f28419497f9722a3daafe3b4186f6b6457e09190a35050565b634e487b7160e01b600052604160045260246000fd5b600082601f830112610c9757600080fd5b813567ffffffffffffffff80821115610cb257610cb2610c70565b604051601f8301601f19908116603f01168101908282118183101715610cda57610cda610c70565b81604052838152866020858801011115610cf357600080fd5b836020870160208301376000602085830101528094505050505092915050565b600060208284031215610d2557600080fd5b813567ffffffffffffffff811115610d3c57600080fd5b610a3f84828501610c86565b80356001600160a01b038116811461022d57600080fd5b600080600060608486031215610d7457600080fd5b833567ffffffffffffffff80821115610d8c57600080fd5b610d9887838801610c86565b94506020860135915080821115610dae57600080fd5b50610dbb86828701610c86565b925050610dca60408501610d48565b90509250925092565b600080600060608486031215610de857600080fd5b833567ffffffffffffffff80821115610e0057600080fd5b610e0c87838801610c86565b94506020860135915080821115610e2257600080fd5b50610e2f86828701610c86565b925050604084013590509250925092565b60008060408385031215610e5357600080fd5b823567ffffffffffffffff80821115610e6b57600080fd5b610e7786838701610c86565b93506020850135915080821115610e8d57600080fd5b50610e9a85828601610c86565b9150509250929050565b600060208284031215610eb657600080fd5b610c1982610d48565b634e487b7160e01b600052603260045260246000fd5b634e487b7160e01b600052601160045260246000fd5b8082018082111561094957610949610ed5565b600082610f1b57634e487b7160e01b600052601260045260246000fd5b500490565b60005b83811015610f3b578181015183820152602001610f23565b50506000910152565b60008251610f56818460208701610f20565b9190910192915050565b60008151808452610f78816020860160208601610f20565b601f01601f19169290920160200192915050565b606081526000610f9f6060830186610f60565b8281036020840152610fb18186610f60565b91505060018060a01b0383166040830152949350505050565b600181811c90821680610fde57607f821691505b602082108103610ffe57634e487b7160e01b600052602260045260246000fd5b50919050565b600080835461101281610fca565b6001828116801561102a576001811461103f5761106e565b60ff198416875282151583028701945061106e565b8760005260208060002060005b858110156110655781548a82015290840190820161104c565b50505082870194505b50929695505050505050565b601f8211156110c457600081815260208120601f850160051c810160208610156110a15750805b601f850160051c820191505b818110156110c0578281556001016110ad565b5050505b505050565b815167ffffffffffffffff8111156110e3576110e3610c70565b6110f7816110f18454610fca565b8461107a565b602080601f83116001811461112c57600084156111145750858301515b600019600386901b1c1916600185901b1785556110c0565b600085815260208120601f198616915b8281101561115b5788860151825594840194600190910190840161113c565b50858210156111795787850151600019600388901b60f8161c191681555b5050505050600190811b01905550565b60006001820161119b5761119b610ed5565b5060010190565b808202811582820484141761094957610949610ed556fea2646970667358221220eeb87f92ce1ff10f51ebe2dcb3ea933899b6c7bda2a02e6e00c40fd9dec593b764736f6c63430008110033",
  "linkReferences": {},
  "deployedLinkReferences": {}
}