{
  "_format": "hh-sol-artifact-1",
  "contractName": "Contacts",
  "sourceName": "contracts/samples/Contacts.sol",
  "abi": [
    {
      "anonymous": false,
      "inputs": [
        {
          "indexed": false,
          "internalType": "uint256",
          "name": "id",
          "type": "uint256"
        }
      ],
      "name": "ContactAdded",
      "type": "event"
    },
    {
      "inputs": [
        {
          "internalType": "uint256",
          "name": "",
          "type": "uint256"
        }
      ],
      "name": "contacts",
      "outputs": [
        {
          "internalType": "uint256",
          "name": "id",
          "type": "uint256"
        },
        {
          "internalType": "string",
          "name": "name",
          "type": "string"
        },
        {
          "internalType": "string",
          "name": "phone",
          "type": "string"
        }
      ],
      "stateMutability": "view",
      "type": "function"
    },
    {
      "inputs": [],
      "name": "count",
      "outputs": [
        {
          "internalType": "uint256",
          "name": "",
          "type": "uint256"
        }
      ],
      "stateMutability": "view",
      "type": "function"
    },
    {
      "inputs": [
        {
          "internalType": "string",
          "name": "_name",
          "type": "string"
        },
        {
          "internalType": "string",
          "name": "_phone",
          "type": "string"
        }
      ],
      "name": "createContact",
      "outputs": [],
      "stateMutability": "nonpayable",
      "type": "function"
    }
  ],
  "bytecode": "0x60806040526000805534801561001457600080fd5b506105b0806100246000396000f3fe608060405234801561001057600080fd5b50600436106100415760003560e01c806306661abd146100465780633dce49201461005c578063e0f478cb14610071575b600080fd5b6000546040519081526020015b60405180910390f35b61006f61006a366004610312565b610093565b005b61008461007f366004610376565b61013d565b604051610053939291906103d5565b6000805490806100a28361040a565b9091555050604080516060810182526000805480835260208084018781528486018790529183526001908190529390912082518155905191929091908201906100eb90826104ba565b506040820151600282019061010090826104ba565b50506000546040519081527f60da173734e634b435b89d21dbdee2234cd9f870cd0f38bba3eb1d8489decd8d915060200160405180910390a15050565b60016020819052600091825260409091208054918101805461015e90610431565b80601f016020809104026020016040519081016040528092919081815260200182805461018a90610431565b80156101d75780601f106101ac576101008083540402835291602001916101d7565b820191906000526020600020905b8154815290600101906020018083116101ba57829003601f168201915b5050505050908060020180546101ec90610431565b80601f016020809104026020016040519081016040528092919081815260200182805461021890610431565b80156102655780601f1061023a57610100808354040283529160200191610265565b820191906000526020600020905b81548152906001019060200180831161024857829003601f168201915b5050505050905083565b634e487b7160e01b600052604160045260246000fd5b600082601f83011261029657600080fd5b813567ffffffffffffffff808211156102b1576102b161026f565b604051601f8301601f19908116603f011681019082821181831017156102d9576102d961026f565b816040528381528660208588010111156102f257600080fd5b836020870160208301376000602085830101528094505050505092915050565b6000806040838503121561032557600080fd5b823567ffffffffffffffff8082111561033d57600080fd5b61034986838701610285565b9350602085013591508082111561035f57600080fd5b5061036c85828601610285565b9150509250929050565b60006020828403121561038857600080fd5b5035919050565b6000815180845260005b818110156103b557602081850181015186830182015201610399565b506000602082860101526020601f19601f83011685010191505092915050565b8381526060602082015260006103ee606083018561038f565b8281036040840152610400818561038f565b9695505050505050565b60006001820161042a57634e487b7160e01b600052601160045260246000fd5b5060010190565b600181811c9082168061044557607f821691505b60208210810361046557634e487b7160e01b600052602260045260246000fd5b50919050565b601f8211156104b557600081815260208120601f850160051c810160208610156104925750805b601f850160051c820191505b818110156104b15782815560010161049e565b5050505b505050565b815167ffffffffffffffff8111156104d4576104d461026f565b6104e8816104e28454610431565b8461046b565b602080601f83116001811461051d57600084156105055750858301515b600019600386901b1c1916600185901b1785556104b1565b600085815260208120601f198616915b8281101561054c5788860151825594840194600190910190840161052d565b508582101561056a5787850151600019600388901b60f8161c191681555b5050505050600190811b0190555056fea2646970667358221220173efef17339219077ffc1c15828d7ff0ab2e8a2bdc3c1868ee9bde628790f3164736f6c63430008110033",
  "linkReferences": {},
  "deployedLinkReferences": {}
}