{"contracts/Voting.sol":{"Voting":{"abi":[{"anonymous":false,"inputs":[{"indexed":true,"internalType":"address","name":"previousOwner","type":"address"},{"indexed":true,"internalType":"address","name":"newOwner","type":"address"}],"name":"OwnershipTransferred","type":"event"},{"anonymous":false,"inputs":[{"indexed":true,"internalType":"uint256","name":"sessionId","type":"uint256"},{"indexed":false,"internalType":"uint8","name":"proposalId","type":"uint8"},{"indexed":false,"internalType":"address","name":"proposer","type":"address"},{"indexed":false,"internalType":"string","name":"description","type":"string"}],"name":"ProposalRegistered","type":"event"},{"anonymous":false,"inputs":[{"indexed":true,"internalType":"uint256","name":"sessionId","type":"uint256"},{"indexed":false,"internalType":"string","name":"name","type":"string"},{"indexed":false,"internalType":"string","name":"description","type":"string"}],"name":"SessionCreated","type":"event"},{"anonymous":false,"inputs":[{"indexed":true,"internalType":"uint256","name":"sessionId","type":"uint256"},{"indexed":false,"internalType":"address","name":"voter","type":"address"},{"indexed":false,"internalType":"uint256","name":"proposalId","type":"uint256"}],"name":"Voted","type":"event"},{"anonymous":false,"inputs":[{"indexed":true,"internalType":"uint256","name":"sessionId","type":"uint256"},{"indexed":false,"internalType":"address","name":"voterAddress","type":"address"}],"name":"VoterRegistered","type":"event"},{"anonymous":false,"inputs":[{"indexed":true,"internalType":"uint256","name":"sessionId","type":"uint256"},{"indexed":false,"internalType":"uint256","name":"votersCount","type":"uint256"},{"indexed":false,"internalType":"uint256","name":"totalVotes","type":"uint256"},{"indexed":false,"internalType":"uint256","name":"blankVotes","type":"uint256"},{"indexed":false,"internalType":"uint256","name":"abstention","type":"uint256"},{"components":[{"internalType":"string","name":"description","type":"string"},{"internalType":"uint256","name":"voteCount","type":"uint256"},{"internalType":"address","name":"proposer","type":"address"}],"indexed":false,"internalType":"struct Voting.Proposal[]","name":"winningProposals","type":"tuple[]"}],"name":"VotesTallied","type":"event"},{"anonymous":false,"inputs":[{"indexed":true,"internalType":"uint256","name":"sessionId","type":"uint256"},{"indexed":false,"internalType":"enum Voting.WorkflowStatus","name":"previousStatus","type":"uint8"},{"indexed":false,"internalType":"enum Voting.WorkflowStatus","name":"newStatus","type":"uint8"}],"name":"WorkflowStatusChange","type":"event"},{"inputs":[{"internalType":"string","name":"_name","type":"string"},{"internalType":"string","name":"_description","type":"string"}],"name":"createVotingSession","outputs":[],"stateMutability":"nonpayable","type":"function"},{"inputs":[{"internalType":"uint256","name":"_sessionId","type":"uint256"},{"internalType":"address","name":"_voter","type":"address"}],"name":"getVote","outputs":[{"internalType":"uint8","name":"","type":"uint8"}],"stateMutability":"view","type":"function"},{"inputs":[{"internalType":"uint256","name":"_sessionId","type":"uint256"}],"name":"getWinners","outputs":[{"components":[{"internalType":"string","name":"description","type":"string"},{"internalType":"uint256","name":"voteCount","type":"uint256"},{"internalType":"address","name":"proposer","type":"address"}],"internalType":"struct Voting.Proposal[]","name":"","type":"tuple[]"}],"stateMutability":"view","type":"function"},{"inputs":[],"name":"owner","outputs":[{"internalType":"address","name":"","type":"address"}],"stateMutability":"view","type":"function"},{"inputs":[{"internalType":"uint256","name":"_sessionId","type":"uint256"},{"internalType":"string","name":"_description","type":"string"}],"name":"registerProposal","outputs":[],"stateMutability":"nonpayable","type":"function"},{"inputs":[{"internalType":"uint256","name":"_sessionId","type":"uint256"},{"internalType":"address","name":"_voter","type":"address"}],"name":"registerVoter","outputs":[],"stateMutability":"nonpayable","type":"function"},{"inputs":[],"name":"renounceOwnership","outputs":[],"stateMutability":"nonpayable","type":"function"},{"inputs":[{"internalType":"uint256","name":"_sessionId","type":"uint256"}],"name":"startProposalsRegistration","outputs":[],"stateMutability":"nonpayable","type":"function"},{"inputs":[{"internalType":"uint256","name":"_sessionId","type":"uint256"}],"name":"startVotingSession","outputs":[],"stateMutability":"nonpayable","type":"function"},{"inputs":[{"internalType":"uint256","name":"_sessionId","type":"uint256"}],"name":"stopProposalsRegistration","outputs":[],"stateMutability":"nonpayable","type":"function"},{"inputs":[{"internalType":"uint256","name":"_sessionId","type":"uint256"}],"name":"stopVotingSession","outputs":[],"stateMutability":"nonpayable","type":"function"},{"inputs":[{"internalType":"uint256","name":"_sessionId","type":"uint256"}],"name":"tallyVotes","outputs":[],"stateMutability":"nonpayable","type":"function"},{"inputs":[{"internalType":"address","name":"newOwner","type":"address"}],"name":"transferOwnership","outputs":[],"stateMutability":"nonpayable","type":"function"},{"inputs":[{"internalType":"uint256","name":"_sessionId","type":"uint256"},{"internalType":"uint8","name":"_proposalId","type":"uint8"}],"name":"vote","outputs":[],"stateMutability":"nonpayable","type":"function"}],"devdoc":{"author":"Teddy Chambard","details":"Only the contract owner is able to create new voting session. The contract owner is also able to change the session status and activate next session steps. The word `Administrator` in contract documentation corresponds to contract owner. /!\\ BONUS: I took some decisions to change initial specifications to improve the features available in the exercice: 1) Many voting sessions can be created and evolve in parallel 3) Every events expose sessionId as first parameter 4) A session is limited to 256 proposals 5) Two proposals are registered by default in every session: abstention and blank vote 6) A vote session can terminate with equality if many proposals obtain same number of votes","events":{"ProposalRegistered(uint256,uint8,address,string)":{"details":"I decided to add proposer and description into ProposalRegistered event in order to give to the dapp the capability to list proposals only with events."},"SessionCreated(uint256,string,string)":{"details":"All events signatures integrate sessionId parameter that was not required in specification"},"Voted(uint256,address,uint256)":{"details":"To follow feedbacks given on project #1, I decided to revert my decision about removing proposalId from Voted event despite the specification."}},"kind":"dev","methods":{"createVotingSession(string,string)":{"params":{"_description":"The session description ","_name":"The session name "}},"getVote(uint256,address)":{"details":"Administrator and registered voters can all access to everybody votes. ","params":{"_sessionId":"The session identifier","_voter":"The voter address"},"returns":{"_0":"uint8 target voter proposal choice"}},"getWinners(uint256)":{"details":"Administrator and registered voters can retreive winning proposals but only at the end of voting session. ","returns":{"_0":"Proposal[] The winning proposals"}},"owner()":{"details":"Returns the address of the current owner."},"registerProposal(uint256,string)":{"details":"Each voter can register many proposals. As the vote is considered to be done in small organization context, and to prevent dos gas limit, the maximum number of proposals is limited to 256. A vote can be added only by registered voter when status is set to VotingSessionStarted ","params":{"_description":"The proposal description","_sessionId":"The session identifier"}},"registerVoter(uint256,address)":{"details":"voters can be added only by contract owner when status is set to RegisteringVoters An event VoterRegistered is emitted ","params":{"_sessionId":"The session identifier ","_voter":"The address to add into voters registry"}},"renounceOwnership()":{"details":"Leaves the contract without owner. It will not be possible to call `onlyOwner` functions anymore. Can only be called by the current owner. NOTE: Renouncing ownership will leave the contract without an owner, thereby removing any functionality that is only available to the owner."},"startProposalsRegistration(uint256)":{"details":"Can be called only when status is set to RegisteringVoters. Two default proposals are registered at the beginning of this step: `Abstention` and `Blank`. That means a registered voter that forget to vote will be counted as `abstention` thanks to `proposals` array index 0 An event WorkflowStatusChange is emitted","params":{"_sessionId":"The session identifier "}},"startVotingSession(uint256)":{"details":"Can be called only when status is set to ProposalsRegistrationEnded. An event WorkflowStatusChange is emitted","params":{"_sessionId":"The session identifier "}},"stopProposalsRegistration(uint256)":{"details":"Can be called only when status is set to ProposalsRegistrationStarted. An event WorkflowStatusChange is emitted","params":{"_sessionId":"The session identifier "}},"stopVotingSession(uint256)":{"details":"Can be called only when status is set to VotingSessionStarted. An event WorkflowStatusChange is emitted","params":{"_sessionId":"The session identifier "}},"tallyVotes(uint256)":{"details":"After votes talling, it is possible that we got many winning proposals. Votes talling can be triggered only by contract owner when voting session status is set to VotingSessionEnded An event WorkflowStatusChange is emitted","params":{"_sessionId":"The session identifier "}},"transferOwnership(address)":{"details":"Transfers ownership of the contract to a new account (`newOwner`). Can only be called by the current owner."},"vote(uint256,uint8)":{"details":"Each voter can vote only once for one proposal. Votes can be added only by registered voter when status is set to VotingSessionStarted ","params":{"_proposalId":"The chosen proposal identifier","_sessionId":"The session identifier"}}},"title":"Alyra Project: Voting system","version":1},"evm":{"bytecode":{"linkReferences":{},"object":"608060405234801561001057600080fd5b5061001a3361001f565b61006f565b600080546001600160a01b038381166001600160a01b0319831681178455604051919092169283917f8be0079c531659141344cd1fd0a4f28419497f9722a3daafe3b4186f6b6457e09190a35050565b611d3d8061007e6000396000f3fe608060405234801561001057600080fd5b50600436106100ea5760003560e01c80638da5cb5b1161008c5780639980a55a116100665780639980a55a146101c2578063bc3f931f146101d5578063c82de38f146101fa578063f2fde38b1461020d57600080fd5b80638da5cb5b14610181578063943e82161461019c57806394c790bb146101af57600080fd5b80636f3dc556116100c85780636f3dc55614610140578063715018a6146101535780637ace41841461015b5780638bc6a6dd1461016e57600080fd5b8063153bc95b146100ef5780634d318b0e146101045780636b1426a414610117575b600080fd5b6101026100fd3660046116a9565b610220565b005b610102610112366004611715565b6102d0565b61012a610125366004611715565b6108f0565b604051610137919061172e565b60405180910390f35b61010261014e366004611715565b610add565b610102610b74565b6101026101693660046117f4565b610b88565b61010261017c366004611715565b610c6d565b6000546040516001600160a01b039091168152602001610137565b6101026101aa366004611840565b610d4c565b6101026101bd366004611892565b610fc0565b6101026101d0366004611715565b6111c8565b6101e86101e3366004611892565b611252565b60405160ff9091168152602001610137565b610102610208366004611715565b611356565b61010261021b3660046118be565b6113e0565b610228611459565b6002546000908152600160208190526040909120805460ff1916828002179055506002547fb824462ec90945eb31146c1c4ce6515d44b184facb795bea5d1f52355b243f8b85858585604051610281949392919061191f565b60405180910390a2600254600080516020611ce8833981519152600060016040516102ad929190611973565b60405180910390a2600280549060006102c5836119a4565b919050555050505050565b6102d8611459565b8060058060008381526001602052604090205460ff1660068111156102ff576102ff6118e0565b146103255760405162461bcd60e51b815260040161031c906119bd565b60405180910390fd5b6000838152600160205260408120600401548190819067ffffffffffffffff811115610353576103536119e1565b6040519080825280602002602001820160405280156103b157816020015b61039e6040518060600160405280606081526020016000815260200160006001600160a01b031681525090565b8152602001906001900390816103715790505b50905060025b6000878152600160205260409020600401548110156107185760008781526001602052604090206004018054859190839081106103f6576103f66119f7565b9060005260206000209060030201600101541115610566576000878152600160205260409020600401805482908110610431576104316119f7565b906000526020600020906003020160010154935060019250600160008881526020019081526020016000206004018181548110610470576104706119f7565b906000526020600020906003020160405180606001604052908160008201805461049990611a0d565b80601f01602080910402602001604051908101604052809291908181526020018280546104c590611a0d565b80156105125780601f106104e757610100808354040283529160200191610512565b820191906000526020600020905b8154815290600101906020018083116104f557829003601f168201915b505050918352505060018281015460208301526002909201546001600160a01b031660409091015283906105469086611a47565b81518110610556576105566119f7565b6020026020010181905250610706565b6000878152600160205260408120600401805483908110610589576105896119f7565b9060005260206000209060030201600101541180156105dd575060008781526001602052604090206004018054859190839081106105c9576105c96119f7565b906000526020600020906003020160010154145b1561070657826105ec816119a4565b60008981526001602052604090206004018054919550915082908110610614576106146119f7565b906000526020600020906003020160405180606001604052908160008201805461063d90611a0d565b80601f016020809104026020016040519081016040528092919081815260200182805461066990611a0d565b80156106b65780601f1061068b576101008083540402835291602001916106b6565b820191906000526020600020905b81548152906001019060200180831161069957829003601f168201915b505050918352505060018281015460208301526002909201546001600160a01b031660409091015283906106ea9086611a47565b815181106106fa576106fa6119f7565b60200260200101819052505b80610710816119a4565b9150506103b7565b5060005b828110156107c3576001600088815260200190815260200160002060050182828151811061074c5761074c6119f7565b6020908102919091018101518254600181018455600093845291909220825160039092020190819061077e9082611aab565b5060208201516001820155604090910151600290910180546001600160a01b0319166001600160a01b03909216919091179055806107bb816119a4565b91505061071c565b5060008681526001602052604090819020805460ff1916600690811790915590518791600080516020611ce88339815191529161080291600591611973565b60405180910390a260008681526001602052604081206002015461082757600061084a565b6000878152600160205260409020600381015460029091015461084a9190611a47565b600088815260016020819052604090912060028101546003820154600490920180549495508b947f8231621024a2914f448f5821e1168fa08ea32be09db6a89d94e306e0352d12f4949293929081106108a5576108a56119f7565b90600052602060002090600302016001015485600160008e81526020019081526020016000206005016040516108df959493929190611be8565b60405180910390a250505050505050565b606081336109066000546001600160a01b031690565b6001600160a01b0316148061093657506000818152600160208181526040808420338552909201905290205460ff165b6109775760405162461bcd60e51b81526020600482015260126024820152713737ba1037bbb732b91037b9103b37ba32b960711b604482015260640161031c565b8260068060008381526001602052604090205460ff16600681111561099e5761099e6118e0565b10156109bc5760405162461bcd60e51b815260040161031c906119bd565b600085815260016020908152604080832060050180548251818502810185019093528083529193909284015b82821015610acf5783829060005260206000209060030201604051806060016040529081600082018054610a1b90611a0d565b80601f0160208091040260200160405190810160405280929190818152602001828054610a4790611a0d565b8015610a945780601f10610a6957610100808354040283529160200191610a94565b820191906000526020600020905b815481529060010190602001808311610a7757829003601f168201915b50505091835250506001828101546020808401919091526002909301546001600160a01b0316604090920191909152918352920191016109e8565b505050509350505050919050565b610ae5611459565b8060048060008381526001602052604090205460ff166006811115610b0c57610b0c6118e0565b14610b295760405162461bcd60e51b815260040161031c906119bd565b60008381526001602052604090819020805460ff1916600590811790915590518491600080516020611ce883398151915291610b6791600491611973565b60405180910390a2505050565b610b7c611459565b610b8660006114b3565b565b60008381526001602081815260408084203385529092019052902054839060ff16610be15760405162461bcd60e51b81526020600482015260096024820152683737ba103b37ba32b960b91b604482015260640161031c565b8360028060008381526001602052604090205460ff166006811115610c0857610c086118e0565b14610c255760405162461bcd60e51b815260040161031c906119bd565b610c658686868080601f01602080910402602001604051908101604052809392919081815260200183838082843760009201919091525061150392505050565b505050505050565b610c75611459565b8060018060008381526001602052604090205460ff166006811115610c9c57610c9c6118e0565b14610cb95760405162461bcd60e51b815260040161031c906119bd565b610ce5836040518060400160405280600a81526020016920b139ba32b73a34b7b760b11b815250611503565b610d0c8360405180604001604052806005815260200164426c616e6b60d81b815250611503565b600083815260016020819052604091829020805460ff1916600290811790915591518592600080516020611ce883398151915292610b6792909190611973565b60008281526001602081815260408084203385529092019052902054829060ff16610da55760405162461bcd60e51b81526020600482015260096024820152683737ba103b37ba32b960b91b604482015260640161031c565b8260048060008381526001602052604090205460ff166006811115610dcc57610dcc6118e0565b14610de95760405162461bcd60e51b815260040161031c906119bd565b60008581526001602081815260408084203385529092019052902054610100900460ff1615610e4a5760405162461bcd60e51b815260206004820152600d60248201526c185b1c9958591e481d9bdd1959609a1b604482015260640161031c565b60008581526001602052604090206004015460ff851610610e995760405162461bcd60e51b81526020600482015260096024820152681b9bdd08199bdd5b9960ba1b604482015260640161031c565b60008460ff1611610ee35760405162461bcd60e51b815260206004820152601460248201527330b139ba32b73a34b7b7103337b93134b23232b760611b604482015260640161031c565b6000858152600160205260409020600401805460ff8616908110610f0957610f096119f7565b600091825260208220600160039092020101805491610f27836119a4565b909155505060008581526001602081815260408084203385528084018352908420805460ff8a16620100000262ffff001990911617610100179055888452919052600301805491610f77836119a4565b90915550506040805133815260ff8616602082015286917f1abe610cf2bf87e57dcc1181fcf5ac0934e843d8344ab9eed6e86c799f62585e910160405180910390a25050505050565b610fc8611459565b8160018060008381526001602052604090205460ff166006811115610fef57610fef6118e0565b1461100c5760405162461bcd60e51b815260040161031c906119bd565b6000546001600160a01b03166001600160a01b0316836001600160a01b03160361106d5760405162461bcd60e51b815260206004820152601260248201527131b0b7103737ba1031329030903b37ba32b960711b604482015260640161031c565b60008481526001602081815260408084206001600160a01b0388168552909201905290205460ff16156110d75760405162461bcd60e51b8152602060048201526012602482015271185b1c9958591e481c9959da5cdd195c995960721b604482015260640161031c565b60408051608081018252600180825260006020808401828152848601838152606086018481528b85528584528785206001600160a01b038c16865280870185529785209651875493519251915161ffff1990941690151561ff00191617610100921515929092029190911763ffff000019166201000060ff9283160263ff00000019161763010000009190921602179093558781529152600290910180549161117f836119a4565b90915550506040516001600160a01b038416815284907ff45b8429c36d478f9a6d081c4811a819b98aa5b608588bed9d406405cf2824739060200160405180910390a250505050565b6111d0611459565b8060038060008381526001602052604090205460ff1660068111156111f7576111f76118e0565b146112145760405162461bcd60e51b815260040161031c906119bd565b60008381526001602052604090819020805460ff1916600490811790915590518491600080516020611ce883398151915291610b6791600391611973565b600082336112686000546001600160a01b031690565b6001600160a01b0316148061129857506000818152600160208181526040808420338552909201905290205460ff165b6112d95760405162461bcd60e51b81526020600482015260126024820152713737ba1037bbb732b91037b9103b37ba32b960711b604482015260640161031c565b8360048060008381526001602052604090205460ff166006811115611300576113006118e0565b101561131e5760405162461bcd60e51b815260040161031c906119bd565b5050506000928352506001602081815260408085206001600160a01b0394909416855292909101905290205462010000900460ff1690565b61135e611459565b8060028060008381526001602052604090205460ff166006811115611385576113856118e0565b146113a25760405162461bcd60e51b815260040161031c906119bd565b60008381526001602052604090819020805460ff1916600390811790915590518491600080516020611ce883398151915291610b6791600291611973565b6113e8611459565b6001600160a01b03811661144d5760405162461bcd60e51b815260206004820152602660248201527f4f776e61626c653a206e6577206f776e657220697320746865207a65726f206160448201526564647265737360d01b606482015260840161031c565b611456816114b3565b50565b6000546001600160a01b03163314610b865760405162461bcd60e51b815260206004820181905260248201527f4f776e61626c653a2063616c6c6572206973206e6f7420746865206f776e6572604482015260640161031c565b600080546001600160a01b038381166001600160a01b0319831681178455604051919092169283917f8be0079c531659141344cd1fd0a4f28419497f9722a3daafe3b4186f6b6457e09190a35050565b600082815260016020818152604080842081516060810183528681528084018690523392810192909252600401805493840181558452922082516003909202019081906115509082611aab565b50602082810151600183810191909155604093840151600290930180546001600160a01b0319166001600160a01b0390941693909317909255600085815282825283812033825290920190522080546301000000900460ff169060036115b583611c92565b825460ff9182166101009390930a92830291909202199091161790555060008281526001602081905260408220600401546115f09190611a47565b9050827f048eae4d262615439a255cdd7a71642b5286b208834157822bc2cd3eecf6836f8233600160008881526020019081526020016000206004018560ff1681548110611640576116406119f7565b9060005260206000209060030201600001604051610b6793929190611cb1565b60008083601f84011261167257600080fd5b50813567ffffffffffffffff81111561168a57600080fd5b6020830191508360208285010111156116a257600080fd5b9250929050565b600080600080604085870312156116bf57600080fd5b843567ffffffffffffffff808211156116d757600080fd5b6116e388838901611660565b909650945060208701359150808211156116fc57600080fd5b5061170987828801611660565b95989497509550505050565b60006020828403121561172757600080fd5b5035919050565b60006020808301818452808551808352604092508286019150828160051b8701018488016000805b848110156117e557603f198a8503018652825160608151818752805180838901528592505b80831015611799578183018c015188840160800152918b019161177b565b608092508583828a0101528b8401518c8901528a84015193506117c68b8901856001600160a01b03169052565b988b0198601f01601f1916969096010194505091870191600101611756565b50919998505050505050505050565b60008060006040848603121561180957600080fd5b83359250602084013567ffffffffffffffff81111561182757600080fd5b61183386828701611660565b9497909650939450505050565b6000806040838503121561185357600080fd5b82359150602083013560ff8116811461186b57600080fd5b809150509250929050565b80356001600160a01b038116811461188d57600080fd5b919050565b600080604083850312156118a557600080fd5b823591506118b560208401611876565b90509250929050565b6000602082840312156118d057600080fd5b6118d982611876565b9392505050565b634e487b7160e01b600052602160045260246000fd5b81835281816020850137506000828201602090810191909152601f909101601f19169091010190565b6040815260006119336040830186886118f6565b82810360208401526119468185876118f6565b979650505050505050565b6007811061196f57634e487b7160e01b600052602160045260246000fd5b9052565b604081016119818285611951565b6118d96020830184611951565b634e487b7160e01b600052601160045260246000fd5b6000600182016119b6576119b661198e565b5060010190565b6020808252600a90820152696261642073746174757360b01b604082015260600190565b634e487b7160e01b600052604160045260246000fd5b634e487b7160e01b600052603260045260246000fd5b600181811c90821680611a2157607f821691505b602082108103611a4157634e487b7160e01b600052602260045260246000fd5b50919050565b81810381811115611a5a57611a5a61198e565b92915050565b601f821115611aa657600081815260208120601f850160051c81016020861015611a875750805b601f850160051c820191505b81811015610c6557828155600101611a93565b505050565b815167ffffffffffffffff811115611ac557611ac56119e1565b611ad981611ad38454611a0d565b84611a60565b602080601f831160018114611b0e5760008415611af65750858301515b600019600386901b1c1916600185901b178555610c65565b600085815260208120601f198616915b82811015611b3d57888601518255948401946001909101908401611b1e565b5085821015611b5b5787850151600019600388901b60f8161c191681555b5050505050600190811b01905550565b60008154611b7881611a0d565b808552602060018381168015611b955760018114611baf57611bdd565b60ff1985168884015283151560051b880183019550611bdd565b866000528260002060005b85811015611bd55781548a8201860152908301908401611bba565b890184019650505b505050505092915050565b600060a0820187835260208781850152604087818601526060878187015260a0608087015283875480865260c08801915060c08160051b8901019550886000528460002060005b82811015611c7f5789880360bf19018452848852611c4f85890183611b6b565b6001838101548a8a015260028401546001600160a01b031699880199909952979387019360039092019101611c2f565b50959d9c50505050505050505050505050565b600060ff821660ff8103611ca857611ca861198e565b60010192915050565b60ff841681526001600160a01b0383166020820152606060408201819052600090611cde90830184611b6b565b9594505050505056feb067099e10826978a3867510ad1e0dcf4ca5cef8e422fd8df2fc3d679167fe8da26469706673582212200d5b48fe7574e2cbc743cfe82640a2ffed9e3e66cae6c15089039dda4926832164736f6c63430008110033","opcodes":"PUSH1 0x80 PUSH1 0x40 MSTORE CALLVALUE DUP1 ISZERO PUSH2 0x10 JUMPI PUSH1 0x0 DUP1 REVERT JUMPDEST POP PUSH2 0x1A CALLER PUSH2 0x1F JUMP JUMPDEST PUSH2 0x6F JUMP JUMPDEST PUSH1 0x0 DUP1 SLOAD PUSH1 0x1 PUSH1 0x1 PUSH1 0xA0 SHL SUB DUP4 DUP2 AND PUSH1 0x1 PUSH1 0x1 PUSH1 0xA0 SHL SUB NOT DUP4 AND DUP2 OR DUP5 SSTORE PUSH1 0x40 MLOAD SWAP2 SWAP1 SWAP3 AND SWAP3 DUP4 SWAP2 PUSH32 0x8BE0079C531659141344CD1FD0A4F28419497F9722A3DAAFE3B4186F6B6457E0 SWAP2 SWAP1 LOG3 POP POP JUMP JUMPDEST PUSH2 0x1D3D DUP1 PUSH2 0x7E PUSH1 0x0 CODECOPY PUSH1 0x0 RETURN INVALID PUSH1 0x80 PUSH1 0x40 MSTORE CALLVALUE DUP1 ISZERO PUSH2 0x10 JUMPI PUSH1 0x0 DUP1 REVERT JUMPDEST POP PUSH1 0x4 CALLDATASIZE LT PUSH2 0xEA JUMPI PUSH1 0x0 CALLDATALOAD PUSH1 0xE0 SHR DUP1 PUSH4 0x8DA5CB5B GT PUSH2 0x8C JUMPI DUP1 PUSH4 0x9980A55A GT PUSH2 0x66 JUMPI DUP1 PUSH4 0x9980A55A EQ PUSH2 0x1C2 JUMPI DUP1 PUSH4 0xBC3F931F EQ PUSH2 0x1D5 JUMPI DUP1 PUSH4 0xC82DE38F EQ PUSH2 0x1FA JUMPI DUP1 PUSH4 0xF2FDE38B EQ PUSH2 0x20D JUMPI PUSH1 0x0 DUP1 REVERT JUMPDEST DUP1 PUSH4 0x8DA5CB5B EQ PUSH2 0x181 JUMPI DUP1 PUSH4 0x943E8216 EQ PUSH2 0x19C JUMPI DUP1 PUSH4 0x94C790BB EQ PUSH2 0x1AF JUMPI PUSH1 0x0 DUP1 REVERT JUMPDEST DUP1 PUSH4 0x6F3DC556 GT PUSH2 0xC8 JUMPI DUP1 PUSH4 0x6F3DC556 EQ PUSH2 0x140 JUMPI DUP1 PUSH4 0x715018A6 EQ PUSH2 0x153 JUMPI DUP1 PUSH4 0x7ACE4184 EQ PUSH2 0x15B JUMPI DUP1 PUSH4 0x8BC6A6DD EQ PUSH2 0x16E JUMPI PUSH1 0x0 DUP1 REVERT JUMPDEST DUP1 PUSH4 0x153BC95B EQ PUSH2 0xEF JUMPI DUP1 PUSH4 0x4D318B0E EQ PUSH2 0x104 JUMPI DUP1 PUSH4 0x6B1426A4 EQ PUSH2 0x117 JUMPI JUMPDEST PUSH1 0x0 DUP1 REVERT JUMPDEST PUSH2 0x102 PUSH2 0xFD CALLDATASIZE PUSH1 0x4 PUSH2 0x16A9 JUMP JUMPDEST PUSH2 0x220 JUMP JUMPDEST STOP JUMPDEST PUSH2 0x102 PUSH2 0x112 CALLDATASIZE PUSH1 0x4 PUSH2 0x1715 JUMP JUMPDEST PUSH2 0x2D0 JUMP JUMPDEST PUSH2 0x12A PUSH2 0x125 CALLDATASIZE PUSH1 0x4 PUSH2 0x1715 JUMP JUMPDEST PUSH2 0x8F0 JUMP JUMPDEST PUSH1 0x40 MLOAD PUSH2 0x137 SWAP2 SWAP1 PUSH2 0x172E JUMP JUMPDEST PUSH1 0x40 MLOAD DUP1 SWAP2 SUB SWAP1 RETURN JUMPDEST PUSH2 0x102 PUSH2 0x14E CALLDATASIZE PUSH1 0x4 PUSH2 0x1715 JUMP JUMPDEST PUSH2 0xADD JUMP JUMPDEST PUSH2 0x102 PUSH2 0xB74 JUMP JUMPDEST PUSH2 0x102 PUSH2 0x169 CALLDATASIZE PUSH1 0x4 PUSH2 0x17F4 JUMP JUMPDEST PUSH2 0xB88 JUMP JUMPDEST PUSH2 0x102 PUSH2 0x17C CALLDATASIZE PUSH1 0x4 PUSH2 0x1715 JUMP JUMPDEST PUSH2 0xC6D JUMP JUMPDEST PUSH1 0x0 SLOAD PUSH1 0x40 MLOAD PUSH1 0x1 PUSH1 0x1 PUSH1 0xA0 SHL SUB SWAP1 SWAP2 AND DUP2 MSTORE PUSH1 0x20 ADD PUSH2 0x137 JUMP JUMPDEST PUSH2 0x102 PUSH2 0x1AA CALLDATASIZE PUSH1 0x4 PUSH2 0x1840 JUMP JUMPDEST PUSH2 0xD4C JUMP JUMPDEST PUSH2 0x102 PUSH2 0x1BD CALLDATASIZE PUSH1 0x4 PUSH2 0x1892 JUMP JUMPDEST PUSH2 0xFC0 JUMP JUMPDEST PUSH2 0x102 PUSH2 0x1D0 CALLDATASIZE PUSH1 0x4 PUSH2 0x1715 JUMP JUMPDEST PUSH2 0x11C8 JUMP JUMPDEST PUSH2 0x1E8 PUSH2 0x1E3 CALLDATASIZE PUSH1 0x4 PUSH2 0x1892 JUMP JUMPDEST PUSH2 0x1252 JUMP JUMPDEST PUSH1 0x40 MLOAD PUSH1 0xFF SWAP1 SWAP2 AND DUP2 MSTORE PUSH1 0x20 ADD PUSH2 0x137 JUMP JUMPDEST PUSH2 0x102 PUSH2 0x208 CALLDATASIZE PUSH1 0x4 PUSH2 0x1715 JUMP JUMPDEST PUSH2 0x1356 JUMP JUMPDEST PUSH2 0x102 PUSH2 0x21B CALLDATASIZE PUSH1 0x4 PUSH2 0x18BE JUMP JUMPDEST PUSH2 0x13E0 JUMP JUMPDEST PUSH2 0x228 PUSH2 0x1459 JUMP JUMPDEST PUSH1 0x2 SLOAD PUSH1 0x0 SWAP1 DUP2 MSTORE PUSH1 0x1 PUSH1 0x20 DUP2 SWAP1 MSTORE PUSH1 0x40 SWAP1 SWAP2 KECCAK256 DUP1 SLOAD PUSH1 0xFF NOT AND DUP3 DUP1 MUL OR SWAP1 SSTORE POP PUSH1 0x2 SLOAD PUSH32 0xB824462EC90945EB31146C1C4CE6515D44B184FACB795BEA5D1F52355B243F8B DUP6 DUP6 DUP6 DUP6 PUSH1 0x40 MLOAD PUSH2 0x281 SWAP5 SWAP4 SWAP3 SWAP2 SWAP1 PUSH2 0x191F JUMP JUMPDEST PUSH1 0x40 MLOAD DUP1 SWAP2 SUB SWAP1 LOG2 PUSH1 0x2 SLOAD PUSH1 0x0 DUP1 MLOAD PUSH1 0x20 PUSH2 0x1CE8 DUP4 CODECOPY DUP2 MLOAD SWAP2 MSTORE PUSH1 0x0 PUSH1 0x1 PUSH1 0x40 MLOAD PUSH2 0x2AD SWAP3 SWAP2 SWAP1 PUSH2 0x1973 JUMP JUMPDEST PUSH1 0x40 MLOAD DUP1 SWAP2 SUB SWAP1 LOG2 PUSH1 0x2 DUP1 SLOAD SWAP1 PUSH1 0x0 PUSH2 0x2C5 DUP4 PUSH2 0x19A4 JUMP JUMPDEST SWAP2 SWAP1 POP SSTORE POP POP POP POP POP JUMP JUMPDEST PUSH2 0x2D8 PUSH2 0x1459 JUMP JUMPDEST DUP1 PUSH1 0x5 DUP1 PUSH1 0x0 DUP4 DUP2 MSTORE PUSH1 0x1 PUSH1 0x20 MSTORE PUSH1 0x40 SWAP1 KECCAK256 SLOAD PUSH1 0xFF AND PUSH1 0x6 DUP2 GT ISZERO PUSH2 0x2FF JUMPI PUSH2 0x2FF PUSH2 0x18E0 JUMP JUMPDEST EQ PUSH2 0x325 JUMPI PUSH1 0x40 MLOAD PUSH3 0x461BCD PUSH1 0xE5 SHL DUP2 MSTORE PUSH1 0x4 ADD PUSH2 0x31C SWAP1 PUSH2 0x19BD JUMP JUMPDEST PUSH1 0x40 MLOAD DUP1 SWAP2 SUB SWAP1 REVERT JUMPDEST PUSH1 0x0 DUP4 DUP2 MSTORE PUSH1 0x1 PUSH1 0x20 MSTORE PUSH1 0x40 DUP2 KECCAK256 PUSH1 0x4 ADD SLOAD DUP2 SWAP1 DUP2 SWAP1 PUSH8 0xFFFFFFFFFFFFFFFF DUP2 GT ISZERO PUSH2 0x353 JUMPI PUSH2 0x353 PUSH2 0x19E1 JUMP JUMPDEST PUSH1 0x40 MLOAD SWAP1 DUP1 DUP3 MSTORE DUP1 PUSH1 0x20 MUL PUSH1 0x20 ADD DUP3 ADD PUSH1 0x40 MSTORE DUP1 ISZERO PUSH2 0x3B1 JUMPI DUP2 PUSH1 0x20 ADD JUMPDEST PUSH2 0x39E PUSH1 0x40 MLOAD DUP1 PUSH1 0x60 ADD PUSH1 0x40 MSTORE DUP1 PUSH1 0x60 DUP2 MSTORE PUSH1 0x20 ADD PUSH1 0x0 DUP2 MSTORE PUSH1 0x20 ADD PUSH1 0x0 PUSH1 0x1 PUSH1 0x1 PUSH1 0xA0 SHL SUB AND DUP2 MSTORE POP SWAP1 JUMP JUMPDEST DUP2 MSTORE PUSH1 0x20 ADD SWAP1 PUSH1 0x1 SWAP1 SUB SWAP1 DUP2 PUSH2 0x371 JUMPI SWAP1 POP JUMPDEST POP SWAP1 POP PUSH1 0x2 JUMPDEST PUSH1 0x0 DUP8 DUP2 MSTORE PUSH1 0x1 PUSH1 0x20 MSTORE PUSH1 0x40 SWAP1 KECCAK256 PUSH1 0x4 ADD SLOAD DUP2 LT ISZERO PUSH2 0x718 JUMPI PUSH1 0x0 DUP8 DUP2 MSTORE PUSH1 0x1 PUSH1 0x20 MSTORE PUSH1 0x40 SWAP1 KECCAK256 PUSH1 0x4 ADD DUP1 SLOAD DUP6 SWAP2 SWAP1 DUP4 SWAP1 DUP2 LT PUSH2 0x3F6 JUMPI PUSH2 0x3F6 PUSH2 0x19F7 JUMP JUMPDEST SWAP1 PUSH1 0x0 MSTORE PUSH1 0x20 PUSH1 0x0 KECCAK256 SWAP1 PUSH1 0x3 MUL ADD PUSH1 0x1 ADD SLOAD GT ISZERO PUSH2 0x566 JUMPI PUSH1 0x0 DUP8 DUP2 MSTORE PUSH1 0x1 PUSH1 0x20 MSTORE PUSH1 0x40 SWAP1 KECCAK256 PUSH1 0x4 ADD DUP1 SLOAD DUP3 SWAP1 DUP2 LT PUSH2 0x431 JUMPI PUSH2 0x431 PUSH2 0x19F7 JUMP JUMPDEST SWAP1 PUSH1 0x0 MSTORE PUSH1 0x20 PUSH1 0x0 KECCAK256 SWAP1 PUSH1 0x3 MUL ADD PUSH1 0x1 ADD SLOAD SWAP4 POP PUSH1 0x1 SWAP3 POP PUSH1 0x1 PUSH1 0x0 DUP9 DUP2 MSTORE PUSH1 0x20 ADD SWAP1 DUP2 MSTORE PUSH1 0x20 ADD PUSH1 0x0 KECCAK256 PUSH1 0x4 ADD DUP2 DUP2 SLOAD DUP2 LT PUSH2 0x470 JUMPI PUSH2 0x470 PUSH2 0x19F7 JUMP JUMPDEST SWAP1 PUSH1 0x0 MSTORE PUSH1 0x20 PUSH1 0x0 KECCAK256 SWAP1 PUSH1 0x3 MUL ADD PUSH1 0x40 MLOAD DUP1 PUSH1 0x60 ADD PUSH1 0x40 MSTORE SWAP1 DUP2 PUSH1 0x0 DUP3 ADD DUP1 SLOAD PUSH2 0x499 SWAP1 PUSH2 0x1A0D JUMP JUMPDEST DUP1 PUSH1 0x1F ADD PUSH1 0x20 DUP1 SWAP2 DIV MUL PUSH1 0x20 ADD PUSH1 0x40 MLOAD SWAP1 DUP2 ADD PUSH1 0x40 MSTORE DUP1 SWAP3 SWAP2 SWAP1 DUP2 DUP2 MSTORE PUSH1 0x20 ADD DUP3 DUP1 SLOAD PUSH2 0x4C5 SWAP1 PUSH2 0x1A0D JUMP JUMPDEST DUP1 ISZERO PUSH2 0x512 JUMPI DUP1 PUSH1 0x1F LT PUSH2 0x4E7 JUMPI PUSH2 0x100 DUP1 DUP4 SLOAD DIV MUL DUP4 MSTORE SWAP2 PUSH1 0x20 ADD SWAP2 PUSH2 0x512 JUMP JUMPDEST DUP3 ADD SWAP2 SWAP1 PUSH1 0x0 MSTORE PUSH1 0x20 PUSH1 0x0 KECCAK256 SWAP1 JUMPDEST DUP2 SLOAD DUP2 MSTORE SWAP1 PUSH1 0x1 ADD SWAP1 PUSH1 0x20 ADD DUP1 DUP4 GT PUSH2 0x4F5 JUMPI DUP3 SWAP1 SUB PUSH1 0x1F AND DUP3 ADD SWAP2 JUMPDEST POP POP POP SWAP2 DUP4 MSTORE POP POP PUSH1 0x1 DUP3 DUP2 ADD SLOAD PUSH1 0x20 DUP4 ADD MSTORE PUSH1 0x2 SWAP1 SWAP3 ADD SLOAD PUSH1 0x1 PUSH1 0x1 PUSH1 0xA0 SHL SUB AND PUSH1 0x40 SWAP1 SWAP2 ADD MSTORE DUP4 SWAP1 PUSH2 0x546 SWAP1 DUP7 PUSH2 0x1A47 JUMP JUMPDEST DUP2 MLOAD DUP2 LT PUSH2 0x556 JUMPI PUSH2 0x556 PUSH2 0x19F7 JUMP JUMPDEST PUSH1 0x20 MUL PUSH1 0x20 ADD ADD DUP2 SWAP1 MSTORE POP PUSH2 0x706 JUMP JUMPDEST PUSH1 0x0 DUP8 DUP2 MSTORE PUSH1 0x1 PUSH1 0x20 MSTORE PUSH1 0x40 DUP2 KECCAK256 PUSH1 0x4 ADD DUP1 SLOAD DUP4 SWAP1 DUP2 LT PUSH2 0x589 JUMPI PUSH2 0x589 PUSH2 0x19F7 JUMP JUMPDEST SWAP1 PUSH1 0x0 MSTORE PUSH1 0x20 PUSH1 0x0 KECCAK256 SWAP1 PUSH1 0x3 MUL ADD PUSH1 0x1 ADD SLOAD GT DUP1 ISZERO PUSH2 0x5DD JUMPI POP PUSH1 0x0 DUP8 DUP2 MSTORE PUSH1 0x1 PUSH1 0x20 MSTORE PUSH1 0x40 SWAP1 KECCAK256 PUSH1 0x4 ADD DUP1 SLOAD DUP6 SWAP2 SWAP1 DUP4 SWAP1 DUP2 LT PUSH2 0x5C9 JUMPI PUSH2 0x5C9 PUSH2 0x19F7 JUMP JUMPDEST SWAP1 PUSH1 0x0 MSTORE PUSH1 0x20 PUSH1 0x0 KECCAK256 SWAP1 PUSH1 0x3 MUL ADD PUSH1 0x1 ADD SLOAD EQ JUMPDEST ISZERO PUSH2 0x706 JUMPI DUP3 PUSH2 0x5EC DUP2 PUSH2 0x19A4 JUMP JUMPDEST PUSH1 0x0 DUP10 DUP2 MSTORE PUSH1 0x1 PUSH1 0x20 MSTORE PUSH1 0x40 SWAP1 KECCAK256 PUSH1 0x4 ADD DUP1 SLOAD SWAP2 SWAP6 POP SWAP2 POP DUP3 SWAP1 DUP2 LT PUSH2 0x614 JUMPI PUSH2 0x614 PUSH2 0x19F7 JUMP JUMPDEST SWAP1 PUSH1 0x0 MSTORE PUSH1 0x20 PUSH1 0x0 KECCAK256 SWAP1 PUSH1 0x3 MUL ADD PUSH1 0x40 MLOAD DUP1 PUSH1 0x60 ADD PUSH1 0x40 MSTORE SWAP1 DUP2 PUSH1 0x0 DUP3 ADD DUP1 SLOAD PUSH2 0x63D SWAP1 PUSH2 0x1A0D JUMP JUMPDEST DUP1 PUSH1 0x1F ADD PUSH1 0x20 DUP1 SWAP2 DIV MUL PUSH1 0x20 ADD PUSH1 0x40 MLOAD SWAP1 DUP2 ADD PUSH1 0x40 MSTORE DUP1 SWAP3 SWAP2 SWAP1 DUP2 DUP2 MSTORE PUSH1 0x20 ADD DUP3 DUP1 SLOAD PUSH2 0x669 SWAP1 PUSH2 0x1A0D JUMP JUMPDEST DUP1 ISZERO PUSH2 0x6B6 JUMPI DUP1 PUSH1 0x1F LT PUSH2 0x68B JUMPI PUSH2 0x100 DUP1 DUP4 SLOAD DIV MUL DUP4 MSTORE SWAP2 PUSH1 0x20 ADD SWAP2 PUSH2 0x6B6 JUMP JUMPDEST DUP3 ADD SWAP2 SWAP1 PUSH1 0x0 MSTORE PUSH1 0x20 PUSH1 0x0 KECCAK256 SWAP1 JUMPDEST DUP2 SLOAD DUP2 MSTORE SWAP1 PUSH1 0x1 ADD SWAP1 PUSH1 0x20 ADD DUP1 DUP4 GT PUSH2 0x699 JUMPI DUP3 SWAP1 SUB PUSH1 0x1F AND DUP3 ADD SWAP2 JUMPDEST POP POP POP SWAP2 DUP4 MSTORE POP POP PUSH1 0x1 DUP3 DUP2 ADD SLOAD PUSH1 0x20 DUP4 ADD MSTORE PUSH1 0x2 SWAP1 SWAP3 ADD SLOAD PUSH1 0x1 PUSH1 0x1 PUSH1 0xA0 SHL SUB AND PUSH1 0x40 SWAP1 SWAP2 ADD MSTORE DUP4 SWAP1 PUSH2 0x6EA SWAP1 DUP7 PUSH2 0x1A47 JUMP JUMPDEST DUP2 MLOAD DUP2 LT PUSH2 0x6FA JUMPI PUSH2 0x6FA PUSH2 0x19F7 JUMP JUMPDEST PUSH1 0x20 MUL PUSH1 0x20 ADD ADD DUP2 SWAP1 MSTORE POP JUMPDEST DUP1 PUSH2 0x710 DUP2 PUSH2 0x19A4 JUMP JUMPDEST SWAP2 POP POP PUSH2 0x3B7 JUMP JUMPDEST POP PUSH1 0x0 JUMPDEST DUP3 DUP2 LT ISZERO PUSH2 0x7C3 JUMPI PUSH1 0x1 PUSH1 0x0 DUP9 DUP2 MSTORE PUSH1 0x20 ADD SWAP1 DUP2 MSTORE PUSH1 0x20 ADD PUSH1 0x0 KECCAK256 PUSH1 0x5 ADD DUP3 DUP3 DUP2 MLOAD DUP2 LT PUSH2 0x74C JUMPI PUSH2 0x74C PUSH2 0x19F7 JUMP JUMPDEST PUSH1 0x20 SWAP1 DUP2 MUL SWAP2 SWAP1 SWAP2 ADD DUP2 ADD MLOAD DUP3 SLOAD PUSH1 0x1 DUP2 ADD DUP5 SSTORE PUSH1 0x0 SWAP4 DUP5 MSTORE SWAP2 SWAP1 SWAP3 KECCAK256 DUP3 MLOAD PUSH1 0x3 SWAP1 SWAP3 MUL ADD SWAP1 DUP2 SWAP1 PUSH2 0x77E SWAP1 DUP3 PUSH2 0x1AAB JUMP JUMPDEST POP PUSH1 0x20 DUP3 ADD MLOAD PUSH1 0x1 DUP3 ADD SSTORE PUSH1 0x40 SWAP1 SWAP2 ADD MLOAD PUSH1 0x2 SWAP1 SWAP2 ADD DUP1 SLOAD PUSH1 0x1 PUSH1 0x1 PUSH1 0xA0 SHL SUB NOT AND PUSH1 0x1 PUSH1 0x1 PUSH1 0xA0 SHL SUB SWAP1 SWAP3 AND SWAP2 SWAP1 SWAP2 OR SWAP1 SSTORE DUP1 PUSH2 0x7BB DUP2 PUSH2 0x19A4 JUMP JUMPDEST SWAP2 POP POP PUSH2 0x71C JUMP JUMPDEST POP PUSH1 0x0 DUP7 DUP2 MSTORE PUSH1 0x1 PUSH1 0x20 MSTORE PUSH1 0x40 SWAP1 DUP2 SWAP1 KECCAK256 DUP1 SLOAD PUSH1 0xFF NOT AND PUSH1 0x6 SWAP1 DUP2 OR SWAP1 SWAP2 SSTORE SWAP1 MLOAD DUP8 SWAP2 PUSH1 0x0 DUP1 MLOAD PUSH1 0x20 PUSH2 0x1CE8 DUP4 CODECOPY DUP2 MLOAD SWAP2 MSTORE SWAP2 PUSH2 0x802 SWAP2 PUSH1 0x5 SWAP2 PUSH2 0x1973 JUMP JUMPDEST PUSH1 0x40 MLOAD DUP1 SWAP2 SUB SWAP1 LOG2 PUSH1 0x0 DUP7 DUP2 MSTORE PUSH1 0x1 PUSH1 0x20 MSTORE PUSH1 0x40 DUP2 KECCAK256 PUSH1 0x2 ADD SLOAD PUSH2 0x827 JUMPI PUSH1 0x0 PUSH2 0x84A JUMP JUMPDEST PUSH1 0x0 DUP8 DUP2 MSTORE PUSH1 0x1 PUSH1 0x20 MSTORE PUSH1 0x40 SWAP1 KECCAK256 PUSH1 0x3 DUP2 ADD SLOAD PUSH1 0x2 SWAP1 SWAP2 ADD SLOAD PUSH2 0x84A SWAP2 SWAP1 PUSH2 0x1A47 JUMP JUMPDEST PUSH1 0x0 DUP9 DUP2 MSTORE PUSH1 0x1 PUSH1 0x20 DUP2 SWAP1 MSTORE PUSH1 0x40 SWAP1 SWAP2 KECCAK256 PUSH1 0x2 DUP2 ADD SLOAD PUSH1 0x3 DUP3 ADD SLOAD PUSH1 0x4 SWAP1 SWAP3 ADD DUP1 SLOAD SWAP5 SWAP6 POP DUP12 SWAP5 PUSH32 0x8231621024A2914F448F5821E1168FA08EA32BE09DB6A89D94E306E0352D12F4 SWAP5 SWAP3 SWAP4 SWAP3 SWAP1 DUP2 LT PUSH2 0x8A5 JUMPI PUSH2 0x8A5 PUSH2 0x19F7 JUMP JUMPDEST SWAP1 PUSH1 0x0 MSTORE PUSH1 0x20 PUSH1 0x0 KECCAK256 SWAP1 PUSH1 0x3 MUL ADD PUSH1 0x1 ADD SLOAD DUP6 PUSH1 0x1 PUSH1 0x0 DUP15 DUP2 MSTORE PUSH1 0x20 ADD SWAP1 DUP2 MSTORE PUSH1 0x20 ADD PUSH1 0x0 KECCAK256 PUSH1 0x5 ADD PUSH1 0x40 MLOAD PUSH2 0x8DF SWAP6 SWAP5 SWAP4 SWAP3 SWAP2 SWAP1 PUSH2 0x1BE8 JUMP JUMPDEST PUSH1 0x40 MLOAD DUP1 SWAP2 SUB SWAP1 LOG2 POP POP POP POP POP POP POP JUMP JUMPDEST PUSH1 0x60 DUP2 CALLER PUSH2 0x906 PUSH1 0x0 SLOAD PUSH1 0x1 PUSH1 0x1 PUSH1 0xA0 SHL SUB AND SWAP1 JUMP JUMPDEST PUSH1 0x1 PUSH1 0x1 PUSH1 0xA0 SHL SUB AND EQ DUP1 PUSH2 0x936 JUMPI POP PUSH1 0x0 DUP2 DUP2 MSTORE PUSH1 0x1 PUSH1 0x20 DUP2 DUP2 MSTORE PUSH1 0x40 DUP1 DUP5 KECCAK256 CALLER DUP6 MSTORE SWAP1 SWAP3 ADD SWAP1 MSTORE SWAP1 KECCAK256 SLOAD PUSH1 0xFF AND JUMPDEST PUSH2 0x977 JUMPI PUSH1 0x40 MLOAD PUSH3 0x461BCD PUSH1 0xE5 SHL DUP2 MSTORE PUSH1 0x20 PUSH1 0x4 DUP3 ADD MSTORE PUSH1 0x12 PUSH1 0x24 DUP3 ADD MSTORE PUSH18 0x3737BA1037BBB732B91037B9103B37BA32B9 PUSH1 0x71 SHL PUSH1 0x44 DUP3 ADD MSTORE PUSH1 0x64 ADD PUSH2 0x31C JUMP JUMPDEST DUP3 PUSH1 0x6 DUP1 PUSH1 0x0 DUP4 DUP2 MSTORE PUSH1 0x1 PUSH1 0x20 MSTORE PUSH1 0x40 SWAP1 KECCAK256 SLOAD PUSH1 0xFF AND PUSH1 0x6 DUP2 GT ISZERO PUSH2 0x99E JUMPI PUSH2 0x99E PUSH2 0x18E0 JUMP JUMPDEST LT ISZERO PUSH2 0x9BC JUMPI PUSH1 0x40 MLOAD PUSH3 0x461BCD PUSH1 0xE5 SHL DUP2 MSTORE PUSH1 0x4 ADD PUSH2 0x31C SWAP1 PUSH2 0x19BD JUMP JUMPDEST PUSH1 0x0 DUP6 DUP2 MSTORE PUSH1 0x1 PUSH1 0x20 SWAP1 DUP2 MSTORE PUSH1 0x40 DUP1 DUP4 KECCAK256 PUSH1 0x5 ADD DUP1 SLOAD DUP3 MLOAD DUP2 DUP6 MUL DUP2 ADD DUP6 ADD SWAP1 SWAP4 MSTORE DUP1 DUP4 MSTORE SWAP2 SWAP4 SWAP1 SWAP3 DUP5 ADD JUMPDEST DUP3 DUP3 LT ISZERO PUSH2 0xACF JUMPI DUP4 DUP3 SWAP1 PUSH1 0x0 MSTORE PUSH1 0x20 PUSH1 0x0 KECCAK256 SWAP1 PUSH1 0x3 MUL ADD PUSH1 0x40 MLOAD DUP1 PUSH1 0x60 ADD PUSH1 0x40 MSTORE SWAP1 DUP2 PUSH1 0x0 DUP3 ADD DUP1 SLOAD PUSH2 0xA1B SWAP1 PUSH2 0x1A0D JUMP JUMPDEST DUP1 PUSH1 0x1F ADD PUSH1 0x20 DUP1 SWAP2 DIV MUL PUSH1 0x20 ADD PUSH1 0x40 MLOAD SWAP1 DUP2 ADD PUSH1 0x40 MSTORE DUP1 SWAP3 SWAP2 SWAP1 DUP2 DUP2 MSTORE PUSH1 0x20 ADD DUP3 DUP1 SLOAD PUSH2 0xA47 SWAP1 PUSH2 0x1A0D JUMP JUMPDEST DUP1 ISZERO PUSH2 0xA94 JUMPI DUP1 PUSH1 0x1F LT PUSH2 0xA69 JUMPI PUSH2 0x100 DUP1 DUP4 SLOAD DIV MUL DUP4 MSTORE SWAP2 PUSH1 0x20 ADD SWAP2 PUSH2 0xA94 JUMP JUMPDEST DUP3 ADD SWAP2 SWAP1 PUSH1 0x0 MSTORE PUSH1 0x20 PUSH1 0x0 KECCAK256 SWAP1 JUMPDEST DUP2 SLOAD DUP2 MSTORE SWAP1 PUSH1 0x1 ADD SWAP1 PUSH1 0x20 ADD DUP1 DUP4 GT PUSH2 0xA77 JUMPI DUP3 SWAP1 SUB PUSH1 0x1F AND DUP3 ADD SWAP2 JUMPDEST POP POP POP SWAP2 DUP4 MSTORE POP POP PUSH1 0x1 DUP3 DUP2 ADD SLOAD PUSH1 0x20 DUP1 DUP5 ADD SWAP2 SWAP1 SWAP2 MSTORE PUSH1 0x2 SWAP1 SWAP4 ADD SLOAD PUSH1 0x1 PUSH1 0x1 PUSH1 0xA0 SHL SUB AND PUSH1 0x40 SWAP1 SWAP3 ADD SWAP2 SWAP1 SWAP2 MSTORE SWAP2 DUP4 MSTORE SWAP3 ADD SWAP2 ADD PUSH2 0x9E8 JUMP JUMPDEST POP POP POP POP SWAP4 POP POP POP POP SWAP2 SWAP1 POP JUMP JUMPDEST PUSH2 0xAE5 PUSH2 0x1459 JUMP JUMPDEST DUP1 PUSH1 0x4 DUP1 PUSH1 0x0 DUP4 DUP2 MSTORE PUSH1 0x1 PUSH1 0x20 MSTORE PUSH1 0x40 SWAP1 KECCAK256 SLOAD PUSH1 0xFF AND PUSH1 0x6 DUP2 GT ISZERO PUSH2 0xB0C JUMPI PUSH2 0xB0C PUSH2 0x18E0 JUMP JUMPDEST EQ PUSH2 0xB29 JUMPI PUSH1 0x40 MLOAD PUSH3 0x461BCD PUSH1 0xE5 SHL DUP2 MSTORE PUSH1 0x4 ADD PUSH2 0x31C SWAP1 PUSH2 0x19BD JUMP JUMPDEST PUSH1 0x0 DUP4 DUP2 MSTORE PUSH1 0x1 PUSH1 0x20 MSTORE PUSH1 0x40 SWAP1 DUP2 SWAP1 KECCAK256 DUP1 SLOAD PUSH1 0xFF NOT AND PUSH1 0x5 SWAP1 DUP2 OR SWAP1 SWAP2 SSTORE SWAP1 MLOAD DUP5 SWAP2 PUSH1 0x0 DUP1 MLOAD PUSH1 0x20 PUSH2 0x1CE8 DUP4 CODECOPY DUP2 MLOAD SWAP2 MSTORE SWAP2 PUSH2 0xB67 SWAP2 PUSH1 0x4 SWAP2 PUSH2 0x1973 JUMP JUMPDEST PUSH1 0x40 MLOAD DUP1 SWAP2 SUB SWAP1 LOG2 POP POP POP JUMP JUMPDEST PUSH2 0xB7C PUSH2 0x1459 JUMP JUMPDEST PUSH2 0xB86 PUSH1 0x0 PUSH2 0x14B3 JUMP JUMPDEST JUMP JUMPDEST PUSH1 0x0 DUP4 DUP2 MSTORE PUSH1 0x1 PUSH1 0x20 DUP2 DUP2 MSTORE PUSH1 0x40 DUP1 DUP5 KECCAK256 CALLER DUP6 MSTORE SWAP1 SWAP3 ADD SWAP1 MSTORE SWAP1 KECCAK256 SLOAD DUP4 SWAP1 PUSH1 0xFF AND PUSH2 0xBE1 JUMPI PUSH1 0x40 MLOAD PUSH3 0x461BCD PUSH1 0xE5 SHL DUP2 MSTORE PUSH1 0x20 PUSH1 0x4 DUP3 ADD MSTORE PUSH1 0x9 PUSH1 0x24 DUP3 ADD MSTORE PUSH9 0x3737BA103B37BA32B9 PUSH1 0xB9 SHL PUSH1 0x44 DUP3 ADD MSTORE PUSH1 0x64 ADD PUSH2 0x31C JUMP JUMPDEST DUP4 PUSH1 0x2 DUP1 PUSH1 0x0 DUP4 DUP2 MSTORE PUSH1 0x1 PUSH1 0x20 MSTORE PUSH1 0x40 SWAP1 KECCAK256 SLOAD PUSH1 0xFF AND PUSH1 0x6 DUP2 GT ISZERO PUSH2 0xC08 JUMPI PUSH2 0xC08 PUSH2 0x18E0 JUMP JUMPDEST EQ PUSH2 0xC25 JUMPI PUSH1 0x40 MLOAD PUSH3 0x461BCD PUSH1 0xE5 SHL DUP2 MSTORE PUSH1 0x4 ADD PUSH2 0x31C SWAP1 PUSH2 0x19BD JUMP JUMPDEST PUSH2 0xC65 DUP7 DUP7 DUP7 DUP1 DUP1 PUSH1 0x1F ADD PUSH1 0x20 DUP1 SWAP2 DIV MUL PUSH1 0x20 ADD PUSH1 0x40 MLOAD SWAP1 DUP2 ADD PUSH1 0x40 MSTORE DUP1 SWAP4 SWAP3 SWAP2 SWAP1 DUP2 DUP2 MSTORE PUSH1 0x20 ADD DUP4 DUP4 DUP1 DUP3 DUP5 CALLDATACOPY PUSH1 0x0 SWAP3 ADD SWAP2 SWAP1 SWAP2 MSTORE POP PUSH2 0x1503 SWAP3 POP POP POP JUMP JUMPDEST POP POP POP POP POP POP JUMP JUMPDEST PUSH2 0xC75 PUSH2 0x1459 JUMP JUMPDEST DUP1 PUSH1 0x1 DUP1 PUSH1 0x0 DUP4 DUP2 MSTORE PUSH1 0x1 PUSH1 0x20 MSTORE PUSH1 0x40 SWAP1 KECCAK256 SLOAD PUSH1 0xFF AND PUSH1 0x6 DUP2 GT ISZERO PUSH2 0xC9C JUMPI PUSH2 0xC9C PUSH2 0x18E0 JUMP JUMPDEST EQ PUSH2 0xCB9 JUMPI PUSH1 0x40 MLOAD PUSH3 0x461BCD PUSH1 0xE5 SHL DUP2 MSTORE PUSH1 0x4 ADD PUSH2 0x31C SWAP1 PUSH2 0x19BD JUMP JUMPDEST PUSH2 0xCE5 DUP4 PUSH1 0x40 MLOAD DUP1 PUSH1 0x40 ADD PUSH1 0x40 MSTORE DUP1 PUSH1 0xA DUP2 MSTORE PUSH1 0x20 ADD PUSH10 0x20B139BA32B73A34B7B7 PUSH1 0xB1 SHL DUP2 MSTORE POP PUSH2 0x1503 JUMP JUMPDEST PUSH2 0xD0C DUP4 PUSH1 0x40 MLOAD DUP1 PUSH1 0x40 ADD PUSH1 0x40 MSTORE DUP1 PUSH1 0x5 DUP2 MSTORE PUSH1 0x20 ADD PUSH5 0x426C616E6B PUSH1 0xD8 SHL DUP2 MSTORE POP PUSH2 0x1503 JUMP JUMPDEST PUSH1 0x0 DUP4 DUP2 MSTORE PUSH1 0x1 PUSH1 0x20 DUP2 SWAP1 MSTORE PUSH1 0x40 SWAP2 DUP3 SWAP1 KECCAK256 DUP1 SLOAD PUSH1 0xFF NOT AND PUSH1 0x2 SWAP1 DUP2 OR SWAP1 SWAP2 SSTORE SWAP2 MLOAD DUP6 SWAP3 PUSH1 0x0 DUP1 MLOAD PUSH1 0x20 PUSH2 0x1CE8 DUP4 CODECOPY DUP2 MLOAD SWAP2 MSTORE SWAP3 PUSH2 0xB67 SWAP3 SWAP1 SWAP2 SWAP1 PUSH2 0x1973 JUMP JUMPDEST PUSH1 0x0 DUP3 DUP2 MSTORE PUSH1 0x1 PUSH1 0x20 DUP2 DUP2 MSTORE PUSH1 0x40 DUP1 DUP5 KECCAK256 CALLER DUP6 MSTORE SWAP1 SWAP3 ADD SWAP1 MSTORE SWAP1 KECCAK256 SLOAD DUP3 SWAP1 PUSH1 0xFF AND PUSH2 0xDA5 JUMPI PUSH1 0x40 MLOAD PUSH3 0x461BCD PUSH1 0xE5 SHL DUP2 MSTORE PUSH1 0x20 PUSH1 0x4 DUP3 ADD MSTORE PUSH1 0x9 PUSH1 0x24 DUP3 ADD MSTORE PUSH9 0x3737BA103B37BA32B9 PUSH1 0xB9 SHL PUSH1 0x44 DUP3 ADD MSTORE PUSH1 0x64 ADD PUSH2 0x31C JUMP JUMPDEST DUP3 PUSH1 0x4 DUP1 PUSH1 0x0 DUP4 DUP2 MSTORE PUSH1 0x1 PUSH1 0x20 MSTORE PUSH1 0x40 SWAP1 KECCAK256 SLOAD PUSH1 0xFF AND PUSH1 0x6 DUP2 GT ISZERO PUSH2 0xDCC JUMPI PUSH2 0xDCC PUSH2 0x18E0 JUMP JUMPDEST EQ PUSH2 0xDE9 JUMPI PUSH1 0x40 MLOAD PUSH3 0x461BCD PUSH1 0xE5 SHL DUP2 MSTORE PUSH1 0x4 ADD PUSH2 0x31C SWAP1 PUSH2 0x19BD JUMP JUMPDEST PUSH1 0x0 DUP6 DUP2 MSTORE PUSH1 0x1 PUSH1 0x20 DUP2 DUP2 MSTORE PUSH1 0x40 DUP1 DUP5 KECCAK256 CALLER DUP6 MSTORE SWAP1 SWAP3 ADD SWAP1 MSTORE SWAP1 KECCAK256 SLOAD PUSH2 0x100 SWAP1 DIV PUSH1 0xFF AND ISZERO PUSH2 0xE4A JUMPI PUSH1 0x40 MLOAD PUSH3 0x461BCD PUSH1 0xE5 SHL DUP2 MSTORE PUSH1 0x20 PUSH1 0x4 DUP3 ADD MSTORE PUSH1 0xD PUSH1 0x24 DUP3 ADD MSTORE PUSH13 0x185B1C9958591E481D9BDD1959 PUSH1 0x9A SHL PUSH1 0x44 DUP3 ADD MSTORE PUSH1 0x64 ADD PUSH2 0x31C JUMP JUMPDEST PUSH1 0x0 DUP6 DUP2 MSTORE PUSH1 0x1 PUSH1 0x20 MSTORE PUSH1 0x40 SWAP1 KECCAK256 PUSH1 0x4 ADD SLOAD PUSH1 0xFF DUP6 AND LT PUSH2 0xE99 JUMPI PUSH1 0x40 MLOAD PUSH3 0x461BCD PUSH1 0xE5 SHL DUP2 MSTORE PUSH1 0x20 PUSH1 0x4 DUP3 ADD MSTORE PUSH1 0x9 PUSH1 0x24 DUP3 ADD MSTORE PUSH9 0x1B9BDD08199BDD5B99 PUSH1 0xBA SHL PUSH1 0x44 DUP3 ADD MSTORE PUSH1 0x64 ADD PUSH2 0x31C JUMP JUMPDEST PUSH1 0x0 DUP5 PUSH1 0xFF AND GT PUSH2 0xEE3 JUMPI PUSH1 0x40 MLOAD PUSH3 0x461BCD PUSH1 0xE5 SHL DUP2 MSTORE PUSH1 0x20 PUSH1 0x4 DUP3 ADD MSTORE PUSH1 0x14 PUSH1 0x24 DUP3 ADD MSTORE PUSH20 0x30B139BA32B73A34B7B7103337B93134B23232B7 PUSH1 0x61 SHL PUSH1 0x44 DUP3 ADD MSTORE PUSH1 0x64 ADD PUSH2 0x31C JUMP JUMPDEST PUSH1 0x0 DUP6 DUP2 MSTORE PUSH1 0x1 PUSH1 0x20 MSTORE PUSH1 0x40 SWAP1 KECCAK256 PUSH1 0x4 ADD DUP1 SLOAD PUSH1 0xFF DUP7 AND SWAP1 DUP2 LT PUSH2 0xF09 JUMPI PUSH2 0xF09 PUSH2 0x19F7 JUMP JUMPDEST PUSH1 0x0 SWAP2 DUP3 MSTORE PUSH1 0x20 DUP3 KECCAK256 PUSH1 0x1 PUSH1 0x3 SWAP1 SWAP3 MUL ADD ADD DUP1 SLOAD SWAP2 PUSH2 0xF27 DUP4 PUSH2 0x19A4 JUMP JUMPDEST SWAP1 SWAP2 SSTORE POP POP PUSH1 0x0 DUP6 DUP2 MSTORE PUSH1 0x1 PUSH1 0x20 DUP2 DUP2 MSTORE PUSH1 0x40 DUP1 DUP5 KECCAK256 CALLER DUP6 MSTORE DUP1 DUP5 ADD DUP4 MSTORE SWAP1 DUP5 KECCAK256 DUP1 SLOAD PUSH1 0xFF DUP11 AND PUSH3 0x10000 MUL PUSH3 0xFFFF00 NOT SWAP1 SWAP2 AND OR PUSH2 0x100 OR SWAP1 SSTORE DUP9 DUP5 MSTORE SWAP2 SWAP1 MSTORE PUSH1 0x3 ADD DUP1 SLOAD SWAP2 PUSH2 0xF77 DUP4 PUSH2 0x19A4 JUMP JUMPDEST SWAP1 SWAP2 SSTORE POP POP PUSH1 0x40 DUP1 MLOAD CALLER DUP2 MSTORE PUSH1 0xFF DUP7 AND PUSH1 0x20 DUP3 ADD MSTORE DUP7 SWAP2 PUSH32 0x1ABE610CF2BF87E57DCC1181FCF5AC0934E843D8344AB9EED6E86C799F62585E SWAP2 ADD PUSH1 0x40 MLOAD DUP1 SWAP2 SUB SWAP1 LOG2 POP POP POP POP POP JUMP JUMPDEST PUSH2 0xFC8 PUSH2 0x1459 JUMP JUMPDEST DUP2 PUSH1 0x1 DUP1 PUSH1 0x0 DUP4 DUP2 MSTORE PUSH1 0x1 PUSH1 0x20 MSTORE PUSH1 0x40 SWAP1 KECCAK256 SLOAD PUSH1 0xFF AND PUSH1 0x6 DUP2 GT ISZERO PUSH2 0xFEF JUMPI PUSH2 0xFEF PUSH2 0x18E0 JUMP JUMPDEST EQ PUSH2 0x100C JUMPI PUSH1 0x40 MLOAD PUSH3 0x461BCD PUSH1 0xE5 SHL DUP2 MSTORE PUSH1 0x4 ADD PUSH2 0x31C SWAP1 PUSH2 0x19BD JUMP JUMPDEST PUSH1 0x0 SLOAD PUSH1 0x1 PUSH1 0x1 PUSH1 0xA0 SHL SUB AND PUSH1 0x1 PUSH1 0x1 PUSH1 0xA0 SHL SUB AND DUP4 PUSH1 0x1 PUSH1 0x1 PUSH1 0xA0 SHL SUB AND SUB PUSH2 0x106D JUMPI PUSH1 0x40 MLOAD PUSH3 0x461BCD PUSH1 0xE5 SHL DUP2 MSTORE PUSH1 0x20 PUSH1 0x4 DUP3 ADD MSTORE PUSH1 0x12 PUSH1 0x24 DUP3 ADD MSTORE PUSH18 0x31B0B7103737BA1031329030903B37BA32B9 PUSH1 0x71 SHL PUSH1 0x44 DUP3 ADD MSTORE PUSH1 0x64 ADD PUSH2 0x31C JUMP JUMPDEST PUSH1 0x0 DUP5 DUP2 MSTORE PUSH1 0x1 PUSH1 0x20 DUP2 DUP2 MSTORE PUSH1 0x40 DUP1 DUP5 KECCAK256 PUSH1 0x1 PUSH1 0x1 PUSH1 0xA0 SHL SUB DUP9 AND DUP6 MSTORE SWAP1 SWAP3 ADD SWAP1 MSTORE SWAP1 KECCAK256 SLOAD PUSH1 0xFF AND ISZERO PUSH2 0x10D7 JUMPI PUSH1 0x40 MLOAD PUSH3 0x461BCD PUSH1 0xE5 SHL DUP2 MSTORE PUSH1 0x20 PUSH1 0x4 DUP3 ADD MSTORE PUSH1 0x12 PUSH1 0x24 DUP3 ADD MSTORE PUSH18 0x185B1C9958591E481C9959DA5CDD195C9959 PUSH1 0x72 SHL PUSH1 0x44 DUP3 ADD MSTORE PUSH1 0x64 ADD PUSH2 0x31C JUMP JUMPDEST PUSH1 0x40 DUP1 MLOAD PUSH1 0x80 DUP2 ADD DUP3 MSTORE PUSH1 0x1 DUP1 DUP3 MSTORE PUSH1 0x0 PUSH1 0x20 DUP1 DUP5 ADD DUP3 DUP2 MSTORE DUP5 DUP7 ADD DUP4 DUP2 MSTORE PUSH1 0x60 DUP7 ADD DUP5 DUP2 MSTORE DUP12 DUP6 MSTORE DUP6 DUP5 MSTORE DUP8 DUP6 KECCAK256 PUSH1 0x1 PUSH1 0x1 PUSH1 0xA0 SHL SUB DUP13 AND DUP7 MSTORE DUP1 DUP8 ADD DUP6 MSTORE SWAP8 DUP6 KECCAK256 SWAP7 MLOAD DUP8 SLOAD SWAP4 MLOAD SWAP3 MLOAD SWAP2 MLOAD PUSH2 0xFFFF NOT SWAP1 SWAP5 AND SWAP1 ISZERO ISZERO PUSH2 0xFF00 NOT AND OR PUSH2 0x100 SWAP3 ISZERO ISZERO SWAP3 SWAP1 SWAP3 MUL SWAP2 SWAP1 SWAP2 OR PUSH4 0xFFFF0000 NOT AND PUSH3 0x10000 PUSH1 0xFF SWAP3 DUP4 AND MUL PUSH4 0xFF000000 NOT AND OR PUSH4 0x1000000 SWAP2 SWAP1 SWAP3 AND MUL OR SWAP1 SWAP4 SSTORE DUP8 DUP2 MSTORE SWAP2 MSTORE PUSH1 0x2 SWAP1 SWAP2 ADD DUP1 SLOAD SWAP2 PUSH2 0x117F DUP4 PUSH2 0x19A4 JUMP JUMPDEST SWAP1 SWAP2 SSTORE POP POP PUSH1 0x40 MLOAD PUSH1 0x1 PUSH1 0x1 PUSH1 0xA0 SHL SUB DUP5 AND DUP2 MSTORE DUP5 SWAP1 PUSH32 0xF45B8429C36D478F9A6D081C4811A819B98AA5B608588BED9D406405CF282473 SWAP1 PUSH1 0x20 ADD PUSH1 0x40 MLOAD DUP1 SWAP2 SUB SWAP1 LOG2 POP POP POP POP JUMP JUMPDEST PUSH2 0x11D0 PUSH2 0x1459 JUMP JUMPDEST DUP1 PUSH1 0x3 DUP1 PUSH1 0x0 DUP4 DUP2 MSTORE PUSH1 0x1 PUSH1 0x20 MSTORE PUSH1 0x40 SWAP1 KECCAK256 SLOAD PUSH1 0xFF AND PUSH1 0x6 DUP2 GT ISZERO PUSH2 0x11F7 JUMPI PUSH2 0x11F7 PUSH2 0x18E0 JUMP JUMPDEST EQ PUSH2 0x1214 JUMPI PUSH1 0x40 MLOAD PUSH3 0x461BCD PUSH1 0xE5 SHL DUP2 MSTORE PUSH1 0x4 ADD PUSH2 0x31C SWAP1 PUSH2 0x19BD JUMP JUMPDEST PUSH1 0x0 DUP4 DUP2 MSTORE PUSH1 0x1 PUSH1 0x20 MSTORE PUSH1 0x40 SWAP1 DUP2 SWAP1 KECCAK256 DUP1 SLOAD PUSH1 0xFF NOT AND PUSH1 0x4 SWAP1 DUP2 OR SWAP1 SWAP2 SSTORE SWAP1 MLOAD DUP5 SWAP2 PUSH1 0x0 DUP1 MLOAD PUSH1 0x20 PUSH2 0x1CE8 DUP4 CODECOPY DUP2 MLOAD SWAP2 MSTORE SWAP2 PUSH2 0xB67 SWAP2 PUSH1 0x3 SWAP2 PUSH2 0x1973 JUMP JUMPDEST PUSH1 0x0 DUP3 CALLER PUSH2 0x1268 PUSH1 0x0 SLOAD PUSH1 0x1 PUSH1 0x1 PUSH1 0xA0 SHL SUB AND SWAP1 JUMP JUMPDEST PUSH1 0x1 PUSH1 0x1 PUSH1 0xA0 SHL SUB AND EQ DUP1 PUSH2 0x1298 JUMPI POP PUSH1 0x0 DUP2 DUP2 MSTORE PUSH1 0x1 PUSH1 0x20 DUP2 DUP2 MSTORE PUSH1 0x40 DUP1 DUP5 KECCAK256 CALLER DUP6 MSTORE SWAP1 SWAP3 ADD SWAP1 MSTORE SWAP1 KECCAK256 SLOAD PUSH1 0xFF AND JUMPDEST PUSH2 0x12D9 JUMPI PUSH1 0x40 MLOAD PUSH3 0x461BCD PUSH1 0xE5 SHL DUP2 MSTORE PUSH1 0x20 PUSH1 0x4 DUP3 ADD MSTORE PUSH1 0x12 PUSH1 0x24 DUP3 ADD MSTORE PUSH18 0x3737BA1037BBB732B91037B9103B37BA32B9 PUSH1 0x71 SHL PUSH1 0x44 DUP3 ADD MSTORE PUSH1 0x64 ADD PUSH2 0x31C JUMP JUMPDEST DUP4 PUSH1 0x4 DUP1 PUSH1 0x0 DUP4 DUP2 MSTORE PUSH1 0x1 PUSH1 0x20 MSTORE PUSH1 0x40 SWAP1 KECCAK256 SLOAD PUSH1 0xFF AND PUSH1 0x6 DUP2 GT ISZERO PUSH2 0x1300 JUMPI PUSH2 0x1300 PUSH2 0x18E0 JUMP JUMPDEST LT ISZERO PUSH2 0x131E JUMPI PUSH1 0x40 MLOAD PUSH3 0x461BCD PUSH1 0xE5 SHL DUP2 MSTORE PUSH1 0x4 ADD PUSH2 0x31C SWAP1 PUSH2 0x19BD JUMP JUMPDEST POP POP POP PUSH1 0x0 SWAP3 DUP4 MSTORE POP PUSH1 0x1 PUSH1 0x20 DUP2 DUP2 MSTORE PUSH1 0x40 DUP1 DUP6 KECCAK256 PUSH1 0x1 PUSH1 0x1 PUSH1 0xA0 SHL SUB SWAP5 SWAP1 SWAP5 AND DUP6 MSTORE SWAP3 SWAP1 SWAP2 ADD SWAP1 MSTORE SWAP1 KECCAK256 SLOAD PUSH3 0x10000 SWAP1 DIV PUSH1 0xFF AND SWAP1 JUMP JUMPDEST PUSH2 0x135E PUSH2 0x1459 JUMP JUMPDEST DUP1 PUSH1 0x2 DUP1 PUSH1 0x0 DUP4 DUP2 MSTORE PUSH1 0x1 PUSH1 0x20 MSTORE PUSH1 0x40 SWAP1 KECCAK256 SLOAD PUSH1 0xFF AND PUSH1 0x6 DUP2 GT ISZERO PUSH2 0x1385 JUMPI PUSH2 0x1385 PUSH2 0x18E0 JUMP JUMPDEST EQ PUSH2 0x13A2 JUMPI PUSH1 0x40 MLOAD PUSH3 0x461BCD PUSH1 0xE5 SHL DUP2 MSTORE PUSH1 0x4 ADD PUSH2 0x31C SWAP1 PUSH2 0x19BD JUMP JUMPDEST PUSH1 0x0 DUP4 DUP2 MSTORE PUSH1 0x1 PUSH1 0x20 MSTORE PUSH1 0x40 SWAP1 DUP2 SWAP1 KECCAK256 DUP1 SLOAD PUSH1 0xFF NOT AND PUSH1 0x3 SWAP1 DUP2 OR SWAP1 SWAP2 SSTORE SWAP1 MLOAD DUP5 SWAP2 PUSH1 0x0 DUP1 MLOAD PUSH1 0x20 PUSH2 0x1CE8 DUP4 CODECOPY DUP2 MLOAD SWAP2 MSTORE SWAP2 PUSH2 0xB67 SWAP2 PUSH1 0x2 SWAP2 PUSH2 0x1973 JUMP JUMPDEST PUSH2 0x13E8 PUSH2 0x1459 JUMP JUMPDEST PUSH1 0x1 PUSH1 0x1 PUSH1 0xA0 SHL SUB DUP2 AND PUSH2 0x144D JUMPI PUSH1 0x40 MLOAD PUSH3 0x461BCD PUSH1 0xE5 SHL DUP2 MSTORE PUSH1 0x20 PUSH1 0x4 DUP3 ADD MSTORE PUSH1 0x26 PUSH1 0x24 DUP3 ADD MSTORE PUSH32 0x4F776E61626C653A206E6577206F776E657220697320746865207A65726F2061 PUSH1 0x44 DUP3 ADD MSTORE PUSH6 0x646472657373 PUSH1 0xD0 SHL PUSH1 0x64 DUP3 ADD MSTORE PUSH1 0x84 ADD PUSH2 0x31C JUMP JUMPDEST PUSH2 0x1456 DUP2 PUSH2 0x14B3 JUMP JUMPDEST POP JUMP JUMPDEST PUSH1 0x0 SLOAD PUSH1 0x1 PUSH1 0x1 PUSH1 0xA0 SHL SUB AND CALLER EQ PUSH2 0xB86 JUMPI PUSH1 0x40 MLOAD PUSH3 0x461BCD PUSH1 0xE5 SHL DUP2 MSTORE PUSH1 0x20 PUSH1 0x4 DUP3 ADD DUP2 SWAP1 MSTORE PUSH1 0x24 DUP3 ADD MSTORE PUSH32 0x4F776E61626C653A2063616C6C6572206973206E6F7420746865206F776E6572 PUSH1 0x44 DUP3 ADD MSTORE PUSH1 0x64 ADD PUSH2 0x31C JUMP JUMPDEST PUSH1 0x0 DUP1 SLOAD PUSH1 0x1 PUSH1 0x1 PUSH1 0xA0 SHL SUB DUP4 DUP2 AND PUSH1 0x1 PUSH1 0x1 PUSH1 0xA0 SHL SUB NOT DUP4 AND DUP2 OR DUP5 SSTORE PUSH1 0x40 MLOAD SWAP2 SWAP1 SWAP3 AND SWAP3 DUP4 SWAP2 PUSH32 0x8BE0079C531659141344CD1FD0A4F28419497F9722A3DAAFE3B4186F6B6457E0 SWAP2 SWAP1 LOG3 POP POP JUMP JUMPDEST PUSH1 0x0 DUP3 DUP2 MSTORE PUSH1 0x1 PUSH1 0x20 DUP2 DUP2 MSTORE PUSH1 0x40 DUP1 DUP5 KECCAK256 DUP2 MLOAD PUSH1 0x60 DUP2 ADD DUP4 MSTORE DUP7 DUP2 MSTORE DUP1 DUP5 ADD DUP7 SWAP1 MSTORE CALLER SWAP3 DUP2 ADD SWAP3 SWAP1 SWAP3 MSTORE PUSH1 0x4 ADD DUP1 SLOAD SWAP4 DUP5 ADD DUP2 SSTORE DUP5 MSTORE SWAP3 KECCAK256 DUP3 MLOAD PUSH1 0x3 SWAP1 SWAP3 MUL ADD SWAP1 DUP2 SWAP1 PUSH2 0x1550 SWAP1 DUP3 PUSH2 0x1AAB JUMP JUMPDEST POP PUSH1 0x20 DUP3 DUP2 ADD MLOAD PUSH1 0x1 DUP4 DUP2 ADD SWAP2 SWAP1 SWAP2 SSTORE PUSH1 0x40 SWAP4 DUP5 ADD MLOAD PUSH1 0x2 SWAP1 SWAP4 ADD DUP1 SLOAD PUSH1 0x1 PUSH1 0x1 PUSH1 0xA0 SHL SUB NOT AND PUSH1 0x1 PUSH1 0x1 PUSH1 0xA0 SHL SUB SWAP1 SWAP5 AND SWAP4 SWAP1 SWAP4 OR SWAP1 SWAP3 SSTORE PUSH1 0x0 DUP6 DUP2 MSTORE DUP3 DUP3 MSTORE DUP4 DUP2 KECCAK256 CALLER DUP3 MSTORE SWAP1 SWAP3 ADD SWAP1 MSTORE KECCAK256 DUP1 SLOAD PUSH4 0x1000000 SWAP1 DIV PUSH1 0xFF AND SWAP1 PUSH1 0x3 PUSH2 0x15B5 DUP4 PUSH2 0x1C92 JUMP JUMPDEST DUP3 SLOAD PUSH1 0xFF SWAP2 DUP3 AND PUSH2 0x100 SWAP4 SWAP1 SWAP4 EXP SWAP3 DUP4 MUL SWAP2 SWAP1 SWAP3 MUL NOT SWAP1 SWAP2 AND OR SWAP1 SSTORE POP PUSH1 0x0 DUP3 DUP2 MSTORE PUSH1 0x1 PUSH1 0x20 DUP2 SWAP1 MSTORE PUSH1 0x40 DUP3 KECCAK256 PUSH1 0x4 ADD SLOAD PUSH2 0x15F0 SWAP2 SWAP1 PUSH2 0x1A47 JUMP JUMPDEST SWAP1 POP DUP3 PUSH32 0x48EAE4D262615439A255CDD7A71642B5286B208834157822BC2CD3EECF6836F DUP3 CALLER PUSH1 0x1 PUSH1 0x0 DUP9 DUP2 MSTORE PUSH1 0x20 ADD SWAP1 DUP2 MSTORE PUSH1 0x20 ADD PUSH1 0x0 KECCAK256 PUSH1 0x4 ADD DUP6 PUSH1 0xFF AND DUP2 SLOAD DUP2 LT PUSH2 0x1640 JUMPI PUSH2 0x1640 PUSH2 0x19F7 JUMP JUMPDEST SWAP1 PUSH1 0x0 MSTORE PUSH1 0x20 PUSH1 0x0 KECCAK256 SWAP1 PUSH1 0x3 MUL ADD PUSH1 0x0 ADD PUSH1 0x40 MLOAD PUSH2 0xB67 SWAP4 SWAP3 SWAP2 SWAP1 PUSH2 0x1CB1 JUMP JUMPDEST PUSH1 0x0 DUP1 DUP4 PUSH1 0x1F DUP5 ADD SLT PUSH2 0x1672 JUMPI PUSH1 0x0 DUP1 REVERT JUMPDEST POP DUP2 CALLDATALOAD PUSH8 0xFFFFFFFFFFFFFFFF DUP2 GT ISZERO PUSH2 0x168A JUMPI PUSH1 0x0 DUP1 REVERT JUMPDEST PUSH1 0x20 DUP4 ADD SWAP2 POP DUP4 PUSH1 0x20 DUP3 DUP6 ADD ADD GT ISZERO PUSH2 0x16A2 JUMPI PUSH1 0x0 DUP1 REVERT JUMPDEST SWAP3 POP SWAP3 SWAP1 POP JUMP JUMPDEST PUSH1 0x0 DUP1 PUSH1 0x0 DUP1 PUSH1 0x40 DUP6 DUP8 SUB SLT ISZERO PUSH2 0x16BF JUMPI PUSH1 0x0 DUP1 REVERT JUMPDEST DUP5 CALLDATALOAD PUSH8 0xFFFFFFFFFFFFFFFF DUP1 DUP3 GT ISZERO PUSH2 0x16D7 JUMPI PUSH1 0x0 DUP1 REVERT JUMPDEST PUSH2 0x16E3 DUP9 DUP4 DUP10 ADD PUSH2 0x1660 JUMP JUMPDEST SWAP1 SWAP7 POP SWAP5 POP PUSH1 0x20 DUP8 ADD CALLDATALOAD SWAP2 POP DUP1 DUP3 GT ISZERO PUSH2 0x16FC JUMPI PUSH1 0x0 DUP1 REVERT JUMPDEST POP PUSH2 0x1709 DUP8 DUP3 DUP9 ADD PUSH2 0x1660 JUMP JUMPDEST SWAP6 SWAP9 SWAP5 SWAP8 POP SWAP6 POP POP POP POP JUMP JUMPDEST PUSH1 0x0 PUSH1 0x20 DUP3 DUP5 SUB SLT ISZERO PUSH2 0x1727 JUMPI PUSH1 0x0 DUP1 REVERT JUMPDEST POP CALLDATALOAD SWAP2 SWAP1 POP JUMP JUMPDEST PUSH1 0x0 PUSH1 0x20 DUP1 DUP4 ADD DUP2 DUP5 MSTORE DUP1 DUP6 MLOAD DUP1 DUP4 MSTORE PUSH1 0x40 SWAP3 POP DUP3 DUP7 ADD SWAP2 POP DUP3 DUP2 PUSH1 0x5 SHL DUP8 ADD ADD DUP5 DUP9 ADD PUSH1 0x0 DUP1 JUMPDEST DUP5 DUP2 LT ISZERO PUSH2 0x17E5 JUMPI PUSH1 0x3F NOT DUP11 DUP6 SUB ADD DUP7 MSTORE DUP3 MLOAD PUSH1 0x60 DUP2 MLOAD DUP2 DUP8 MSTORE DUP1 MLOAD DUP1 DUP4 DUP10 ADD MSTORE DUP6 SWAP3 POP JUMPDEST DUP1 DUP4 LT ISZERO PUSH2 0x1799 JUMPI DUP2 DUP4 ADD DUP13 ADD MLOAD DUP9 DUP5 ADD PUSH1 0x80 ADD MSTORE SWAP2 DUP12 ADD SWAP2 PUSH2 0x177B JUMP JUMPDEST PUSH1 0x80 SWAP3 POP DUP6 DUP4 DUP3 DUP11 ADD ADD MSTORE DUP12 DUP5 ADD MLOAD DUP13 DUP10 ADD MSTORE DUP11 DUP5 ADD MLOAD SWAP4 POP PUSH2 0x17C6 DUP12 DUP10 ADD DUP6 PUSH1 0x1 PUSH1 0x1 PUSH1 0xA0 SHL SUB AND SWAP1 MSTORE JUMP JUMPDEST SWAP9 DUP12 ADD SWAP9 PUSH1 0x1F ADD PUSH1 0x1F NOT AND SWAP7 SWAP1 SWAP7 ADD ADD SWAP5 POP POP SWAP2 DUP8 ADD SWAP2 PUSH1 0x1 ADD PUSH2 0x1756 JUMP JUMPDEST POP SWAP2 SWAP10 SWAP9 POP POP POP POP POP POP POP POP POP JUMP JUMPDEST PUSH1 0x0 DUP1 PUSH1 0x0 PUSH1 0x40 DUP5 DUP7 SUB SLT ISZERO PUSH2 0x1809 JUMPI PUSH1 0x0 DUP1 REVERT JUMPDEST DUP4 CALLDATALOAD SWAP3 POP PUSH1 0x20 DUP5 ADD CALLDATALOAD PUSH8 0xFFFFFFFFFFFFFFFF DUP2 GT ISZERO PUSH2 0x1827 JUMPI PUSH1 0x0 DUP1 REVERT JUMPDEST PUSH2 0x1833 DUP7 DUP3 DUP8 ADD PUSH2 0x1660 JUMP JUMPDEST SWAP5 SWAP8 SWAP1 SWAP7 POP SWAP4 SWAP5 POP POP POP POP JUMP JUMPDEST PUSH1 0x0 DUP1 PUSH1 0x40 DUP4 DUP6 SUB SLT ISZERO PUSH2 0x1853 JUMPI PUSH1 0x0 DUP1 REVERT JUMPDEST DUP3 CALLDATALOAD SWAP2 POP PUSH1 0x20 DUP4 ADD CALLDATALOAD PUSH1 0xFF DUP2 AND DUP2 EQ PUSH2 0x186B JUMPI PUSH1 0x0 DUP1 REVERT JUMPDEST DUP1 SWAP2 POP POP SWAP3 POP SWAP3 SWAP1 POP JUMP JUMPDEST DUP1 CALLDATALOAD PUSH1 0x1 PUSH1 0x1 PUSH1 0xA0 SHL SUB DUP2 AND DUP2 EQ PUSH2 0x188D JUMPI PUSH1 0x0 DUP1 REVERT JUMPDEST SWAP2 SWAP1 POP JUMP JUMPDEST PUSH1 0x0 DUP1 PUSH1 0x40 DUP4 DUP6 SUB SLT ISZERO PUSH2 0x18A5 JUMPI PUSH1 0x0 DUP1 REVERT JUMPDEST DUP3 CALLDATALOAD SWAP2 POP PUSH2 0x18B5 PUSH1 0x20 DUP5 ADD PUSH2 0x1876 JUMP JUMPDEST SWAP1 POP SWAP3 POP SWAP3 SWAP1 POP JUMP JUMPDEST PUSH1 0x0 PUSH1 0x20 DUP3 DUP5 SUB SLT ISZERO PUSH2 0x18D0 JUMPI PUSH1 0x0 DUP1 REVERT JUMPDEST PUSH2 0x18D9 DUP3 PUSH2 0x1876 JUMP JUMPDEST SWAP4 SWAP3 POP POP POP JUMP JUMPDEST PUSH4 0x4E487B71 PUSH1 0xE0 SHL PUSH1 0x0 MSTORE PUSH1 0x21 PUSH1 0x4 MSTORE PUSH1 0x24 PUSH1 0x0 REVERT JUMPDEST DUP2 DUP4 MSTORE DUP2 DUP2 PUSH1 0x20 DUP6 ADD CALLDATACOPY POP PUSH1 0x0 DUP3 DUP3 ADD PUSH1 0x20 SWAP1 DUP2 ADD SWAP2 SWAP1 SWAP2 MSTORE PUSH1 0x1F SWAP1 SWAP2 ADD PUSH1 0x1F NOT AND SWAP1 SWAP2 ADD ADD SWAP1 JUMP JUMPDEST PUSH1 0x40 DUP2 MSTORE PUSH1 0x0 PUSH2 0x1933 PUSH1 0x40 DUP4 ADD DUP7 DUP9 PUSH2 0x18F6 JUMP JUMPDEST DUP3 DUP2 SUB PUSH1 0x20 DUP5 ADD MSTORE PUSH2 0x1946 DUP2 DUP6 DUP8 PUSH2 0x18F6 JUMP JUMPDEST SWAP8 SWAP7 POP POP POP POP POP POP POP JUMP JUMPDEST PUSH1 0x7 DUP2 LT PUSH2 0x196F JUMPI PUSH4 0x4E487B71 PUSH1 0xE0 SHL PUSH1 0x0 MSTORE PUSH1 0x21 PUSH1 0x4 MSTORE PUSH1 0x24 PUSH1 0x0 REVERT JUMPDEST SWAP1 MSTORE JUMP JUMPDEST PUSH1 0x40 DUP2 ADD PUSH2 0x1981 DUP3 DUP6 PUSH2 0x1951 JUMP JUMPDEST PUSH2 0x18D9 PUSH1 0x20 DUP4 ADD DUP5 PUSH2 0x1951 JUMP JUMPDEST PUSH4 0x4E487B71 PUSH1 0xE0 SHL PUSH1 0x0 MSTORE PUSH1 0x11 PUSH1 0x4 MSTORE PUSH1 0x24 PUSH1 0x0 REVERT JUMPDEST PUSH1 0x0 PUSH1 0x1 DUP3 ADD PUSH2 0x19B6 JUMPI PUSH2 0x19B6 PUSH2 0x198E JUMP JUMPDEST POP PUSH1 0x1 ADD SWAP1 JUMP JUMPDEST PUSH1 0x20 DUP1 DUP3 MSTORE PUSH1 0xA SWAP1 DUP3 ADD MSTORE PUSH10 0x62616420737461747573 PUSH1 0xB0 SHL PUSH1 0x40 DUP3 ADD MSTORE PUSH1 0x60 ADD SWAP1 JUMP JUMPDEST PUSH4 0x4E487B71 PUSH1 0xE0 SHL PUSH1 0x0 MSTORE PUSH1 0x41 PUSH1 0x4 MSTORE PUSH1 0x24 PUSH1 0x0 REVERT JUMPDEST PUSH4 0x4E487B71 PUSH1 0xE0 SHL PUSH1 0x0 MSTORE PUSH1 0x32 PUSH1 0x4 MSTORE PUSH1 0x24 PUSH1 0x0 REVERT JUMPDEST PUSH1 0x1 DUP2 DUP2 SHR SWAP1 DUP3 AND DUP1 PUSH2 0x1A21 JUMPI PUSH1 0x7F DUP3 AND SWAP2 POP JUMPDEST PUSH1 0x20 DUP3 LT DUP2 SUB PUSH2 0x1A41 JUMPI PUSH4 0x4E487B71 PUSH1 0xE0 SHL PUSH1 0x0 MSTORE PUSH1 0x22 PUSH1 0x4 MSTORE PUSH1 0x24 PUSH1 0x0 REVERT JUMPDEST POP SWAP2 SWAP1 POP JUMP JUMPDEST DUP2 DUP2 SUB DUP2 DUP2 GT ISZERO PUSH2 0x1A5A JUMPI PUSH2 0x1A5A PUSH2 0x198E JUMP JUMPDEST SWAP3 SWAP2 POP POP JUMP JUMPDEST PUSH1 0x1F DUP3 GT ISZERO PUSH2 0x1AA6 JUMPI PUSH1 0x0 DUP2 DUP2 MSTORE PUSH1 0x20 DUP2 KECCAK256 PUSH1 0x1F DUP6 ADD PUSH1 0x5 SHR DUP2 ADD PUSH1 0x20 DUP7 LT ISZERO PUSH2 0x1A87 JUMPI POP DUP1 JUMPDEST PUSH1 0x1F DUP6 ADD PUSH1 0x5 SHR DUP3 ADD SWAP2 POP JUMPDEST DUP2 DUP2 LT ISZERO PUSH2 0xC65 JUMPI DUP3 DUP2 SSTORE PUSH1 0x1 ADD PUSH2 0x1A93 JUMP JUMPDEST POP POP POP JUMP JUMPDEST DUP2 MLOAD PUSH8 0xFFFFFFFFFFFFFFFF DUP2 GT ISZERO PUSH2 0x1AC5 JUMPI PUSH2 0x1AC5 PUSH2 0x19E1 JUMP JUMPDEST PUSH2 0x1AD9 DUP2 PUSH2 0x1AD3 DUP5 SLOAD PUSH2 0x1A0D JUMP JUMPDEST DUP5 PUSH2 0x1A60 JUMP JUMPDEST PUSH1 0x20 DUP1 PUSH1 0x1F DUP4 GT PUSH1 0x1 DUP2 EQ PUSH2 0x1B0E JUMPI PUSH1 0x0 DUP5 ISZERO PUSH2 0x1AF6 JUMPI POP DUP6 DUP4 ADD MLOAD JUMPDEST PUSH1 0x0 NOT PUSH1 0x3 DUP7 SWAP1 SHL SHR NOT AND PUSH1 0x1 DUP6 SWAP1 SHL OR DUP6 SSTORE PUSH2 0xC65 JUMP JUMPDEST PUSH1 0x0 DUP6 DUP2 MSTORE PUSH1 0x20 DUP2 KECCAK256 PUSH1 0x1F NOT DUP7 AND SWAP2 JUMPDEST DUP3 DUP2 LT ISZERO PUSH2 0x1B3D JUMPI DUP9 DUP7 ADD MLOAD DUP3 SSTORE SWAP5 DUP5 ADD SWAP5 PUSH1 0x1 SWAP1 SWAP2 ADD SWAP1 DUP5 ADD PUSH2 0x1B1E JUMP JUMPDEST POP DUP6 DUP3 LT ISZERO PUSH2 0x1B5B JUMPI DUP8 DUP6 ADD MLOAD PUSH1 0x0 NOT PUSH1 0x3 DUP9 SWAP1 SHL PUSH1 0xF8 AND SHR NOT AND DUP2 SSTORE JUMPDEST POP POP POP POP POP PUSH1 0x1 SWAP1 DUP2 SHL ADD SWAP1 SSTORE POP JUMP JUMPDEST PUSH1 0x0 DUP2 SLOAD PUSH2 0x1B78 DUP2 PUSH2 0x1A0D JUMP JUMPDEST DUP1 DUP6 MSTORE PUSH1 0x20 PUSH1 0x1 DUP4 DUP2 AND DUP1 ISZERO PUSH2 0x1B95 JUMPI PUSH1 0x1 DUP2 EQ PUSH2 0x1BAF JUMPI PUSH2 0x1BDD JUMP JUMPDEST PUSH1 0xFF NOT DUP6 AND DUP9 DUP5 ADD MSTORE DUP4 ISZERO ISZERO PUSH1 0x5 SHL DUP9 ADD DUP4 ADD SWAP6 POP PUSH2 0x1BDD JUMP JUMPDEST DUP7 PUSH1 0x0 MSTORE DUP3 PUSH1 0x0 KECCAK256 PUSH1 0x0 JUMPDEST DUP6 DUP2 LT ISZERO PUSH2 0x1BD5 JUMPI DUP2 SLOAD DUP11 DUP3 ADD DUP7 ADD MSTORE SWAP1 DUP4 ADD SWAP1 DUP5 ADD PUSH2 0x1BBA JUMP JUMPDEST DUP10 ADD DUP5 ADD SWAP7 POP POP JUMPDEST POP POP POP POP POP SWAP3 SWAP2 POP POP JUMP JUMPDEST PUSH1 0x0 PUSH1 0xA0 DUP3 ADD DUP8 DUP4 MSTORE PUSH1 0x20 DUP8 DUP2 DUP6 ADD MSTORE PUSH1 0x40 DUP8 DUP2 DUP7 ADD MSTORE PUSH1 0x60 DUP8 DUP2 DUP8 ADD MSTORE PUSH1 0xA0 PUSH1 0x80 DUP8 ADD MSTORE DUP4 DUP8 SLOAD DUP1 DUP7 MSTORE PUSH1 0xC0 DUP9 ADD SWAP2 POP PUSH1 0xC0 DUP2 PUSH1 0x5 SHL DUP10 ADD ADD SWAP6 POP DUP9 PUSH1 0x0 MSTORE DUP5 PUSH1 0x0 KECCAK256 PUSH1 0x0 JUMPDEST DUP3 DUP2 LT ISZERO PUSH2 0x1C7F JUMPI DUP10 DUP9 SUB PUSH1 0xBF NOT ADD DUP5 MSTORE DUP5 DUP9 MSTORE PUSH2 0x1C4F DUP6 DUP10 ADD DUP4 PUSH2 0x1B6B JUMP JUMPDEST PUSH1 0x1 DUP4 DUP2 ADD SLOAD DUP11 DUP11 ADD MSTORE PUSH1 0x2 DUP5 ADD SLOAD PUSH1 0x1 PUSH1 0x1 PUSH1 0xA0 SHL SUB AND SWAP10 DUP9 ADD SWAP10 SWAP1 SWAP10 MSTORE SWAP8 SWAP4 DUP8 ADD SWAP4 PUSH1 0x3 SWAP1 SWAP3 ADD SWAP2 ADD PUSH2 0x1C2F JUMP JUMPDEST POP SWAP6 SWAP14 SWAP13 POP POP POP POP POP POP POP POP POP POP POP POP POP JUMP JUMPDEST PUSH1 0x0 PUSH1 0xFF DUP3 AND PUSH1 0xFF DUP2 SUB PUSH2 0x1CA8 JUMPI PUSH2 0x1CA8 PUSH2 0x198E JUMP JUMPDEST PUSH1 0x1 ADD SWAP3 SWAP2 POP POP JUMP JUMPDEST PUSH1 0xFF DUP5 AND DUP2 MSTORE PUSH1 0x1 PUSH1 0x1 PUSH1 0xA0 SHL SUB DUP4 AND PUSH1 0x20 DUP3 ADD MSTORE PUSH1 0x60 PUSH1 0x40 DUP3 ADD DUP2 SWAP1 MSTORE PUSH1 0x0 SWAP1 PUSH2 0x1CDE SWAP1 DUP4 ADD DUP5 PUSH2 0x1B6B JUMP JUMPDEST SWAP6 SWAP5 POP POP POP POP POP JUMP INVALID 0xB0 PUSH8 0x99E10826978A386 PUSH22 0x10AD1E0DCF4CA5CEF8E422FD8DF2FC3D679167FE8DA2 PUSH5 0x6970667358 0x22 SLT KECCAK256 0xD JUMPDEST BASEFEE INVALID PUSH22 0x74E2CBC743CFE82640A2FFED9E3E66CAE6C15089039D 0xDA 0x49 0x26 DUP4 0x21 PUSH5 0x736F6C6343 STOP ADDMOD GT STOP CALLER "},"gasEstimates":{"creation":{"codeDepositCost":"1497000","executionCost":"27402","totalCost":"1524402"},"external":{"createVotingSession(string,string)":"infinite","getVote(uint256,address)":"9420","getWinners(uint256)":"infinite","owner()":"2324","registerProposal(uint256,string)":"infinite","registerVoter(uint256,address)":"59657","renounceOwnership()":"infinite","startProposalsRegistration(uint256)":"infinite","startVotingSession(uint256)":"infinite","stopProposalsRegistration(uint256)":"infinite","stopVotingSession(uint256)":"infinite","tallyVotes(uint256)":"infinite","transferOwnership(address)":"28421","vote(uint256,uint8)":"infinite"},"internal":{"_registerProposal(uint256,string memory)":"infinite"}},"methodIdentifiers":{"createVotingSession(string,string)":"153bc95b","getVote(uint256,address)":"bc3f931f","getWinners(uint256)":"6b1426a4","owner()":"8da5cb5b","registerProposal(uint256,string)":"7ace4184","registerVoter(uint256,address)":"94c790bb","renounceOwnership()":"715018a6","startProposalsRegistration(uint256)":"8bc6a6dd","startVotingSession(uint256)":"9980a55a","stopProposalsRegistration(uint256)":"c82de38f","stopVotingSession(uint256)":"6f3dc556","tallyVotes(uint256)":"4d318b0e","transferOwnership(address)":"f2fde38b","vote(uint256,uint8)":"943e8216"}},"storageLayout":{"storage":[{"astId":7,"contract":"contracts/Voting.sol:Voting","label":"_owner","offset":0,"slot":"0","type":"t_address"},{"astId":483,"contract":"contracts/Voting.sol:Voting","label":"sessions","offset":0,"slot":"1","type":"t_mapping(t_uint256,t_struct(Session)417_storage)"},{"astId":485,"contract":"contracts/Voting.sol:Voting","label":"sessionsCount","offset":0,"slot":"2","type":"t_uint256"}],"types":{"t_address":{"encoding":"inplace","label":"address","numberOfBytes":"20"},"t_array(t_struct(Proposal)391_storage)dyn_storage":{"base":"t_struct(Proposal)391_storage","encoding":"dynamic_array","label":"struct Voting.Proposal[]","numberOfBytes":"32"},"t_bool":{"encoding":"inplace","label":"bool","numberOfBytes":"1"},"t_enum(WorkflowStatus)375":{"encoding":"inplace","label":"enum Voting.WorkflowStatus","numberOfBytes":"1"},"t_mapping(t_address,t_struct(Voter)384_storage)":{"encoding":"mapping","key":"t_address","label":"mapping(address => struct Voting.Voter)","numberOfBytes":"32","value":"t_struct(Voter)384_storage"},"t_mapping(t_uint256,t_struct(Session)417_storage)":{"encoding":"mapping","key":"t_uint256","label":"mapping(uint256 => struct Voting.Session)","numberOfBytes":"32","value":"t_struct(Session)417_storage"},"t_string_storage":{"encoding":"bytes","label":"string","numberOfBytes":"32"},"t_struct(Proposal)391_storage":{"encoding":"inplace","label":"struct Voting.Proposal","members":[{"astId":386,"contract":"contracts/Voting.sol:Voting","label":"description","offset":0,"slot":"0","type":"t_string_storage"},{"astId":388,"contract":"contracts/Voting.sol:Voting","label":"voteCount","offset":0,"slot":"1","type":"t_uint256"},{"astId":390,"contract":"contracts/Voting.sol:Voting","label":"proposer","offset":0,"slot":"2","type":"t_address"}],"numberOfBytes":"96"},"t_struct(Session)417_storage":{"encoding":"inplace","label":"struct Voting.Session","members":[{"astId":395,"contract":"contracts/Voting.sol:Voting","label":"status","offset":0,"slot":"0","type":"t_enum(WorkflowStatus)375"},{"astId":400,"contract":"contracts/Voting.sol:Voting","label":"voters","offset":0,"slot":"1","type":"t_mapping(t_address,t_struct(Voter)384_storage)"},{"astId":403,"contract":"contracts/Voting.sol:Voting","label":"votersCount","offset":0,"slot":"2","type":"t_uint256"},{"astId":406,"contract":"contracts/Voting.sol:Voting","label":"totalVotesCount","offset":0,"slot":"3","type":"t_uint256"},{"astId":411,"contract":"contracts/Voting.sol:Voting","label":"proposals","offset":0,"slot":"4","type":"t_array(t_struct(Proposal)391_storage)dyn_storage"},{"astId":416,"contract":"contracts/Voting.sol:Voting","label":"winningProposals","offset":0,"slot":"5","type":"t_array(t_struct(Proposal)391_storage)dyn_storage"}],"numberOfBytes":"192"},"t_struct(Voter)384_storage":{"encoding":"inplace","label":"struct Voting.Voter","members":[{"astId":377,"contract":"contracts/Voting.sol:Voting","label":"isRegistered","offset":0,"slot":"0","type":"t_bool"},{"astId":379,"contract":"contracts/Voting.sol:Voting","label":"hasVoted","offset":1,"slot":"0","type":"t_bool"},{"astId":381,"contract":"contracts/Voting.sol:Voting","label":"votedProposalId","offset":2,"slot":"0","type":"t_uint8"},{"astId":383,"contract":"contracts/Voting.sol:Voting","label":"nbProposals","offset":3,"slot":"0","type":"t_uint8"}],"numberOfBytes":"32"},"t_uint256":{"encoding":"inplace","label":"uint256","numberOfBytes":"32"},"t_uint8":{"encoding":"inplace","label":"uint8","numberOfBytes":"1"}}},"userdoc":{"events":{"ProposalRegistered(uint256,uint8,address,string)":{"notice":"!!! EDIT !!!"},"SessionCreated(uint256,string,string)":{"notice":"!!! WARNING !!!"},"Voted(uint256,address,uint256)":{"notice":"!!! EDIT !!!"}},"kind":"user","methods":{"createVotingSession(string,string)":{"notice":"Administrator can create new voting session"},"getVote(uint256,address)":{"notice":"Retreive vote "},"getWinners(uint256)":{"notice":"Retreive winning proposals "},"registerProposal(uint256,string)":{"notice":"A voter can register a new proposal. "},"registerVoter(uint256,address)":{"notice":"Administrator can register voters. "},"startProposalsRegistration(uint256)":{"notice":"Administrator can close voters registration and open proposals registration. "},"startVotingSession(uint256)":{"notice":"Administrator can open voting session. "},"stopProposalsRegistration(uint256)":{"notice":"Administrator can close proposals registration. "},"stopVotingSession(uint256)":{"notice":"Administrator can close voting session. "},"tallyVotes(uint256)":{"notice":"Administrator can trigger votes talling. "},"vote(uint256,uint8)":{"notice":"A voter can register his vote for a proposal. "}},"notice":"This contract defines a basic voting system including different steps: 1) voting session creation 1) voters registration 2) proposals registration 3) votes recording 4) votes talling ","version":1}}}}