{
  "contracts/Voting.sol": {
    "Voting": {
      "abi": [
        {
          "anonymous": false,
          "inputs": [
            {
              "indexed": true,
              "internalType": "address",
              "name": "previousOwner",
              "type": "address"
            },
            {
              "indexed": true,
              "internalType": "address",
              "name": "newOwner",
              "type": "address"
            }
          ],
          "name": "OwnershipTransferred",
          "type": "event"
        },
        {
          "anonymous": false,
          "inputs": [
            {
              "indexed": true,
              "internalType": "uint256",
              "name": "sessionId",
              "type": "uint256"
            },
            {
              "indexed": false,
              "internalType": "uint8",
              "name": "proposalId",
              "type": "uint8"
            },
            {
              "indexed": false,
              "internalType": "string",
              "name": "description",
              "type": "string"
            }
          ],
          "name": "ProposalRegistered",
          "type": "event"
        },
        {
          "anonymous": false,
          "inputs": [
            {
              "indexed": true,
              "internalType": "uint256",
              "name": "sessionId",
              "type": "uint256"
            },
            {
              "indexed": false,
              "internalType": "string",
              "name": "name",
              "type": "string"
            },
            {
              "indexed": false,
              "internalType": "string",
              "name": "description",
              "type": "string"
            }
          ],
          "name": "SessionCreated",
          "type": "event"
        },
        {
          "anonymous": false,
          "inputs": [
            {
              "indexed": true,
              "internalType": "uint256",
              "name": "sessionId",
              "type": "uint256"
            },
            {
              "indexed": false,
              "internalType": "address",
              "name": "voter",
              "type": "address"
            }
          ],
          "name": "Voted",
          "type": "event"
        },
        {
          "anonymous": false,
          "inputs": [
            {
              "indexed": true,
              "internalType": "uint256",
              "name": "sessionId",
              "type": "uint256"
            },
            {
              "indexed": false,
              "internalType": "address",
              "name": "voterAddress",
              "type": "address"
            }
          ],
          "name": "VoterRegistered",
          "type": "event"
        },
        {
          "anonymous": false,
          "inputs": [
            {
              "indexed": true,
              "internalType": "uint256",
              "name": "sessionId",
              "type": "uint256"
            },
            {
              "indexed": false,
              "internalType": "uint256",
              "name": "votersCount",
              "type": "uint256"
            },
            {
              "indexed": false,
              "internalType": "uint256",
              "name": "totalVotes",
              "type": "uint256"
            },
            {
              "indexed": false,
              "internalType": "uint256",
              "name": "blankVotes",
              "type": "uint256"
            },
            {
              "indexed": false,
              "internalType": "uint256",
              "name": "abstention",
              "type": "uint256"
            },
            {
              "components": [
                {
                  "internalType": "string",
                  "name": "description",
                  "type": "string"
                },
                {
                  "internalType": "uint256",
                  "name": "voteCount",
                  "type": "uint256"
                },
                {
                  "internalType": "address",
                  "name": "proposer",
                  "type": "address"
                }
              ],
              "indexed": false,
              "internalType": "struct Voting.Proposal[]",
              "name": "winningProposals",
              "type": "tuple[]"
            }
          ],
          "name": "VotesTallied",
          "type": "event"
        },
        {
          "anonymous": false,
          "inputs": [
            {
              "indexed": true,
              "internalType": "uint256",
              "name": "sessionId",
              "type": "uint256"
            },
            {
              "indexed": false,
              "internalType": "enum Voting.WorkflowStatus",
              "name": "previousStatus",
              "type": "uint8"
            },
            {
              "indexed": false,
              "internalType": "enum Voting.WorkflowStatus",
              "name": "newStatus",
              "type": "uint8"
            }
          ],
          "name": "WorkflowStatusChange",
          "type": "event"
        },
        {
          "inputs": [
            {
              "internalType": "string",
              "name": "_name",
              "type": "string"
            },
            {
              "internalType": "string",
              "name": "_description",
              "type": "string"
            }
          ],
          "name": "createVotingSession",
          "outputs": [],
          "stateMutability": "nonpayable",
          "type": "function"
        },
        {
          "inputs": [
            {
              "internalType": "uint256",
              "name": "_sessionId",
              "type": "uint256"
            },
            {
              "internalType": "address",
              "name": "_voter",
              "type": "address"
            }
          ],
          "name": "getVote",
          "outputs": [
            {
              "internalType": "uint8",
              "name": "",
              "type": "uint8"
            }
          ],
          "stateMutability": "view",
          "type": "function"
        },
        {
          "inputs": [
            {
              "internalType": "uint256",
              "name": "_sessionId",
              "type": "uint256"
            }
          ],
          "name": "getWinners",
          "outputs": [
            {
              "components": [
                {
                  "internalType": "string",
                  "name": "description",
                  "type": "string"
                },
                {
                  "internalType": "uint256",
                  "name": "voteCount",
                  "type": "uint256"
                },
                {
                  "internalType": "address",
                  "name": "proposer",
                  "type": "address"
                }
              ],
              "internalType": "struct Voting.Proposal[]",
              "name": "",
              "type": "tuple[]"
            }
          ],
          "stateMutability": "view",
          "type": "function"
        },
        {
          "inputs": [],
          "name": "owner",
          "outputs": [
            {
              "internalType": "address",
              "name": "",
              "type": "address"
            }
          ],
          "stateMutability": "view",
          "type": "function"
        },
        {
          "inputs": [
            {
              "internalType": "uint256",
              "name": "_sessionId",
              "type": "uint256"
            },
            {
              "internalType": "string",
              "name": "_description",
              "type": "string"
            }
          ],
          "name": "registerProposal",
          "outputs": [],
          "stateMutability": "nonpayable",
          "type": "function"
        },
        {
          "inputs": [
            {
              "internalType": "uint256",
              "name": "_sessionId",
              "type": "uint256"
            },
            {
              "internalType": "address",
              "name": "_voter",
              "type": "address"
            }
          ],
          "name": "registerVoter",
          "outputs": [],
          "stateMutability": "nonpayable",
          "type": "function"
        },
        {
          "inputs": [],
          "name": "renounceOwnership",
          "outputs": [],
          "stateMutability": "nonpayable",
          "type": "function"
        },
        {
          "inputs": [
            {
              "internalType": "uint256",
              "name": "_sessionId",
              "type": "uint256"
            }
          ],
          "name": "startProposalsRegistration",
          "outputs": [],
          "stateMutability": "nonpayable",
          "type": "function"
        },
        {
          "inputs": [
            {
              "internalType": "uint256",
              "name": "_sessionId",
              "type": "uint256"
            }
          ],
          "name": "startVotingSession",
          "outputs": [],
          "stateMutability": "nonpayable",
          "type": "function"
        },
        {
          "inputs": [
            {
              "internalType": "uint256",
              "name": "_sessionId",
              "type": "uint256"
            }
          ],
          "name": "stopProposalsRegistration",
          "outputs": [],
          "stateMutability": "nonpayable",
          "type": "function"
        },
        {
          "inputs": [
            {
              "internalType": "uint256",
              "name": "_sessionId",
              "type": "uint256"
            }
          ],
          "name": "stopVotingSession",
          "outputs": [],
          "stateMutability": "nonpayable",
          "type": "function"
        },
        {
          "inputs": [
            {
              "internalType": "uint256",
              "name": "_sessionId",
              "type": "uint256"
            }
          ],
          "name": "tallyVotes",
          "outputs": [],
          "stateMutability": "nonpayable",
          "type": "function"
        },
        {
          "inputs": [
            {
              "internalType": "address",
              "name": "newOwner",
              "type": "address"
            }
          ],
          "name": "transferOwnership",
          "outputs": [],
          "stateMutability": "nonpayable",
          "type": "function"
        },
        {
          "inputs": [
            {
              "internalType": "uint256",
              "name": "_sessionId",
              "type": "uint256"
            },
            {
              "internalType": "uint8",
              "name": "_proposalId",
              "type": "uint8"
            }
          ],
          "name": "vote",
          "outputs": [],
          "stateMutability": "nonpayable",
          "type": "function"
        }
      ],
      "devdoc": {
        "author": "Teddy Chambard",
        "details": "Only the contract owner is able to create new voting session. The contract owner is also able to change the session status and activate next session steps. The word `Administrator` in contract documentation corresponds to contract owner. /!\\ BONUS: I took some decisions to change initial specifications to improve the features available in the exercice: 1) Many voting sessions can be created and evolve in parallel 2) Votes are kept secret until the end of session, then every votes become accessible to voters and contract owner 3) Every events expose sessionId as first parameter 4) `Voted` event does not expose chosen proposal ID in order to keep votes secret until the end of the session 5) A session is limited to 256 proposals 6) Two proposals are registered by default in every session: abstention and blank vote 7) A voter can not do more than 3 proposals by session 6) A voter can not vote for its own proposals 7) A vote session can terminate with equality if many proposals obtain same number of votes",
        "events": {
          "ProposalRegistered(uint256,uint8,string)": {
            "details": "I decided to add description into ProposalRegistered event in order to expose proposals during the voting session without the vote count. By this way voters are able to retrieve proposal information but they can not access to each proposal vote count before the end ot the session."
          },
          "SessionCreated(uint256,string,string)": {
            "details": "All events signatures integrate sessionId parameter that was not required in specification"
          },
          "Voted(uint256,address)": {
            "details": "I decided to remove proposalId from Voted event despite the specification as  I think no one should be able to see voters choice before the end of voting session"
          }
        },
        "kind": "dev",
        "methods": {
          "createVotingSession(string,string)": {
            "params": {
              "_description": "The session description ",
              "_name": "The session name "
            }
          },
          "getVote(uint256,address)": {
            "details": "Administrator and registered voters can all access to everybody votes but only at the end of voting session. ",
            "params": {
              "_sessionId": "The session identifier",
              "_voter": "The voter address"
            },
            "returns": {
              "_0": "uint8 target voter proposal choice"
            }
          },
          "getWinners(uint256)": {
            "details": "Administrator and registered voters can retreive winning proposals but only at the end of voting session. ",
            "returns": {
              "_0": "Proposal[] The winning proposals"
            }
          },
          "owner()": {
            "details": "Returns the address of the current owner."
          },
          "registerProposal(uint256,string)": {
            "details": "Each voter can register many proposals. As the vote is considered to be done in small organization context, the maximum number of proposals is limited to 256. Maximum number of proposals per voter is also limited to 3. A vote can be added only by registered voter when status is set to VotingSessionStarted ",
            "params": {
              "_description": "The proposal description",
              "_sessionId": "The session identifier"
            }
          },
          "registerVoter(uint256,address)": {
            "details": "voters can be added only by contract owner when status is set to RegisteringVoters An event VoterRegistered is emitted ",
            "params": {
              "_sessionId": "The session identifier ",
              "_voter": "The address to add into voters registry"
            }
          },
          "renounceOwnership()": {
            "details": "Leaves the contract without owner. It will not be possible to call `onlyOwner` functions anymore. Can only be called by the current owner. NOTE: Renouncing ownership will leave the contract without an owner, thereby removing any functionality that is only available to the owner."
          },
          "startProposalsRegistration(uint256)": {
            "details": "Can be called only when status is set to RegisteringVoters. Two default proposals are registered at the beginning of this step: `Abstention` and `Blank`. That means a registered voter that forget to vote will be counted as `abstention` thanks to `proposals` array index 0 An event WorkflowStatusChange is emitted",
            "params": {
              "_sessionId": "The session identifier "
            }
          },
          "startVotingSession(uint256)": {
            "details": "Can be called only when status is set to ProposalsRegistrationEnded. An event WorkflowStatusChange is emitted",
            "params": {
              "_sessionId": "The session identifier "
            }
          },
          "stopProposalsRegistration(uint256)": {
            "details": "Can be called only when status is set to ProposalsRegistrationStarted. An event WorkflowStatusChange is emitted",
            "params": {
              "_sessionId": "The session identifier "
            }
          },
          "stopVotingSession(uint256)": {
            "details": "Can be called only when status is set to VotingSessionStarted. An event WorkflowStatusChange is emitted",
            "params": {
              "_sessionId": "The session identifier "
            }
          },
          "tallyVotes(uint256)": {
            "details": "After votes talling, it is possible that we got many winning proposals. Votes talling can be triggered only by contract owner when voting session status is set to VotingSessionEnded An event WorkflowStatusChange is emitted",
            "params": {
              "_sessionId": "The session identifier "
            }
          },
          "transferOwnership(address)": {
            "details": "Transfers ownership of the contract to a new account (`newOwner`). Can only be called by the current owner."
          },
          "vote(uint256,uint8)": {
            "details": "Each voter can vote only once for one proposal. Votes can be added only by registered voter when status is set to VotingSessionStarted ",
            "params": {
              "_proposalId": "The chosen proposal identifier",
              "_sessionId": "The session identifier"
            }
          }
        },
        "title": "Alyra Project: Voting system",
        "version": 1
      },
      "evm": {
        "bytecode": {
          "linkReferences": {},
          "object": "608060405234801561001057600080fd5b5061001a3361001f565b61006f565b600080546001600160a01b038381166001600160a01b0319831681178455604051919092169283917f8be0079c531659141344cd1fd0a4f28419497f9722a3daafe3b4186f6b6457e09190a35050565b61258d8061007e6000396000f3fe608060405234801561001057600080fd5b50600436106100ea5760003560e01c80638da5cb5b1161008c5780639980a55a116100665780639980a55a146101c2578063bc3f931f146101d5578063c82de38f146101fa578063f2fde38b1461020d57600080fd5b80638da5cb5b14610181578063943e82161461019c57806394c790bb146101af57600080fd5b80636f3dc556116100c85780636f3dc55614610140578063715018a6146101535780637ace41841461015b5780638bc6a6dd1461016e57600080fd5b8063153bc95b146100ef5780634d318b0e146101045780636b1426a414610117575b600080fd5b6101026100fd366004611d2b565b610220565b005b610102610112366004611d97565b6102d0565b61012a610125366004611d97565b610954565b6040516101379190611e00565b60405180910390f35b61010261014e366004611d97565b610b7b565b610102610c71565b610102610169366004611e8a565b610c85565b61010261017c366004611d97565b610e79565b6000546040516001600160a01b039091168152602001610137565b6101026101aa366004611ed6565b610fb7565b6101026101bd366004611f28565b611378565b6101026101d0366004611d97565b6115f5565b6101e86101e3366004611f28565b6116de565b60405160ff9091168152602001610137565b610102610208366004611d97565b61181c565b61010261021b366004611f54565b611905565b61022861197e565b6002546000908152600160208190526040909120805460ff1916828002179055506002547fb824462ec90945eb31146c1c4ce6515d44b184facb795bea5d1f52355b243f8b858585856040516102819493929190611fb5565b60405180910390a2600254600080516020612538833981519152600060016040516102ad929190612009565b60405180910390a2600280549060006102c58361203a565b919050555050505050565b6102d861197e565b8060058060008381526001602052604090205460ff1660068111156102ff576102ff611f76565b1461031a82600681111561031557610315611f76565b6119d8565b6000848152600160205260409020546103419060ff16600681111561031557610315611f76565b604051602001610352929190612053565b604051602081830303815290604052906103885760405162461bcd60e51b815260040161037f91906120d4565b60405180910390fd5b506000838152600160205260408120600401548190819067ffffffffffffffff8111156103b7576103b76120e7565b60405190808252806020026020018201604052801561041557816020015b6104026040518060600160405280606081526020016000815260200160006001600160a01b031681525090565b8152602001906001900390816103d55790505b50905060025b60008781526001602052604090206004015481101561077c57600087815260016020526040902060040180548591908390811061045a5761045a6120fd565b90600052602060002090600302016001015411156105ca576000878152600160205260409020600401805482908110610495576104956120fd565b9060005260206000209060030201600101549350600192506001600088815260200190815260200160002060040181815481106104d4576104d46120fd565b90600052602060002090600302016040518060600160405290816000820180546104fd90612113565b80601f016020809104026020016040519081016040528092919081815260200182805461052990612113565b80156105765780601f1061054b57610100808354040283529160200191610576565b820191906000526020600020905b81548152906001019060200180831161055957829003601f168201915b505050918352505060018281015460208301526002909201546001600160a01b031660409091015283906105aa908661214d565b815181106105ba576105ba6120fd565b602002602001018190525061076a565b60008781526001602052604081206004018054839081106105ed576105ed6120fd565b9060005260206000209060030201600101541180156106415750600087815260016020526040902060040180548591908390811061062d5761062d6120fd565b906000526020600020906003020160010154145b1561076a57826106508161203a565b60008981526001602052604090206004018054919550915082908110610678576106786120fd565b90600052602060002090600302016040518060600160405290816000820180546106a190612113565b80601f01602080910402602001604051908101604052809291908181526020018280546106cd90612113565b801561071a5780601f106106ef5761010080835404028352916020019161071a565b820191906000526020600020905b8154815290600101906020018083116106fd57829003601f168201915b505050918352505060018281015460208301526002909201546001600160a01b0316604090910152839061074e908661214d565b8151811061075e5761075e6120fd565b60200260200101819052505b806107748161203a565b91505061041b565b5060005b8281101561082757600160008881526020019081526020016000206005018282815181106107b0576107b06120fd565b602090810291909101810151825460018101845560009384529190922082516003909202019081906107e290826121b1565b5060208201516001820155604090910151600290910180546001600160a01b0319166001600160a01b039092169190911790558061081f8161203a565b915050610780565b5060008681526001602052604090819020805460ff19166006908117909155905187916000805160206125388339815191529161086691600591612009565b60405180910390a260008681526001602052604081206002015461088b5760006108ae565b600087815260016020526040902060038101546002909101546108ae919061214d565b600088815260016020819052604090912060028101546003820154600490920180549495508b947f8231621024a2914f448f5821e1168fa08ea32be09db6a89d94e306e0352d12f494929392908110610909576109096120fd565b90600052602060002090600302016001015485600160008e81526020019081526020016000206005016040516109439594939291906122ee565b60405180910390a250505050505050565b6060813361096a6000546001600160a01b031690565b6001600160a01b0316148061099a57506000818152600160208181526040808420338552909201905290205460ff165b6109b65760405162461bcd60e51b815260040161037f90612398565b8260068060008381526001602052604090205460ff1660068111156109dd576109dd611f76565b10156109f482600681111561031557610315611f76565b600084815260016020526040902054610a1b9060ff16600681111561031557610315611f76565b604051602001610a2c9291906123df565b60405160208183030381529060405290610a595760405162461bcd60e51b815260040161037f91906120d4565b50600085815260016020908152604080832060050180548251818502810185019093528083529193909284015b82821015610b6d5783829060005260206000209060030201604051806060016040529081600082018054610ab990612113565b80601f0160208091040260200160405190810160405280929190818152602001828054610ae590612113565b8015610b325780601f10610b0757610100808354040283529160200191610b32565b820191906000526020600020905b815481529060010190602001808311610b1557829003601f168201915b50505091835250506001828101546020808401919091526002909301546001600160a01b031660409092019190915291835292019101610a86565b505050509350505050919050565b610b8361197e565b8060048060008381526001602052604090205460ff166006811115610baa57610baa611f76565b14610bc082600681111561031557610315611f76565b600084815260016020526040902054610be79060ff16600681111561031557610315611f76565b604051602001610bf8929190612053565b60405160208183030381529060405290610c255760405162461bcd60e51b815260040161037f91906120d4565b5060008381526001602052604090819020805460ff191660059081179091559051849160008051602061253883398151915291610c6491600491612009565b60405180910390a2505050565b610c7961197e565b610c836000611ae1565b565b60008381526001602081815260408084203385529092019052902054839060ff16610cf25760405162461bcd60e51b815260206004820152601e60248201527f43616c6c6572206973206e6f74207265676973746572656420766f7465720000604482015260640161037f565b8360028060008381526001602052604090205460ff166006811115610d1957610d19611f76565b14610d2f82600681111561031557610315611f76565b600084815260016020526040902054610d569060ff16600681111561031557610315611f76565b604051602001610d67929190612053565b60405160208183030381529060405290610d945760405162461bcd60e51b815260040161037f91906120d4565b50600086815260016020818152604080842033855290920190529020546003630100000090910460ff1610610e315760405162461bcd60e51b815260206004820152603b60248201527f596f7520616c726561647920706f7374656420332070726f706f73616c73207760448201527f6869636820697320746865206d6178696d756d20616c6c6f7765640000000000606482015260840161037f565b610e718686868080601f016020809104026020016040519081016040528093929190818152602001838380828437600092019190915250611b3192505050565b505050505050565b610e8161197e565b8060018060008381526001602052604090205460ff166006811115610ea857610ea8611f76565b14610ebe82600681111561031557610315611f76565b600084815260016020526040902054610ee59060ff16600681111561031557610315611f76565b604051602001610ef6929190612053565b60405160208183030381529060405290610f235760405162461bcd60e51b815260040161037f91906120d4565b50610f50836040518060400160405280600a81526020016920b139ba32b73a34b7b760b11b815250611b31565b610f778360405180604001604052806005815260200164426c616e6b60d81b815250611b31565b600083815260016020819052604091829020805460ff191660029081179091559151859260008051602061253883398151915292610c6492909190612009565b60008281526001602081815260408084203385529092019052902054829060ff166110245760405162461bcd60e51b815260206004820152601e60248201527f43616c6c6572206973206e6f74207265676973746572656420766f7465720000604482015260640161037f565b8260048060008381526001602052604090205460ff16600681111561104b5761104b611f76565b1461106182600681111561031557610315611f76565b6000848152600160205260409020546110889060ff16600681111561031557610315611f76565b604051602001611099929190612053565b604051602081830303815290604052906110c65760405162461bcd60e51b815260040161037f91906120d4565b5060008581526001602081815260408084203385529092019052902054610100900460ff16156111385760405162461bcd60e51b815260206004820152601760248201527f566f7465722068617320616c726561647920766f746564000000000000000000604482015260640161037f565b60008581526001602052604090206004015460ff85169081109061115b906119d8565b60405160200161116b9190612461565b604051602081830303815290604052906111985760405162461bcd60e51b815260040161037f91906120d4565b506000858152600160205260409020600401805433919060ff87169081106111c2576111c26120fd565b60009182526020909120600260039092020101546001600160a01b03160361123e5760405162461bcd60e51b815260206004820152602960248201527f4120766f7465722063616e206e6f7420766f746520666f7220697473206f776e604482015268081c1c9bdc1bdcd85b60ba1b606482015260840161037f565b60008460ff16116112a35760405162461bcd60e51b815260206004820152602960248201527f46697273742070726f706f73616c20697320726573657276656420666f7220616044820152683139ba32b73a34b7b760b91b606482015260840161037f565b6000858152600160205260409020600401805460ff86169081106112c9576112c96120fd565b6000918252602082206001600390920201018054916112e78361203a565b909155505060008581526001602081815260408084203385528084018352908420805460ff8a16620100000262ffff0019909116176101001790558884529190526003018054916113378361203a565b909155505060405133815285907f030b0f8dcd86a031eddb071f91882edeac8173663ba775713b677b42b51be44b9060200160405180910390a25050505050565b61138061197e565b8160018060008381526001602052604090205460ff1660068111156113a7576113a7611f76565b146113bd82600681111561031557610315611f76565b6000848152600160205260409020546113e49060ff16600681111561031557610315611f76565b6040516020016113f5929190612053565b604051602081830303815290604052906114225760405162461bcd60e51b815260040161037f91906120d4565b506000546001600160a01b03166001600160a01b0316836001600160a01b03160361148f5760405162461bcd60e51b815260206004820152601860248201527f4f776e65722063616e206e6f74206265206120766f7465720000000000000000604482015260640161037f565b60008481526001602081815260408084206001600160a01b0388168552909201905290205460ff16156115045760405162461bcd60e51b815260206004820152601b60248201527f566f74657220697320616c726561647920726567697374657265640000000000604482015260640161037f565b60408051608081018252600180825260006020808401828152848601838152606086018481528b85528584528785206001600160a01b038c16865280870185529785209651875493519251915161ffff1990941690151561ff00191617610100921515929092029190911763ffff000019166201000060ff9283160263ff0000001916176301000000919092160217909355878152915260029091018054916115ac8361203a565b90915550506040516001600160a01b038416815284907ff45b8429c36d478f9a6d081c4811a819b98aa5b608588bed9d406405cf2824739060200160405180910390a250505050565b6115fd61197e565b8060038060008381526001602052604090205460ff16600681111561162457611624611f76565b1461163a82600681111561031557610315611f76565b6000848152600160205260409020546116619060ff16600681111561031557610315611f76565b604051602001611672929190612053565b6040516020818303038152906040529061169f5760405162461bcd60e51b815260040161037f91906120d4565b5060008381526001602052604090819020805460ff191660049081179091559051849160008051602061253883398151915291610c6491600391612009565b600082336116f46000546001600160a01b031690565b6001600160a01b0316148061172457506000818152600160208181526040808420338552909201905290205460ff165b6117405760405162461bcd60e51b815260040161037f90612398565b8360058060008381526001602052604090205460ff16600681111561176757611767611f76565b101561177e82600681111561031557610315611f76565b6000848152600160205260409020546117a59060ff16600681111561031557610315611f76565b6040516020016117b69291906123df565b604051602081830303815290604052906117e35760405162461bcd60e51b815260040161037f91906120d4565b505050600093845250506001602081815260408085206001600160a01b0394909416855292909101905290205462010000900460ff1690565b61182461197e565b8060028060008381526001602052604090205460ff16600681111561184b5761184b611f76565b1461186182600681111561031557610315611f76565b6000848152600160205260409020546118889060ff16600681111561031557610315611f76565b604051602001611899929190612053565b604051602081830303815290604052906118c65760405162461bcd60e51b815260040161037f91906120d4565b5060008381526001602052604090819020805460ff191660039081179091559051849160008051602061253883398151915291610c6491600291612009565b61190d61197e565b6001600160a01b0381166119725760405162461bcd60e51b815260206004820152602660248201527f4f776e61626c653a206e6577206f776e657220697320746865207a65726f206160448201526564647265737360d01b606482015260840161037f565b61197b81611ae1565b50565b6000546001600160a01b03163314610c835760405162461bcd60e51b815260206004820181905260248201527f4f776e61626c653a2063616c6c6572206973206e6f7420746865206f776e6572604482015260640161037f565b6060816000036119ff5750506040805180820190915260018152600360fc1b602082015290565b8160005b8115611a295780611a138161203a565b9150611a229050600a836124c1565b9150611a03565b60008167ffffffffffffffff811115611a4457611a446120e7565b6040519080825280601f01601f191660200182016040528015611a6e576020820181803683370190505b5090505b8415611ad957611a8360018361214d565b9150611a90600a866124d5565b611a9b9060306124e9565b60f81b818381518110611ab057611ab06120fd565b60200101906001600160f81b031916908160001a905350611ad2600a866124c1565b9450611a72565b949350505050565b600080546001600160a01b038381166001600160a01b0319831681178455604051919092169283917f8be0079c531659141344cd1fd0a4f28419497f9722a3daafe3b4186f6b6457e09190a35050565b60008281526001602052604090206004015460ff11611b875760405162461bcd60e51b8152602060048201526012602482015271546f6f206d616e792070726f706f73616c7360701b604482015260640161037f565b60008281526001602081815260408084208151606081018352868152808401869052339281019290925260040180549384018155845292208251600390920201908190611bd490826121b1565b50602082810151600183810191909155604093840151600290930180546001600160a01b0319166001600160a01b0390941693909317909255600085815282825283812033825290920190522080546301000000900460ff16906003611c39836124fc565b825460ff9182166101009390930a9283029190920219909116179055506000828152600160208190526040822060040154611c74919061214d565b9050827f734feec28275467965f53538a3f7bb9e350e316ec6f015c595d6dae504a5762f82600160008781526020019081526020016000206004018460ff1681548110611cc357611cc36120fd565b9060005260206000209060030201600001604051610c6492919061251b565b60008083601f840112611cf457600080fd5b50813567ffffffffffffffff811115611d0c57600080fd5b602083019150836020828501011115611d2457600080fd5b9250929050565b60008060008060408587031215611d4157600080fd5b843567ffffffffffffffff80821115611d5957600080fd5b611d6588838901611ce2565b90965094506020870135915080821115611d7e57600080fd5b50611d8b87828801611ce2565b95989497509550505050565b600060208284031215611da957600080fd5b5035919050565b60005b83811015611dcb578181015183820152602001611db3565b50506000910152565b60008151808452611dec816020860160208601611db0565b601f01601f19169290920160200192915050565b60006020808301818452808551808352604092508286019150828160051b87010184880160005b83811015611e7c57603f19898403018552815160608151818652611e4d82870182611dd4565b838b0151878c0152928901516001600160a01b0316958901959095525094870194925090860190600101611e27565b509098975050505050505050565b600080600060408486031215611e9f57600080fd5b83359250602084013567ffffffffffffffff811115611ebd57600080fd5b611ec986828701611ce2565b9497909650939450505050565b60008060408385031215611ee957600080fd5b82359150602083013560ff81168114611f0157600080fd5b809150509250929050565b80356001600160a01b0381168114611f2357600080fd5b919050565b60008060408385031215611f3b57600080fd5b82359150611f4b60208401611f0c565b90509250929050565b600060208284031215611f6657600080fd5b611f6f82611f0c565b9392505050565b634e487b7160e01b600052602160045260246000fd5b81835281816020850137506000828201602090810191909152601f909101601f19169091010190565b604081526000611fc9604083018688611f8c565b8281036020840152611fdc818587611f8c565b979650505050505050565b6007811061200557634e487b7160e01b600052602160045260246000fd5b9052565b604081016120178285611fe7565b611f6f6020830184611fe7565b634e487b7160e01b600052601160045260246000fd5b60006001820161204c5761204c612024565b5060010190565b7f556e657870656374656420766f74696e672073657373696f6e2073746174757381526a3a2065787065637465643d60a81b60208201526000835161209f81602b850160208801611db0565b682063757272656e743d60b81b602b9184019182015283516120c8816034840160208801611db0565b01603401949350505050565b602081526000611f6f6020830184611dd4565b634e487b7160e01b600052604160045260246000fd5b634e487b7160e01b600052603260045260246000fd5b600181811c9082168061212757607f821691505b60208210810361214757634e487b7160e01b600052602260045260246000fd5b50919050565b8181038181111561216057612160612024565b92915050565b601f8211156121ac57600081815260208120601f850160051c8101602086101561218d5750805b601f850160051c820191505b81811015610e7157828155600101612199565b505050565b815167ffffffffffffffff8111156121cb576121cb6120e7565b6121df816121d98454612113565b84612166565b602080601f83116001811461221457600084156121fc5750858301515b600019600386901b1c1916600185901b178555610e71565b600085815260208120601f198616915b8281101561224357888601518255948401946001909101908401612224565b50858210156122615787850151600019600388901b60f8161c191681555b5050505050600190811b01905550565b6000815461227e81612113565b80855260206001838116801561229b57600181146122b5576122e3565b60ff1985168884015283151560051b8801830195506122e3565b866000528260002060005b858110156122db5781548a82018601529083019084016122c0565b890184019650505b505050505092915050565b600060a0820187835260208781850152604087818601526060878187015260a0608087015283875480865260c08801915060c08160051b8901019550886000528460002060005b828110156123855789880360bf1901845284885261235585890183612271565b6001838101548a8a015260028401546001600160a01b031699880199909952979387019360039092019101612335565b50959d9c50505050505050505050505050565b60208082526027908201527f43616c6c6572206973206e6f74206f776e6572206f722072656769737465726560408201526632103b37ba32b960c91b606082015260800190565b7f556e657870656374656420766f74696e672073657373696f6e2073746174757381526b3a2065787065637465643e3d60a01b60208201526000835161242c81602c850160208801611db0565b682063757272656e743d60b81b602c918401918201528351612455816035840160208801611db0565b01603501949350505050565b680283937b837b9b0b6160bd1b815260008251612485816009850160208701611db0565b6e08191bd95cc81b9bdd08195e1a5cdd608a1b6009939091019283015250601801919050565b634e487b7160e01b600052601260045260246000fd5b6000826124d0576124d06124ab565b500490565b6000826124e4576124e46124ab565b500690565b8082018082111561216057612160612024565b600060ff821660ff810361251257612512612024565b60010192915050565b60ff83168152604060208201526000611ad9604083018461227156feb067099e10826978a3867510ad1e0dcf4ca5cef8e422fd8df2fc3d679167fe8da264697066735822122050e784fc5cec3653b840c1bd3bf965df0c90b02147ab612ac2eb06d81e99f62164736f6c63430008110033",
          "opcodes": "PUSH1 0x80 PUSH1 0x40 MSTORE CALLVALUE DUP1 ISZERO PUSH2 0x10 JUMPI PUSH1 0x0 DUP1 REVERT JUMPDEST POP PUSH2 0x1A CALLER PUSH2 0x1F JUMP JUMPDEST PUSH2 0x6F JUMP JUMPDEST PUSH1 0x0 DUP1 SLOAD PUSH1 0x1 PUSH1 0x1 PUSH1 0xA0 SHL SUB DUP4 DUP2 AND PUSH1 0x1 PUSH1 0x1 PUSH1 0xA0 SHL SUB NOT DUP4 AND DUP2 OR DUP5 SSTORE PUSH1 0x40 MLOAD SWAP2 SWAP1 SWAP3 AND SWAP3 DUP4 SWAP2 PUSH32 0x8BE0079C531659141344CD1FD0A4F28419497F9722A3DAAFE3B4186F6B6457E0 SWAP2 SWAP1 LOG3 POP POP JUMP JUMPDEST PUSH2 0x258D DUP1 PUSH2 0x7E PUSH1 0x0 CODECOPY PUSH1 0x0 RETURN INVALID PUSH1 0x80 PUSH1 0x40 MSTORE CALLVALUE DUP1 ISZERO PUSH2 0x10 JUMPI PUSH1 0x0 DUP1 REVERT JUMPDEST POP PUSH1 0x4 CALLDATASIZE LT PUSH2 0xEA JUMPI PUSH1 0x0 CALLDATALOAD PUSH1 0xE0 SHR DUP1 PUSH4 0x8DA5CB5B GT PUSH2 0x8C JUMPI DUP1 PUSH4 0x9980A55A GT PUSH2 0x66 JUMPI DUP1 PUSH4 0x9980A55A EQ PUSH2 0x1C2 JUMPI DUP1 PUSH4 0xBC3F931F EQ PUSH2 0x1D5 JUMPI DUP1 PUSH4 0xC82DE38F EQ PUSH2 0x1FA JUMPI DUP1 PUSH4 0xF2FDE38B EQ PUSH2 0x20D JUMPI PUSH1 0x0 DUP1 REVERT JUMPDEST DUP1 PUSH4 0x8DA5CB5B EQ PUSH2 0x181 JUMPI DUP1 PUSH4 0x943E8216 EQ PUSH2 0x19C JUMPI DUP1 PUSH4 0x94C790BB EQ PUSH2 0x1AF JUMPI PUSH1 0x0 DUP1 REVERT JUMPDEST DUP1 PUSH4 0x6F3DC556 GT PUSH2 0xC8 JUMPI DUP1 PUSH4 0x6F3DC556 EQ PUSH2 0x140 JUMPI DUP1 PUSH4 0x715018A6 EQ PUSH2 0x153 JUMPI DUP1 PUSH4 0x7ACE4184 EQ PUSH2 0x15B JUMPI DUP1 PUSH4 0x8BC6A6DD EQ PUSH2 0x16E JUMPI PUSH1 0x0 DUP1 REVERT JUMPDEST DUP1 PUSH4 0x153BC95B EQ PUSH2 0xEF JUMPI DUP1 PUSH4 0x4D318B0E EQ PUSH2 0x104 JUMPI DUP1 PUSH4 0x6B1426A4 EQ PUSH2 0x117 JUMPI JUMPDEST PUSH1 0x0 DUP1 REVERT JUMPDEST PUSH2 0x102 PUSH2 0xFD CALLDATASIZE PUSH1 0x4 PUSH2 0x1D2B JUMP JUMPDEST PUSH2 0x220 JUMP JUMPDEST STOP JUMPDEST PUSH2 0x102 PUSH2 0x112 CALLDATASIZE PUSH1 0x4 PUSH2 0x1D97 JUMP JUMPDEST PUSH2 0x2D0 JUMP JUMPDEST PUSH2 0x12A PUSH2 0x125 CALLDATASIZE PUSH1 0x4 PUSH2 0x1D97 JUMP JUMPDEST PUSH2 0x954 JUMP JUMPDEST PUSH1 0x40 MLOAD PUSH2 0x137 SWAP2 SWAP1 PUSH2 0x1E00 JUMP JUMPDEST PUSH1 0x40 MLOAD DUP1 SWAP2 SUB SWAP1 RETURN JUMPDEST PUSH2 0x102 PUSH2 0x14E CALLDATASIZE PUSH1 0x4 PUSH2 0x1D97 JUMP JUMPDEST PUSH2 0xB7B JUMP JUMPDEST PUSH2 0x102 PUSH2 0xC71 JUMP JUMPDEST PUSH2 0x102 PUSH2 0x169 CALLDATASIZE PUSH1 0x4 PUSH2 0x1E8A JUMP JUMPDEST PUSH2 0xC85 JUMP JUMPDEST PUSH2 0x102 PUSH2 0x17C CALLDATASIZE PUSH1 0x4 PUSH2 0x1D97 JUMP JUMPDEST PUSH2 0xE79 JUMP JUMPDEST PUSH1 0x0 SLOAD PUSH1 0x40 MLOAD PUSH1 0x1 PUSH1 0x1 PUSH1 0xA0 SHL SUB SWAP1 SWAP2 AND DUP2 MSTORE PUSH1 0x20 ADD PUSH2 0x137 JUMP JUMPDEST PUSH2 0x102 PUSH2 0x1AA CALLDATASIZE PUSH1 0x4 PUSH2 0x1ED6 JUMP JUMPDEST PUSH2 0xFB7 JUMP JUMPDEST PUSH2 0x102 PUSH2 0x1BD CALLDATASIZE PUSH1 0x4 PUSH2 0x1F28 JUMP JUMPDEST PUSH2 0x1378 JUMP JUMPDEST PUSH2 0x102 PUSH2 0x1D0 CALLDATASIZE PUSH1 0x4 PUSH2 0x1D97 JUMP JUMPDEST PUSH2 0x15F5 JUMP JUMPDEST PUSH2 0x1E8 PUSH2 0x1E3 CALLDATASIZE PUSH1 0x4 PUSH2 0x1F28 JUMP JUMPDEST PUSH2 0x16DE JUMP JUMPDEST PUSH1 0x40 MLOAD PUSH1 0xFF SWAP1 SWAP2 AND DUP2 MSTORE PUSH1 0x20 ADD PUSH2 0x137 JUMP JUMPDEST PUSH2 0x102 PUSH2 0x208 CALLDATASIZE PUSH1 0x4 PUSH2 0x1D97 JUMP JUMPDEST PUSH2 0x181C JUMP JUMPDEST PUSH2 0x102 PUSH2 0x21B CALLDATASIZE PUSH1 0x4 PUSH2 0x1F54 JUMP JUMPDEST PUSH2 0x1905 JUMP JUMPDEST PUSH2 0x228 PUSH2 0x197E JUMP JUMPDEST PUSH1 0x2 SLOAD PUSH1 0x0 SWAP1 DUP2 MSTORE PUSH1 0x1 PUSH1 0x20 DUP2 SWAP1 MSTORE PUSH1 0x40 SWAP1 SWAP2 KECCAK256 DUP1 SLOAD PUSH1 0xFF NOT AND DUP3 DUP1 MUL OR SWAP1 SSTORE POP PUSH1 0x2 SLOAD PUSH32 0xB824462EC90945EB31146C1C4CE6515D44B184FACB795BEA5D1F52355B243F8B DUP6 DUP6 DUP6 DUP6 PUSH1 0x40 MLOAD PUSH2 0x281 SWAP5 SWAP4 SWAP3 SWAP2 SWAP1 PUSH2 0x1FB5 JUMP JUMPDEST PUSH1 0x40 MLOAD DUP1 SWAP2 SUB SWAP1 LOG2 PUSH1 0x2 SLOAD PUSH1 0x0 DUP1 MLOAD PUSH1 0x20 PUSH2 0x2538 DUP4 CODECOPY DUP2 MLOAD SWAP2 MSTORE PUSH1 0x0 PUSH1 0x1 PUSH1 0x40 MLOAD PUSH2 0x2AD SWAP3 SWAP2 SWAP1 PUSH2 0x2009 JUMP JUMPDEST PUSH1 0x40 MLOAD DUP1 SWAP2 SUB SWAP1 LOG2 PUSH1 0x2 DUP1 SLOAD SWAP1 PUSH1 0x0 PUSH2 0x2C5 DUP4 PUSH2 0x203A JUMP JUMPDEST SWAP2 SWAP1 POP SSTORE POP POP POP POP POP JUMP JUMPDEST PUSH2 0x2D8 PUSH2 0x197E JUMP JUMPDEST DUP1 PUSH1 0x5 DUP1 PUSH1 0x0 DUP4 DUP2 MSTORE PUSH1 0x1 PUSH1 0x20 MSTORE PUSH1 0x40 SWAP1 KECCAK256 SLOAD PUSH1 0xFF AND PUSH1 0x6 DUP2 GT ISZERO PUSH2 0x2FF JUMPI PUSH2 0x2FF PUSH2 0x1F76 JUMP JUMPDEST EQ PUSH2 0x31A DUP3 PUSH1 0x6 DUP2 GT ISZERO PUSH2 0x315 JUMPI PUSH2 0x315 PUSH2 0x1F76 JUMP JUMPDEST PUSH2 0x19D8 JUMP JUMPDEST PUSH1 0x0 DUP5 DUP2 MSTORE PUSH1 0x1 PUSH1 0x20 MSTORE PUSH1 0x40 SWAP1 KECCAK256 SLOAD PUSH2 0x341 SWAP1 PUSH1 0xFF AND PUSH1 0x6 DUP2 GT ISZERO PUSH2 0x315 JUMPI PUSH2 0x315 PUSH2 0x1F76 JUMP JUMPDEST PUSH1 0x40 MLOAD PUSH1 0x20 ADD PUSH2 0x352 SWAP3 SWAP2 SWAP1 PUSH2 0x2053 JUMP JUMPDEST PUSH1 0x40 MLOAD PUSH1 0x20 DUP2 DUP4 SUB SUB DUP2 MSTORE SWAP1 PUSH1 0x40 MSTORE SWAP1 PUSH2 0x388 JUMPI PUSH1 0x40 MLOAD PUSH3 0x461BCD PUSH1 0xE5 SHL DUP2 MSTORE PUSH1 0x4 ADD PUSH2 0x37F SWAP2 SWAP1 PUSH2 0x20D4 JUMP JUMPDEST PUSH1 0x40 MLOAD DUP1 SWAP2 SUB SWAP1 REVERT JUMPDEST POP PUSH1 0x0 DUP4 DUP2 MSTORE PUSH1 0x1 PUSH1 0x20 MSTORE PUSH1 0x40 DUP2 KECCAK256 PUSH1 0x4 ADD SLOAD DUP2 SWAP1 DUP2 SWAP1 PUSH8 0xFFFFFFFFFFFFFFFF DUP2 GT ISZERO PUSH2 0x3B7 JUMPI PUSH2 0x3B7 PUSH2 0x20E7 JUMP JUMPDEST PUSH1 0x40 MLOAD SWAP1 DUP1 DUP3 MSTORE DUP1 PUSH1 0x20 MUL PUSH1 0x20 ADD DUP3 ADD PUSH1 0x40 MSTORE DUP1 ISZERO PUSH2 0x415 JUMPI DUP2 PUSH1 0x20 ADD JUMPDEST PUSH2 0x402 PUSH1 0x40 MLOAD DUP1 PUSH1 0x60 ADD PUSH1 0x40 MSTORE DUP1 PUSH1 0x60 DUP2 MSTORE PUSH1 0x20 ADD PUSH1 0x0 DUP2 MSTORE PUSH1 0x20 ADD PUSH1 0x0 PUSH1 0x1 PUSH1 0x1 PUSH1 0xA0 SHL SUB AND DUP2 MSTORE POP SWAP1 JUMP JUMPDEST DUP2 MSTORE PUSH1 0x20 ADD SWAP1 PUSH1 0x1 SWAP1 SUB SWAP1 DUP2 PUSH2 0x3D5 JUMPI SWAP1 POP JUMPDEST POP SWAP1 POP PUSH1 0x2 JUMPDEST PUSH1 0x0 DUP8 DUP2 MSTORE PUSH1 0x1 PUSH1 0x20 MSTORE PUSH1 0x40 SWAP1 KECCAK256 PUSH1 0x4 ADD SLOAD DUP2 LT ISZERO PUSH2 0x77C JUMPI PUSH1 0x0 DUP8 DUP2 MSTORE PUSH1 0x1 PUSH1 0x20 MSTORE PUSH1 0x40 SWAP1 KECCAK256 PUSH1 0x4 ADD DUP1 SLOAD DUP6 SWAP2 SWAP1 DUP4 SWAP1 DUP2 LT PUSH2 0x45A JUMPI PUSH2 0x45A PUSH2 0x20FD JUMP JUMPDEST SWAP1 PUSH1 0x0 MSTORE PUSH1 0x20 PUSH1 0x0 KECCAK256 SWAP1 PUSH1 0x3 MUL ADD PUSH1 0x1 ADD SLOAD GT ISZERO PUSH2 0x5CA JUMPI PUSH1 0x0 DUP8 DUP2 MSTORE PUSH1 0x1 PUSH1 0x20 MSTORE PUSH1 0x40 SWAP1 KECCAK256 PUSH1 0x4 ADD DUP1 SLOAD DUP3 SWAP1 DUP2 LT PUSH2 0x495 JUMPI PUSH2 0x495 PUSH2 0x20FD JUMP JUMPDEST SWAP1 PUSH1 0x0 MSTORE PUSH1 0x20 PUSH1 0x0 KECCAK256 SWAP1 PUSH1 0x3 MUL ADD PUSH1 0x1 ADD SLOAD SWAP4 POP PUSH1 0x1 SWAP3 POP PUSH1 0x1 PUSH1 0x0 DUP9 DUP2 MSTORE PUSH1 0x20 ADD SWAP1 DUP2 MSTORE PUSH1 0x20 ADD PUSH1 0x0 KECCAK256 PUSH1 0x4 ADD DUP2 DUP2 SLOAD DUP2 LT PUSH2 0x4D4 JUMPI PUSH2 0x4D4 PUSH2 0x20FD JUMP JUMPDEST SWAP1 PUSH1 0x0 MSTORE PUSH1 0x20 PUSH1 0x0 KECCAK256 SWAP1 PUSH1 0x3 MUL ADD PUSH1 0x40 MLOAD DUP1 PUSH1 0x60 ADD PUSH1 0x40 MSTORE SWAP1 DUP2 PUSH1 0x0 DUP3 ADD DUP1 SLOAD PUSH2 0x4FD SWAP1 PUSH2 0x2113 JUMP JUMPDEST DUP1 PUSH1 0x1F ADD PUSH1 0x20 DUP1 SWAP2 DIV MUL PUSH1 0x20 ADD PUSH1 0x40 MLOAD SWAP1 DUP2 ADD PUSH1 0x40 MSTORE DUP1 SWAP3 SWAP2 SWAP1 DUP2 DUP2 MSTORE PUSH1 0x20 ADD DUP3 DUP1 SLOAD PUSH2 0x529 SWAP1 PUSH2 0x2113 JUMP JUMPDEST DUP1 ISZERO PUSH2 0x576 JUMPI DUP1 PUSH1 0x1F LT PUSH2 0x54B JUMPI PUSH2 0x100 DUP1 DUP4 SLOAD DIV MUL DUP4 MSTORE SWAP2 PUSH1 0x20 ADD SWAP2 PUSH2 0x576 JUMP JUMPDEST DUP3 ADD SWAP2 SWAP1 PUSH1 0x0 MSTORE PUSH1 0x20 PUSH1 0x0 KECCAK256 SWAP1 JUMPDEST DUP2 SLOAD DUP2 MSTORE SWAP1 PUSH1 0x1 ADD SWAP1 PUSH1 0x20 ADD DUP1 DUP4 GT PUSH2 0x559 JUMPI DUP3 SWAP1 SUB PUSH1 0x1F AND DUP3 ADD SWAP2 JUMPDEST POP POP POP SWAP2 DUP4 MSTORE POP POP PUSH1 0x1 DUP3 DUP2 ADD SLOAD PUSH1 0x20 DUP4 ADD MSTORE PUSH1 0x2 SWAP1 SWAP3 ADD SLOAD PUSH1 0x1 PUSH1 0x1 PUSH1 0xA0 SHL SUB AND PUSH1 0x40 SWAP1 SWAP2 ADD MSTORE DUP4 SWAP1 PUSH2 0x5AA SWAP1 DUP7 PUSH2 0x214D JUMP JUMPDEST DUP2 MLOAD DUP2 LT PUSH2 0x5BA JUMPI PUSH2 0x5BA PUSH2 0x20FD JUMP JUMPDEST PUSH1 0x20 MUL PUSH1 0x20 ADD ADD DUP2 SWAP1 MSTORE POP PUSH2 0x76A JUMP JUMPDEST PUSH1 0x0 DUP8 DUP2 MSTORE PUSH1 0x1 PUSH1 0x20 MSTORE PUSH1 0x40 DUP2 KECCAK256 PUSH1 0x4 ADD DUP1 SLOAD DUP4 SWAP1 DUP2 LT PUSH2 0x5ED JUMPI PUSH2 0x5ED PUSH2 0x20FD JUMP JUMPDEST SWAP1 PUSH1 0x0 MSTORE PUSH1 0x20 PUSH1 0x0 KECCAK256 SWAP1 PUSH1 0x3 MUL ADD PUSH1 0x1 ADD SLOAD GT DUP1 ISZERO PUSH2 0x641 JUMPI POP PUSH1 0x0 DUP8 DUP2 MSTORE PUSH1 0x1 PUSH1 0x20 MSTORE PUSH1 0x40 SWAP1 KECCAK256 PUSH1 0x4 ADD DUP1 SLOAD DUP6 SWAP2 SWAP1 DUP4 SWAP1 DUP2 LT PUSH2 0x62D JUMPI PUSH2 0x62D PUSH2 0x20FD JUMP JUMPDEST SWAP1 PUSH1 0x0 MSTORE PUSH1 0x20 PUSH1 0x0 KECCAK256 SWAP1 PUSH1 0x3 MUL ADD PUSH1 0x1 ADD SLOAD EQ JUMPDEST ISZERO PUSH2 0x76A JUMPI DUP3 PUSH2 0x650 DUP2 PUSH2 0x203A JUMP JUMPDEST PUSH1 0x0 DUP10 DUP2 MSTORE PUSH1 0x1 PUSH1 0x20 MSTORE PUSH1 0x40 SWAP1 KECCAK256 PUSH1 0x4 ADD DUP1 SLOAD SWAP2 SWAP6 POP SWAP2 POP DUP3 SWAP1 DUP2 LT PUSH2 0x678 JUMPI PUSH2 0x678 PUSH2 0x20FD JUMP JUMPDEST SWAP1 PUSH1 0x0 MSTORE PUSH1 0x20 PUSH1 0x0 KECCAK256 SWAP1 PUSH1 0x3 MUL ADD PUSH1 0x40 MLOAD DUP1 PUSH1 0x60 ADD PUSH1 0x40 MSTORE SWAP1 DUP2 PUSH1 0x0 DUP3 ADD DUP1 SLOAD PUSH2 0x6A1 SWAP1 PUSH2 0x2113 JUMP JUMPDEST DUP1 PUSH1 0x1F ADD PUSH1 0x20 DUP1 SWAP2 DIV MUL PUSH1 0x20 ADD PUSH1 0x40 MLOAD SWAP1 DUP2 ADD PUSH1 0x40 MSTORE DUP1 SWAP3 SWAP2 SWAP1 DUP2 DUP2 MSTORE PUSH1 0x20 ADD DUP3 DUP1 SLOAD PUSH2 0x6CD SWAP1 PUSH2 0x2113 JUMP JUMPDEST DUP1 ISZERO PUSH2 0x71A JUMPI DUP1 PUSH1 0x1F LT PUSH2 0x6EF JUMPI PUSH2 0x100 DUP1 DUP4 SLOAD DIV MUL DUP4 MSTORE SWAP2 PUSH1 0x20 ADD SWAP2 PUSH2 0x71A JUMP JUMPDEST DUP3 ADD SWAP2 SWAP1 PUSH1 0x0 MSTORE PUSH1 0x20 PUSH1 0x0 KECCAK256 SWAP1 JUMPDEST DUP2 SLOAD DUP2 MSTORE SWAP1 PUSH1 0x1 ADD SWAP1 PUSH1 0x20 ADD DUP1 DUP4 GT PUSH2 0x6FD JUMPI DUP3 SWAP1 SUB PUSH1 0x1F AND DUP3 ADD SWAP2 JUMPDEST POP POP POP SWAP2 DUP4 MSTORE POP POP PUSH1 0x1 DUP3 DUP2 ADD SLOAD PUSH1 0x20 DUP4 ADD MSTORE PUSH1 0x2 SWAP1 SWAP3 ADD SLOAD PUSH1 0x1 PUSH1 0x1 PUSH1 0xA0 SHL SUB AND PUSH1 0x40 SWAP1 SWAP2 ADD MSTORE DUP4 SWAP1 PUSH2 0x74E SWAP1 DUP7 PUSH2 0x214D JUMP JUMPDEST DUP2 MLOAD DUP2 LT PUSH2 0x75E JUMPI PUSH2 0x75E PUSH2 0x20FD JUMP JUMPDEST PUSH1 0x20 MUL PUSH1 0x20 ADD ADD DUP2 SWAP1 MSTORE POP JUMPDEST DUP1 PUSH2 0x774 DUP2 PUSH2 0x203A JUMP JUMPDEST SWAP2 POP POP PUSH2 0x41B JUMP JUMPDEST POP PUSH1 0x0 JUMPDEST DUP3 DUP2 LT ISZERO PUSH2 0x827 JUMPI PUSH1 0x1 PUSH1 0x0 DUP9 DUP2 MSTORE PUSH1 0x20 ADD SWAP1 DUP2 MSTORE PUSH1 0x20 ADD PUSH1 0x0 KECCAK256 PUSH1 0x5 ADD DUP3 DUP3 DUP2 MLOAD DUP2 LT PUSH2 0x7B0 JUMPI PUSH2 0x7B0 PUSH2 0x20FD JUMP JUMPDEST PUSH1 0x20 SWAP1 DUP2 MUL SWAP2 SWAP1 SWAP2 ADD DUP2 ADD MLOAD DUP3 SLOAD PUSH1 0x1 DUP2 ADD DUP5 SSTORE PUSH1 0x0 SWAP4 DUP5 MSTORE SWAP2 SWAP1 SWAP3 KECCAK256 DUP3 MLOAD PUSH1 0x3 SWAP1 SWAP3 MUL ADD SWAP1 DUP2 SWAP1 PUSH2 0x7E2 SWAP1 DUP3 PUSH2 0x21B1 JUMP JUMPDEST POP PUSH1 0x20 DUP3 ADD MLOAD PUSH1 0x1 DUP3 ADD SSTORE PUSH1 0x40 SWAP1 SWAP2 ADD MLOAD PUSH1 0x2 SWAP1 SWAP2 ADD DUP1 SLOAD PUSH1 0x1 PUSH1 0x1 PUSH1 0xA0 SHL SUB NOT AND PUSH1 0x1 PUSH1 0x1 PUSH1 0xA0 SHL SUB SWAP1 SWAP3 AND SWAP2 SWAP1 SWAP2 OR SWAP1 SSTORE DUP1 PUSH2 0x81F DUP2 PUSH2 0x203A JUMP JUMPDEST SWAP2 POP POP PUSH2 0x780 JUMP JUMPDEST POP PUSH1 0x0 DUP7 DUP2 MSTORE PUSH1 0x1 PUSH1 0x20 MSTORE PUSH1 0x40 SWAP1 DUP2 SWAP1 KECCAK256 DUP1 SLOAD PUSH1 0xFF NOT AND PUSH1 0x6 SWAP1 DUP2 OR SWAP1 SWAP2 SSTORE SWAP1 MLOAD DUP8 SWAP2 PUSH1 0x0 DUP1 MLOAD PUSH1 0x20 PUSH2 0x2538 DUP4 CODECOPY DUP2 MLOAD SWAP2 MSTORE SWAP2 PUSH2 0x866 SWAP2 PUSH1 0x5 SWAP2 PUSH2 0x2009 JUMP JUMPDEST PUSH1 0x40 MLOAD DUP1 SWAP2 SUB SWAP1 LOG2 PUSH1 0x0 DUP7 DUP2 MSTORE PUSH1 0x1 PUSH1 0x20 MSTORE PUSH1 0x40 DUP2 KECCAK256 PUSH1 0x2 ADD SLOAD PUSH2 0x88B JUMPI PUSH1 0x0 PUSH2 0x8AE JUMP JUMPDEST PUSH1 0x0 DUP8 DUP2 MSTORE PUSH1 0x1 PUSH1 0x20 MSTORE PUSH1 0x40 SWAP1 KECCAK256 PUSH1 0x3 DUP2 ADD SLOAD PUSH1 0x2 SWAP1 SWAP2 ADD SLOAD PUSH2 0x8AE SWAP2 SWAP1 PUSH2 0x214D JUMP JUMPDEST PUSH1 0x0 DUP9 DUP2 MSTORE PUSH1 0x1 PUSH1 0x20 DUP2 SWAP1 MSTORE PUSH1 0x40 SWAP1 SWAP2 KECCAK256 PUSH1 0x2 DUP2 ADD SLOAD PUSH1 0x3 DUP3 ADD SLOAD PUSH1 0x4 SWAP1 SWAP3 ADD DUP1 SLOAD SWAP5 SWAP6 POP DUP12 SWAP5 PUSH32 0x8231621024A2914F448F5821E1168FA08EA32BE09DB6A89D94E306E0352D12F4 SWAP5 SWAP3 SWAP4 SWAP3 SWAP1 DUP2 LT PUSH2 0x909 JUMPI PUSH2 0x909 PUSH2 0x20FD JUMP JUMPDEST SWAP1 PUSH1 0x0 MSTORE PUSH1 0x20 PUSH1 0x0 KECCAK256 SWAP1 PUSH1 0x3 MUL ADD PUSH1 0x1 ADD SLOAD DUP6 PUSH1 0x1 PUSH1 0x0 DUP15 DUP2 MSTORE PUSH1 0x20 ADD SWAP1 DUP2 MSTORE PUSH1 0x20 ADD PUSH1 0x0 KECCAK256 PUSH1 0x5 ADD PUSH1 0x40 MLOAD PUSH2 0x943 SWAP6 SWAP5 SWAP4 SWAP3 SWAP2 SWAP1 PUSH2 0x22EE JUMP JUMPDEST PUSH1 0x40 MLOAD DUP1 SWAP2 SUB SWAP1 LOG2 POP POP POP POP POP POP POP JUMP JUMPDEST PUSH1 0x60 DUP2 CALLER PUSH2 0x96A PUSH1 0x0 SLOAD PUSH1 0x1 PUSH1 0x1 PUSH1 0xA0 SHL SUB AND SWAP1 JUMP JUMPDEST PUSH1 0x1 PUSH1 0x1 PUSH1 0xA0 SHL SUB AND EQ DUP1 PUSH2 0x99A JUMPI POP PUSH1 0x0 DUP2 DUP2 MSTORE PUSH1 0x1 PUSH1 0x20 DUP2 DUP2 MSTORE PUSH1 0x40 DUP1 DUP5 KECCAK256 CALLER DUP6 MSTORE SWAP1 SWAP3 ADD SWAP1 MSTORE SWAP1 KECCAK256 SLOAD PUSH1 0xFF AND JUMPDEST PUSH2 0x9B6 JUMPI PUSH1 0x40 MLOAD PUSH3 0x461BCD PUSH1 0xE5 SHL DUP2 MSTORE PUSH1 0x4 ADD PUSH2 0x37F SWAP1 PUSH2 0x2398 JUMP JUMPDEST DUP3 PUSH1 0x6 DUP1 PUSH1 0x0 DUP4 DUP2 MSTORE PUSH1 0x1 PUSH1 0x20 MSTORE PUSH1 0x40 SWAP1 KECCAK256 SLOAD PUSH1 0xFF AND PUSH1 0x6 DUP2 GT ISZERO PUSH2 0x9DD JUMPI PUSH2 0x9DD PUSH2 0x1F76 JUMP JUMPDEST LT ISZERO PUSH2 0x9F4 DUP3 PUSH1 0x6 DUP2 GT ISZERO PUSH2 0x315 JUMPI PUSH2 0x315 PUSH2 0x1F76 JUMP JUMPDEST PUSH1 0x0 DUP5 DUP2 MSTORE PUSH1 0x1 PUSH1 0x20 MSTORE PUSH1 0x40 SWAP1 KECCAK256 SLOAD PUSH2 0xA1B SWAP1 PUSH1 0xFF AND PUSH1 0x6 DUP2 GT ISZERO PUSH2 0x315 JUMPI PUSH2 0x315 PUSH2 0x1F76 JUMP JUMPDEST PUSH1 0x40 MLOAD PUSH1 0x20 ADD PUSH2 0xA2C SWAP3 SWAP2 SWAP1 PUSH2 0x23DF JUMP JUMPDEST PUSH1 0x40 MLOAD PUSH1 0x20 DUP2 DUP4 SUB SUB DUP2 MSTORE SWAP1 PUSH1 0x40 MSTORE SWAP1 PUSH2 0xA59 JUMPI PUSH1 0x40 MLOAD PUSH3 0x461BCD PUSH1 0xE5 SHL DUP2 MSTORE PUSH1 0x4 ADD PUSH2 0x37F SWAP2 SWAP1 PUSH2 0x20D4 JUMP JUMPDEST POP PUSH1 0x0 DUP6 DUP2 MSTORE PUSH1 0x1 PUSH1 0x20 SWAP1 DUP2 MSTORE PUSH1 0x40 DUP1 DUP4 KECCAK256 PUSH1 0x5 ADD DUP1 SLOAD DUP3 MLOAD DUP2 DUP6 MUL DUP2 ADD DUP6 ADD SWAP1 SWAP4 MSTORE DUP1 DUP4 MSTORE SWAP2 SWAP4 SWAP1 SWAP3 DUP5 ADD JUMPDEST DUP3 DUP3 LT ISZERO PUSH2 0xB6D JUMPI DUP4 DUP3 SWAP1 PUSH1 0x0 MSTORE PUSH1 0x20 PUSH1 0x0 KECCAK256 SWAP1 PUSH1 0x3 MUL ADD PUSH1 0x40 MLOAD DUP1 PUSH1 0x60 ADD PUSH1 0x40 MSTORE SWAP1 DUP2 PUSH1 0x0 DUP3 ADD DUP1 SLOAD PUSH2 0xAB9 SWAP1 PUSH2 0x2113 JUMP JUMPDEST DUP1 PUSH1 0x1F ADD PUSH1 0x20 DUP1 SWAP2 DIV MUL PUSH1 0x20 ADD PUSH1 0x40 MLOAD SWAP1 DUP2 ADD PUSH1 0x40 MSTORE DUP1 SWAP3 SWAP2 SWAP1 DUP2 DUP2 MSTORE PUSH1 0x20 ADD DUP3 DUP1 SLOAD PUSH2 0xAE5 SWAP1 PUSH2 0x2113 JUMP JUMPDEST DUP1 ISZERO PUSH2 0xB32 JUMPI DUP1 PUSH1 0x1F LT PUSH2 0xB07 JUMPI PUSH2 0x100 DUP1 DUP4 SLOAD DIV MUL DUP4 MSTORE SWAP2 PUSH1 0x20 ADD SWAP2 PUSH2 0xB32 JUMP JUMPDEST DUP3 ADD SWAP2 SWAP1 PUSH1 0x0 MSTORE PUSH1 0x20 PUSH1 0x0 KECCAK256 SWAP1 JUMPDEST DUP2 SLOAD DUP2 MSTORE SWAP1 PUSH1 0x1 ADD SWAP1 PUSH1 0x20 ADD DUP1 DUP4 GT PUSH2 0xB15 JUMPI DUP3 SWAP1 SUB PUSH1 0x1F AND DUP3 ADD SWAP2 JUMPDEST POP POP POP SWAP2 DUP4 MSTORE POP POP PUSH1 0x1 DUP3 DUP2 ADD SLOAD PUSH1 0x20 DUP1 DUP5 ADD SWAP2 SWAP1 SWAP2 MSTORE PUSH1 0x2 SWAP1 SWAP4 ADD SLOAD PUSH1 0x1 PUSH1 0x1 PUSH1 0xA0 SHL SUB AND PUSH1 0x40 SWAP1 SWAP3 ADD SWAP2 SWAP1 SWAP2 MSTORE SWAP2 DUP4 MSTORE SWAP3 ADD SWAP2 ADD PUSH2 0xA86 JUMP JUMPDEST POP POP POP POP SWAP4 POP POP POP POP SWAP2 SWAP1 POP JUMP JUMPDEST PUSH2 0xB83 PUSH2 0x197E JUMP JUMPDEST DUP1 PUSH1 0x4 DUP1 PUSH1 0x0 DUP4 DUP2 MSTORE PUSH1 0x1 PUSH1 0x20 MSTORE PUSH1 0x40 SWAP1 KECCAK256 SLOAD PUSH1 0xFF AND PUSH1 0x6 DUP2 GT ISZERO PUSH2 0xBAA JUMPI PUSH2 0xBAA PUSH2 0x1F76 JUMP JUMPDEST EQ PUSH2 0xBC0 DUP3 PUSH1 0x6 DUP2 GT ISZERO PUSH2 0x315 JUMPI PUSH2 0x315 PUSH2 0x1F76 JUMP JUMPDEST PUSH1 0x0 DUP5 DUP2 MSTORE PUSH1 0x1 PUSH1 0x20 MSTORE PUSH1 0x40 SWAP1 KECCAK256 SLOAD PUSH2 0xBE7 SWAP1 PUSH1 0xFF AND PUSH1 0x6 DUP2 GT ISZERO PUSH2 0x315 JUMPI PUSH2 0x315 PUSH2 0x1F76 JUMP JUMPDEST PUSH1 0x40 MLOAD PUSH1 0x20 ADD PUSH2 0xBF8 SWAP3 SWAP2 SWAP1 PUSH2 0x2053 JUMP JUMPDEST PUSH1 0x40 MLOAD PUSH1 0x20 DUP2 DUP4 SUB SUB DUP2 MSTORE SWAP1 PUSH1 0x40 MSTORE SWAP1 PUSH2 0xC25 JUMPI PUSH1 0x40 MLOAD PUSH3 0x461BCD PUSH1 0xE5 SHL DUP2 MSTORE PUSH1 0x4 ADD PUSH2 0x37F SWAP2 SWAP1 PUSH2 0x20D4 JUMP JUMPDEST POP PUSH1 0x0 DUP4 DUP2 MSTORE PUSH1 0x1 PUSH1 0x20 MSTORE PUSH1 0x40 SWAP1 DUP2 SWAP1 KECCAK256 DUP1 SLOAD PUSH1 0xFF NOT AND PUSH1 0x5 SWAP1 DUP2 OR SWAP1 SWAP2 SSTORE SWAP1 MLOAD DUP5 SWAP2 PUSH1 0x0 DUP1 MLOAD PUSH1 0x20 PUSH2 0x2538 DUP4 CODECOPY DUP2 MLOAD SWAP2 MSTORE SWAP2 PUSH2 0xC64 SWAP2 PUSH1 0x4 SWAP2 PUSH2 0x2009 JUMP JUMPDEST PUSH1 0x40 MLOAD DUP1 SWAP2 SUB SWAP1 LOG2 POP POP POP JUMP JUMPDEST PUSH2 0xC79 PUSH2 0x197E JUMP JUMPDEST PUSH2 0xC83 PUSH1 0x0 PUSH2 0x1AE1 JUMP JUMPDEST JUMP JUMPDEST PUSH1 0x0 DUP4 DUP2 MSTORE PUSH1 0x1 PUSH1 0x20 DUP2 DUP2 MSTORE PUSH1 0x40 DUP1 DUP5 KECCAK256 CALLER DUP6 MSTORE SWAP1 SWAP3 ADD SWAP1 MSTORE SWAP1 KECCAK256 SLOAD DUP4 SWAP1 PUSH1 0xFF AND PUSH2 0xCF2 JUMPI PUSH1 0x40 MLOAD PUSH3 0x461BCD PUSH1 0xE5 SHL DUP2 MSTORE PUSH1 0x20 PUSH1 0x4 DUP3 ADD MSTORE PUSH1 0x1E PUSH1 0x24 DUP3 ADD MSTORE PUSH32 0x43616C6C6572206973206E6F74207265676973746572656420766F7465720000 PUSH1 0x44 DUP3 ADD MSTORE PUSH1 0x64 ADD PUSH2 0x37F JUMP JUMPDEST DUP4 PUSH1 0x2 DUP1 PUSH1 0x0 DUP4 DUP2 MSTORE PUSH1 0x1 PUSH1 0x20 MSTORE PUSH1 0x40 SWAP1 KECCAK256 SLOAD PUSH1 0xFF AND PUSH1 0x6 DUP2 GT ISZERO PUSH2 0xD19 JUMPI PUSH2 0xD19 PUSH2 0x1F76 JUMP JUMPDEST EQ PUSH2 0xD2F DUP3 PUSH1 0x6 DUP2 GT ISZERO PUSH2 0x315 JUMPI PUSH2 0x315 PUSH2 0x1F76 JUMP JUMPDEST PUSH1 0x0 DUP5 DUP2 MSTORE PUSH1 0x1 PUSH1 0x20 MSTORE PUSH1 0x40 SWAP1 KECCAK256 SLOAD PUSH2 0xD56 SWAP1 PUSH1 0xFF AND PUSH1 0x6 DUP2 GT ISZERO PUSH2 0x315 JUMPI PUSH2 0x315 PUSH2 0x1F76 JUMP JUMPDEST PUSH1 0x40 MLOAD PUSH1 0x20 ADD PUSH2 0xD67 SWAP3 SWAP2 SWAP1 PUSH2 0x2053 JUMP JUMPDEST PUSH1 0x40 MLOAD PUSH1 0x20 DUP2 DUP4 SUB SUB DUP2 MSTORE SWAP1 PUSH1 0x40 MSTORE SWAP1 PUSH2 0xD94 JUMPI PUSH1 0x40 MLOAD PUSH3 0x461BCD PUSH1 0xE5 SHL DUP2 MSTORE PUSH1 0x4 ADD PUSH2 0x37F SWAP2 SWAP1 PUSH2 0x20D4 JUMP JUMPDEST POP PUSH1 0x0 DUP7 DUP2 MSTORE PUSH1 0x1 PUSH1 0x20 DUP2 DUP2 MSTORE PUSH1 0x40 DUP1 DUP5 KECCAK256 CALLER DUP6 MSTORE SWAP1 SWAP3 ADD SWAP1 MSTORE SWAP1 KECCAK256 SLOAD PUSH1 0x3 PUSH4 0x1000000 SWAP1 SWAP2 DIV PUSH1 0xFF AND LT PUSH2 0xE31 JUMPI PUSH1 0x40 MLOAD PUSH3 0x461BCD PUSH1 0xE5 SHL DUP2 MSTORE PUSH1 0x20 PUSH1 0x4 DUP3 ADD MSTORE PUSH1 0x3B PUSH1 0x24 DUP3 ADD MSTORE PUSH32 0x596F7520616C726561647920706F7374656420332070726F706F73616C732077 PUSH1 0x44 DUP3 ADD MSTORE PUSH32 0x6869636820697320746865206D6178696D756D20616C6C6F7765640000000000 PUSH1 0x64 DUP3 ADD MSTORE PUSH1 0x84 ADD PUSH2 0x37F JUMP JUMPDEST PUSH2 0xE71 DUP7 DUP7 DUP7 DUP1 DUP1 PUSH1 0x1F ADD PUSH1 0x20 DUP1 SWAP2 DIV MUL PUSH1 0x20 ADD PUSH1 0x40 MLOAD SWAP1 DUP2 ADD PUSH1 0x40 MSTORE DUP1 SWAP4 SWAP3 SWAP2 SWAP1 DUP2 DUP2 MSTORE PUSH1 0x20 ADD DUP4 DUP4 DUP1 DUP3 DUP5 CALLDATACOPY PUSH1 0x0 SWAP3 ADD SWAP2 SWAP1 SWAP2 MSTORE POP PUSH2 0x1B31 SWAP3 POP POP POP JUMP JUMPDEST POP POP POP POP POP POP JUMP JUMPDEST PUSH2 0xE81 PUSH2 0x197E JUMP JUMPDEST DUP1 PUSH1 0x1 DUP1 PUSH1 0x0 DUP4 DUP2 MSTORE PUSH1 0x1 PUSH1 0x20 MSTORE PUSH1 0x40 SWAP1 KECCAK256 SLOAD PUSH1 0xFF AND PUSH1 0x6 DUP2 GT ISZERO PUSH2 0xEA8 JUMPI PUSH2 0xEA8 PUSH2 0x1F76 JUMP JUMPDEST EQ PUSH2 0xEBE DUP3 PUSH1 0x6 DUP2 GT ISZERO PUSH2 0x315 JUMPI PUSH2 0x315 PUSH2 0x1F76 JUMP JUMPDEST PUSH1 0x0 DUP5 DUP2 MSTORE PUSH1 0x1 PUSH1 0x20 MSTORE PUSH1 0x40 SWAP1 KECCAK256 SLOAD PUSH2 0xEE5 SWAP1 PUSH1 0xFF AND PUSH1 0x6 DUP2 GT ISZERO PUSH2 0x315 JUMPI PUSH2 0x315 PUSH2 0x1F76 JUMP JUMPDEST PUSH1 0x40 MLOAD PUSH1 0x20 ADD PUSH2 0xEF6 SWAP3 SWAP2 SWAP1 PUSH2 0x2053 JUMP JUMPDEST PUSH1 0x40 MLOAD PUSH1 0x20 DUP2 DUP4 SUB SUB DUP2 MSTORE SWAP1 PUSH1 0x40 MSTORE SWAP1 PUSH2 0xF23 JUMPI PUSH1 0x40 MLOAD PUSH3 0x461BCD PUSH1 0xE5 SHL DUP2 MSTORE PUSH1 0x4 ADD PUSH2 0x37F SWAP2 SWAP1 PUSH2 0x20D4 JUMP JUMPDEST POP PUSH2 0xF50 DUP4 PUSH1 0x40 MLOAD DUP1 PUSH1 0x40 ADD PUSH1 0x40 MSTORE DUP1 PUSH1 0xA DUP2 MSTORE PUSH1 0x20 ADD PUSH10 0x20B139BA32B73A34B7B7 PUSH1 0xB1 SHL DUP2 MSTORE POP PUSH2 0x1B31 JUMP JUMPDEST PUSH2 0xF77 DUP4 PUSH1 0x40 MLOAD DUP1 PUSH1 0x40 ADD PUSH1 0x40 MSTORE DUP1 PUSH1 0x5 DUP2 MSTORE PUSH1 0x20 ADD PUSH5 0x426C616E6B PUSH1 0xD8 SHL DUP2 MSTORE POP PUSH2 0x1B31 JUMP JUMPDEST PUSH1 0x0 DUP4 DUP2 MSTORE PUSH1 0x1 PUSH1 0x20 DUP2 SWAP1 MSTORE PUSH1 0x40 SWAP2 DUP3 SWAP1 KECCAK256 DUP1 SLOAD PUSH1 0xFF NOT AND PUSH1 0x2 SWAP1 DUP2 OR SWAP1 SWAP2 SSTORE SWAP2 MLOAD DUP6 SWAP3 PUSH1 0x0 DUP1 MLOAD PUSH1 0x20 PUSH2 0x2538 DUP4 CODECOPY DUP2 MLOAD SWAP2 MSTORE SWAP3 PUSH2 0xC64 SWAP3 SWAP1 SWAP2 SWAP1 PUSH2 0x2009 JUMP JUMPDEST PUSH1 0x0 DUP3 DUP2 MSTORE PUSH1 0x1 PUSH1 0x20 DUP2 DUP2 MSTORE PUSH1 0x40 DUP1 DUP5 KECCAK256 CALLER DUP6 MSTORE SWAP1 SWAP3 ADD SWAP1 MSTORE SWAP1 KECCAK256 SLOAD DUP3 SWAP1 PUSH1 0xFF AND PUSH2 0x1024 JUMPI PUSH1 0x40 MLOAD PUSH3 0x461BCD PUSH1 0xE5 SHL DUP2 MSTORE PUSH1 0x20 PUSH1 0x4 DUP3 ADD MSTORE PUSH1 0x1E PUSH1 0x24 DUP3 ADD MSTORE PUSH32 0x43616C6C6572206973206E6F74207265676973746572656420766F7465720000 PUSH1 0x44 DUP3 ADD MSTORE PUSH1 0x64 ADD PUSH2 0x37F JUMP JUMPDEST DUP3 PUSH1 0x4 DUP1 PUSH1 0x0 DUP4 DUP2 MSTORE PUSH1 0x1 PUSH1 0x20 MSTORE PUSH1 0x40 SWAP1 KECCAK256 SLOAD PUSH1 0xFF AND PUSH1 0x6 DUP2 GT ISZERO PUSH2 0x104B JUMPI PUSH2 0x104B PUSH2 0x1F76 JUMP JUMPDEST EQ PUSH2 0x1061 DUP3 PUSH1 0x6 DUP2 GT ISZERO PUSH2 0x315 JUMPI PUSH2 0x315 PUSH2 0x1F76 JUMP JUMPDEST PUSH1 0x0 DUP5 DUP2 MSTORE PUSH1 0x1 PUSH1 0x20 MSTORE PUSH1 0x40 SWAP1 KECCAK256 SLOAD PUSH2 0x1088 SWAP1 PUSH1 0xFF AND PUSH1 0x6 DUP2 GT ISZERO PUSH2 0x315 JUMPI PUSH2 0x315 PUSH2 0x1F76 JUMP JUMPDEST PUSH1 0x40 MLOAD PUSH1 0x20 ADD PUSH2 0x1099 SWAP3 SWAP2 SWAP1 PUSH2 0x2053 JUMP JUMPDEST PUSH1 0x40 MLOAD PUSH1 0x20 DUP2 DUP4 SUB SUB DUP2 MSTORE SWAP1 PUSH1 0x40 MSTORE SWAP1 PUSH2 0x10C6 JUMPI PUSH1 0x40 MLOAD PUSH3 0x461BCD PUSH1 0xE5 SHL DUP2 MSTORE PUSH1 0x4 ADD PUSH2 0x37F SWAP2 SWAP1 PUSH2 0x20D4 JUMP JUMPDEST POP PUSH1 0x0 DUP6 DUP2 MSTORE PUSH1 0x1 PUSH1 0x20 DUP2 DUP2 MSTORE PUSH1 0x40 DUP1 DUP5 KECCAK256 CALLER DUP6 MSTORE SWAP1 SWAP3 ADD SWAP1 MSTORE SWAP1 KECCAK256 SLOAD PUSH2 0x100 SWAP1 DIV PUSH1 0xFF AND ISZERO PUSH2 0x1138 JUMPI PUSH1 0x40 MLOAD PUSH3 0x461BCD PUSH1 0xE5 SHL DUP2 MSTORE PUSH1 0x20 PUSH1 0x4 DUP3 ADD MSTORE PUSH1 0x17 PUSH1 0x24 DUP3 ADD MSTORE PUSH32 0x566F7465722068617320616C726561647920766F746564000000000000000000 PUSH1 0x44 DUP3 ADD MSTORE PUSH1 0x64 ADD PUSH2 0x37F JUMP JUMPDEST PUSH1 0x0 DUP6 DUP2 MSTORE PUSH1 0x1 PUSH1 0x20 MSTORE PUSH1 0x40 SWAP1 KECCAK256 PUSH1 0x4 ADD SLOAD PUSH1 0xFF DUP6 AND SWAP1 DUP2 LT SWAP1 PUSH2 0x115B SWAP1 PUSH2 0x19D8 JUMP JUMPDEST PUSH1 0x40 MLOAD PUSH1 0x20 ADD PUSH2 0x116B SWAP2 SWAP1 PUSH2 0x2461 JUMP JUMPDEST PUSH1 0x40 MLOAD PUSH1 0x20 DUP2 DUP4 SUB SUB DUP2 MSTORE SWAP1 PUSH1 0x40 MSTORE SWAP1 PUSH2 0x1198 JUMPI PUSH1 0x40 MLOAD PUSH3 0x461BCD PUSH1 0xE5 SHL DUP2 MSTORE PUSH1 0x4 ADD PUSH2 0x37F SWAP2 SWAP1 PUSH2 0x20D4 JUMP JUMPDEST POP PUSH1 0x0 DUP6 DUP2 MSTORE PUSH1 0x1 PUSH1 0x20 MSTORE PUSH1 0x40 SWAP1 KECCAK256 PUSH1 0x4 ADD DUP1 SLOAD CALLER SWAP2 SWAP1 PUSH1 0xFF DUP8 AND SWAP1 DUP2 LT PUSH2 0x11C2 JUMPI PUSH2 0x11C2 PUSH2 0x20FD JUMP JUMPDEST PUSH1 0x0 SWAP2 DUP3 MSTORE PUSH1 0x20 SWAP1 SWAP2 KECCAK256 PUSH1 0x2 PUSH1 0x3 SWAP1 SWAP3 MUL ADD ADD SLOAD PUSH1 0x1 PUSH1 0x1 PUSH1 0xA0 SHL SUB AND SUB PUSH2 0x123E JUMPI PUSH1 0x40 MLOAD PUSH3 0x461BCD PUSH1 0xE5 SHL DUP2 MSTORE PUSH1 0x20 PUSH1 0x4 DUP3 ADD MSTORE PUSH1 0x29 PUSH1 0x24 DUP3 ADD MSTORE PUSH32 0x4120766F7465722063616E206E6F7420766F746520666F7220697473206F776E PUSH1 0x44 DUP3 ADD MSTORE PUSH9 0x81C1C9BDC1BDCD85B PUSH1 0xBA SHL PUSH1 0x64 DUP3 ADD MSTORE PUSH1 0x84 ADD PUSH2 0x37F JUMP JUMPDEST PUSH1 0x0 DUP5 PUSH1 0xFF AND GT PUSH2 0x12A3 JUMPI PUSH1 0x40 MLOAD PUSH3 0x461BCD PUSH1 0xE5 SHL DUP2 MSTORE PUSH1 0x20 PUSH1 0x4 DUP3 ADD MSTORE PUSH1 0x29 PUSH1 0x24 DUP3 ADD MSTORE PUSH32 0x46697273742070726F706F73616C20697320726573657276656420666F722061 PUSH1 0x44 DUP3 ADD MSTORE PUSH9 0x3139BA32B73A34B7B7 PUSH1 0xB9 SHL PUSH1 0x64 DUP3 ADD MSTORE PUSH1 0x84 ADD PUSH2 0x37F JUMP JUMPDEST PUSH1 0x0 DUP6 DUP2 MSTORE PUSH1 0x1 PUSH1 0x20 MSTORE PUSH1 0x40 SWAP1 KECCAK256 PUSH1 0x4 ADD DUP1 SLOAD PUSH1 0xFF DUP7 AND SWAP1 DUP2 LT PUSH2 0x12C9 JUMPI PUSH2 0x12C9 PUSH2 0x20FD JUMP JUMPDEST PUSH1 0x0 SWAP2 DUP3 MSTORE PUSH1 0x20 DUP3 KECCAK256 PUSH1 0x1 PUSH1 0x3 SWAP1 SWAP3 MUL ADD ADD DUP1 SLOAD SWAP2 PUSH2 0x12E7 DUP4 PUSH2 0x203A JUMP JUMPDEST SWAP1 SWAP2 SSTORE POP POP PUSH1 0x0 DUP6 DUP2 MSTORE PUSH1 0x1 PUSH1 0x20 DUP2 DUP2 MSTORE PUSH1 0x40 DUP1 DUP5 KECCAK256 CALLER DUP6 MSTORE DUP1 DUP5 ADD DUP4 MSTORE SWAP1 DUP5 KECCAK256 DUP1 SLOAD PUSH1 0xFF DUP11 AND PUSH3 0x10000 MUL PUSH3 0xFFFF00 NOT SWAP1 SWAP2 AND OR PUSH2 0x100 OR SWAP1 SSTORE DUP9 DUP5 MSTORE SWAP2 SWAP1 MSTORE PUSH1 0x3 ADD DUP1 SLOAD SWAP2 PUSH2 0x1337 DUP4 PUSH2 0x203A JUMP JUMPDEST SWAP1 SWAP2 SSTORE POP POP PUSH1 0x40 MLOAD CALLER DUP2 MSTORE DUP6 SWAP1 PUSH32 0x30B0F8DCD86A031EDDB071F91882EDEAC8173663BA775713B677B42B51BE44B SWAP1 PUSH1 0x20 ADD PUSH1 0x40 MLOAD DUP1 SWAP2 SUB SWAP1 LOG2 POP POP POP POP POP JUMP JUMPDEST PUSH2 0x1380 PUSH2 0x197E JUMP JUMPDEST DUP2 PUSH1 0x1 DUP1 PUSH1 0x0 DUP4 DUP2 MSTORE PUSH1 0x1 PUSH1 0x20 MSTORE PUSH1 0x40 SWAP1 KECCAK256 SLOAD PUSH1 0xFF AND PUSH1 0x6 DUP2 GT ISZERO PUSH2 0x13A7 JUMPI PUSH2 0x13A7 PUSH2 0x1F76 JUMP JUMPDEST EQ PUSH2 0x13BD DUP3 PUSH1 0x6 DUP2 GT ISZERO PUSH2 0x315 JUMPI PUSH2 0x315 PUSH2 0x1F76 JUMP JUMPDEST PUSH1 0x0 DUP5 DUP2 MSTORE PUSH1 0x1 PUSH1 0x20 MSTORE PUSH1 0x40 SWAP1 KECCAK256 SLOAD PUSH2 0x13E4 SWAP1 PUSH1 0xFF AND PUSH1 0x6 DUP2 GT ISZERO PUSH2 0x315 JUMPI PUSH2 0x315 PUSH2 0x1F76 JUMP JUMPDEST PUSH1 0x40 MLOAD PUSH1 0x20 ADD PUSH2 0x13F5 SWAP3 SWAP2 SWAP1 PUSH2 0x2053 JUMP JUMPDEST PUSH1 0x40 MLOAD PUSH1 0x20 DUP2 DUP4 SUB SUB DUP2 MSTORE SWAP1 PUSH1 0x40 MSTORE SWAP1 PUSH2 0x1422 JUMPI PUSH1 0x40 MLOAD PUSH3 0x461BCD PUSH1 0xE5 SHL DUP2 MSTORE PUSH1 0x4 ADD PUSH2 0x37F SWAP2 SWAP1 PUSH2 0x20D4 JUMP JUMPDEST POP PUSH1 0x0 SLOAD PUSH1 0x1 PUSH1 0x1 PUSH1 0xA0 SHL SUB AND PUSH1 0x1 PUSH1 0x1 PUSH1 0xA0 SHL SUB AND DUP4 PUSH1 0x1 PUSH1 0x1 PUSH1 0xA0 SHL SUB AND SUB PUSH2 0x148F JUMPI PUSH1 0x40 MLOAD PUSH3 0x461BCD PUSH1 0xE5 SHL DUP2 MSTORE PUSH1 0x20 PUSH1 0x4 DUP3 ADD MSTORE PUSH1 0x18 PUSH1 0x24 DUP3 ADD MSTORE PUSH32 0x4F776E65722063616E206E6F74206265206120766F7465720000000000000000 PUSH1 0x44 DUP3 ADD MSTORE PUSH1 0x64 ADD PUSH2 0x37F JUMP JUMPDEST PUSH1 0x0 DUP5 DUP2 MSTORE PUSH1 0x1 PUSH1 0x20 DUP2 DUP2 MSTORE PUSH1 0x40 DUP1 DUP5 KECCAK256 PUSH1 0x1 PUSH1 0x1 PUSH1 0xA0 SHL SUB DUP9 AND DUP6 MSTORE SWAP1 SWAP3 ADD SWAP1 MSTORE SWAP1 KECCAK256 SLOAD PUSH1 0xFF AND ISZERO PUSH2 0x1504 JUMPI PUSH1 0x40 MLOAD PUSH3 0x461BCD PUSH1 0xE5 SHL DUP2 MSTORE PUSH1 0x20 PUSH1 0x4 DUP3 ADD MSTORE PUSH1 0x1B PUSH1 0x24 DUP3 ADD MSTORE PUSH32 0x566F74657220697320616C726561647920726567697374657265640000000000 PUSH1 0x44 DUP3 ADD MSTORE PUSH1 0x64 ADD PUSH2 0x37F JUMP JUMPDEST PUSH1 0x40 DUP1 MLOAD PUSH1 0x80 DUP2 ADD DUP3 MSTORE PUSH1 0x1 DUP1 DUP3 MSTORE PUSH1 0x0 PUSH1 0x20 DUP1 DUP5 ADD DUP3 DUP2 MSTORE DUP5 DUP7 ADD DUP4 DUP2 MSTORE PUSH1 0x60 DUP7 ADD DUP5 DUP2 MSTORE DUP12 DUP6 MSTORE DUP6 DUP5 MSTORE DUP8 DUP6 KECCAK256 PUSH1 0x1 PUSH1 0x1 PUSH1 0xA0 SHL SUB DUP13 AND DUP7 MSTORE DUP1 DUP8 ADD DUP6 MSTORE SWAP8 DUP6 KECCAK256 SWAP7 MLOAD DUP8 SLOAD SWAP4 MLOAD SWAP3 MLOAD SWAP2 MLOAD PUSH2 0xFFFF NOT SWAP1 SWAP5 AND SWAP1 ISZERO ISZERO PUSH2 0xFF00 NOT AND OR PUSH2 0x100 SWAP3 ISZERO ISZERO SWAP3 SWAP1 SWAP3 MUL SWAP2 SWAP1 SWAP2 OR PUSH4 0xFFFF0000 NOT AND PUSH3 0x10000 PUSH1 0xFF SWAP3 DUP4 AND MUL PUSH4 0xFF000000 NOT AND OR PUSH4 0x1000000 SWAP2 SWAP1 SWAP3 AND MUL OR SWAP1 SWAP4 SSTORE DUP8 DUP2 MSTORE SWAP2 MSTORE PUSH1 0x2 SWAP1 SWAP2 ADD DUP1 SLOAD SWAP2 PUSH2 0x15AC DUP4 PUSH2 0x203A JUMP JUMPDEST SWAP1 SWAP2 SSTORE POP POP PUSH1 0x40 MLOAD PUSH1 0x1 PUSH1 0x1 PUSH1 0xA0 SHL SUB DUP5 AND DUP2 MSTORE DUP5 SWAP1 PUSH32 0xF45B8429C36D478F9A6D081C4811A819B98AA5B608588BED9D406405CF282473 SWAP1 PUSH1 0x20 ADD PUSH1 0x40 MLOAD DUP1 SWAP2 SUB SWAP1 LOG2 POP POP POP POP JUMP JUMPDEST PUSH2 0x15FD PUSH2 0x197E JUMP JUMPDEST DUP1 PUSH1 0x3 DUP1 PUSH1 0x0 DUP4 DUP2 MSTORE PUSH1 0x1 PUSH1 0x20 MSTORE PUSH1 0x40 SWAP1 KECCAK256 SLOAD PUSH1 0xFF AND PUSH1 0x6 DUP2 GT ISZERO PUSH2 0x1624 JUMPI PUSH2 0x1624 PUSH2 0x1F76 JUMP JUMPDEST EQ PUSH2 0x163A DUP3 PUSH1 0x6 DUP2 GT ISZERO PUSH2 0x315 JUMPI PUSH2 0x315 PUSH2 0x1F76 JUMP JUMPDEST PUSH1 0x0 DUP5 DUP2 MSTORE PUSH1 0x1 PUSH1 0x20 MSTORE PUSH1 0x40 SWAP1 KECCAK256 SLOAD PUSH2 0x1661 SWAP1 PUSH1 0xFF AND PUSH1 0x6 DUP2 GT ISZERO PUSH2 0x315 JUMPI PUSH2 0x315 PUSH2 0x1F76 JUMP JUMPDEST PUSH1 0x40 MLOAD PUSH1 0x20 ADD PUSH2 0x1672 SWAP3 SWAP2 SWAP1 PUSH2 0x2053 JUMP JUMPDEST PUSH1 0x40 MLOAD PUSH1 0x20 DUP2 DUP4 SUB SUB DUP2 MSTORE SWAP1 PUSH1 0x40 MSTORE SWAP1 PUSH2 0x169F JUMPI PUSH1 0x40 MLOAD PUSH3 0x461BCD PUSH1 0xE5 SHL DUP2 MSTORE PUSH1 0x4 ADD PUSH2 0x37F SWAP2 SWAP1 PUSH2 0x20D4 JUMP JUMPDEST POP PUSH1 0x0 DUP4 DUP2 MSTORE PUSH1 0x1 PUSH1 0x20 MSTORE PUSH1 0x40 SWAP1 DUP2 SWAP1 KECCAK256 DUP1 SLOAD PUSH1 0xFF NOT AND PUSH1 0x4 SWAP1 DUP2 OR SWAP1 SWAP2 SSTORE SWAP1 MLOAD DUP5 SWAP2 PUSH1 0x0 DUP1 MLOAD PUSH1 0x20 PUSH2 0x2538 DUP4 CODECOPY DUP2 MLOAD SWAP2 MSTORE SWAP2 PUSH2 0xC64 SWAP2 PUSH1 0x3 SWAP2 PUSH2 0x2009 JUMP JUMPDEST PUSH1 0x0 DUP3 CALLER PUSH2 0x16F4 PUSH1 0x0 SLOAD PUSH1 0x1 PUSH1 0x1 PUSH1 0xA0 SHL SUB AND SWAP1 JUMP JUMPDEST PUSH1 0x1 PUSH1 0x1 PUSH1 0xA0 SHL SUB AND EQ DUP1 PUSH2 0x1724 JUMPI POP PUSH1 0x0 DUP2 DUP2 MSTORE PUSH1 0x1 PUSH1 0x20 DUP2 DUP2 MSTORE PUSH1 0x40 DUP1 DUP5 KECCAK256 CALLER DUP6 MSTORE SWAP1 SWAP3 ADD SWAP1 MSTORE SWAP1 KECCAK256 SLOAD PUSH1 0xFF AND JUMPDEST PUSH2 0x1740 JUMPI PUSH1 0x40 MLOAD PUSH3 0x461BCD PUSH1 0xE5 SHL DUP2 MSTORE PUSH1 0x4 ADD PUSH2 0x37F SWAP1 PUSH2 0x2398 JUMP JUMPDEST DUP4 PUSH1 0x5 DUP1 PUSH1 0x0 DUP4 DUP2 MSTORE PUSH1 0x1 PUSH1 0x20 MSTORE PUSH1 0x40 SWAP1 KECCAK256 SLOAD PUSH1 0xFF AND PUSH1 0x6 DUP2 GT ISZERO PUSH2 0x1767 JUMPI PUSH2 0x1767 PUSH2 0x1F76 JUMP JUMPDEST LT ISZERO PUSH2 0x177E DUP3 PUSH1 0x6 DUP2 GT ISZERO PUSH2 0x315 JUMPI PUSH2 0x315 PUSH2 0x1F76 JUMP JUMPDEST PUSH1 0x0 DUP5 DUP2 MSTORE PUSH1 0x1 PUSH1 0x20 MSTORE PUSH1 0x40 SWAP1 KECCAK256 SLOAD PUSH2 0x17A5 SWAP1 PUSH1 0xFF AND PUSH1 0x6 DUP2 GT ISZERO PUSH2 0x315 JUMPI PUSH2 0x315 PUSH2 0x1F76 JUMP JUMPDEST PUSH1 0x40 MLOAD PUSH1 0x20 ADD PUSH2 0x17B6 SWAP3 SWAP2 SWAP1 PUSH2 0x23DF JUMP JUMPDEST PUSH1 0x40 MLOAD PUSH1 0x20 DUP2 DUP4 SUB SUB DUP2 MSTORE SWAP1 PUSH1 0x40 MSTORE SWAP1 PUSH2 0x17E3 JUMPI PUSH1 0x40 MLOAD PUSH3 0x461BCD PUSH1 0xE5 SHL DUP2 MSTORE PUSH1 0x4 ADD PUSH2 0x37F SWAP2 SWAP1 PUSH2 0x20D4 JUMP JUMPDEST POP POP POP PUSH1 0x0 SWAP4 DUP5 MSTORE POP POP PUSH1 0x1 PUSH1 0x20 DUP2 DUP2 MSTORE PUSH1 0x40 DUP1 DUP6 KECCAK256 PUSH1 0x1 PUSH1 0x1 PUSH1 0xA0 SHL SUB SWAP5 SWAP1 SWAP5 AND DUP6 MSTORE SWAP3 SWAP1 SWAP2 ADD SWAP1 MSTORE SWAP1 KECCAK256 SLOAD PUSH3 0x10000 SWAP1 DIV PUSH1 0xFF AND SWAP1 JUMP JUMPDEST PUSH2 0x1824 PUSH2 0x197E JUMP JUMPDEST DUP1 PUSH1 0x2 DUP1 PUSH1 0x0 DUP4 DUP2 MSTORE PUSH1 0x1 PUSH1 0x20 MSTORE PUSH1 0x40 SWAP1 KECCAK256 SLOAD PUSH1 0xFF AND PUSH1 0x6 DUP2 GT ISZERO PUSH2 0x184B JUMPI PUSH2 0x184B PUSH2 0x1F76 JUMP JUMPDEST EQ PUSH2 0x1861 DUP3 PUSH1 0x6 DUP2 GT ISZERO PUSH2 0x315 JUMPI PUSH2 0x315 PUSH2 0x1F76 JUMP JUMPDEST PUSH1 0x0 DUP5 DUP2 MSTORE PUSH1 0x1 PUSH1 0x20 MSTORE PUSH1 0x40 SWAP1 KECCAK256 SLOAD PUSH2 0x1888 SWAP1 PUSH1 0xFF AND PUSH1 0x6 DUP2 GT ISZERO PUSH2 0x315 JUMPI PUSH2 0x315 PUSH2 0x1F76 JUMP JUMPDEST PUSH1 0x40 MLOAD PUSH1 0x20 ADD PUSH2 0x1899 SWAP3 SWAP2 SWAP1 PUSH2 0x2053 JUMP JUMPDEST PUSH1 0x40 MLOAD PUSH1 0x20 DUP2 DUP4 SUB SUB DUP2 MSTORE SWAP1 PUSH1 0x40 MSTORE SWAP1 PUSH2 0x18C6 JUMPI PUSH1 0x40 MLOAD PUSH3 0x461BCD PUSH1 0xE5 SHL DUP2 MSTORE PUSH1 0x4 ADD PUSH2 0x37F SWAP2 SWAP1 PUSH2 0x20D4 JUMP JUMPDEST POP PUSH1 0x0 DUP4 DUP2 MSTORE PUSH1 0x1 PUSH1 0x20 MSTORE PUSH1 0x40 SWAP1 DUP2 SWAP1 KECCAK256 DUP1 SLOAD PUSH1 0xFF NOT AND PUSH1 0x3 SWAP1 DUP2 OR SWAP1 SWAP2 SSTORE SWAP1 MLOAD DUP5 SWAP2 PUSH1 0x0 DUP1 MLOAD PUSH1 0x20 PUSH2 0x2538 DUP4 CODECOPY DUP2 MLOAD SWAP2 MSTORE SWAP2 PUSH2 0xC64 SWAP2 PUSH1 0x2 SWAP2 PUSH2 0x2009 JUMP JUMPDEST PUSH2 0x190D PUSH2 0x197E JUMP JUMPDEST PUSH1 0x1 PUSH1 0x1 PUSH1 0xA0 SHL SUB DUP2 AND PUSH2 0x1972 JUMPI PUSH1 0x40 MLOAD PUSH3 0x461BCD PUSH1 0xE5 SHL DUP2 MSTORE PUSH1 0x20 PUSH1 0x4 DUP3 ADD MSTORE PUSH1 0x26 PUSH1 0x24 DUP3 ADD MSTORE PUSH32 0x4F776E61626C653A206E6577206F776E657220697320746865207A65726F2061 PUSH1 0x44 DUP3 ADD MSTORE PUSH6 0x646472657373 PUSH1 0xD0 SHL PUSH1 0x64 DUP3 ADD MSTORE PUSH1 0x84 ADD PUSH2 0x37F JUMP JUMPDEST PUSH2 0x197B DUP2 PUSH2 0x1AE1 JUMP JUMPDEST POP JUMP JUMPDEST PUSH1 0x0 SLOAD PUSH1 0x1 PUSH1 0x1 PUSH1 0xA0 SHL SUB AND CALLER EQ PUSH2 0xC83 JUMPI PUSH1 0x40 MLOAD PUSH3 0x461BCD PUSH1 0xE5 SHL DUP2 MSTORE PUSH1 0x20 PUSH1 0x4 DUP3 ADD DUP2 SWAP1 MSTORE PUSH1 0x24 DUP3 ADD MSTORE PUSH32 0x4F776E61626C653A2063616C6C6572206973206E6F7420746865206F776E6572 PUSH1 0x44 DUP3 ADD MSTORE PUSH1 0x64 ADD PUSH2 0x37F JUMP JUMPDEST PUSH1 0x60 DUP2 PUSH1 0x0 SUB PUSH2 0x19FF JUMPI POP POP PUSH1 0x40 DUP1 MLOAD DUP1 DUP3 ADD SWAP1 SWAP2 MSTORE PUSH1 0x1 DUP2 MSTORE PUSH1 0x3 PUSH1 0xFC SHL PUSH1 0x20 DUP3 ADD MSTORE SWAP1 JUMP JUMPDEST DUP2 PUSH1 0x0 JUMPDEST DUP2 ISZERO PUSH2 0x1A29 JUMPI DUP1 PUSH2 0x1A13 DUP2 PUSH2 0x203A JUMP JUMPDEST SWAP2 POP PUSH2 0x1A22 SWAP1 POP PUSH1 0xA DUP4 PUSH2 0x24C1 JUMP JUMPDEST SWAP2 POP PUSH2 0x1A03 JUMP JUMPDEST PUSH1 0x0 DUP2 PUSH8 0xFFFFFFFFFFFFFFFF DUP2 GT ISZERO PUSH2 0x1A44 JUMPI PUSH2 0x1A44 PUSH2 0x20E7 JUMP JUMPDEST PUSH1 0x40 MLOAD SWAP1 DUP1 DUP3 MSTORE DUP1 PUSH1 0x1F ADD PUSH1 0x1F NOT AND PUSH1 0x20 ADD DUP3 ADD PUSH1 0x40 MSTORE DUP1 ISZERO PUSH2 0x1A6E JUMPI PUSH1 0x20 DUP3 ADD DUP2 DUP1 CALLDATASIZE DUP4 CALLDATACOPY ADD SWAP1 POP JUMPDEST POP SWAP1 POP JUMPDEST DUP5 ISZERO PUSH2 0x1AD9 JUMPI PUSH2 0x1A83 PUSH1 0x1 DUP4 PUSH2 0x214D JUMP JUMPDEST SWAP2 POP PUSH2 0x1A90 PUSH1 0xA DUP7 PUSH2 0x24D5 JUMP JUMPDEST PUSH2 0x1A9B SWAP1 PUSH1 0x30 PUSH2 0x24E9 JUMP JUMPDEST PUSH1 0xF8 SHL DUP2 DUP4 DUP2 MLOAD DUP2 LT PUSH2 0x1AB0 JUMPI PUSH2 0x1AB0 PUSH2 0x20FD JUMP JUMPDEST PUSH1 0x20 ADD ADD SWAP1 PUSH1 0x1 PUSH1 0x1 PUSH1 0xF8 SHL SUB NOT AND SWAP1 DUP2 PUSH1 0x0 BYTE SWAP1 MSTORE8 POP PUSH2 0x1AD2 PUSH1 0xA DUP7 PUSH2 0x24C1 JUMP JUMPDEST SWAP5 POP PUSH2 0x1A72 JUMP JUMPDEST SWAP5 SWAP4 POP POP POP POP JUMP JUMPDEST PUSH1 0x0 DUP1 SLOAD PUSH1 0x1 PUSH1 0x1 PUSH1 0xA0 SHL SUB DUP4 DUP2 AND PUSH1 0x1 PUSH1 0x1 PUSH1 0xA0 SHL SUB NOT DUP4 AND DUP2 OR DUP5 SSTORE PUSH1 0x40 MLOAD SWAP2 SWAP1 SWAP3 AND SWAP3 DUP4 SWAP2 PUSH32 0x8BE0079C531659141344CD1FD0A4F28419497F9722A3DAAFE3B4186F6B6457E0 SWAP2 SWAP1 LOG3 POP POP JUMP JUMPDEST PUSH1 0x0 DUP3 DUP2 MSTORE PUSH1 0x1 PUSH1 0x20 MSTORE PUSH1 0x40 SWAP1 KECCAK256 PUSH1 0x4 ADD SLOAD PUSH1 0xFF GT PUSH2 0x1B87 JUMPI PUSH1 0x40 MLOAD PUSH3 0x461BCD PUSH1 0xE5 SHL DUP2 MSTORE PUSH1 0x20 PUSH1 0x4 DUP3 ADD MSTORE PUSH1 0x12 PUSH1 0x24 DUP3 ADD MSTORE PUSH18 0x546F6F206D616E792070726F706F73616C73 PUSH1 0x70 SHL PUSH1 0x44 DUP3 ADD MSTORE PUSH1 0x64 ADD PUSH2 0x37F JUMP JUMPDEST PUSH1 0x0 DUP3 DUP2 MSTORE PUSH1 0x1 PUSH1 0x20 DUP2 DUP2 MSTORE PUSH1 0x40 DUP1 DUP5 KECCAK256 DUP2 MLOAD PUSH1 0x60 DUP2 ADD DUP4 MSTORE DUP7 DUP2 MSTORE DUP1 DUP5 ADD DUP7 SWAP1 MSTORE CALLER SWAP3 DUP2 ADD SWAP3 SWAP1 SWAP3 MSTORE PUSH1 0x4 ADD DUP1 SLOAD SWAP4 DUP5 ADD DUP2 SSTORE DUP5 MSTORE SWAP3 KECCAK256 DUP3 MLOAD PUSH1 0x3 SWAP1 SWAP3 MUL ADD SWAP1 DUP2 SWAP1 PUSH2 0x1BD4 SWAP1 DUP3 PUSH2 0x21B1 JUMP JUMPDEST POP PUSH1 0x20 DUP3 DUP2 ADD MLOAD PUSH1 0x1 DUP4 DUP2 ADD SWAP2 SWAP1 SWAP2 SSTORE PUSH1 0x40 SWAP4 DUP5 ADD MLOAD PUSH1 0x2 SWAP1 SWAP4 ADD DUP1 SLOAD PUSH1 0x1 PUSH1 0x1 PUSH1 0xA0 SHL SUB NOT AND PUSH1 0x1 PUSH1 0x1 PUSH1 0xA0 SHL SUB SWAP1 SWAP5 AND SWAP4 SWAP1 SWAP4 OR SWAP1 SWAP3 SSTORE PUSH1 0x0 DUP6 DUP2 MSTORE DUP3 DUP3 MSTORE DUP4 DUP2 KECCAK256 CALLER DUP3 MSTORE SWAP1 SWAP3 ADD SWAP1 MSTORE KECCAK256 DUP1 SLOAD PUSH4 0x1000000 SWAP1 DIV PUSH1 0xFF AND SWAP1 PUSH1 0x3 PUSH2 0x1C39 DUP4 PUSH2 0x24FC JUMP JUMPDEST DUP3 SLOAD PUSH1 0xFF SWAP2 DUP3 AND PUSH2 0x100 SWAP4 SWAP1 SWAP4 EXP SWAP3 DUP4 MUL SWAP2 SWAP1 SWAP3 MUL NOT SWAP1 SWAP2 AND OR SWAP1 SSTORE POP PUSH1 0x0 DUP3 DUP2 MSTORE PUSH1 0x1 PUSH1 0x20 DUP2 SWAP1 MSTORE PUSH1 0x40 DUP3 KECCAK256 PUSH1 0x4 ADD SLOAD PUSH2 0x1C74 SWAP2 SWAP1 PUSH2 0x214D JUMP JUMPDEST SWAP1 POP DUP3 PUSH32 0x734FEEC28275467965F53538A3F7BB9E350E316EC6F015C595D6DAE504A5762F DUP3 PUSH1 0x1 PUSH1 0x0 DUP8 DUP2 MSTORE PUSH1 0x20 ADD SWAP1 DUP2 MSTORE PUSH1 0x20 ADD PUSH1 0x0 KECCAK256 PUSH1 0x4 ADD DUP5 PUSH1 0xFF AND DUP2 SLOAD DUP2 LT PUSH2 0x1CC3 JUMPI PUSH2 0x1CC3 PUSH2 0x20FD JUMP JUMPDEST SWAP1 PUSH1 0x0 MSTORE PUSH1 0x20 PUSH1 0x0 KECCAK256 SWAP1 PUSH1 0x3 MUL ADD PUSH1 0x0 ADD PUSH1 0x40 MLOAD PUSH2 0xC64 SWAP3 SWAP2 SWAP1 PUSH2 0x251B JUMP JUMPDEST PUSH1 0x0 DUP1 DUP4 PUSH1 0x1F DUP5 ADD SLT PUSH2 0x1CF4 JUMPI PUSH1 0x0 DUP1 REVERT JUMPDEST POP DUP2 CALLDATALOAD PUSH8 0xFFFFFFFFFFFFFFFF DUP2 GT ISZERO PUSH2 0x1D0C JUMPI PUSH1 0x0 DUP1 REVERT JUMPDEST PUSH1 0x20 DUP4 ADD SWAP2 POP DUP4 PUSH1 0x20 DUP3 DUP6 ADD ADD GT ISZERO PUSH2 0x1D24 JUMPI PUSH1 0x0 DUP1 REVERT JUMPDEST SWAP3 POP SWAP3 SWAP1 POP JUMP JUMPDEST PUSH1 0x0 DUP1 PUSH1 0x0 DUP1 PUSH1 0x40 DUP6 DUP8 SUB SLT ISZERO PUSH2 0x1D41 JUMPI PUSH1 0x0 DUP1 REVERT JUMPDEST DUP5 CALLDATALOAD PUSH8 0xFFFFFFFFFFFFFFFF DUP1 DUP3 GT ISZERO PUSH2 0x1D59 JUMPI PUSH1 0x0 DUP1 REVERT JUMPDEST PUSH2 0x1D65 DUP9 DUP4 DUP10 ADD PUSH2 0x1CE2 JUMP JUMPDEST SWAP1 SWAP7 POP SWAP5 POP PUSH1 0x20 DUP8 ADD CALLDATALOAD SWAP2 POP DUP1 DUP3 GT ISZERO PUSH2 0x1D7E JUMPI PUSH1 0x0 DUP1 REVERT JUMPDEST POP PUSH2 0x1D8B DUP8 DUP3 DUP9 ADD PUSH2 0x1CE2 JUMP JUMPDEST SWAP6 SWAP9 SWAP5 SWAP8 POP SWAP6 POP POP POP POP JUMP JUMPDEST PUSH1 0x0 PUSH1 0x20 DUP3 DUP5 SUB SLT ISZERO PUSH2 0x1DA9 JUMPI PUSH1 0x0 DUP1 REVERT JUMPDEST POP CALLDATALOAD SWAP2 SWAP1 POP JUMP JUMPDEST PUSH1 0x0 JUMPDEST DUP4 DUP2 LT ISZERO PUSH2 0x1DCB JUMPI DUP2 DUP2 ADD MLOAD DUP4 DUP3 ADD MSTORE PUSH1 0x20 ADD PUSH2 0x1DB3 JUMP JUMPDEST POP POP PUSH1 0x0 SWAP2 ADD MSTORE JUMP JUMPDEST PUSH1 0x0 DUP2 MLOAD DUP1 DUP5 MSTORE PUSH2 0x1DEC DUP2 PUSH1 0x20 DUP7 ADD PUSH1 0x20 DUP7 ADD PUSH2 0x1DB0 JUMP JUMPDEST PUSH1 0x1F ADD PUSH1 0x1F NOT AND SWAP3 SWAP1 SWAP3 ADD PUSH1 0x20 ADD SWAP3 SWAP2 POP POP JUMP JUMPDEST PUSH1 0x0 PUSH1 0x20 DUP1 DUP4 ADD DUP2 DUP5 MSTORE DUP1 DUP6 MLOAD DUP1 DUP4 MSTORE PUSH1 0x40 SWAP3 POP DUP3 DUP7 ADD SWAP2 POP DUP3 DUP2 PUSH1 0x5 SHL DUP8 ADD ADD DUP5 DUP9 ADD PUSH1 0x0 JUMPDEST DUP4 DUP2 LT ISZERO PUSH2 0x1E7C JUMPI PUSH1 0x3F NOT DUP10 DUP5 SUB ADD DUP6 MSTORE DUP2 MLOAD PUSH1 0x60 DUP2 MLOAD DUP2 DUP7 MSTORE PUSH2 0x1E4D DUP3 DUP8 ADD DUP3 PUSH2 0x1DD4 JUMP JUMPDEST DUP4 DUP12 ADD MLOAD DUP8 DUP13 ADD MSTORE SWAP3 DUP10 ADD MLOAD PUSH1 0x1 PUSH1 0x1 PUSH1 0xA0 SHL SUB AND SWAP6 DUP10 ADD SWAP6 SWAP1 SWAP6 MSTORE POP SWAP5 DUP8 ADD SWAP5 SWAP3 POP SWAP1 DUP7 ADD SWAP1 PUSH1 0x1 ADD PUSH2 0x1E27 JUMP JUMPDEST POP SWAP1 SWAP9 SWAP8 POP POP POP POP POP POP POP POP JUMP JUMPDEST PUSH1 0x0 DUP1 PUSH1 0x0 PUSH1 0x40 DUP5 DUP7 SUB SLT ISZERO PUSH2 0x1E9F JUMPI PUSH1 0x0 DUP1 REVERT JUMPDEST DUP4 CALLDATALOAD SWAP3 POP PUSH1 0x20 DUP5 ADD CALLDATALOAD PUSH8 0xFFFFFFFFFFFFFFFF DUP2 GT ISZERO PUSH2 0x1EBD JUMPI PUSH1 0x0 DUP1 REVERT JUMPDEST PUSH2 0x1EC9 DUP7 DUP3 DUP8 ADD PUSH2 0x1CE2 JUMP JUMPDEST SWAP5 SWAP8 SWAP1 SWAP7 POP SWAP4 SWAP5 POP POP POP POP JUMP JUMPDEST PUSH1 0x0 DUP1 PUSH1 0x40 DUP4 DUP6 SUB SLT ISZERO PUSH2 0x1EE9 JUMPI PUSH1 0x0 DUP1 REVERT JUMPDEST DUP3 CALLDATALOAD SWAP2 POP PUSH1 0x20 DUP4 ADD CALLDATALOAD PUSH1 0xFF DUP2 AND DUP2 EQ PUSH2 0x1F01 JUMPI PUSH1 0x0 DUP1 REVERT JUMPDEST DUP1 SWAP2 POP POP SWAP3 POP SWAP3 SWAP1 POP JUMP JUMPDEST DUP1 CALLDATALOAD PUSH1 0x1 PUSH1 0x1 PUSH1 0xA0 SHL SUB DUP2 AND DUP2 EQ PUSH2 0x1F23 JUMPI PUSH1 0x0 DUP1 REVERT JUMPDEST SWAP2 SWAP1 POP JUMP JUMPDEST PUSH1 0x0 DUP1 PUSH1 0x40 DUP4 DUP6 SUB SLT ISZERO PUSH2 0x1F3B JUMPI PUSH1 0x0 DUP1 REVERT JUMPDEST DUP3 CALLDATALOAD SWAP2 POP PUSH2 0x1F4B PUSH1 0x20 DUP5 ADD PUSH2 0x1F0C JUMP JUMPDEST SWAP1 POP SWAP3 POP SWAP3 SWAP1 POP JUMP JUMPDEST PUSH1 0x0 PUSH1 0x20 DUP3 DUP5 SUB SLT ISZERO PUSH2 0x1F66 JUMPI PUSH1 0x0 DUP1 REVERT JUMPDEST PUSH2 0x1F6F DUP3 PUSH2 0x1F0C JUMP JUMPDEST SWAP4 SWAP3 POP POP POP JUMP JUMPDEST PUSH4 0x4E487B71 PUSH1 0xE0 SHL PUSH1 0x0 MSTORE PUSH1 0x21 PUSH1 0x4 MSTORE PUSH1 0x24 PUSH1 0x0 REVERT JUMPDEST DUP2 DUP4 MSTORE DUP2 DUP2 PUSH1 0x20 DUP6 ADD CALLDATACOPY POP PUSH1 0x0 DUP3 DUP3 ADD PUSH1 0x20 SWAP1 DUP2 ADD SWAP2 SWAP1 SWAP2 MSTORE PUSH1 0x1F SWAP1 SWAP2 ADD PUSH1 0x1F NOT AND SWAP1 SWAP2 ADD ADD SWAP1 JUMP JUMPDEST PUSH1 0x40 DUP2 MSTORE PUSH1 0x0 PUSH2 0x1FC9 PUSH1 0x40 DUP4 ADD DUP7 DUP9 PUSH2 0x1F8C JUMP JUMPDEST DUP3 DUP2 SUB PUSH1 0x20 DUP5 ADD MSTORE PUSH2 0x1FDC DUP2 DUP6 DUP8 PUSH2 0x1F8C JUMP JUMPDEST SWAP8 SWAP7 POP POP POP POP POP POP POP JUMP JUMPDEST PUSH1 0x7 DUP2 LT PUSH2 0x2005 JUMPI PUSH4 0x4E487B71 PUSH1 0xE0 SHL PUSH1 0x0 MSTORE PUSH1 0x21 PUSH1 0x4 MSTORE PUSH1 0x24 PUSH1 0x0 REVERT JUMPDEST SWAP1 MSTORE JUMP JUMPDEST PUSH1 0x40 DUP2 ADD PUSH2 0x2017 DUP3 DUP6 PUSH2 0x1FE7 JUMP JUMPDEST PUSH2 0x1F6F PUSH1 0x20 DUP4 ADD DUP5 PUSH2 0x1FE7 JUMP JUMPDEST PUSH4 0x4E487B71 PUSH1 0xE0 SHL PUSH1 0x0 MSTORE PUSH1 0x11 PUSH1 0x4 MSTORE PUSH1 0x24 PUSH1 0x0 REVERT JUMPDEST PUSH1 0x0 PUSH1 0x1 DUP3 ADD PUSH2 0x204C JUMPI PUSH2 0x204C PUSH2 0x2024 JUMP JUMPDEST POP PUSH1 0x1 ADD SWAP1 JUMP JUMPDEST PUSH32 0x556E657870656374656420766F74696E672073657373696F6E20737461747573 DUP2 MSTORE PUSH11 0x3A2065787065637465643D PUSH1 0xA8 SHL PUSH1 0x20 DUP3 ADD MSTORE PUSH1 0x0 DUP4 MLOAD PUSH2 0x209F DUP2 PUSH1 0x2B DUP6 ADD PUSH1 0x20 DUP9 ADD PUSH2 0x1DB0 JUMP JUMPDEST PUSH9 0x2063757272656E743D PUSH1 0xB8 SHL PUSH1 0x2B SWAP2 DUP5 ADD SWAP2 DUP3 ADD MSTORE DUP4 MLOAD PUSH2 0x20C8 DUP2 PUSH1 0x34 DUP5 ADD PUSH1 0x20 DUP9 ADD PUSH2 0x1DB0 JUMP JUMPDEST ADD PUSH1 0x34 ADD SWAP5 SWAP4 POP POP POP POP JUMP JUMPDEST PUSH1 0x20 DUP2 MSTORE PUSH1 0x0 PUSH2 0x1F6F PUSH1 0x20 DUP4 ADD DUP5 PUSH2 0x1DD4 JUMP JUMPDEST PUSH4 0x4E487B71 PUSH1 0xE0 SHL PUSH1 0x0 MSTORE PUSH1 0x41 PUSH1 0x4 MSTORE PUSH1 0x24 PUSH1 0x0 REVERT JUMPDEST PUSH4 0x4E487B71 PUSH1 0xE0 SHL PUSH1 0x0 MSTORE PUSH1 0x32 PUSH1 0x4 MSTORE PUSH1 0x24 PUSH1 0x0 REVERT JUMPDEST PUSH1 0x1 DUP2 DUP2 SHR SWAP1 DUP3 AND DUP1 PUSH2 0x2127 JUMPI PUSH1 0x7F DUP3 AND SWAP2 POP JUMPDEST PUSH1 0x20 DUP3 LT DUP2 SUB PUSH2 0x2147 JUMPI PUSH4 0x4E487B71 PUSH1 0xE0 SHL PUSH1 0x0 MSTORE PUSH1 0x22 PUSH1 0x4 MSTORE PUSH1 0x24 PUSH1 0x0 REVERT JUMPDEST POP SWAP2 SWAP1 POP JUMP JUMPDEST DUP2 DUP2 SUB DUP2 DUP2 GT ISZERO PUSH2 0x2160 JUMPI PUSH2 0x2160 PUSH2 0x2024 JUMP JUMPDEST SWAP3 SWAP2 POP POP JUMP JUMPDEST PUSH1 0x1F DUP3 GT ISZERO PUSH2 0x21AC JUMPI PUSH1 0x0 DUP2 DUP2 MSTORE PUSH1 0x20 DUP2 KECCAK256 PUSH1 0x1F DUP6 ADD PUSH1 0x5 SHR DUP2 ADD PUSH1 0x20 DUP7 LT ISZERO PUSH2 0x218D JUMPI POP DUP1 JUMPDEST PUSH1 0x1F DUP6 ADD PUSH1 0x5 SHR DUP3 ADD SWAP2 POP JUMPDEST DUP2 DUP2 LT ISZERO PUSH2 0xE71 JUMPI DUP3 DUP2 SSTORE PUSH1 0x1 ADD PUSH2 0x2199 JUMP JUMPDEST POP POP POP JUMP JUMPDEST DUP2 MLOAD PUSH8 0xFFFFFFFFFFFFFFFF DUP2 GT ISZERO PUSH2 0x21CB JUMPI PUSH2 0x21CB PUSH2 0x20E7 JUMP JUMPDEST PUSH2 0x21DF DUP2 PUSH2 0x21D9 DUP5 SLOAD PUSH2 0x2113 JUMP JUMPDEST DUP5 PUSH2 0x2166 JUMP JUMPDEST PUSH1 0x20 DUP1 PUSH1 0x1F DUP4 GT PUSH1 0x1 DUP2 EQ PUSH2 0x2214 JUMPI PUSH1 0x0 DUP5 ISZERO PUSH2 0x21FC JUMPI POP DUP6 DUP4 ADD MLOAD JUMPDEST PUSH1 0x0 NOT PUSH1 0x3 DUP7 SWAP1 SHL SHR NOT AND PUSH1 0x1 DUP6 SWAP1 SHL OR DUP6 SSTORE PUSH2 0xE71 JUMP JUMPDEST PUSH1 0x0 DUP6 DUP2 MSTORE PUSH1 0x20 DUP2 KECCAK256 PUSH1 0x1F NOT DUP7 AND SWAP2 JUMPDEST DUP3 DUP2 LT ISZERO PUSH2 0x2243 JUMPI DUP9 DUP7 ADD MLOAD DUP3 SSTORE SWAP5 DUP5 ADD SWAP5 PUSH1 0x1 SWAP1 SWAP2 ADD SWAP1 DUP5 ADD PUSH2 0x2224 JUMP JUMPDEST POP DUP6 DUP3 LT ISZERO PUSH2 0x2261 JUMPI DUP8 DUP6 ADD MLOAD PUSH1 0x0 NOT PUSH1 0x3 DUP9 SWAP1 SHL PUSH1 0xF8 AND SHR NOT AND DUP2 SSTORE JUMPDEST POP POP POP POP POP PUSH1 0x1 SWAP1 DUP2 SHL ADD SWAP1 SSTORE POP JUMP JUMPDEST PUSH1 0x0 DUP2 SLOAD PUSH2 0x227E DUP2 PUSH2 0x2113 JUMP JUMPDEST DUP1 DUP6 MSTORE PUSH1 0x20 PUSH1 0x1 DUP4 DUP2 AND DUP1 ISZERO PUSH2 0x229B JUMPI PUSH1 0x1 DUP2 EQ PUSH2 0x22B5 JUMPI PUSH2 0x22E3 JUMP JUMPDEST PUSH1 0xFF NOT DUP6 AND DUP9 DUP5 ADD MSTORE DUP4 ISZERO ISZERO PUSH1 0x5 SHL DUP9 ADD DUP4 ADD SWAP6 POP PUSH2 0x22E3 JUMP JUMPDEST DUP7 PUSH1 0x0 MSTORE DUP3 PUSH1 0x0 KECCAK256 PUSH1 0x0 JUMPDEST DUP6 DUP2 LT ISZERO PUSH2 0x22DB JUMPI DUP2 SLOAD DUP11 DUP3 ADD DUP7 ADD MSTORE SWAP1 DUP4 ADD SWAP1 DUP5 ADD PUSH2 0x22C0 JUMP JUMPDEST DUP10 ADD DUP5 ADD SWAP7 POP POP JUMPDEST POP POP POP POP POP SWAP3 SWAP2 POP POP JUMP JUMPDEST PUSH1 0x0 PUSH1 0xA0 DUP3 ADD DUP8 DUP4 MSTORE PUSH1 0x20 DUP8 DUP2 DUP6 ADD MSTORE PUSH1 0x40 DUP8 DUP2 DUP7 ADD MSTORE PUSH1 0x60 DUP8 DUP2 DUP8 ADD MSTORE PUSH1 0xA0 PUSH1 0x80 DUP8 ADD MSTORE DUP4 DUP8 SLOAD DUP1 DUP7 MSTORE PUSH1 0xC0 DUP9 ADD SWAP2 POP PUSH1 0xC0 DUP2 PUSH1 0x5 SHL DUP10 ADD ADD SWAP6 POP DUP9 PUSH1 0x0 MSTORE DUP5 PUSH1 0x0 KECCAK256 PUSH1 0x0 JUMPDEST DUP3 DUP2 LT ISZERO PUSH2 0x2385 JUMPI DUP10 DUP9 SUB PUSH1 0xBF NOT ADD DUP5 MSTORE DUP5 DUP9 MSTORE PUSH2 0x2355 DUP6 DUP10 ADD DUP4 PUSH2 0x2271 JUMP JUMPDEST PUSH1 0x1 DUP4 DUP2 ADD SLOAD DUP11 DUP11 ADD MSTORE PUSH1 0x2 DUP5 ADD SLOAD PUSH1 0x1 PUSH1 0x1 PUSH1 0xA0 SHL SUB AND SWAP10 DUP9 ADD SWAP10 SWAP1 SWAP10 MSTORE SWAP8 SWAP4 DUP8 ADD SWAP4 PUSH1 0x3 SWAP1 SWAP3 ADD SWAP2 ADD PUSH2 0x2335 JUMP JUMPDEST POP SWAP6 SWAP14 SWAP13 POP POP POP POP POP POP POP POP POP POP POP POP POP JUMP JUMPDEST PUSH1 0x20 DUP1 DUP3 MSTORE PUSH1 0x27 SWAP1 DUP3 ADD MSTORE PUSH32 0x43616C6C6572206973206E6F74206F776E6572206F7220726567697374657265 PUSH1 0x40 DUP3 ADD MSTORE PUSH7 0x32103B37BA32B9 PUSH1 0xC9 SHL PUSH1 0x60 DUP3 ADD MSTORE PUSH1 0x80 ADD SWAP1 JUMP JUMPDEST PUSH32 0x556E657870656374656420766F74696E672073657373696F6E20737461747573 DUP2 MSTORE PUSH12 0x3A2065787065637465643E3D PUSH1 0xA0 SHL PUSH1 0x20 DUP3 ADD MSTORE PUSH1 0x0 DUP4 MLOAD PUSH2 0x242C DUP2 PUSH1 0x2C DUP6 ADD PUSH1 0x20 DUP9 ADD PUSH2 0x1DB0 JUMP JUMPDEST PUSH9 0x2063757272656E743D PUSH1 0xB8 SHL PUSH1 0x2C SWAP2 DUP5 ADD SWAP2 DUP3 ADD MSTORE DUP4 MLOAD PUSH2 0x2455 DUP2 PUSH1 0x35 DUP5 ADD PUSH1 0x20 DUP9 ADD PUSH2 0x1DB0 JUMP JUMPDEST ADD PUSH1 0x35 ADD SWAP5 SWAP4 POP POP POP POP JUMP JUMPDEST PUSH9 0x283937B837B9B0B61 PUSH1 0xBD SHL DUP2 MSTORE PUSH1 0x0 DUP3 MLOAD PUSH2 0x2485 DUP2 PUSH1 0x9 DUP6 ADD PUSH1 0x20 DUP8 ADD PUSH2 0x1DB0 JUMP JUMPDEST PUSH15 0x8191BD95CC81B9BDD08195E1A5CDD PUSH1 0x8A SHL PUSH1 0x9 SWAP4 SWAP1 SWAP2 ADD SWAP3 DUP4 ADD MSTORE POP PUSH1 0x18 ADD SWAP2 SWAP1 POP JUMP JUMPDEST PUSH4 0x4E487B71 PUSH1 0xE0 SHL PUSH1 0x0 MSTORE PUSH1 0x12 PUSH1 0x4 MSTORE PUSH1 0x24 PUSH1 0x0 REVERT JUMPDEST PUSH1 0x0 DUP3 PUSH2 0x24D0 JUMPI PUSH2 0x24D0 PUSH2 0x24AB JUMP JUMPDEST POP DIV SWAP1 JUMP JUMPDEST PUSH1 0x0 DUP3 PUSH2 0x24E4 JUMPI PUSH2 0x24E4 PUSH2 0x24AB JUMP JUMPDEST POP MOD SWAP1 JUMP JUMPDEST DUP1 DUP3 ADD DUP1 DUP3 GT ISZERO PUSH2 0x2160 JUMPI PUSH2 0x2160 PUSH2 0x2024 JUMP JUMPDEST PUSH1 0x0 PUSH1 0xFF DUP3 AND PUSH1 0xFF DUP2 SUB PUSH2 0x2512 JUMPI PUSH2 0x2512 PUSH2 0x2024 JUMP JUMPDEST PUSH1 0x1 ADD SWAP3 SWAP2 POP POP JUMP JUMPDEST PUSH1 0xFF DUP4 AND DUP2 MSTORE PUSH1 0x40 PUSH1 0x20 DUP3 ADD MSTORE PUSH1 0x0 PUSH2 0x1AD9 PUSH1 0x40 DUP4 ADD DUP5 PUSH2 0x2271 JUMP INVALID 0xB0 PUSH8 0x99E10826978A386 PUSH22 0x10AD1E0DCF4CA5CEF8E422FD8DF2FC3D679167FE8DA2 PUSH5 0x6970667358 0x22 SLT KECCAK256 POP 0xE7 DUP5 0xFC 0x5C 0xEC CALLDATASIZE MSTORE8 0xB8 BLOCKHASH 0xC1 0xBD EXTCODESIZE 0xF9 PUSH6 0xDF0C90B02147 0xAB PUSH2 0x2AC2 0xEB MOD 0xD8 0x1E SWAP10 0xF6 0x21 PUSH5 0x736F6C6343 STOP ADDMOD GT STOP CALLER "
        },
        "gasEstimates": {
          "creation": {
            "codeDepositCost": "1922600",
            "executionCost": "27874",
            "totalCost": "1950474"
          },
          "external": {
            "createVotingSession(string,string)": "infinite",
            "getVote(uint256,address)": "infinite",
            "getWinners(uint256)": "infinite",
            "owner()": "2324",
            "registerProposal(uint256,string)": "infinite",
            "registerVoter(uint256,address)": "infinite",
            "renounceOwnership()": "infinite",
            "startProposalsRegistration(uint256)": "infinite",
            "startVotingSession(uint256)": "infinite",
            "stopProposalsRegistration(uint256)": "infinite",
            "stopVotingSession(uint256)": "infinite",
            "tallyVotes(uint256)": "infinite",
            "transferOwnership(address)": "28421",
            "vote(uint256,uint8)": "infinite"
          },
          "internal": {
            "_registerProposal(uint256,string memory)": "infinite"
          }
        },
        "methodIdentifiers": {
          "createVotingSession(string,string)": "153bc95b",
          "getVote(uint256,address)": "bc3f931f",
          "getWinners(uint256)": "6b1426a4",
          "owner()": "8da5cb5b",
          "registerProposal(uint256,string)": "7ace4184",
          "registerVoter(uint256,address)": "94c790bb",
          "renounceOwnership()": "715018a6",
          "startProposalsRegistration(uint256)": "8bc6a6dd",
          "startVotingSession(uint256)": "9980a55a",
          "stopProposalsRegistration(uint256)": "c82de38f",
          "stopVotingSession(uint256)": "6f3dc556",
          "tallyVotes(uint256)": "4d318b0e",
          "transferOwnership(address)": "f2fde38b",
          "vote(uint256,uint8)": "943e8216"
        }
      },
      "storageLayout": {
        "storage": [
          {
            "astId": 7,
            "contract": "contracts/Voting.sol:Voting",
            "label": "_owner",
            "offset": 0,
            "slot": "0",
            "type": "t_address"
          },
          {
            "astId": 480,
            "contract": "contracts/Voting.sol:Voting",
            "label": "sessions",
            "offset": 0,
            "slot": "1",
            "type": "t_mapping(t_uint256,t_struct(Session)418_storage)"
          },
          {
            "astId": 482,
            "contract": "contracts/Voting.sol:Voting",
            "label": "sessionsCount",
            "offset": 0,
            "slot": "2",
            "type": "t_uint256"
          }
        ],
        "types": {
          "t_address": {
            "encoding": "inplace",
            "label": "address",
            "numberOfBytes": "20"
          },
          "t_array(t_struct(Proposal)391_storage)dyn_storage": {
            "base": "t_struct(Proposal)391_storage",
            "encoding": "dynamic_array",
            "label": "struct Voting.Proposal[]",
            "numberOfBytes": "32"
          },
          "t_bool": {
            "encoding": "inplace",
            "label": "bool",
            "numberOfBytes": "1"
          },
          "t_enum(WorkflowStatus)375": {
            "encoding": "inplace",
            "label": "enum Voting.WorkflowStatus",
            "numberOfBytes": "1"
          },
          "t_mapping(t_address,t_struct(Voter)384_storage)": {
            "encoding": "mapping",
            "key": "t_address",
            "label": "mapping(address => struct Voting.Voter)",
            "numberOfBytes": "32",
            "value": "t_struct(Voter)384_storage"
          },
          "t_mapping(t_uint256,t_struct(Session)418_storage)": {
            "encoding": "mapping",
            "key": "t_uint256",
            "label": "mapping(uint256 => struct Voting.Session)",
            "numberOfBytes": "32",
            "value": "t_struct(Session)418_storage"
          },
          "t_string_storage": {
            "encoding": "bytes",
            "label": "string",
            "numberOfBytes": "32"
          },
          "t_struct(Proposal)391_storage": {
            "encoding": "inplace",
            "label": "struct Voting.Proposal",
            "members": [
              {
                "astId": 386,
                "contract": "contracts/Voting.sol:Voting",
                "label": "description",
                "offset": 0,
                "slot": "0",
                "type": "t_string_storage"
              },
              {
                "astId": 388,
                "contract": "contracts/Voting.sol:Voting",
                "label": "voteCount",
                "offset": 0,
                "slot": "1",
                "type": "t_uint256"
              },
              {
                "astId": 390,
                "contract": "contracts/Voting.sol:Voting",
                "label": "proposer",
                "offset": 0,
                "slot": "2",
                "type": "t_address"
              }
            ],
            "numberOfBytes": "96"
          },
          "t_struct(Session)418_storage": {
            "encoding": "inplace",
            "label": "struct Voting.Session",
            "members": [
              {
                "astId": 395,
                "contract": "contracts/Voting.sol:Voting",
                "label": "status",
                "offset": 0,
                "slot": "0",
                "type": "t_enum(WorkflowStatus)375"
              },
              {
                "astId": 401,
                "contract": "contracts/Voting.sol:Voting",
                "label": "voters",
                "offset": 0,
                "slot": "1",
                "type": "t_mapping(t_address,t_struct(Voter)384_storage)"
              },
              {
                "astId": 404,
                "contract": "contracts/Voting.sol:Voting",
                "label": "votersCount",
                "offset": 0,
                "slot": "2",
                "type": "t_uint256"
              },
              {
                "astId": 407,
                "contract": "contracts/Voting.sol:Voting",
                "label": "totalVotesCount",
                "offset": 0,
                "slot": "3",
                "type": "t_uint256"
              },
              {
                "astId": 412,
                "contract": "contracts/Voting.sol:Voting",
                "label": "proposals",
                "offset": 0,
                "slot": "4",
                "type": "t_array(t_struct(Proposal)391_storage)dyn_storage"
              },
              {
                "astId": 417,
                "contract": "contracts/Voting.sol:Voting",
                "label": "winningProposals",
                "offset": 0,
                "slot": "5",
                "type": "t_array(t_struct(Proposal)391_storage)dyn_storage"
              }
            ],
            "numberOfBytes": "192"
          },
          "t_struct(Voter)384_storage": {
            "encoding": "inplace",
            "label": "struct Voting.Voter",
            "members": [
              {
                "astId": 377,
                "contract": "contracts/Voting.sol:Voting",
                "label": "isRegistered",
                "offset": 0,
                "slot": "0",
                "type": "t_bool"
              },
              {
                "astId": 379,
                "contract": "contracts/Voting.sol:Voting",
                "label": "hasVoted",
                "offset": 1,
                "slot": "0",
                "type": "t_bool"
              },
              {
                "astId": 381,
                "contract": "contracts/Voting.sol:Voting",
                "label": "votedProposalId",
                "offset": 2,
                "slot": "0",
                "type": "t_uint8"
              },
              {
                "astId": 383,
                "contract": "contracts/Voting.sol:Voting",
                "label": "nbProposals",
                "offset": 3,
                "slot": "0",
                "type": "t_uint8"
              }
            ],
            "numberOfBytes": "32"
          },
          "t_uint256": {
            "encoding": "inplace",
            "label": "uint256",
            "numberOfBytes": "32"
          },
          "t_uint8": {
            "encoding": "inplace",
            "label": "uint8",
            "numberOfBytes": "1"
          }
        }
      },
      "userdoc": {
        "events": {
          "ProposalRegistered(uint256,uint8,string)": {
            "notice": "!!! WARNING !!!"
          },
          "SessionCreated(uint256,string,string)": {
            "notice": "!!! WARNING !!!"
          },
          "Voted(uint256,address)": {
            "notice": "!!! WARNING !!!"
          }
        },
        "kind": "user",
        "methods": {
          "createVotingSession(string,string)": {
            "notice": "Administrator can create new voting session"
          },
          "getVote(uint256,address)": {
            "notice": "Retreive vote "
          },
          "getWinners(uint256)": {
            "notice": "Retreive winning proposals "
          },
          "registerProposal(uint256,string)": {
            "notice": "A voter can register a new proposal. "
          },
          "registerVoter(uint256,address)": {
            "notice": "Administrator can register voters. "
          },
          "startProposalsRegistration(uint256)": {
            "notice": "Administrator can close voters registration and open proposals registration. "
          },
          "startVotingSession(uint256)": {
            "notice": "Administrator can open voting session. "
          },
          "stopProposalsRegistration(uint256)": {
            "notice": "Administrator can close proposals registration. "
          },
          "stopVotingSession(uint256)": {
            "notice": "Administrator can close voting session. "
          },
          "tallyVotes(uint256)": {
            "notice": "Administrator can trigger votes talling. "
          },
          "vote(uint256,uint8)": {
            "notice": "A voter can register his vote for a proposal. "
          }
        },
        "notice": "This contract defines a basic voting system including different steps: 1) voting session creation 1) voters registration 2) proposals registration 3) votes recording 4) votes talling ",
        "version": 1
      }
    }
  }
}