{"contracts/corrections/Deployed.sol":{"Existing":{"abi":[{"inputs":[{"internalType":"address","name":"_addr","type":"address"}],"name":"call","outputs":[],"stateMutability":"nonpayable","type":"function"},{"inputs":[],"name":"getA","outputs":[{"internalType":"uint256","name":"result","type":"uint256"}],"stateMutability":"view","type":"function"},{"inputs":[{"internalType":"uint256","name":"_val","type":"uint256"}],"name":"setA","outputs":[],"stateMutability":"nonpayable","type":"function"}],"devdoc":{"kind":"dev","methods":{},"version":1},"evm":{"bytecode":{"linkReferences":{},"object":"608060405234801561001057600080fd5b5061021b806100206000396000f3fe608060405234801561001057600080fd5b50600436106100415760003560e01c8063d46300fd14610046578063ee919d5014610060578063f55332ab14610075575b600080fd5b61004e6100a5565b60405190815260200160405180910390f35b61007361006e366004610183565b610122565b005b61007361008336600461019c565b600080546001600160a01b0319166001600160a01b0392909216919091179055565b60008060009054906101000a90046001600160a01b03166001600160a01b0316636d4ce63c6040518163ffffffff1660e01b8152600401602060405180830381865afa1580156100f9573d6000803e3d6000fd5b505050506040513d601f19601f8201168201806040525081019061011d91906101cc565b905090565b6000546040516360fe47b160e01b8152600481018390526001600160a01b03909116906360fe47b190602401600060405180830381600087803b15801561016857600080fd5b505af115801561017c573d6000803e3d6000fd5b5050505050565b60006020828403121561019557600080fd5b5035919050565b6000602082840312156101ae57600080fd5b81356001600160a01b03811681146101c557600080fd5b9392505050565b6000602082840312156101de57600080fd5b505191905056fea2646970667358221220dae968b14f3238c2ec65e0385fdfc09c16d3397d6b0a1d546c93c6c74e375bc464736f6c63430008110033","opcodes":"PUSH1 0x80 PUSH1 0x40 MSTORE CALLVALUE DUP1 ISZERO PUSH2 0x10 JUMPI PUSH1 0x0 DUP1 REVERT JUMPDEST POP PUSH2 0x21B DUP1 PUSH2 0x20 PUSH1 0x0 CODECOPY PUSH1 0x0 RETURN INVALID PUSH1 0x80 PUSH1 0x40 MSTORE CALLVALUE DUP1 ISZERO PUSH2 0x10 JUMPI PUSH1 0x0 DUP1 REVERT JUMPDEST POP PUSH1 0x4 CALLDATASIZE LT PUSH2 0x41 JUMPI PUSH1 0x0 CALLDATALOAD PUSH1 0xE0 SHR DUP1 PUSH4 0xD46300FD EQ PUSH2 0x46 JUMPI DUP1 PUSH4 0xEE919D50 EQ PUSH2 0x60 JUMPI DUP1 PUSH4 0xF55332AB EQ PUSH2 0x75 JUMPI JUMPDEST PUSH1 0x0 DUP1 REVERT JUMPDEST PUSH2 0x4E PUSH2 0xA5 JUMP JUMPDEST PUSH1 0x40 MLOAD SWAP1 DUP2 MSTORE PUSH1 0x20 ADD PUSH1 0x40 MLOAD DUP1 SWAP2 SUB SWAP1 RETURN JUMPDEST PUSH2 0x73 PUSH2 0x6E CALLDATASIZE PUSH1 0x4 PUSH2 0x183 JUMP JUMPDEST PUSH2 0x122 JUMP JUMPDEST STOP JUMPDEST PUSH2 0x73 PUSH2 0x83 CALLDATASIZE PUSH1 0x4 PUSH2 0x19C JUMP JUMPDEST PUSH1 0x0 DUP1 SLOAD PUSH1 0x1 PUSH1 0x1 PUSH1 0xA0 SHL SUB NOT AND PUSH1 0x1 PUSH1 0x1 PUSH1 0xA0 SHL SUB SWAP3 SWAP1 SWAP3 AND SWAP2 SWAP1 SWAP2 OR SWAP1 SSTORE JUMP JUMPDEST PUSH1 0x0 DUP1 PUSH1 0x0 SWAP1 SLOAD SWAP1 PUSH2 0x100 EXP SWAP1 DIV PUSH1 0x1 PUSH1 0x1 PUSH1 0xA0 SHL SUB AND PUSH1 0x1 PUSH1 0x1 PUSH1 0xA0 SHL SUB AND PUSH4 0x6D4CE63C PUSH1 0x40 MLOAD DUP2 PUSH4 0xFFFFFFFF AND PUSH1 0xE0 SHL DUP2 MSTORE PUSH1 0x4 ADD PUSH1 0x20 PUSH1 0x40 MLOAD DUP1 DUP4 SUB DUP2 DUP7 GAS STATICCALL ISZERO DUP1 ISZERO PUSH2 0xF9 JUMPI RETURNDATASIZE PUSH1 0x0 DUP1 RETURNDATACOPY RETURNDATASIZE PUSH1 0x0 REVERT JUMPDEST POP POP POP POP PUSH1 0x40 MLOAD RETURNDATASIZE PUSH1 0x1F NOT PUSH1 0x1F DUP3 ADD AND DUP3 ADD DUP1 PUSH1 0x40 MSTORE POP DUP2 ADD SWAP1 PUSH2 0x11D SWAP2 SWAP1 PUSH2 0x1CC JUMP JUMPDEST SWAP1 POP SWAP1 JUMP JUMPDEST PUSH1 0x0 SLOAD PUSH1 0x40 MLOAD PUSH4 0x60FE47B1 PUSH1 0xE0 SHL DUP2 MSTORE PUSH1 0x4 DUP2 ADD DUP4 SWAP1 MSTORE PUSH1 0x1 PUSH1 0x1 PUSH1 0xA0 SHL SUB SWAP1 SWAP2 AND SWAP1 PUSH4 0x60FE47B1 SWAP1 PUSH1 0x24 ADD PUSH1 0x0 PUSH1 0x40 MLOAD DUP1 DUP4 SUB DUP2 PUSH1 0x0 DUP8 DUP1 EXTCODESIZE ISZERO DUP1 ISZERO PUSH2 0x168 JUMPI PUSH1 0x0 DUP1 REVERT JUMPDEST POP GAS CALL ISZERO DUP1 ISZERO PUSH2 0x17C JUMPI RETURNDATASIZE PUSH1 0x0 DUP1 RETURNDATACOPY RETURNDATASIZE PUSH1 0x0 REVERT JUMPDEST POP POP POP POP POP JUMP JUMPDEST PUSH1 0x0 PUSH1 0x20 DUP3 DUP5 SUB SLT ISZERO PUSH2 0x195 JUMPI PUSH1 0x0 DUP1 REVERT JUMPDEST POP CALLDATALOAD SWAP2 SWAP1 POP JUMP JUMPDEST PUSH1 0x0 PUSH1 0x20 DUP3 DUP5 SUB SLT ISZERO PUSH2 0x1AE JUMPI PUSH1 0x0 DUP1 REVERT JUMPDEST DUP2 CALLDATALOAD PUSH1 0x1 PUSH1 0x1 PUSH1 0xA0 SHL SUB DUP2 AND DUP2 EQ PUSH2 0x1C5 JUMPI PUSH1 0x0 DUP1 REVERT JUMPDEST SWAP4 SWAP3 POP POP POP JUMP JUMPDEST PUSH1 0x0 PUSH1 0x20 DUP3 DUP5 SUB SLT ISZERO PUSH2 0x1DE JUMPI PUSH1 0x0 DUP1 REVERT JUMPDEST POP MLOAD SWAP2 SWAP1 POP JUMP INVALID LOG2 PUSH5 0x6970667358 0x22 SLT KECCAK256 0xDA 0xE9 PUSH9 0xB14F3238C2EC65E038 0x5F 0xDF 0xC0 SWAP13 AND 0xD3 CODECOPY PUSH30 0x6B0A1D546C93C6C74E375BC464736F6C6343000811003300000000000000 "},"gasEstimates":{"creation":{"codeDepositCost":"107800","executionCost":"153","totalCost":"107953"},"external":{"call(address)":"24546","getA()":"infinite","setA(uint256)":"infinite"}},"methodIdentifiers":{"call(address)":"f55332ab","getA()":"d46300fd","setA(uint256)":"ee919d50"}},"storageLayout":{"storage":[{"astId":839,"contract":"contracts/corrections/Deployed.sol:Existing","label":"dc","offset":0,"slot":"0","type":"t_contract(Deployed)836"}],"types":{"t_contract(Deployed)836":{"encoding":"inplace","label":"contract Deployed","numberOfBytes":"20"}}},"userdoc":{"kind":"user","methods":{},"version":1}}}}