{"contracts/exercices/Notes.sol":{"Notes":{"abi":[{"anonymous":false,"inputs":[{"indexed":true,"internalType":"address","name":"previousOwner","type":"address"},{"indexed":true,"internalType":"address","name":"newOwner","type":"address"}],"name":"OwnershipTransferred","type":"event"},{"inputs":[{"internalType":"string","name":"_studentName","type":"string"},{"internalType":"uint8","name":"_note","type":"uint8"}],"name":"addNote","outputs":[],"stateMutability":"nonpayable","type":"function"},{"inputs":[],"name":"getGlobalAverage","outputs":[{"internalType":"uint8","name":"","type":"uint8"}],"stateMutability":"view","type":"function"},{"inputs":[{"internalType":"enum Notes.Subject","name":"_subject","type":"uint8"}],"name":"getGlobalSubjectAverage","outputs":[{"internalType":"uint8","name":"","type":"uint8"}],"stateMutability":"view","type":"function"},{"inputs":[{"internalType":"string","name":"_studentName","type":"string"},{"internalType":"enum Notes.Subject","name":"_subject","type":"uint8"},{"internalType":"uint8","name":"_noteIndex","type":"uint8"}],"name":"getNote","outputs":[{"internalType":"uint8","name":"","type":"uint8"}],"stateMutability":"view","type":"function"},{"inputs":[{"internalType":"string","name":"_studentName","type":"string"}],"name":"getStudentAverage","outputs":[{"internalType":"uint8","name":"","type":"uint8"}],"stateMutability":"view","type":"function"},{"inputs":[{"internalType":"string","name":"_studentName","type":"string"},{"internalType":"enum Notes.Subject","name":"_subject","type":"uint8"}],"name":"getStudentSubjectAverage","outputs":[{"internalType":"uint8","name":"","type":"uint8"}],"stateMutability":"view","type":"function"},{"inputs":[],"name":"owner","outputs":[{"internalType":"address","name":"","type":"address"}],"stateMutability":"view","type":"function"},{"inputs":[{"internalType":"enum Notes.Subject","name":"_subject","type":"uint8"}],"name":"registerTeacher","outputs":[],"stateMutability":"nonpayable","type":"function"},{"inputs":[],"name":"renounceOwnership","outputs":[],"stateMutability":"nonpayable","type":"function"},{"inputs":[{"internalType":"string","name":"_studentName","type":"string"},{"internalType":"uint8","name":"_note","type":"uint8"},{"internalType":"uint8","name":"_noteIndex","type":"uint8"}],"name":"setNote","outputs":[],"stateMutability":"nonpayable","type":"function"},{"inputs":[{"internalType":"address","name":"newOwner","type":"address"}],"name":"transferOwnership","outputs":[],"stateMutability":"nonpayable","type":"function"}],"devdoc":{"kind":"dev","methods":{"owner()":{"details":"Returns the address of the current owner."},"renounceOwnership()":{"details":"Leaves the contract without owner. It will not be possible to call `onlyOwner` functions anymore. Can only be called by the current owner. NOTE: Renouncing ownership will leave the contract without an owner, thereby removing any functionality that is only available to the owner."},"transferOwnership(address)":{"details":"Transfers ownership of the contract to a new account (`newOwner`). Can only be called by the current owner."}},"version":1},"evm":{"bytecode":{"linkReferences":{},"object":"608060405234801561001057600080fd5b5061001a3361001f565b61006f565b600080546001600160a01b038381166001600160a01b0319831681178455604051919092169283917f8be0079c531659141344cd1fd0a4f28419497f9722a3daafe3b4186f6b6457e09190a35050565b6115578061007e6000396000f3fe608060405234801561001057600080fd5b50600436106100a95760003560e01c80638da5cb5b116100715780638da5cb5b1461011057806399b9a34c1461012b578063c04a8f7d1461013e578063d4c5ae6814610151578063f2fde38b14610164578063ffc434ad1461017757600080fd5b8063057a0629146100ae5780632c70b4db146100d8578063715018a6146100eb5780638520c08d146100f557806389ad0420146100fd575b600080fd5b6100c16100bc366004611055565b61018a565b60405160ff90911681526020015b60405180910390f35b6100c16100e63660046110ba565b61021e565b6100f3610373565b005b6100c1610387565b6100c161010b3660046110dc565b6105b0565b6000546040516001600160a01b0390911681526020016100cf565b6100c161013936600461111e565b61079d565b6100f361014c3660046110ba565b6108db565b6100f361015f366004611172565b6109cc565b6100f36101723660046111be565b610c04565b6100f36101853660046111e7565b610c7d565b60006002858560405161019e929190611232565b90815260405190819003602001902060008460028111156101c1576101c1611242565b60028111156101d2576101d2611242565b81526020019081526020016000208260ff16815481106101f4576101f4611258565b90600052602060002090602091828204019190069054906101000a900460ff169050949350505050565b60008080805b60035460ff82161015610360576000600260038360ff168154811061024b5761024b611258565b9060005260206000200160405161026291906112a8565b9081526020016040518091039020905060005b81600088600281111561028a5761028a611242565b600281111561029b5761029b611242565b815260208101919091526040016000205460ff8216101561034b578160008860028111156102cb576102cb611242565b60028111156102dc576102dc611242565b81526020019081526020016000208160ff16815481106102fe576102fe611258565b90600052602060002090602091828204019190069054906101000a900460ff16856103299190611334565b9450836103358161134d565b94505080806103439061134d565b915050610275565b505080806103589061134d565b915050610224565b5061036b818361136c565b949350505050565b61037b610e97565b6103856000610ef1565b565b60008080805b60035460ff8216101561059e576000600260038360ff16815481106103b4576103b4611258565b906000526020600020016040516103cb91906112a8565b9081526020016040518091039020905060005b600160009081526020839052604090205460ff8216101561046b5760016000908152602083905260409020805460ff831690811061041e5761041e611258565b90600052602060002090602091828204019190069054906101000a900460ff16856104499190611334565b9450836104558161134d565b94505080806104639061134d565b9150506103de565b5060005b60008080526020839052604090205460ff821610156104f8576000808052602083905260409020805460ff83169081106104ab576104ab611258565b90600052602060002090602091828204019190069054906101000a900460ff16856104d69190611334565b9450836104e28161134d565b94505080806104f09061134d565b91505061046f565b5060005b600260009081526020839052604090205460ff821610156105895760026000908152602083905260409020805460ff831690811061053c5761053c611258565b90600052602060002090602091828204019190069054906101000a900460ff16856105679190611334565b9450836105738161134d565b94505080806105819061134d565b9150506104fc565b505080806105969061134d565b91505061038d565b506105a9818361136c565b9250505090565b600080600080600286866040516105c8929190611232565b9081526020016040518091039020905060005b600160009081526020839052604090205460ff821610156106685760016000908152602083905260409020805460ff831690811061061b5761061b611258565b90600052602060002090602091828204019190069054906101000a900460ff16846106469190611334565b9350826106528161134d565b93505080806106609061134d565b9150506105db565b5060005b60008080526020839052604090205460ff821610156106f5576000808052602083905260409020805460ff83169081106106a8576106a8611258565b90600052602060002090602091828204019190069054906101000a900460ff16846106d39190611334565b9350826106df8161134d565b93505080806106ed9061134d565b91505061066c565b5060005b600260009081526020839052604090205460ff821610156107865760026000908152602083905260409020805460ff831690811061073957610739611258565b90600052602060002090602091828204019190069054906101000a900460ff16846107649190611334565b9350826107708161134d565b935050808061077e9061134d565b9150506106f9565b50610791828461136c565b93505050505b92915050565b600080600285856040516107b2929190611232565b90815260405190819003602001902090506000805b8260008660028111156107dc576107dc611242565b60028111156107ed576107ed611242565b815260208101919091526040016000205460ff8216101561088f5782600086600281111561081d5761081d611242565b600281111561082e5761082e611242565b81526020019081526020016000208160ff168154811061085057610850611258565b90600052602060002090602091828204019190069054906101000a900460ff168261087b9190611334565b9150806108878161134d565b9150506107c7565b508160008560028111156108a5576108a5611242565b60028111156108b6576108b6611242565b81526020810191909152604001600020546108d1908261136c565b9695505050505050565b60006001818360028111156108f2576108f2611242565b600281111561090357610903611242565b81526020810191909152604001600020546001600160a01b03161461096f5760405162461bcd60e51b815260206004820152601a60248201527f5465616368657220616c7265616479207265676973746572656400000000000060448201526064015b60405180910390fd5b336001600083600281111561098657610986611242565b600281111561099757610997611242565b815260200190815260200160002060006101000a8154816001600160a01b0302191690836001600160a01b0316021790555050565b60026000526001602052600080516020611502833981519152546001600160a01b0316331480610a1c57506000805260016020526000805160206114c2833981519152546001600160a01b031633145b80610a485750600160008190526020526000805160206114e2833981519152546001600160a01b031633145b610a8c5760405162461bcd60e51b81526020600482015260156024820152741bdb9b1e481d195858da195c9cc819dc985b9d1959605a1b6044820152606401610966565b610a968484610f41565b600060028585604051610aaa929190611232565b9081526040516020918190038201902060026000526001909152600080516020611502833981519152549091506001600160a01b03163303610b4f578281600060025b6002811115610afe57610afe611242565b81526020019081526020016000208360ff1681548110610b2057610b20611258565b90600052602060002090602091828204019190066101000a81548160ff021916908360ff160217905550610bfd565b6000805260016020526000805160206114c2833981519152546001600160a01b03163303610b81578281600080610aed565b600160008190526020526000805160206114e2833981519152546001600160a01b03163303610bfd5782816000600181526020019081526020016000208360ff1681548110610bd257610bd2611258565b90600052602060002090602091828204019190066101000a81548160ff021916908360ff1602179055505b5050505050565b610c0c610e97565b6001600160a01b038116610c715760405162461bcd60e51b815260206004820152602660248201527f4f776e61626c653a206e6577206f776e657220697320746865207a65726f206160448201526564647265737360d01b6064820152608401610966565b610c7a81610ef1565b50565b60026000526001602052600080516020611502833981519152546001600160a01b0316331480610ccd57506000805260016020526000805160206114c2833981519152546001600160a01b031633145b80610cf95750600160008190526020526000805160206114e2833981519152546001600160a01b031633145b610d3d5760405162461bcd60e51b81526020600482015260156024820152741bdb9b1e481d195858da195c9cc819dc985b9d1959605a1b6044820152606401610966565b610d478383610f41565b600060028484604051610d5b929190611232565b9081526040516020918190038201902060026000526001909152600080516020611502833981519152549091506001600160a01b03163303610df85780600060025b6002811115610dae57610dae611242565b81526020808201929092526040016000908120805460018101825590825290829020918104909101805460ff808616601f9094166101000a93840293021916919091179055610e91565b6000805260016020526000805160206114c2833981519152546001600160a01b03163303610e295780600080610d9d565b600160008190526020526000805160206114e2833981519152546001600160a01b03163303610e9157600160008181526020838152604082208054938401815582529081902090820401805460ff858116601f9094166101000a938402930219169190911790555b50505050565b6000546001600160a01b031633146103855760405162461bcd60e51b815260206004820181905260248201527f4f776e61626c653a2063616c6c6572206973206e6f7420746865206f776e65726044820152606401610966565b600080546001600160a01b038381166001600160a01b0319831681178455604051919092169283917f8be0079c531659141344cd1fd0a4f28419497f9722a3daafe3b4186f6b6457e09190a35050565b60028282604051610f53929190611232565b9081526040519081900360200190206001015460ff16610fe357600380546001810182556000919091527fc2575a0e9e593c00f959f8c92f12db2869c3395a3b0502d05e2516446f71f85b01610faa828483611401565b50600160028383604051610fbf929190611232565b908152604051908190036020019020600101805491151560ff199092169190911790555b5050565b60008083601f840112610ff957600080fd5b50813567ffffffffffffffff81111561101157600080fd5b60208301915083602082850101111561102957600080fd5b9250929050565b80356003811061103f57600080fd5b919050565b803560ff8116811461103f57600080fd5b6000806000806060858703121561106b57600080fd5b843567ffffffffffffffff81111561108257600080fd5b61108e87828801610fe7565b90955093506110a1905060208601611030565b91506110af60408601611044565b905092959194509250565b6000602082840312156110cc57600080fd5b6110d582611030565b9392505050565b600080602083850312156110ef57600080fd5b823567ffffffffffffffff81111561110657600080fd5b61111285828601610fe7565b90969095509350505050565b60008060006040848603121561113357600080fd5b833567ffffffffffffffff81111561114a57600080fd5b61115686828701610fe7565b9094509250611169905060208501611030565b90509250925092565b6000806000806060858703121561118857600080fd5b843567ffffffffffffffff81111561119f57600080fd5b6111ab87828801610fe7565b90955093506110a1905060208601611044565b6000602082840312156111d057600080fd5b81356001600160a01b03811681146110d557600080fd5b6000806000604084860312156111fc57600080fd5b833567ffffffffffffffff81111561121357600080fd5b61121f86828701610fe7565b9094509250611169905060208501611044565b8183823760009101908152919050565b634e487b7160e01b600052602160045260246000fd5b634e487b7160e01b600052603260045260246000fd5b600181811c9082168061128257607f821691505b6020821081036112a257634e487b7160e01b600052602260045260246000fd5b50919050565b60008083546112b68161126e565b600182811680156112ce57600181146112e357611312565b60ff1984168752821515830287019450611312565b8760005260208060002060005b858110156113095781548a8201529084019082016112f0565b50505082870194505b50929695505050505050565b634e487b7160e01b600052601160045260246000fd5b60ff81811683821601908111156107975761079761131e565b600060ff821660ff81036113635761136361131e565b60010192915050565b600060ff83168061138d57634e487b7160e01b600052601260045260246000fd5b8060ff84160491505092915050565b634e487b7160e01b600052604160045260246000fd5b601f8211156113fc57600081815260208120601f850160051c810160208610156113d95750805b601f850160051c820191505b818110156113f8578281556001016113e5565b5050505b505050565b67ffffffffffffffff8311156114195761141961139c565b61142d83611427835461126e565b836113b2565b6000601f84116001811461146157600085156114495750838201355b600019600387901b1c1916600186901b178355610bfd565b600083815260209020601f19861690835b828110156114925786850135825560209485019460019092019101611472565b50868210156114af5760001960f88860031b161c19848701351681555b505060018560011b018355505050505056fea6eef7e35abe7026729641147f7915573c7e97b47efa546f5f6e3230263bcb49cc69885fda6bcc1a4ace058b4a62bf5e179ea78fd58a1ccd71c22cc9b688792fd9d16d34ffb15ba3a3d852f0d403e2ce1d691fb54de27ac87cd2f993f3ec330fa26469706673582212209cb2e517aa83cab4ace9479d6b0c248a26c8fc792e10714e09982f735b3800cc64736f6c63430008110033","opcodes":"PUSH1 0x80 PUSH1 0x40 MSTORE CALLVALUE DUP1 ISZERO PUSH2 0x10 JUMPI PUSH1 0x0 DUP1 REVERT JUMPDEST POP PUSH2 0x1A CALLER PUSH2 0x1F JUMP JUMPDEST PUSH2 0x6F JUMP JUMPDEST PUSH1 0x0 DUP1 SLOAD PUSH1 0x1 PUSH1 0x1 PUSH1 0xA0 SHL SUB DUP4 DUP2 AND PUSH1 0x1 PUSH1 0x1 PUSH1 0xA0 SHL SUB NOT DUP4 AND DUP2 OR DUP5 SSTORE PUSH1 0x40 MLOAD SWAP2 SWAP1 SWAP3 AND SWAP3 DUP4 SWAP2 PUSH32 0x8BE0079C531659141344CD1FD0A4F28419497F9722A3DAAFE3B4186F6B6457E0 SWAP2 SWAP1 LOG3 POP POP JUMP JUMPDEST PUSH2 0x1557 DUP1 PUSH2 0x7E PUSH1 0x0 CODECOPY PUSH1 0x0 RETURN INVALID PUSH1 0x80 PUSH1 0x40 MSTORE CALLVALUE DUP1 ISZERO PUSH2 0x10 JUMPI PUSH1 0x0 DUP1 REVERT JUMPDEST POP PUSH1 0x4 CALLDATASIZE LT PUSH2 0xA9 JUMPI PUSH1 0x0 CALLDATALOAD PUSH1 0xE0 SHR DUP1 PUSH4 0x8DA5CB5B GT PUSH2 0x71 JUMPI DUP1 PUSH4 0x8DA5CB5B EQ PUSH2 0x110 JUMPI DUP1 PUSH4 0x99B9A34C EQ PUSH2 0x12B JUMPI DUP1 PUSH4 0xC04A8F7D EQ PUSH2 0x13E JUMPI DUP1 PUSH4 0xD4C5AE68 EQ PUSH2 0x151 JUMPI DUP1 PUSH4 0xF2FDE38B EQ PUSH2 0x164 JUMPI DUP1 PUSH4 0xFFC434AD EQ PUSH2 0x177 JUMPI PUSH1 0x0 DUP1 REVERT JUMPDEST DUP1 PUSH4 0x57A0629 EQ PUSH2 0xAE JUMPI DUP1 PUSH4 0x2C70B4DB EQ PUSH2 0xD8 JUMPI DUP1 PUSH4 0x715018A6 EQ PUSH2 0xEB JUMPI DUP1 PUSH4 0x8520C08D EQ PUSH2 0xF5 JUMPI DUP1 PUSH4 0x89AD0420 EQ PUSH2 0xFD JUMPI JUMPDEST PUSH1 0x0 DUP1 REVERT JUMPDEST PUSH2 0xC1 PUSH2 0xBC CALLDATASIZE PUSH1 0x4 PUSH2 0x1055 JUMP JUMPDEST PUSH2 0x18A JUMP JUMPDEST PUSH1 0x40 MLOAD PUSH1 0xFF SWAP1 SWAP2 AND DUP2 MSTORE PUSH1 0x20 ADD JUMPDEST PUSH1 0x40 MLOAD DUP1 SWAP2 SUB SWAP1 RETURN JUMPDEST PUSH2 0xC1 PUSH2 0xE6 CALLDATASIZE PUSH1 0x4 PUSH2 0x10BA JUMP JUMPDEST PUSH2 0x21E JUMP JUMPDEST PUSH2 0xF3 PUSH2 0x373 JUMP JUMPDEST STOP JUMPDEST PUSH2 0xC1 PUSH2 0x387 JUMP JUMPDEST PUSH2 0xC1 PUSH2 0x10B CALLDATASIZE PUSH1 0x4 PUSH2 0x10DC JUMP JUMPDEST PUSH2 0x5B0 JUMP JUMPDEST PUSH1 0x0 SLOAD PUSH1 0x40 MLOAD PUSH1 0x1 PUSH1 0x1 PUSH1 0xA0 SHL SUB SWAP1 SWAP2 AND DUP2 MSTORE PUSH1 0x20 ADD PUSH2 0xCF JUMP JUMPDEST PUSH2 0xC1 PUSH2 0x139 CALLDATASIZE PUSH1 0x4 PUSH2 0x111E JUMP JUMPDEST PUSH2 0x79D JUMP JUMPDEST PUSH2 0xF3 PUSH2 0x14C CALLDATASIZE PUSH1 0x4 PUSH2 0x10BA JUMP JUMPDEST PUSH2 0x8DB JUMP JUMPDEST PUSH2 0xF3 PUSH2 0x15F CALLDATASIZE PUSH1 0x4 PUSH2 0x1172 JUMP JUMPDEST PUSH2 0x9CC JUMP JUMPDEST PUSH2 0xF3 PUSH2 0x172 CALLDATASIZE PUSH1 0x4 PUSH2 0x11BE JUMP JUMPDEST PUSH2 0xC04 JUMP JUMPDEST PUSH2 0xF3 PUSH2 0x185 CALLDATASIZE PUSH1 0x4 PUSH2 0x11E7 JUMP JUMPDEST PUSH2 0xC7D JUMP JUMPDEST PUSH1 0x0 PUSH1 0x2 DUP6 DUP6 PUSH1 0x40 MLOAD PUSH2 0x19E SWAP3 SWAP2 SWAP1 PUSH2 0x1232 JUMP JUMPDEST SWAP1 DUP2 MSTORE PUSH1 0x40 MLOAD SWAP1 DUP2 SWAP1 SUB PUSH1 0x20 ADD SWAP1 KECCAK256 PUSH1 0x0 DUP5 PUSH1 0x2 DUP2 GT ISZERO PUSH2 0x1C1 JUMPI PUSH2 0x1C1 PUSH2 0x1242 JUMP JUMPDEST PUSH1 0x2 DUP2 GT ISZERO PUSH2 0x1D2 JUMPI PUSH2 0x1D2 PUSH2 0x1242 JUMP JUMPDEST DUP2 MSTORE PUSH1 0x20 ADD SWAP1 DUP2 MSTORE PUSH1 0x20 ADD PUSH1 0x0 KECCAK256 DUP3 PUSH1 0xFF AND DUP2 SLOAD DUP2 LT PUSH2 0x1F4 JUMPI PUSH2 0x1F4 PUSH2 0x1258 JUMP JUMPDEST SWAP1 PUSH1 0x0 MSTORE PUSH1 0x20 PUSH1 0x0 KECCAK256 SWAP1 PUSH1 0x20 SWAP2 DUP3 DUP3 DIV ADD SWAP2 SWAP1 MOD SWAP1 SLOAD SWAP1 PUSH2 0x100 EXP SWAP1 DIV PUSH1 0xFF AND SWAP1 POP SWAP5 SWAP4 POP POP POP POP JUMP JUMPDEST PUSH1 0x0 DUP1 DUP1 DUP1 JUMPDEST PUSH1 0x3 SLOAD PUSH1 0xFF DUP3 AND LT ISZERO PUSH2 0x360 JUMPI PUSH1 0x0 PUSH1 0x2 PUSH1 0x3 DUP4 PUSH1 0xFF AND DUP2 SLOAD DUP2 LT PUSH2 0x24B JUMPI PUSH2 0x24B PUSH2 0x1258 JUMP JUMPDEST SWAP1 PUSH1 0x0 MSTORE PUSH1 0x20 PUSH1 0x0 KECCAK256 ADD PUSH1 0x40 MLOAD PUSH2 0x262 SWAP2 SWAP1 PUSH2 0x12A8 JUMP JUMPDEST SWAP1 DUP2 MSTORE PUSH1 0x20 ADD PUSH1 0x40 MLOAD DUP1 SWAP2 SUB SWAP1 KECCAK256 SWAP1 POP PUSH1 0x0 JUMPDEST DUP2 PUSH1 0x0 DUP9 PUSH1 0x2 DUP2 GT ISZERO PUSH2 0x28A JUMPI PUSH2 0x28A PUSH2 0x1242 JUMP JUMPDEST PUSH1 0x2 DUP2 GT ISZERO PUSH2 0x29B JUMPI PUSH2 0x29B PUSH2 0x1242 JUMP JUMPDEST DUP2 MSTORE PUSH1 0x20 DUP2 ADD SWAP2 SWAP1 SWAP2 MSTORE PUSH1 0x40 ADD PUSH1 0x0 KECCAK256 SLOAD PUSH1 0xFF DUP3 AND LT ISZERO PUSH2 0x34B JUMPI DUP2 PUSH1 0x0 DUP9 PUSH1 0x2 DUP2 GT ISZERO PUSH2 0x2CB JUMPI PUSH2 0x2CB PUSH2 0x1242 JUMP JUMPDEST PUSH1 0x2 DUP2 GT ISZERO PUSH2 0x2DC JUMPI PUSH2 0x2DC PUSH2 0x1242 JUMP JUMPDEST DUP2 MSTORE PUSH1 0x20 ADD SWAP1 DUP2 MSTORE PUSH1 0x20 ADD PUSH1 0x0 KECCAK256 DUP2 PUSH1 0xFF AND DUP2 SLOAD DUP2 LT PUSH2 0x2FE JUMPI PUSH2 0x2FE PUSH2 0x1258 JUMP JUMPDEST SWAP1 PUSH1 0x0 MSTORE PUSH1 0x20 PUSH1 0x0 KECCAK256 SWAP1 PUSH1 0x20 SWAP2 DUP3 DUP3 DIV ADD SWAP2 SWAP1 MOD SWAP1 SLOAD SWAP1 PUSH2 0x100 EXP SWAP1 DIV PUSH1 0xFF AND DUP6 PUSH2 0x329 SWAP2 SWAP1 PUSH2 0x1334 JUMP JUMPDEST SWAP5 POP DUP4 PUSH2 0x335 DUP2 PUSH2 0x134D JUMP JUMPDEST SWAP5 POP POP DUP1 DUP1 PUSH2 0x343 SWAP1 PUSH2 0x134D JUMP JUMPDEST SWAP2 POP POP PUSH2 0x275 JUMP JUMPDEST POP POP DUP1 DUP1 PUSH2 0x358 SWAP1 PUSH2 0x134D JUMP JUMPDEST SWAP2 POP POP PUSH2 0x224 JUMP JUMPDEST POP PUSH2 0x36B DUP2 DUP4 PUSH2 0x136C JUMP JUMPDEST SWAP5 SWAP4 POP POP POP POP JUMP JUMPDEST PUSH2 0x37B PUSH2 0xE97 JUMP JUMPDEST PUSH2 0x385 PUSH1 0x0 PUSH2 0xEF1 JUMP JUMPDEST JUMP JUMPDEST PUSH1 0x0 DUP1 DUP1 DUP1 JUMPDEST PUSH1 0x3 SLOAD PUSH1 0xFF DUP3 AND LT ISZERO PUSH2 0x59E JUMPI PUSH1 0x0 PUSH1 0x2 PUSH1 0x3 DUP4 PUSH1 0xFF AND DUP2 SLOAD DUP2 LT PUSH2 0x3B4 JUMPI PUSH2 0x3B4 PUSH2 0x1258 JUMP JUMPDEST SWAP1 PUSH1 0x0 MSTORE PUSH1 0x20 PUSH1 0x0 KECCAK256 ADD PUSH1 0x40 MLOAD PUSH2 0x3CB SWAP2 SWAP1 PUSH2 0x12A8 JUMP JUMPDEST SWAP1 DUP2 MSTORE PUSH1 0x20 ADD PUSH1 0x40 MLOAD DUP1 SWAP2 SUB SWAP1 KECCAK256 SWAP1 POP PUSH1 0x0 JUMPDEST PUSH1 0x1 PUSH1 0x0 SWAP1 DUP2 MSTORE PUSH1 0x20 DUP4 SWAP1 MSTORE PUSH1 0x40 SWAP1 KECCAK256 SLOAD PUSH1 0xFF DUP3 AND LT ISZERO PUSH2 0x46B JUMPI PUSH1 0x1 PUSH1 0x0 SWAP1 DUP2 MSTORE PUSH1 0x20 DUP4 SWAP1 MSTORE PUSH1 0x40 SWAP1 KECCAK256 DUP1 SLOAD PUSH1 0xFF DUP4 AND SWAP1 DUP2 LT PUSH2 0x41E JUMPI PUSH2 0x41E PUSH2 0x1258 JUMP JUMPDEST SWAP1 PUSH1 0x0 MSTORE PUSH1 0x20 PUSH1 0x0 KECCAK256 SWAP1 PUSH1 0x20 SWAP2 DUP3 DUP3 DIV ADD SWAP2 SWAP1 MOD SWAP1 SLOAD SWAP1 PUSH2 0x100 EXP SWAP1 DIV PUSH1 0xFF AND DUP6 PUSH2 0x449 SWAP2 SWAP1 PUSH2 0x1334 JUMP JUMPDEST SWAP5 POP DUP4 PUSH2 0x455 DUP2 PUSH2 0x134D JUMP JUMPDEST SWAP5 POP POP DUP1 DUP1 PUSH2 0x463 SWAP1 PUSH2 0x134D JUMP JUMPDEST SWAP2 POP POP PUSH2 0x3DE JUMP JUMPDEST POP PUSH1 0x0 JUMPDEST PUSH1 0x0 DUP1 DUP1 MSTORE PUSH1 0x20 DUP4 SWAP1 MSTORE PUSH1 0x40 SWAP1 KECCAK256 SLOAD PUSH1 0xFF DUP3 AND LT ISZERO PUSH2 0x4F8 JUMPI PUSH1 0x0 DUP1 DUP1 MSTORE PUSH1 0x20 DUP4 SWAP1 MSTORE PUSH1 0x40 SWAP1 KECCAK256 DUP1 SLOAD PUSH1 0xFF DUP4 AND SWAP1 DUP2 LT PUSH2 0x4AB JUMPI PUSH2 0x4AB PUSH2 0x1258 JUMP JUMPDEST SWAP1 PUSH1 0x0 MSTORE PUSH1 0x20 PUSH1 0x0 KECCAK256 SWAP1 PUSH1 0x20 SWAP2 DUP3 DUP3 DIV ADD SWAP2 SWAP1 MOD SWAP1 SLOAD SWAP1 PUSH2 0x100 EXP SWAP1 DIV PUSH1 0xFF AND DUP6 PUSH2 0x4D6 SWAP2 SWAP1 PUSH2 0x1334 JUMP JUMPDEST SWAP5 POP DUP4 PUSH2 0x4E2 DUP2 PUSH2 0x134D JUMP JUMPDEST SWAP5 POP POP DUP1 DUP1 PUSH2 0x4F0 SWAP1 PUSH2 0x134D JUMP JUMPDEST SWAP2 POP POP PUSH2 0x46F JUMP JUMPDEST POP PUSH1 0x0 JUMPDEST PUSH1 0x2 PUSH1 0x0 SWAP1 DUP2 MSTORE PUSH1 0x20 DUP4 SWAP1 MSTORE PUSH1 0x40 SWAP1 KECCAK256 SLOAD PUSH1 0xFF DUP3 AND LT ISZERO PUSH2 0x589 JUMPI PUSH1 0x2 PUSH1 0x0 SWAP1 DUP2 MSTORE PUSH1 0x20 DUP4 SWAP1 MSTORE PUSH1 0x40 SWAP1 KECCAK256 DUP1 SLOAD PUSH1 0xFF DUP4 AND SWAP1 DUP2 LT PUSH2 0x53C JUMPI PUSH2 0x53C PUSH2 0x1258 JUMP JUMPDEST SWAP1 PUSH1 0x0 MSTORE PUSH1 0x20 PUSH1 0x0 KECCAK256 SWAP1 PUSH1 0x20 SWAP2 DUP3 DUP3 DIV ADD SWAP2 SWAP1 MOD SWAP1 SLOAD SWAP1 PUSH2 0x100 EXP SWAP1 DIV PUSH1 0xFF AND DUP6 PUSH2 0x567 SWAP2 SWAP1 PUSH2 0x1334 JUMP JUMPDEST SWAP5 POP DUP4 PUSH2 0x573 DUP2 PUSH2 0x134D JUMP JUMPDEST SWAP5 POP POP DUP1 DUP1 PUSH2 0x581 SWAP1 PUSH2 0x134D JUMP JUMPDEST SWAP2 POP POP PUSH2 0x4FC JUMP JUMPDEST POP POP DUP1 DUP1 PUSH2 0x596 SWAP1 PUSH2 0x134D JUMP JUMPDEST SWAP2 POP POP PUSH2 0x38D JUMP JUMPDEST POP PUSH2 0x5A9 DUP2 DUP4 PUSH2 0x136C JUMP JUMPDEST SWAP3 POP POP POP SWAP1 JUMP JUMPDEST PUSH1 0x0 DUP1 PUSH1 0x0 DUP1 PUSH1 0x2 DUP7 DUP7 PUSH1 0x40 MLOAD PUSH2 0x5C8 SWAP3 SWAP2 SWAP1 PUSH2 0x1232 JUMP JUMPDEST SWAP1 DUP2 MSTORE PUSH1 0x20 ADD PUSH1 0x40 MLOAD DUP1 SWAP2 SUB SWAP1 KECCAK256 SWAP1 POP PUSH1 0x0 JUMPDEST PUSH1 0x1 PUSH1 0x0 SWAP1 DUP2 MSTORE PUSH1 0x20 DUP4 SWAP1 MSTORE PUSH1 0x40 SWAP1 KECCAK256 SLOAD PUSH1 0xFF DUP3 AND LT ISZERO PUSH2 0x668 JUMPI PUSH1 0x1 PUSH1 0x0 SWAP1 DUP2 MSTORE PUSH1 0x20 DUP4 SWAP1 MSTORE PUSH1 0x40 SWAP1 KECCAK256 DUP1 SLOAD PUSH1 0xFF DUP4 AND SWAP1 DUP2 LT PUSH2 0x61B JUMPI PUSH2 0x61B PUSH2 0x1258 JUMP JUMPDEST SWAP1 PUSH1 0x0 MSTORE PUSH1 0x20 PUSH1 0x0 KECCAK256 SWAP1 PUSH1 0x20 SWAP2 DUP3 DUP3 DIV ADD SWAP2 SWAP1 MOD SWAP1 SLOAD SWAP1 PUSH2 0x100 EXP SWAP1 DIV PUSH1 0xFF AND DUP5 PUSH2 0x646 SWAP2 SWAP1 PUSH2 0x1334 JUMP JUMPDEST SWAP4 POP DUP3 PUSH2 0x652 DUP2 PUSH2 0x134D JUMP JUMPDEST SWAP4 POP POP DUP1 DUP1 PUSH2 0x660 SWAP1 PUSH2 0x134D JUMP JUMPDEST SWAP2 POP POP PUSH2 0x5DB JUMP JUMPDEST POP PUSH1 0x0 JUMPDEST PUSH1 0x0 DUP1 DUP1 MSTORE PUSH1 0x20 DUP4 SWAP1 MSTORE PUSH1 0x40 SWAP1 KECCAK256 SLOAD PUSH1 0xFF DUP3 AND LT ISZERO PUSH2 0x6F5 JUMPI PUSH1 0x0 DUP1 DUP1 MSTORE PUSH1 0x20 DUP4 SWAP1 MSTORE PUSH1 0x40 SWAP1 KECCAK256 DUP1 SLOAD PUSH1 0xFF DUP4 AND SWAP1 DUP2 LT PUSH2 0x6A8 JUMPI PUSH2 0x6A8 PUSH2 0x1258 JUMP JUMPDEST SWAP1 PUSH1 0x0 MSTORE PUSH1 0x20 PUSH1 0x0 KECCAK256 SWAP1 PUSH1 0x20 SWAP2 DUP3 DUP3 DIV ADD SWAP2 SWAP1 MOD SWAP1 SLOAD SWAP1 PUSH2 0x100 EXP SWAP1 DIV PUSH1 0xFF AND DUP5 PUSH2 0x6D3 SWAP2 SWAP1 PUSH2 0x1334 JUMP JUMPDEST SWAP4 POP DUP3 PUSH2 0x6DF DUP2 PUSH2 0x134D JUMP JUMPDEST SWAP4 POP POP DUP1 DUP1 PUSH2 0x6ED SWAP1 PUSH2 0x134D JUMP JUMPDEST SWAP2 POP POP PUSH2 0x66C JUMP JUMPDEST POP PUSH1 0x0 JUMPDEST PUSH1 0x2 PUSH1 0x0 SWAP1 DUP2 MSTORE PUSH1 0x20 DUP4 SWAP1 MSTORE PUSH1 0x40 SWAP1 KECCAK256 SLOAD PUSH1 0xFF DUP3 AND LT ISZERO PUSH2 0x786 JUMPI PUSH1 0x2 PUSH1 0x0 SWAP1 DUP2 MSTORE PUSH1 0x20 DUP4 SWAP1 MSTORE PUSH1 0x40 SWAP1 KECCAK256 DUP1 SLOAD PUSH1 0xFF DUP4 AND SWAP1 DUP2 LT PUSH2 0x739 JUMPI PUSH2 0x739 PUSH2 0x1258 JUMP JUMPDEST SWAP1 PUSH1 0x0 MSTORE PUSH1 0x20 PUSH1 0x0 KECCAK256 SWAP1 PUSH1 0x20 SWAP2 DUP3 DUP3 DIV ADD SWAP2 SWAP1 MOD SWAP1 SLOAD SWAP1 PUSH2 0x100 EXP SWAP1 DIV PUSH1 0xFF AND DUP5 PUSH2 0x764 SWAP2 SWAP1 PUSH2 0x1334 JUMP JUMPDEST SWAP4 POP DUP3 PUSH2 0x770 DUP2 PUSH2 0x134D JUMP JUMPDEST SWAP4 POP POP DUP1 DUP1 PUSH2 0x77E SWAP1 PUSH2 0x134D JUMP JUMPDEST SWAP2 POP POP PUSH2 0x6F9 JUMP JUMPDEST POP PUSH2 0x791 DUP3 DUP5 PUSH2 0x136C JUMP JUMPDEST SWAP4 POP POP POP POP JUMPDEST SWAP3 SWAP2 POP POP JUMP JUMPDEST PUSH1 0x0 DUP1 PUSH1 0x2 DUP6 DUP6 PUSH1 0x40 MLOAD PUSH2 0x7B2 SWAP3 SWAP2 SWAP1 PUSH2 0x1232 JUMP JUMPDEST SWAP1 DUP2 MSTORE PUSH1 0x40 MLOAD SWAP1 DUP2 SWAP1 SUB PUSH1 0x20 ADD SWAP1 KECCAK256 SWAP1 POP PUSH1 0x0 DUP1 JUMPDEST DUP3 PUSH1 0x0 DUP7 PUSH1 0x2 DUP2 GT ISZERO PUSH2 0x7DC JUMPI PUSH2 0x7DC PUSH2 0x1242 JUMP JUMPDEST PUSH1 0x2 DUP2 GT ISZERO PUSH2 0x7ED JUMPI PUSH2 0x7ED PUSH2 0x1242 JUMP JUMPDEST DUP2 MSTORE PUSH1 0x20 DUP2 ADD SWAP2 SWAP1 SWAP2 MSTORE PUSH1 0x40 ADD PUSH1 0x0 KECCAK256 SLOAD PUSH1 0xFF DUP3 AND LT ISZERO PUSH2 0x88F JUMPI DUP3 PUSH1 0x0 DUP7 PUSH1 0x2 DUP2 GT ISZERO PUSH2 0x81D JUMPI PUSH2 0x81D PUSH2 0x1242 JUMP JUMPDEST PUSH1 0x2 DUP2 GT ISZERO PUSH2 0x82E JUMPI PUSH2 0x82E PUSH2 0x1242 JUMP JUMPDEST DUP2 MSTORE PUSH1 0x20 ADD SWAP1 DUP2 MSTORE PUSH1 0x20 ADD PUSH1 0x0 KECCAK256 DUP2 PUSH1 0xFF AND DUP2 SLOAD DUP2 LT PUSH2 0x850 JUMPI PUSH2 0x850 PUSH2 0x1258 JUMP JUMPDEST SWAP1 PUSH1 0x0 MSTORE PUSH1 0x20 PUSH1 0x0 KECCAK256 SWAP1 PUSH1 0x20 SWAP2 DUP3 DUP3 DIV ADD SWAP2 SWAP1 MOD SWAP1 SLOAD SWAP1 PUSH2 0x100 EXP SWAP1 DIV PUSH1 0xFF AND DUP3 PUSH2 0x87B SWAP2 SWAP1 PUSH2 0x1334 JUMP JUMPDEST SWAP2 POP DUP1 PUSH2 0x887 DUP2 PUSH2 0x134D JUMP JUMPDEST SWAP2 POP POP PUSH2 0x7C7 JUMP JUMPDEST POP DUP2 PUSH1 0x0 DUP6 PUSH1 0x2 DUP2 GT ISZERO PUSH2 0x8A5 JUMPI PUSH2 0x8A5 PUSH2 0x1242 JUMP JUMPDEST PUSH1 0x2 DUP2 GT ISZERO PUSH2 0x8B6 JUMPI PUSH2 0x8B6 PUSH2 0x1242 JUMP JUMPDEST DUP2 MSTORE PUSH1 0x20 DUP2 ADD SWAP2 SWAP1 SWAP2 MSTORE PUSH1 0x40 ADD PUSH1 0x0 KECCAK256 SLOAD PUSH2 0x8D1 SWAP1 DUP3 PUSH2 0x136C JUMP JUMPDEST SWAP7 SWAP6 POP POP POP POP POP POP JUMP JUMPDEST PUSH1 0x0 PUSH1 0x1 DUP2 DUP4 PUSH1 0x2 DUP2 GT ISZERO PUSH2 0x8F2 JUMPI PUSH2 0x8F2 PUSH2 0x1242 JUMP JUMPDEST PUSH1 0x2 DUP2 GT ISZERO PUSH2 0x903 JUMPI PUSH2 0x903 PUSH2 0x1242 JUMP JUMPDEST DUP2 MSTORE PUSH1 0x20 DUP2 ADD SWAP2 SWAP1 SWAP2 MSTORE PUSH1 0x40 ADD PUSH1 0x0 KECCAK256 SLOAD PUSH1 0x1 PUSH1 0x1 PUSH1 0xA0 SHL SUB AND EQ PUSH2 0x96F JUMPI PUSH1 0x40 MLOAD PUSH3 0x461BCD PUSH1 0xE5 SHL DUP2 MSTORE PUSH1 0x20 PUSH1 0x4 DUP3 ADD MSTORE PUSH1 0x1A PUSH1 0x24 DUP3 ADD MSTORE PUSH32 0x5465616368657220616C72656164792072656769737465726564000000000000 PUSH1 0x44 DUP3 ADD MSTORE PUSH1 0x64 ADD JUMPDEST PUSH1 0x40 MLOAD DUP1 SWAP2 SUB SWAP1 REVERT JUMPDEST CALLER PUSH1 0x1 PUSH1 0x0 DUP4 PUSH1 0x2 DUP2 GT ISZERO PUSH2 0x986 JUMPI PUSH2 0x986 PUSH2 0x1242 JUMP JUMPDEST PUSH1 0x2 DUP2 GT ISZERO PUSH2 0x997 JUMPI PUSH2 0x997 PUSH2 0x1242 JUMP JUMPDEST DUP2 MSTORE PUSH1 0x20 ADD SWAP1 DUP2 MSTORE PUSH1 0x20 ADD PUSH1 0x0 KECCAK256 PUSH1 0x0 PUSH2 0x100 EXP DUP2 SLOAD DUP2 PUSH1 0x1 PUSH1 0x1 PUSH1 0xA0 SHL SUB MUL NOT AND SWAP1 DUP4 PUSH1 0x1 PUSH1 0x1 PUSH1 0xA0 SHL SUB AND MUL OR SWAP1 SSTORE POP POP JUMP JUMPDEST PUSH1 0x2 PUSH1 0x0 MSTORE PUSH1 0x1 PUSH1 0x20 MSTORE PUSH1 0x0 DUP1 MLOAD PUSH1 0x20 PUSH2 0x1502 DUP4 CODECOPY DUP2 MLOAD SWAP2 MSTORE SLOAD PUSH1 0x1 PUSH1 0x1 PUSH1 0xA0 SHL SUB AND CALLER EQ DUP1 PUSH2 0xA1C JUMPI POP PUSH1 0x0 DUP1 MSTORE PUSH1 0x1 PUSH1 0x20 MSTORE PUSH1 0x0 DUP1 MLOAD PUSH1 0x20 PUSH2 0x14C2 DUP4 CODECOPY DUP2 MLOAD SWAP2 MSTORE SLOAD PUSH1 0x1 PUSH1 0x1 PUSH1 0xA0 SHL SUB AND CALLER EQ JUMPDEST DUP1 PUSH2 0xA48 JUMPI POP PUSH1 0x1 PUSH1 0x0 DUP2 SWAP1 MSTORE PUSH1 0x20 MSTORE PUSH1 0x0 DUP1 MLOAD PUSH1 0x20 PUSH2 0x14E2 DUP4 CODECOPY DUP2 MLOAD SWAP2 MSTORE SLOAD PUSH1 0x1 PUSH1 0x1 PUSH1 0xA0 SHL SUB AND CALLER EQ JUMPDEST PUSH2 0xA8C JUMPI PUSH1 0x40 MLOAD PUSH3 0x461BCD PUSH1 0xE5 SHL DUP2 MSTORE PUSH1 0x20 PUSH1 0x4 DUP3 ADD MSTORE PUSH1 0x15 PUSH1 0x24 DUP3 ADD MSTORE PUSH21 0x1BDB9B1E481D195858DA195C9CC819DC985B9D1959 PUSH1 0x5A SHL PUSH1 0x44 DUP3 ADD MSTORE PUSH1 0x64 ADD PUSH2 0x966 JUMP JUMPDEST PUSH2 0xA96 DUP5 DUP5 PUSH2 0xF41 JUMP JUMPDEST PUSH1 0x0 PUSH1 0x2 DUP6 DUP6 PUSH1 0x40 MLOAD PUSH2 0xAAA SWAP3 SWAP2 SWAP1 PUSH2 0x1232 JUMP JUMPDEST SWAP1 DUP2 MSTORE PUSH1 0x40 MLOAD PUSH1 0x20 SWAP2 DUP2 SWAP1 SUB DUP3 ADD SWAP1 KECCAK256 PUSH1 0x2 PUSH1 0x0 MSTORE PUSH1 0x1 SWAP1 SWAP2 MSTORE PUSH1 0x0 DUP1 MLOAD PUSH1 0x20 PUSH2 0x1502 DUP4 CODECOPY DUP2 MLOAD SWAP2 MSTORE SLOAD SWAP1 SWAP2 POP PUSH1 0x1 PUSH1 0x1 PUSH1 0xA0 SHL SUB AND CALLER SUB PUSH2 0xB4F JUMPI DUP3 DUP2 PUSH1 0x0 PUSH1 0x2 JUMPDEST PUSH1 0x2 DUP2 GT ISZERO PUSH2 0xAFE JUMPI PUSH2 0xAFE PUSH2 0x1242 JUMP JUMPDEST DUP2 MSTORE PUSH1 0x20 ADD SWAP1 DUP2 MSTORE PUSH1 0x20 ADD PUSH1 0x0 KECCAK256 DUP4 PUSH1 0xFF AND DUP2 SLOAD DUP2 LT PUSH2 0xB20 JUMPI PUSH2 0xB20 PUSH2 0x1258 JUMP JUMPDEST SWAP1 PUSH1 0x0 MSTORE PUSH1 0x20 PUSH1 0x0 KECCAK256 SWAP1 PUSH1 0x20 SWAP2 DUP3 DUP3 DIV ADD SWAP2 SWAP1 MOD PUSH2 0x100 EXP DUP2 SLOAD DUP2 PUSH1 0xFF MUL NOT AND SWAP1 DUP4 PUSH1 0xFF AND MUL OR SWAP1 SSTORE POP PUSH2 0xBFD JUMP JUMPDEST PUSH1 0x0 DUP1 MSTORE PUSH1 0x1 PUSH1 0x20 MSTORE PUSH1 0x0 DUP1 MLOAD PUSH1 0x20 PUSH2 0x14C2 DUP4 CODECOPY DUP2 MLOAD SWAP2 MSTORE SLOAD PUSH1 0x1 PUSH1 0x1 PUSH1 0xA0 SHL SUB AND CALLER SUB PUSH2 0xB81 JUMPI DUP3 DUP2 PUSH1 0x0 DUP1 PUSH2 0xAED JUMP JUMPDEST PUSH1 0x1 PUSH1 0x0 DUP2 SWAP1 MSTORE PUSH1 0x20 MSTORE PUSH1 0x0 DUP1 MLOAD PUSH1 0x20 PUSH2 0x14E2 DUP4 CODECOPY DUP2 MLOAD SWAP2 MSTORE SLOAD PUSH1 0x1 PUSH1 0x1 PUSH1 0xA0 SHL SUB AND CALLER SUB PUSH2 0xBFD JUMPI DUP3 DUP2 PUSH1 0x0 PUSH1 0x1 DUP2 MSTORE PUSH1 0x20 ADD SWAP1 DUP2 MSTORE PUSH1 0x20 ADD PUSH1 0x0 KECCAK256 DUP4 PUSH1 0xFF AND DUP2 SLOAD DUP2 LT PUSH2 0xBD2 JUMPI PUSH2 0xBD2 PUSH2 0x1258 JUMP JUMPDEST SWAP1 PUSH1 0x0 MSTORE PUSH1 0x20 PUSH1 0x0 KECCAK256 SWAP1 PUSH1 0x20 SWAP2 DUP3 DUP3 DIV ADD SWAP2 SWAP1 MOD PUSH2 0x100 EXP DUP2 SLOAD DUP2 PUSH1 0xFF MUL NOT AND SWAP1 DUP4 PUSH1 0xFF AND MUL OR SWAP1 SSTORE POP JUMPDEST POP POP POP POP POP JUMP JUMPDEST PUSH2 0xC0C PUSH2 0xE97 JUMP JUMPDEST PUSH1 0x1 PUSH1 0x1 PUSH1 0xA0 SHL SUB DUP2 AND PUSH2 0xC71 JUMPI PUSH1 0x40 MLOAD PUSH3 0x461BCD PUSH1 0xE5 SHL DUP2 MSTORE PUSH1 0x20 PUSH1 0x4 DUP3 ADD MSTORE PUSH1 0x26 PUSH1 0x24 DUP3 ADD MSTORE PUSH32 0x4F776E61626C653A206E6577206F776E657220697320746865207A65726F2061 PUSH1 0x44 DUP3 ADD MSTORE PUSH6 0x646472657373 PUSH1 0xD0 SHL PUSH1 0x64 DUP3 ADD MSTORE PUSH1 0x84 ADD PUSH2 0x966 JUMP JUMPDEST PUSH2 0xC7A DUP2 PUSH2 0xEF1 JUMP JUMPDEST POP JUMP JUMPDEST PUSH1 0x2 PUSH1 0x0 MSTORE PUSH1 0x1 PUSH1 0x20 MSTORE PUSH1 0x0 DUP1 MLOAD PUSH1 0x20 PUSH2 0x1502 DUP4 CODECOPY DUP2 MLOAD SWAP2 MSTORE SLOAD PUSH1 0x1 PUSH1 0x1 PUSH1 0xA0 SHL SUB AND CALLER EQ DUP1 PUSH2 0xCCD JUMPI POP PUSH1 0x0 DUP1 MSTORE PUSH1 0x1 PUSH1 0x20 MSTORE PUSH1 0x0 DUP1 MLOAD PUSH1 0x20 PUSH2 0x14C2 DUP4 CODECOPY DUP2 MLOAD SWAP2 MSTORE SLOAD PUSH1 0x1 PUSH1 0x1 PUSH1 0xA0 SHL SUB AND CALLER EQ JUMPDEST DUP1 PUSH2 0xCF9 JUMPI POP PUSH1 0x1 PUSH1 0x0 DUP2 SWAP1 MSTORE PUSH1 0x20 MSTORE PUSH1 0x0 DUP1 MLOAD PUSH1 0x20 PUSH2 0x14E2 DUP4 CODECOPY DUP2 MLOAD SWAP2 MSTORE SLOAD PUSH1 0x1 PUSH1 0x1 PUSH1 0xA0 SHL SUB AND CALLER EQ JUMPDEST PUSH2 0xD3D JUMPI PUSH1 0x40 MLOAD PUSH3 0x461BCD PUSH1 0xE5 SHL DUP2 MSTORE PUSH1 0x20 PUSH1 0x4 DUP3 ADD MSTORE PUSH1 0x15 PUSH1 0x24 DUP3 ADD MSTORE PUSH21 0x1BDB9B1E481D195858DA195C9CC819DC985B9D1959 PUSH1 0x5A SHL PUSH1 0x44 DUP3 ADD MSTORE PUSH1 0x64 ADD PUSH2 0x966 JUMP JUMPDEST PUSH2 0xD47 DUP4 DUP4 PUSH2 0xF41 JUMP JUMPDEST PUSH1 0x0 PUSH1 0x2 DUP5 DUP5 PUSH1 0x40 MLOAD PUSH2 0xD5B SWAP3 SWAP2 SWAP1 PUSH2 0x1232 JUMP JUMPDEST SWAP1 DUP2 MSTORE PUSH1 0x40 MLOAD PUSH1 0x20 SWAP2 DUP2 SWAP1 SUB DUP3 ADD SWAP1 KECCAK256 PUSH1 0x2 PUSH1 0x0 MSTORE PUSH1 0x1 SWAP1 SWAP2 MSTORE PUSH1 0x0 DUP1 MLOAD PUSH1 0x20 PUSH2 0x1502 DUP4 CODECOPY DUP2 MLOAD SWAP2 MSTORE SLOAD SWAP1 SWAP2 POP PUSH1 0x1 PUSH1 0x1 PUSH1 0xA0 SHL SUB AND CALLER SUB PUSH2 0xDF8 JUMPI DUP1 PUSH1 0x0 PUSH1 0x2 JUMPDEST PUSH1 0x2 DUP2 GT ISZERO PUSH2 0xDAE JUMPI PUSH2 0xDAE PUSH2 0x1242 JUMP JUMPDEST DUP2 MSTORE PUSH1 0x20 DUP1 DUP3 ADD SWAP3 SWAP1 SWAP3 MSTORE PUSH1 0x40 ADD PUSH1 0x0 SWAP1 DUP2 KECCAK256 DUP1 SLOAD PUSH1 0x1 DUP2 ADD DUP3 SSTORE SWAP1 DUP3 MSTORE SWAP1 DUP3 SWAP1 KECCAK256 SWAP2 DUP2 DIV SWAP1 SWAP2 ADD DUP1 SLOAD PUSH1 0xFF DUP1 DUP7 AND PUSH1 0x1F SWAP1 SWAP5 AND PUSH2 0x100 EXP SWAP4 DUP5 MUL SWAP4 MUL NOT AND SWAP2 SWAP1 SWAP2 OR SWAP1 SSTORE PUSH2 0xE91 JUMP JUMPDEST PUSH1 0x0 DUP1 MSTORE PUSH1 0x1 PUSH1 0x20 MSTORE PUSH1 0x0 DUP1 MLOAD PUSH1 0x20 PUSH2 0x14C2 DUP4 CODECOPY DUP2 MLOAD SWAP2 MSTORE SLOAD PUSH1 0x1 PUSH1 0x1 PUSH1 0xA0 SHL SUB AND CALLER SUB PUSH2 0xE29 JUMPI DUP1 PUSH1 0x0 DUP1 PUSH2 0xD9D JUMP JUMPDEST PUSH1 0x1 PUSH1 0x0 DUP2 SWAP1 MSTORE PUSH1 0x20 MSTORE PUSH1 0x0 DUP1 MLOAD PUSH1 0x20 PUSH2 0x14E2 DUP4 CODECOPY DUP2 MLOAD SWAP2 MSTORE SLOAD PUSH1 0x1 PUSH1 0x1 PUSH1 0xA0 SHL SUB AND CALLER SUB PUSH2 0xE91 JUMPI PUSH1 0x1 PUSH1 0x0 DUP2 DUP2 MSTORE PUSH1 0x20 DUP4 DUP2 MSTORE PUSH1 0x40 DUP3 KECCAK256 DUP1 SLOAD SWAP4 DUP5 ADD DUP2 SSTORE DUP3 MSTORE SWAP1 DUP2 SWAP1 KECCAK256 SWAP1 DUP3 DIV ADD DUP1 SLOAD PUSH1 0xFF DUP6 DUP2 AND PUSH1 0x1F SWAP1 SWAP5 AND PUSH2 0x100 EXP SWAP4 DUP5 MUL SWAP4 MUL NOT AND SWAP2 SWAP1 SWAP2 OR SWAP1 SSTORE JUMPDEST POP POP POP POP JUMP JUMPDEST PUSH1 0x0 SLOAD PUSH1 0x1 PUSH1 0x1 PUSH1 0xA0 SHL SUB AND CALLER EQ PUSH2 0x385 JUMPI PUSH1 0x40 MLOAD PUSH3 0x461BCD PUSH1 0xE5 SHL DUP2 MSTORE PUSH1 0x20 PUSH1 0x4 DUP3 ADD DUP2 SWAP1 MSTORE PUSH1 0x24 DUP3 ADD MSTORE PUSH32 0x4F776E61626C653A2063616C6C6572206973206E6F7420746865206F776E6572 PUSH1 0x44 DUP3 ADD MSTORE PUSH1 0x64 ADD PUSH2 0x966 JUMP JUMPDEST PUSH1 0x0 DUP1 SLOAD PUSH1 0x1 PUSH1 0x1 PUSH1 0xA0 SHL SUB DUP4 DUP2 AND PUSH1 0x1 PUSH1 0x1 PUSH1 0xA0 SHL SUB NOT DUP4 AND DUP2 OR DUP5 SSTORE PUSH1 0x40 MLOAD SWAP2 SWAP1 SWAP3 AND SWAP3 DUP4 SWAP2 PUSH32 0x8BE0079C531659141344CD1FD0A4F28419497F9722A3DAAFE3B4186F6B6457E0 SWAP2 SWAP1 LOG3 POP POP JUMP JUMPDEST PUSH1 0x2 DUP3 DUP3 PUSH1 0x40 MLOAD PUSH2 0xF53 SWAP3 SWAP2 SWAP1 PUSH2 0x1232 JUMP JUMPDEST SWAP1 DUP2 MSTORE PUSH1 0x40 MLOAD SWAP1 DUP2 SWAP1 SUB PUSH1 0x20 ADD SWAP1 KECCAK256 PUSH1 0x1 ADD SLOAD PUSH1 0xFF AND PUSH2 0xFE3 JUMPI PUSH1 0x3 DUP1 SLOAD PUSH1 0x1 DUP2 ADD DUP3 SSTORE PUSH1 0x0 SWAP2 SWAP1 SWAP2 MSTORE PUSH32 0xC2575A0E9E593C00F959F8C92F12DB2869C3395A3B0502D05E2516446F71F85B ADD PUSH2 0xFAA DUP3 DUP5 DUP4 PUSH2 0x1401 JUMP JUMPDEST POP PUSH1 0x1 PUSH1 0x2 DUP4 DUP4 PUSH1 0x40 MLOAD PUSH2 0xFBF SWAP3 SWAP2 SWAP1 PUSH2 0x1232 JUMP JUMPDEST SWAP1 DUP2 MSTORE PUSH1 0x40 MLOAD SWAP1 DUP2 SWAP1 SUB PUSH1 0x20 ADD SWAP1 KECCAK256 PUSH1 0x1 ADD DUP1 SLOAD SWAP2 ISZERO ISZERO PUSH1 0xFF NOT SWAP1 SWAP3 AND SWAP2 SWAP1 SWAP2 OR SWAP1 SSTORE JUMPDEST POP POP JUMP JUMPDEST PUSH1 0x0 DUP1 DUP4 PUSH1 0x1F DUP5 ADD SLT PUSH2 0xFF9 JUMPI PUSH1 0x0 DUP1 REVERT JUMPDEST POP DUP2 CALLDATALOAD PUSH8 0xFFFFFFFFFFFFFFFF DUP2 GT ISZERO PUSH2 0x1011 JUMPI PUSH1 0x0 DUP1 REVERT JUMPDEST PUSH1 0x20 DUP4 ADD SWAP2 POP DUP4 PUSH1 0x20 DUP3 DUP6 ADD ADD GT ISZERO PUSH2 0x1029 JUMPI PUSH1 0x0 DUP1 REVERT JUMPDEST SWAP3 POP SWAP3 SWAP1 POP JUMP JUMPDEST DUP1 CALLDATALOAD PUSH1 0x3 DUP2 LT PUSH2 0x103F JUMPI PUSH1 0x0 DUP1 REVERT JUMPDEST SWAP2 SWAP1 POP JUMP JUMPDEST DUP1 CALLDATALOAD PUSH1 0xFF DUP2 AND DUP2 EQ PUSH2 0x103F JUMPI PUSH1 0x0 DUP1 REVERT JUMPDEST PUSH1 0x0 DUP1 PUSH1 0x0 DUP1 PUSH1 0x60 DUP6 DUP8 SUB SLT ISZERO PUSH2 0x106B JUMPI PUSH1 0x0 DUP1 REVERT JUMPDEST DUP5 CALLDATALOAD PUSH8 0xFFFFFFFFFFFFFFFF DUP2 GT ISZERO PUSH2 0x1082 JUMPI PUSH1 0x0 DUP1 REVERT JUMPDEST PUSH2 0x108E DUP8 DUP3 DUP9 ADD PUSH2 0xFE7 JUMP JUMPDEST SWAP1 SWAP6 POP SWAP4 POP PUSH2 0x10A1 SWAP1 POP PUSH1 0x20 DUP7 ADD PUSH2 0x1030 JUMP JUMPDEST SWAP2 POP PUSH2 0x10AF PUSH1 0x40 DUP7 ADD PUSH2 0x1044 JUMP JUMPDEST SWAP1 POP SWAP3 SWAP6 SWAP2 SWAP5 POP SWAP3 POP JUMP JUMPDEST PUSH1 0x0 PUSH1 0x20 DUP3 DUP5 SUB SLT ISZERO PUSH2 0x10CC JUMPI PUSH1 0x0 DUP1 REVERT JUMPDEST PUSH2 0x10D5 DUP3 PUSH2 0x1030 JUMP JUMPDEST SWAP4 SWAP3 POP POP POP JUMP JUMPDEST PUSH1 0x0 DUP1 PUSH1 0x20 DUP4 DUP6 SUB SLT ISZERO PUSH2 0x10EF JUMPI PUSH1 0x0 DUP1 REVERT JUMPDEST DUP3 CALLDATALOAD PUSH8 0xFFFFFFFFFFFFFFFF DUP2 GT ISZERO PUSH2 0x1106 JUMPI PUSH1 0x0 DUP1 REVERT JUMPDEST PUSH2 0x1112 DUP6 DUP3 DUP7 ADD PUSH2 0xFE7 JUMP JUMPDEST SWAP1 SWAP7 SWAP1 SWAP6 POP SWAP4 POP POP POP POP JUMP JUMPDEST PUSH1 0x0 DUP1 PUSH1 0x0 PUSH1 0x40 DUP5 DUP7 SUB SLT ISZERO PUSH2 0x1133 JUMPI PUSH1 0x0 DUP1 REVERT JUMPDEST DUP4 CALLDATALOAD PUSH8 0xFFFFFFFFFFFFFFFF DUP2 GT ISZERO PUSH2 0x114A JUMPI PUSH1 0x0 DUP1 REVERT JUMPDEST PUSH2 0x1156 DUP7 DUP3 DUP8 ADD PUSH2 0xFE7 JUMP JUMPDEST SWAP1 SWAP5 POP SWAP3 POP PUSH2 0x1169 SWAP1 POP PUSH1 0x20 DUP6 ADD PUSH2 0x1030 JUMP JUMPDEST SWAP1 POP SWAP3 POP SWAP3 POP SWAP3 JUMP JUMPDEST PUSH1 0x0 DUP1 PUSH1 0x0 DUP1 PUSH1 0x60 DUP6 DUP8 SUB SLT ISZERO PUSH2 0x1188 JUMPI PUSH1 0x0 DUP1 REVERT JUMPDEST DUP5 CALLDATALOAD PUSH8 0xFFFFFFFFFFFFFFFF DUP2 GT ISZERO PUSH2 0x119F JUMPI PUSH1 0x0 DUP1 REVERT JUMPDEST PUSH2 0x11AB DUP8 DUP3 DUP9 ADD PUSH2 0xFE7 JUMP JUMPDEST SWAP1 SWAP6 POP SWAP4 POP PUSH2 0x10A1 SWAP1 POP PUSH1 0x20 DUP7 ADD PUSH2 0x1044 JUMP JUMPDEST PUSH1 0x0 PUSH1 0x20 DUP3 DUP5 SUB SLT ISZERO PUSH2 0x11D0 JUMPI PUSH1 0x0 DUP1 REVERT JUMPDEST DUP2 CALLDATALOAD PUSH1 0x1 PUSH1 0x1 PUSH1 0xA0 SHL SUB DUP2 AND DUP2 EQ PUSH2 0x10D5 JUMPI PUSH1 0x0 DUP1 REVERT JUMPDEST PUSH1 0x0 DUP1 PUSH1 0x0 PUSH1 0x40 DUP5 DUP7 SUB SLT ISZERO PUSH2 0x11FC JUMPI PUSH1 0x0 DUP1 REVERT JUMPDEST DUP4 CALLDATALOAD PUSH8 0xFFFFFFFFFFFFFFFF DUP2 GT ISZERO PUSH2 0x1213 JUMPI PUSH1 0x0 DUP1 REVERT JUMPDEST PUSH2 0x121F DUP7 DUP3 DUP8 ADD PUSH2 0xFE7 JUMP JUMPDEST SWAP1 SWAP5 POP SWAP3 POP PUSH2 0x1169 SWAP1 POP PUSH1 0x20 DUP6 ADD PUSH2 0x1044 JUMP JUMPDEST DUP2 DUP4 DUP3 CALLDATACOPY PUSH1 0x0 SWAP2 ADD SWAP1 DUP2 MSTORE SWAP2 SWAP1 POP JUMP JUMPDEST PUSH4 0x4E487B71 PUSH1 0xE0 SHL PUSH1 0x0 MSTORE PUSH1 0x21 PUSH1 0x4 MSTORE PUSH1 0x24 PUSH1 0x0 REVERT JUMPDEST PUSH4 0x4E487B71 PUSH1 0xE0 SHL PUSH1 0x0 MSTORE PUSH1 0x32 PUSH1 0x4 MSTORE PUSH1 0x24 PUSH1 0x0 REVERT JUMPDEST PUSH1 0x1 DUP2 DUP2 SHR SWAP1 DUP3 AND DUP1 PUSH2 0x1282 JUMPI PUSH1 0x7F DUP3 AND SWAP2 POP JUMPDEST PUSH1 0x20 DUP3 LT DUP2 SUB PUSH2 0x12A2 JUMPI PUSH4 0x4E487B71 PUSH1 0xE0 SHL PUSH1 0x0 MSTORE PUSH1 0x22 PUSH1 0x4 MSTORE PUSH1 0x24 PUSH1 0x0 REVERT JUMPDEST POP SWAP2 SWAP1 POP JUMP JUMPDEST PUSH1 0x0 DUP1 DUP4 SLOAD PUSH2 0x12B6 DUP2 PUSH2 0x126E JUMP JUMPDEST PUSH1 0x1 DUP3 DUP2 AND DUP1 ISZERO PUSH2 0x12CE JUMPI PUSH1 0x1 DUP2 EQ PUSH2 0x12E3 JUMPI PUSH2 0x1312 JUMP JUMPDEST PUSH1 0xFF NOT DUP5 AND DUP8 MSTORE DUP3 ISZERO ISZERO DUP4 MUL DUP8 ADD SWAP5 POP PUSH2 0x1312 JUMP JUMPDEST DUP8 PUSH1 0x0 MSTORE PUSH1 0x20 DUP1 PUSH1 0x0 KECCAK256 PUSH1 0x0 JUMPDEST DUP6 DUP2 LT ISZERO PUSH2 0x1309 JUMPI DUP2 SLOAD DUP11 DUP3 ADD MSTORE SWAP1 DUP5 ADD SWAP1 DUP3 ADD PUSH2 0x12F0 JUMP JUMPDEST POP POP POP DUP3 DUP8 ADD SWAP5 POP JUMPDEST POP SWAP3 SWAP7 SWAP6 POP POP POP POP POP POP JUMP JUMPDEST PUSH4 0x4E487B71 PUSH1 0xE0 SHL PUSH1 0x0 MSTORE PUSH1 0x11 PUSH1 0x4 MSTORE PUSH1 0x24 PUSH1 0x0 REVERT JUMPDEST PUSH1 0xFF DUP2 DUP2 AND DUP4 DUP3 AND ADD SWAP1 DUP2 GT ISZERO PUSH2 0x797 JUMPI PUSH2 0x797 PUSH2 0x131E JUMP JUMPDEST PUSH1 0x0 PUSH1 0xFF DUP3 AND PUSH1 0xFF DUP2 SUB PUSH2 0x1363 JUMPI PUSH2 0x1363 PUSH2 0x131E JUMP JUMPDEST PUSH1 0x1 ADD SWAP3 SWAP2 POP POP JUMP JUMPDEST PUSH1 0x0 PUSH1 0xFF DUP4 AND DUP1 PUSH2 0x138D JUMPI PUSH4 0x4E487B71 PUSH1 0xE0 SHL PUSH1 0x0 MSTORE PUSH1 0x12 PUSH1 0x4 MSTORE PUSH1 0x24 PUSH1 0x0 REVERT JUMPDEST DUP1 PUSH1 0xFF DUP5 AND DIV SWAP2 POP POP SWAP3 SWAP2 POP POP JUMP JUMPDEST PUSH4 0x4E487B71 PUSH1 0xE0 SHL PUSH1 0x0 MSTORE PUSH1 0x41 PUSH1 0x4 MSTORE PUSH1 0x24 PUSH1 0x0 REVERT JUMPDEST PUSH1 0x1F DUP3 GT ISZERO PUSH2 0x13FC JUMPI PUSH1 0x0 DUP2 DUP2 MSTORE PUSH1 0x20 DUP2 KECCAK256 PUSH1 0x1F DUP6 ADD PUSH1 0x5 SHR DUP2 ADD PUSH1 0x20 DUP7 LT ISZERO PUSH2 0x13D9 JUMPI POP DUP1 JUMPDEST PUSH1 0x1F DUP6 ADD PUSH1 0x5 SHR DUP3 ADD SWAP2 POP JUMPDEST DUP2 DUP2 LT ISZERO PUSH2 0x13F8 JUMPI DUP3 DUP2 SSTORE PUSH1 0x1 ADD PUSH2 0x13E5 JUMP JUMPDEST POP POP POP JUMPDEST POP POP POP JUMP JUMPDEST PUSH8 0xFFFFFFFFFFFFFFFF DUP4 GT ISZERO PUSH2 0x1419 JUMPI PUSH2 0x1419 PUSH2 0x139C JUMP JUMPDEST PUSH2 0x142D DUP4 PUSH2 0x1427 DUP4 SLOAD PUSH2 0x126E JUMP JUMPDEST DUP4 PUSH2 0x13B2 JUMP JUMPDEST PUSH1 0x0 PUSH1 0x1F DUP5 GT PUSH1 0x1 DUP2 EQ PUSH2 0x1461 JUMPI PUSH1 0x0 DUP6 ISZERO PUSH2 0x1449 JUMPI POP DUP4 DUP3 ADD CALLDATALOAD JUMPDEST PUSH1 0x0 NOT PUSH1 0x3 DUP8 SWAP1 SHL SHR NOT AND PUSH1 0x1 DUP7 SWAP1 SHL OR DUP4 SSTORE PUSH2 0xBFD JUMP JUMPDEST PUSH1 0x0 DUP4 DUP2 MSTORE PUSH1 0x20 SWAP1 KECCAK256 PUSH1 0x1F NOT DUP7 AND SWAP1 DUP4 JUMPDEST DUP3 DUP2 LT ISZERO PUSH2 0x1492 JUMPI DUP7 DUP6 ADD CALLDATALOAD DUP3 SSTORE PUSH1 0x20 SWAP5 DUP6 ADD SWAP5 PUSH1 0x1 SWAP1 SWAP3 ADD SWAP2 ADD PUSH2 0x1472 JUMP JUMPDEST POP DUP7 DUP3 LT ISZERO PUSH2 0x14AF JUMPI PUSH1 0x0 NOT PUSH1 0xF8 DUP9 PUSH1 0x3 SHL AND SHR NOT DUP5 DUP8 ADD CALLDATALOAD AND DUP2 SSTORE JUMPDEST POP POP PUSH1 0x1 DUP6 PUSH1 0x1 SHL ADD DUP4 SSTORE POP POP POP POP POP JUMP INVALID 0xA6 0xEE 0xF7 0xE3 GAS 0xBE PUSH17 0x26729641147F7915573C7E97B47EFA546F 0x5F PUSH15 0x3230263BCB49CC69885FDA6BCC1A4A 0xCE SDIV DUP12 0x4A PUSH3 0xBF5E17 SWAP15 0xA7 DUP16 0xD5 DUP11 SHR 0xCD PUSH18 0xC22CC9B688792FD9D16D34FFB15BA3A3D852 CREATE 0xD4 SUB 0xE2 0xCE SAR PUSH10 0x1FB54DE27AC87CD2F993 RETURN 0xEC CALLER 0xF LOG2 PUSH5 0x6970667358 0x22 SLT KECCAK256 SWAP13 0xB2 0xE5 OR 0xAA DUP4 0xCA 0xB4 0xAC 0xE9 SELFBALANCE SWAP14 PUSH12 0xC248A26C8FC792E10714E09 SWAP9 0x2F PUSH20 0x5B3800CC64736F6C634300081100330000000000 "},"gasEstimates":{"creation":{"codeDepositCost":"1092600","executionCost":"26975","totalCost":"1119575"},"external":{"addNote(string,uint8)":"infinite","getGlobalAverage()":"infinite","getGlobalSubjectAverage(uint8)":"infinite","getNote(string,uint8,uint8)":"infinite","getStudentAverage(string)":"infinite","getStudentSubjectAverage(string,uint8)":"infinite","owner()":"2301","registerTeacher(uint8)":"27027","renounceOwnership()":"infinite","setNote(string,uint8,uint8)":"infinite","transferOwnership(address)":"28386"},"internal":{"registerStudentIfNotExist(string calldata)":"infinite"}},"methodIdentifiers":{"addNote(string,uint8)":"ffc434ad","getGlobalAverage()":"8520c08d","getGlobalSubjectAverage(uint8)":"2c70b4db","getNote(string,uint8,uint8)":"057a0629","getStudentAverage(string)":"89ad0420","getStudentSubjectAverage(string,uint8)":"99b9a34c","owner()":"8da5cb5b","registerTeacher(uint8)":"c04a8f7d","renounceOwnership()":"715018a6","setNote(string,uint8,uint8)":"d4c5ae68","transferOwnership(address)":"f2fde38b"}},"storageLayout":{"storage":[{"astId":7,"contract":"contracts/exercices/Notes.sol:Notes","label":"_owner","offset":0,"slot":"0","type":"t_address"},{"astId":1978,"contract":"contracts/exercices/Notes.sol:Notes","label":"teachers","offset":0,"slot":"1","type":"t_mapping(t_enum(Subject)1964,t_address)"},{"astId":1983,"contract":"contracts/exercices/Notes.sol:Notes","label":"students","offset":0,"slot":"2","type":"t_mapping(t_string_memory_ptr,t_struct(Student)1973_storage)"},{"astId":1986,"contract":"contracts/exercices/Notes.sol:Notes","label":"studentNames","offset":0,"slot":"3","type":"t_array(t_string_storage)dyn_storage"}],"types":{"t_address":{"encoding":"inplace","label":"address","numberOfBytes":"20"},"t_array(t_string_storage)dyn_storage":{"base":"t_string_storage","encoding":"dynamic_array","label":"string[]","numberOfBytes":"32"},"t_array(t_uint8)dyn_storage":{"base":"t_uint8","encoding":"dynamic_array","label":"uint8[]","numberOfBytes":"32"},"t_bool":{"encoding":"inplace","label":"bool","numberOfBytes":"1"},"t_enum(Subject)1964":{"encoding":"inplace","label":"enum Notes.Subject","numberOfBytes":"1"},"t_mapping(t_enum(Subject)1964,t_address)":{"encoding":"mapping","key":"t_enum(Subject)1964","label":"mapping(enum Notes.Subject => address)","numberOfBytes":"32","value":"t_address"},"t_mapping(t_enum(Subject)1964,t_array(t_uint8)dyn_storage)":{"encoding":"mapping","key":"t_enum(Subject)1964","label":"mapping(enum Notes.Subject => uint8[])","numberOfBytes":"32","value":"t_array(t_uint8)dyn_storage"},"t_mapping(t_string_memory_ptr,t_struct(Student)1973_storage)":{"encoding":"mapping","key":"t_string_memory_ptr","label":"mapping(string => struct Notes.Student)","numberOfBytes":"32","value":"t_struct(Student)1973_storage"},"t_string_memory_ptr":{"encoding":"bytes","label":"string","numberOfBytes":"32"},"t_string_storage":{"encoding":"bytes","label":"string","numberOfBytes":"32"},"t_struct(Student)1973_storage":{"encoding":"inplace","label":"struct Notes.Student","members":[{"astId":1970,"contract":"contracts/exercices/Notes.sol:Notes","label":"notes","offset":0,"slot":"0","type":"t_mapping(t_enum(Subject)1964,t_array(t_uint8)dyn_storage)"},{"astId":1972,"contract":"contracts/exercices/Notes.sol:Notes","label":"exists","offset":0,"slot":"1","type":"t_bool"}],"numberOfBytes":"64"},"t_uint8":{"encoding":"inplace","label":"uint8","numberOfBytes":"1"}}},"userdoc":{"kind":"user","methods":{},"version":1}}}}