{"contracts/exercices/SPA.sol":{"SPA":{"abi":[{"anonymous":false,"inputs":[{"indexed":false,"internalType":"uint256","name":"id","type":"uint256"}],"name":"AnimalAdopted","type":"event"},{"anonymous":false,"inputs":[{"indexed":false,"internalType":"uint256","name":"id","type":"uint256"}],"name":"AnimalDied","type":"event"},{"anonymous":false,"inputs":[{"indexed":false,"internalType":"uint256","name":"id","type":"uint256"},{"indexed":false,"internalType":"string","name":"race","type":"string"},{"indexed":false,"internalType":"uint256","name":"taille","type":"uint256"},{"indexed":false,"internalType":"uint256","name":"age","type":"uint256"}],"name":"NewAnimalAvailable","type":"event"},{"inputs":[{"internalType":"string","name":"_race","type":"string"},{"internalType":"uint256","name":"_taille","type":"uint256"},{"internalType":"uint256","name":"_age","type":"uint256"}],"name":"addAnimal","outputs":[],"stateMutability":"nonpayable","type":"function"},{"inputs":[{"internalType":"string","name":"_race","type":"string"},{"internalType":"uint256","name":"_taille","type":"uint256"},{"internalType":"uint256","name":"_age","type":"uint256"}],"name":"adoptByCriteria","outputs":[],"stateMutability":"nonpayable","type":"function"},{"inputs":[{"internalType":"uint256","name":"id","type":"uint256"}],"name":"adoptById","outputs":[],"stateMutability":"nonpayable","type":"function"},{"inputs":[{"internalType":"address","name":"master","type":"address"}],"name":"adoptedBy","outputs":[{"components":[{"internalType":"string","name":"race","type":"string"},{"internalType":"uint256","name":"taille","type":"uint256"},{"internalType":"uint256","name":"age","type":"uint256"},{"internalType":"bool","name":"isAdopted","type":"bool"}],"internalType":"struct SPA.Animal","name":"","type":"tuple"}],"stateMutability":"view","type":"function"},{"inputs":[{"internalType":"uint256","name":"","type":"uint256"}],"name":"animals","outputs":[{"internalType":"string","name":"race","type":"string"},{"internalType":"uint256","name":"taille","type":"uint256"},{"internalType":"uint256","name":"age","type":"uint256"},{"internalType":"bool","name":"isAdopted","type":"bool"}],"stateMutability":"view","type":"function"},{"inputs":[{"internalType":"uint256","name":"id","type":"uint256"}],"name":"getAnimal","outputs":[{"components":[{"internalType":"string","name":"race","type":"string"},{"internalType":"uint256","name":"taille","type":"uint256"},{"internalType":"uint256","name":"age","type":"uint256"},{"internalType":"bool","name":"isAdopted","type":"bool"}],"internalType":"struct SPA.Animal","name":"","type":"tuple"}],"stateMutability":"view","type":"function"},{"inputs":[{"internalType":"address","name":"","type":"address"}],"name":"masters","outputs":[{"internalType":"uint256","name":"","type":"uint256"}],"stateMutability":"view","type":"function"},{"inputs":[{"internalType":"uint256","name":"animalId","type":"uint256"}],"name":"removeAnimal","outputs":[],"stateMutability":"nonpayable","type":"function"},{"inputs":[{"internalType":"uint256","name":"id","type":"uint256"},{"internalType":"string","name":"_race","type":"string"},{"internalType":"uint256","name":"_taille","type":"uint256"},{"internalType":"uint256","name":"_age","type":"uint256"}],"name":"setAnimal","outputs":[],"stateMutability":"nonpayable","type":"function"}],"devdoc":{"kind":"dev","methods":{},"version":1},"evm":{"bytecode":{"linkReferences":{},"object":"608060405234801561001057600080fd5b50610e2a806100206000396000f3fe608060405234801561001057600080fd5b50600436106100935760003560e01c80637a38a106116100665780637a38a106146100fc5780637e6000d41461012a578063998dd3ca1461013d578063a0a9f55114610160578063e4910bb51461017357600080fd5b80634238a69b146100985780634397dffc146100ad57806345d3cc81146100c057806379def63b146100e9575b600080fd5b6100ab6100a63660046108a9565b610186565b005b6100ab6100bb36600461090b565b61024a565b6100d36100ce3660046108a9565b61041b565b6040516100e091906109a2565b60405180910390f35b6100d36100f73660046109ea565b610530565b61011c61010a3660046109ea565b60016020526000908152604090205481565b6040519081526020016100e0565b6100ab61013836600461090b565b610586565b61015061014b3660046108a9565b610682565b6040516100e09493929190610a1a565b6100ab61016e366004610a4b565b61074f565b6100ab6101813660046108a9565b6107dc565b6000818154811061019957610199610aa9565b600091825260209091206003600490920201015460ff16156101fb5760405162461bcd60e51b8152602060048201526016602482015275105b9a5b585b08185b1c9958591e4818591bdc1d195960521b60448201526064015b60405180910390fd5b3360009081526001602052604090819020829055517f5cd193ec84b5f9f73609acfec2ca9304e707b5791a9af02550e9d12027d9c6f29061023f9083815260200190565b60405180910390a150565b60005b6000548110156103c4576000818154811061026a5761026a610aa9565b600091825260209091206003600490920201015460ff161580156102fe5750848460405160200161029c929190610abf565b60405160208183030381529060405280519060200120600082815481106102c5576102c5610aa9565b90600052602060002090600402016000016040516020016102e69190610b09565b60405160208183030381529060405280519060200120145b801561032d5750826000828154811061031957610319610aa9565b906000526020600020906004020160010154105b801561035c5750816000828154811061034857610348610aa9565b906000526020600020906004020160020154105b156103b2573360009081526001602052604090819020829055517f5cd193ec84b5f9f73609acfec2ca9304e707b5791a9af02550e9d12027d9c6f2906103a59083815260200190565b60405180910390a16103c4565b806103bc81610b95565b91505061024d565b5060405162461bcd60e51b815260206004820152602560248201527f4e6f20616e696d616c206d617463686573207769746820796f75722063726974604482015264657269617360d81b60648201526084016101f2565b61044860405180608001604052806060815260200160008152602001600081526020016000151581525090565b6000828154811061045b5761045b610aa9565b906000526020600020906004020160405180608001604052908160008201805461048490610acf565b80601f01602080910402602001604051908101604052809291908181526020018280546104b090610acf565b80156104fd5780601f106104d2576101008083540402835291602001916104fd565b820191906000526020600020905b8154815290600101906020018083116104e057829003601f168201915b5050509183525050600182015460208201526002820154604082015260039091015460ff16151560609091015292915050565b61055d60405180608001604052806060815260200160008152602001600081526020016000151581525090565b6001600160a01b0382166000908152600160205260408120548154811061045b5761045b610aa9565b6040805160a06020601f870181900402820181019092526080810185815260009282919088908890819085018382808284376000920182905250938552505050602080830187905260408301869052606090920181905283546001810185559381522081519192600402019081906105fe9082610c13565b506020820151600182810191909155604083015160028301556060909201516003909101805460ff19169115159190911790556000547f839a86fcc05ab803a889343160d0929b98787c4c6da8df5c5b2594af3941af819161065f91610cd3565b85858585604051610674959493929190610cec565b60405180910390a150505050565b6000818154811061069257600080fd5b90600052602060002090600402016000915090508060000180546106b590610acf565b80601f01602080910402602001604051908101604052809291908181526020018280546106e190610acf565b801561072e5780601f106107035761010080835404028352916020019161072e565b820191906000526020600020905b81548152906001019060200180831161071157829003601f168201915b50505050600183015460028401546003909401549293909290915060ff1684565b83836000878154811061076457610764610aa9565b90600052602060002090600402016000019182610782929190610d33565b50816000868154811061079757610797610aa9565b90600052602060002090600402016001018190555080600086815481106107c0576107c0610aa9565b9060005260206000209060040201600201819055505050505050565b600081815481106107ef576107ef610aa9565b600091825260208220600490910201906108098282610853565b506000600182018190556002820155600301805460ff191690556040518181527f91fc86b9b1ddb9e194720509f8e534dc15fe24a8b52d538338696d0dd19b110c9060200161023f565b50805461085f90610acf565b6000825580601f1061086f575050565b601f01602090049060005260206000209081019061088d9190610890565b50565b5b808211156108a55760008155600101610891565b5090565b6000602082840312156108bb57600080fd5b5035919050565b60008083601f8401126108d457600080fd5b50813567ffffffffffffffff8111156108ec57600080fd5b60208301915083602082850101111561090457600080fd5b9250929050565b6000806000806060858703121561092157600080fd5b843567ffffffffffffffff81111561093857600080fd5b610944878288016108c2565b90989097506020870135966040013595509350505050565b6000815180845260005b8181101561098257602081850181015186830182015201610966565b506000602082860101526020601f19601f83011685010191505092915050565b6020815260008251608060208401526109be60a084018261095c565b905060208401516040840152604084015160608401526060840151151560808401528091505092915050565b6000602082840312156109fc57600080fd5b81356001600160a01b0381168114610a1357600080fd5b9392505050565b608081526000610a2d608083018761095c565b60208301959095525060408101929092521515606090910152919050565b600080600080600060808688031215610a6357600080fd5b85359450602086013567ffffffffffffffff811115610a8157600080fd5b610a8d888289016108c2565b9699909850959660408101359660609091013595509350505050565b634e487b7160e01b600052603260045260246000fd5b8183823760009101908152919050565b600181811c90821680610ae357607f821691505b602082108103610b0357634e487b7160e01b600052602260045260246000fd5b50919050565b6000808354610b1781610acf565b60018281168015610b2f5760018114610b4457610b73565b60ff1984168752821515830287019450610b73565b8760005260208060002060005b85811015610b6a5781548a820152908401908201610b51565b50505082870194505b50929695505050505050565b634e487b7160e01b600052601160045260246000fd5b600060018201610ba757610ba7610b7f565b5060010190565b634e487b7160e01b600052604160045260246000fd5b601f821115610c0e57600081815260208120601f850160051c81016020861015610beb5750805b601f850160051c820191505b81811015610c0a57828155600101610bf7565b5050505b505050565b815167ffffffffffffffff811115610c2d57610c2d610bae565b610c4181610c3b8454610acf565b84610bc4565b602080601f831160018114610c765760008415610c5e5750858301515b600019600386901b1c1916600185901b178555610c0a565b600085815260208120601f198616915b82811015610ca557888601518255948401946001909101908401610c86565b5085821015610cc35787850151600019600388901b60f8161c191681555b5050505050600190811b01905550565b81810381811115610ce657610ce6610b7f565b92915050565b85815260806020820152836080820152838560a0830137600060a08583010152600060a0601f19601f87011683010190508360408301528260608301529695505050505050565b67ffffffffffffffff831115610d4b57610d4b610bae565b610d5f83610d598354610acf565b83610bc4565b6000601f841160018114610d935760008515610d7b5750838201355b600019600387901b1c1916600186901b178355610ded565b600083815260209020601f19861690835b82811015610dc45786850135825560209485019460019092019101610da4565b5086821015610de15760001960f88860031b161c19848701351681555b505060018560011b0183555b505050505056fea2646970667358221220fe5b67ed388c2ae10295f8009d58cbadda30f1caa73d2778a577ed85f81d3cdd64736f6c63430008110033","opcodes":"PUSH1 0x80 PUSH1 0x40 MSTORE CALLVALUE DUP1 ISZERO PUSH2 0x10 JUMPI PUSH1 0x0 DUP1 REVERT JUMPDEST POP PUSH2 0xE2A DUP1 PUSH2 0x20 PUSH1 0x0 CODECOPY PUSH1 0x0 RETURN INVALID PUSH1 0x80 PUSH1 0x40 MSTORE CALLVALUE DUP1 ISZERO PUSH2 0x10 JUMPI PUSH1 0x0 DUP1 REVERT JUMPDEST POP PUSH1 0x4 CALLDATASIZE LT PUSH2 0x93 JUMPI PUSH1 0x0 CALLDATALOAD PUSH1 0xE0 SHR DUP1 PUSH4 0x7A38A106 GT PUSH2 0x66 JUMPI DUP1 PUSH4 0x7A38A106 EQ PUSH2 0xFC JUMPI DUP1 PUSH4 0x7E6000D4 EQ PUSH2 0x12A JUMPI DUP1 PUSH4 0x998DD3CA EQ PUSH2 0x13D JUMPI DUP1 PUSH4 0xA0A9F551 EQ PUSH2 0x160 JUMPI DUP1 PUSH4 0xE4910BB5 EQ PUSH2 0x173 JUMPI PUSH1 0x0 DUP1 REVERT JUMPDEST DUP1 PUSH4 0x4238A69B EQ PUSH2 0x98 JUMPI DUP1 PUSH4 0x4397DFFC EQ PUSH2 0xAD JUMPI DUP1 PUSH4 0x45D3CC81 EQ PUSH2 0xC0 JUMPI DUP1 PUSH4 0x79DEF63B EQ PUSH2 0xE9 JUMPI JUMPDEST PUSH1 0x0 DUP1 REVERT JUMPDEST PUSH2 0xAB PUSH2 0xA6 CALLDATASIZE PUSH1 0x4 PUSH2 0x8A9 JUMP JUMPDEST PUSH2 0x186 JUMP JUMPDEST STOP JUMPDEST PUSH2 0xAB PUSH2 0xBB CALLDATASIZE PUSH1 0x4 PUSH2 0x90B JUMP JUMPDEST PUSH2 0x24A JUMP JUMPDEST PUSH2 0xD3 PUSH2 0xCE CALLDATASIZE PUSH1 0x4 PUSH2 0x8A9 JUMP JUMPDEST PUSH2 0x41B JUMP JUMPDEST PUSH1 0x40 MLOAD PUSH2 0xE0 SWAP2 SWAP1 PUSH2 0x9A2 JUMP JUMPDEST PUSH1 0x40 MLOAD DUP1 SWAP2 SUB SWAP1 RETURN JUMPDEST PUSH2 0xD3 PUSH2 0xF7 CALLDATASIZE PUSH1 0x4 PUSH2 0x9EA JUMP JUMPDEST PUSH2 0x530 JUMP JUMPDEST PUSH2 0x11C PUSH2 0x10A CALLDATASIZE PUSH1 0x4 PUSH2 0x9EA JUMP JUMPDEST PUSH1 0x1 PUSH1 0x20 MSTORE PUSH1 0x0 SWAP1 DUP2 MSTORE PUSH1 0x40 SWAP1 KECCAK256 SLOAD DUP2 JUMP JUMPDEST PUSH1 0x40 MLOAD SWAP1 DUP2 MSTORE PUSH1 0x20 ADD PUSH2 0xE0 JUMP JUMPDEST PUSH2 0xAB PUSH2 0x138 CALLDATASIZE PUSH1 0x4 PUSH2 0x90B JUMP JUMPDEST PUSH2 0x586 JUMP JUMPDEST PUSH2 0x150 PUSH2 0x14B CALLDATASIZE PUSH1 0x4 PUSH2 0x8A9 JUMP JUMPDEST PUSH2 0x682 JUMP JUMPDEST PUSH1 0x40 MLOAD PUSH2 0xE0 SWAP5 SWAP4 SWAP3 SWAP2 SWAP1 PUSH2 0xA1A JUMP JUMPDEST PUSH2 0xAB PUSH2 0x16E CALLDATASIZE PUSH1 0x4 PUSH2 0xA4B JUMP JUMPDEST PUSH2 0x74F JUMP JUMPDEST PUSH2 0xAB PUSH2 0x181 CALLDATASIZE PUSH1 0x4 PUSH2 0x8A9 JUMP JUMPDEST PUSH2 0x7DC JUMP JUMPDEST PUSH1 0x0 DUP2 DUP2 SLOAD DUP2 LT PUSH2 0x199 JUMPI PUSH2 0x199 PUSH2 0xAA9 JUMP JUMPDEST PUSH1 0x0 SWAP2 DUP3 MSTORE PUSH1 0x20 SWAP1 SWAP2 KECCAK256 PUSH1 0x3 PUSH1 0x4 SWAP1 SWAP3 MUL ADD ADD SLOAD PUSH1 0xFF AND ISZERO PUSH2 0x1FB JUMPI PUSH1 0x40 MLOAD PUSH3 0x461BCD PUSH1 0xE5 SHL DUP2 MSTORE PUSH1 0x20 PUSH1 0x4 DUP3 ADD MSTORE PUSH1 0x16 PUSH1 0x24 DUP3 ADD MSTORE PUSH22 0x105B9A5B585B08185B1C9958591E4818591BDC1D1959 PUSH1 0x52 SHL PUSH1 0x44 DUP3 ADD MSTORE PUSH1 0x64 ADD JUMPDEST PUSH1 0x40 MLOAD DUP1 SWAP2 SUB SWAP1 REVERT JUMPDEST CALLER PUSH1 0x0 SWAP1 DUP2 MSTORE PUSH1 0x1 PUSH1 0x20 MSTORE PUSH1 0x40 SWAP1 DUP2 SWAP1 KECCAK256 DUP3 SWAP1 SSTORE MLOAD PUSH32 0x5CD193EC84B5F9F73609ACFEC2CA9304E707B5791A9AF02550E9D12027D9C6F2 SWAP1 PUSH2 0x23F SWAP1 DUP4 DUP2 MSTORE PUSH1 0x20 ADD SWAP1 JUMP JUMPDEST PUSH1 0x40 MLOAD DUP1 SWAP2 SUB SWAP1 LOG1 POP JUMP JUMPDEST PUSH1 0x0 JUMPDEST PUSH1 0x0 SLOAD DUP2 LT ISZERO PUSH2 0x3C4 JUMPI PUSH1 0x0 DUP2 DUP2 SLOAD DUP2 LT PUSH2 0x26A JUMPI PUSH2 0x26A PUSH2 0xAA9 JUMP JUMPDEST PUSH1 0x0 SWAP2 DUP3 MSTORE PUSH1 0x20 SWAP1 SWAP2 KECCAK256 PUSH1 0x3 PUSH1 0x4 SWAP1 SWAP3 MUL ADD ADD SLOAD PUSH1 0xFF AND ISZERO DUP1 ISZERO PUSH2 0x2FE JUMPI POP DUP5 DUP5 PUSH1 0x40 MLOAD PUSH1 0x20 ADD PUSH2 0x29C SWAP3 SWAP2 SWAP1 PUSH2 0xABF JUMP JUMPDEST PUSH1 0x40 MLOAD PUSH1 0x20 DUP2 DUP4 SUB SUB DUP2 MSTORE SWAP1 PUSH1 0x40 MSTORE DUP1 MLOAD SWAP1 PUSH1 0x20 ADD KECCAK256 PUSH1 0x0 DUP3 DUP2 SLOAD DUP2 LT PUSH2 0x2C5 JUMPI PUSH2 0x2C5 PUSH2 0xAA9 JUMP JUMPDEST SWAP1 PUSH1 0x0 MSTORE PUSH1 0x20 PUSH1 0x0 KECCAK256 SWAP1 PUSH1 0x4 MUL ADD PUSH1 0x0 ADD PUSH1 0x40 MLOAD PUSH1 0x20 ADD PUSH2 0x2E6 SWAP2 SWAP1 PUSH2 0xB09 JUMP JUMPDEST PUSH1 0x40 MLOAD PUSH1 0x20 DUP2 DUP4 SUB SUB DUP2 MSTORE SWAP1 PUSH1 0x40 MSTORE DUP1 MLOAD SWAP1 PUSH1 0x20 ADD KECCAK256 EQ JUMPDEST DUP1 ISZERO PUSH2 0x32D JUMPI POP DUP3 PUSH1 0x0 DUP3 DUP2 SLOAD DUP2 LT PUSH2 0x319 JUMPI PUSH2 0x319 PUSH2 0xAA9 JUMP JUMPDEST SWAP1 PUSH1 0x0 MSTORE PUSH1 0x20 PUSH1 0x0 KECCAK256 SWAP1 PUSH1 0x4 MUL ADD PUSH1 0x1 ADD SLOAD LT JUMPDEST DUP1 ISZERO PUSH2 0x35C JUMPI POP DUP2 PUSH1 0x0 DUP3 DUP2 SLOAD DUP2 LT PUSH2 0x348 JUMPI PUSH2 0x348 PUSH2 0xAA9 JUMP JUMPDEST SWAP1 PUSH1 0x0 MSTORE PUSH1 0x20 PUSH1 0x0 KECCAK256 SWAP1 PUSH1 0x4 MUL ADD PUSH1 0x2 ADD SLOAD LT JUMPDEST ISZERO PUSH2 0x3B2 JUMPI CALLER PUSH1 0x0 SWAP1 DUP2 MSTORE PUSH1 0x1 PUSH1 0x20 MSTORE PUSH1 0x40 SWAP1 DUP2 SWAP1 KECCAK256 DUP3 SWAP1 SSTORE MLOAD PUSH32 0x5CD193EC84B5F9F73609ACFEC2CA9304E707B5791A9AF02550E9D12027D9C6F2 SWAP1 PUSH2 0x3A5 SWAP1 DUP4 DUP2 MSTORE PUSH1 0x20 ADD SWAP1 JUMP JUMPDEST PUSH1 0x40 MLOAD DUP1 SWAP2 SUB SWAP1 LOG1 PUSH2 0x3C4 JUMP JUMPDEST DUP1 PUSH2 0x3BC DUP2 PUSH2 0xB95 JUMP JUMPDEST SWAP2 POP POP PUSH2 0x24D JUMP JUMPDEST POP PUSH1 0x40 MLOAD PUSH3 0x461BCD PUSH1 0xE5 SHL DUP2 MSTORE PUSH1 0x20 PUSH1 0x4 DUP3 ADD MSTORE PUSH1 0x25 PUSH1 0x24 DUP3 ADD MSTORE PUSH32 0x4E6F20616E696D616C206D617463686573207769746820796F75722063726974 PUSH1 0x44 DUP3 ADD MSTORE PUSH5 0x6572696173 PUSH1 0xD8 SHL PUSH1 0x64 DUP3 ADD MSTORE PUSH1 0x84 ADD PUSH2 0x1F2 JUMP JUMPDEST PUSH2 0x448 PUSH1 0x40 MLOAD DUP1 PUSH1 0x80 ADD PUSH1 0x40 MSTORE DUP1 PUSH1 0x60 DUP2 MSTORE PUSH1 0x20 ADD PUSH1 0x0 DUP2 MSTORE PUSH1 0x20 ADD PUSH1 0x0 DUP2 MSTORE PUSH1 0x20 ADD PUSH1 0x0 ISZERO ISZERO DUP2 MSTORE POP SWAP1 JUMP JUMPDEST PUSH1 0x0 DUP3 DUP2 SLOAD DUP2 LT PUSH2 0x45B JUMPI PUSH2 0x45B PUSH2 0xAA9 JUMP JUMPDEST SWAP1 PUSH1 0x0 MSTORE PUSH1 0x20 PUSH1 0x0 KECCAK256 SWAP1 PUSH1 0x4 MUL ADD PUSH1 0x40 MLOAD DUP1 PUSH1 0x80 ADD PUSH1 0x40 MSTORE SWAP1 DUP2 PUSH1 0x0 DUP3 ADD DUP1 SLOAD PUSH2 0x484 SWAP1 PUSH2 0xACF JUMP JUMPDEST DUP1 PUSH1 0x1F ADD PUSH1 0x20 DUP1 SWAP2 DIV MUL PUSH1 0x20 ADD PUSH1 0x40 MLOAD SWAP1 DUP2 ADD PUSH1 0x40 MSTORE DUP1 SWAP3 SWAP2 SWAP1 DUP2 DUP2 MSTORE PUSH1 0x20 ADD DUP3 DUP1 SLOAD PUSH2 0x4B0 SWAP1 PUSH2 0xACF JUMP JUMPDEST DUP1 ISZERO PUSH2 0x4FD JUMPI DUP1 PUSH1 0x1F LT PUSH2 0x4D2 JUMPI PUSH2 0x100 DUP1 DUP4 SLOAD DIV MUL DUP4 MSTORE SWAP2 PUSH1 0x20 ADD SWAP2 PUSH2 0x4FD JUMP JUMPDEST DUP3 ADD SWAP2 SWAP1 PUSH1 0x0 MSTORE PUSH1 0x20 PUSH1 0x0 KECCAK256 SWAP1 JUMPDEST DUP2 SLOAD DUP2 MSTORE SWAP1 PUSH1 0x1 ADD SWAP1 PUSH1 0x20 ADD DUP1 DUP4 GT PUSH2 0x4E0 JUMPI DUP3 SWAP1 SUB PUSH1 0x1F AND DUP3 ADD SWAP2 JUMPDEST POP POP POP SWAP2 DUP4 MSTORE POP POP PUSH1 0x1 DUP3 ADD SLOAD PUSH1 0x20 DUP3 ADD MSTORE PUSH1 0x2 DUP3 ADD SLOAD PUSH1 0x40 DUP3 ADD MSTORE PUSH1 0x3 SWAP1 SWAP2 ADD SLOAD PUSH1 0xFF AND ISZERO ISZERO PUSH1 0x60 SWAP1 SWAP2 ADD MSTORE SWAP3 SWAP2 POP POP JUMP JUMPDEST PUSH2 0x55D PUSH1 0x40 MLOAD DUP1 PUSH1 0x80 ADD PUSH1 0x40 MSTORE DUP1 PUSH1 0x60 DUP2 MSTORE PUSH1 0x20 ADD PUSH1 0x0 DUP2 MSTORE PUSH1 0x20 ADD PUSH1 0x0 DUP2 MSTORE PUSH1 0x20 ADD PUSH1 0x0 ISZERO ISZERO DUP2 MSTORE POP SWAP1 JUMP JUMPDEST PUSH1 0x1 PUSH1 0x1 PUSH1 0xA0 SHL SUB DUP3 AND PUSH1 0x0 SWAP1 DUP2 MSTORE PUSH1 0x1 PUSH1 0x20 MSTORE PUSH1 0x40 DUP2 KECCAK256 SLOAD DUP2 SLOAD DUP2 LT PUSH2 0x45B JUMPI PUSH2 0x45B PUSH2 0xAA9 JUMP JUMPDEST PUSH1 0x40 DUP1 MLOAD PUSH1 0xA0 PUSH1 0x20 PUSH1 0x1F DUP8 ADD DUP2 SWAP1 DIV MUL DUP3 ADD DUP2 ADD SWAP1 SWAP3 MSTORE PUSH1 0x80 DUP2 ADD DUP6 DUP2 MSTORE PUSH1 0x0 SWAP3 DUP3 SWAP2 SWAP1 DUP9 SWAP1 DUP9 SWAP1 DUP2 SWAP1 DUP6 ADD DUP4 DUP3 DUP1 DUP3 DUP5 CALLDATACOPY PUSH1 0x0 SWAP3 ADD DUP3 SWAP1 MSTORE POP SWAP4 DUP6 MSTORE POP POP POP PUSH1 0x20 DUP1 DUP4 ADD DUP8 SWAP1 MSTORE PUSH1 0x40 DUP4 ADD DUP7 SWAP1 MSTORE PUSH1 0x60 SWAP1 SWAP3 ADD DUP2 SWAP1 MSTORE DUP4 SLOAD PUSH1 0x1 DUP2 ADD DUP6 SSTORE SWAP4 DUP2 MSTORE KECCAK256 DUP2 MLOAD SWAP2 SWAP3 PUSH1 0x4 MUL ADD SWAP1 DUP2 SWAP1 PUSH2 0x5FE SWAP1 DUP3 PUSH2 0xC13 JUMP JUMPDEST POP PUSH1 0x20 DUP3 ADD MLOAD PUSH1 0x1 DUP3 DUP2 ADD SWAP2 SWAP1 SWAP2 SSTORE PUSH1 0x40 DUP4 ADD MLOAD PUSH1 0x2 DUP4 ADD SSTORE PUSH1 0x60 SWAP1 SWAP3 ADD MLOAD PUSH1 0x3 SWAP1 SWAP2 ADD DUP1 SLOAD PUSH1 0xFF NOT AND SWAP2 ISZERO ISZERO SWAP2 SWAP1 SWAP2 OR SWAP1 SSTORE PUSH1 0x0 SLOAD PUSH32 0x839A86FCC05AB803A889343160D0929B98787C4C6DA8DF5C5B2594AF3941AF81 SWAP2 PUSH2 0x65F SWAP2 PUSH2 0xCD3 JUMP JUMPDEST DUP6 DUP6 DUP6 DUP6 PUSH1 0x40 MLOAD PUSH2 0x674 SWAP6 SWAP5 SWAP4 SWAP3 SWAP2 SWAP1 PUSH2 0xCEC JUMP JUMPDEST PUSH1 0x40 MLOAD DUP1 SWAP2 SUB SWAP1 LOG1 POP POP POP POP JUMP JUMPDEST PUSH1 0x0 DUP2 DUP2 SLOAD DUP2 LT PUSH2 0x692 JUMPI PUSH1 0x0 DUP1 REVERT JUMPDEST SWAP1 PUSH1 0x0 MSTORE PUSH1 0x20 PUSH1 0x0 KECCAK256 SWAP1 PUSH1 0x4 MUL ADD PUSH1 0x0 SWAP2 POP SWAP1 POP DUP1 PUSH1 0x0 ADD DUP1 SLOAD PUSH2 0x6B5 SWAP1 PUSH2 0xACF JUMP JUMPDEST DUP1 PUSH1 0x1F ADD PUSH1 0x20 DUP1 SWAP2 DIV MUL PUSH1 0x20 ADD PUSH1 0x40 MLOAD SWAP1 DUP2 ADD PUSH1 0x40 MSTORE DUP1 SWAP3 SWAP2 SWAP1 DUP2 DUP2 MSTORE PUSH1 0x20 ADD DUP3 DUP1 SLOAD PUSH2 0x6E1 SWAP1 PUSH2 0xACF JUMP JUMPDEST DUP1 ISZERO PUSH2 0x72E JUMPI DUP1 PUSH1 0x1F LT PUSH2 0x703 JUMPI PUSH2 0x100 DUP1 DUP4 SLOAD DIV MUL DUP4 MSTORE SWAP2 PUSH1 0x20 ADD SWAP2 PUSH2 0x72E JUMP JUMPDEST DUP3 ADD SWAP2 SWAP1 PUSH1 0x0 MSTORE PUSH1 0x20 PUSH1 0x0 KECCAK256 SWAP1 JUMPDEST DUP2 SLOAD DUP2 MSTORE SWAP1 PUSH1 0x1 ADD SWAP1 PUSH1 0x20 ADD DUP1 DUP4 GT PUSH2 0x711 JUMPI DUP3 SWAP1 SUB PUSH1 0x1F AND DUP3 ADD SWAP2 JUMPDEST POP POP POP POP PUSH1 0x1 DUP4 ADD SLOAD PUSH1 0x2 DUP5 ADD SLOAD PUSH1 0x3 SWAP1 SWAP5 ADD SLOAD SWAP3 SWAP4 SWAP1 SWAP3 SWAP1 SWAP2 POP PUSH1 0xFF AND DUP5 JUMP JUMPDEST DUP4 DUP4 PUSH1 0x0 DUP8 DUP2 SLOAD DUP2 LT PUSH2 0x764 JUMPI PUSH2 0x764 PUSH2 0xAA9 JUMP JUMPDEST SWAP1 PUSH1 0x0 MSTORE PUSH1 0x20 PUSH1 0x0 KECCAK256 SWAP1 PUSH1 0x4 MUL ADD PUSH1 0x0 ADD SWAP2 DUP3 PUSH2 0x782 SWAP3 SWAP2 SWAP1 PUSH2 0xD33 JUMP JUMPDEST POP DUP2 PUSH1 0x0 DUP7 DUP2 SLOAD DUP2 LT PUSH2 0x797 JUMPI PUSH2 0x797 PUSH2 0xAA9 JUMP JUMPDEST SWAP1 PUSH1 0x0 MSTORE PUSH1 0x20 PUSH1 0x0 KECCAK256 SWAP1 PUSH1 0x4 MUL ADD PUSH1 0x1 ADD DUP2 SWAP1 SSTORE POP DUP1 PUSH1 0x0 DUP7 DUP2 SLOAD DUP2 LT PUSH2 0x7C0 JUMPI PUSH2 0x7C0 PUSH2 0xAA9 JUMP JUMPDEST SWAP1 PUSH1 0x0 MSTORE PUSH1 0x20 PUSH1 0x0 KECCAK256 SWAP1 PUSH1 0x4 MUL ADD PUSH1 0x2 ADD DUP2 SWAP1 SSTORE POP POP POP POP POP POP JUMP JUMPDEST PUSH1 0x0 DUP2 DUP2 SLOAD DUP2 LT PUSH2 0x7EF JUMPI PUSH2 0x7EF PUSH2 0xAA9 JUMP JUMPDEST PUSH1 0x0 SWAP2 DUP3 MSTORE PUSH1 0x20 DUP3 KECCAK256 PUSH1 0x4 SWAP1 SWAP2 MUL ADD SWAP1 PUSH2 0x809 DUP3 DUP3 PUSH2 0x853 JUMP JUMPDEST POP PUSH1 0x0 PUSH1 0x1 DUP3 ADD DUP2 SWAP1 SSTORE PUSH1 0x2 DUP3 ADD SSTORE PUSH1 0x3 ADD DUP1 SLOAD PUSH1 0xFF NOT AND SWAP1 SSTORE PUSH1 0x40 MLOAD DUP2 DUP2 MSTORE PUSH32 0x91FC86B9B1DDB9E194720509F8E534DC15FE24A8B52D538338696D0DD19B110C SWAP1 PUSH1 0x20 ADD PUSH2 0x23F JUMP JUMPDEST POP DUP1 SLOAD PUSH2 0x85F SWAP1 PUSH2 0xACF JUMP JUMPDEST PUSH1 0x0 DUP3 SSTORE DUP1 PUSH1 0x1F LT PUSH2 0x86F JUMPI POP POP JUMP JUMPDEST PUSH1 0x1F ADD PUSH1 0x20 SWAP1 DIV SWAP1 PUSH1 0x0 MSTORE PUSH1 0x20 PUSH1 0x0 KECCAK256 SWAP1 DUP2 ADD SWAP1 PUSH2 0x88D SWAP2 SWAP1 PUSH2 0x890 JUMP JUMPDEST POP JUMP JUMPDEST JUMPDEST DUP1 DUP3 GT ISZERO PUSH2 0x8A5 JUMPI PUSH1 0x0 DUP2 SSTORE PUSH1 0x1 ADD PUSH2 0x891 JUMP JUMPDEST POP SWAP1 JUMP JUMPDEST PUSH1 0x0 PUSH1 0x20 DUP3 DUP5 SUB SLT ISZERO PUSH2 0x8BB JUMPI PUSH1 0x0 DUP1 REVERT JUMPDEST POP CALLDATALOAD SWAP2 SWAP1 POP JUMP JUMPDEST PUSH1 0x0 DUP1 DUP4 PUSH1 0x1F DUP5 ADD SLT PUSH2 0x8D4 JUMPI PUSH1 0x0 DUP1 REVERT JUMPDEST POP DUP2 CALLDATALOAD PUSH8 0xFFFFFFFFFFFFFFFF DUP2 GT ISZERO PUSH2 0x8EC JUMPI PUSH1 0x0 DUP1 REVERT JUMPDEST PUSH1 0x20 DUP4 ADD SWAP2 POP DUP4 PUSH1 0x20 DUP3 DUP6 ADD ADD GT ISZERO PUSH2 0x904 JUMPI PUSH1 0x0 DUP1 REVERT JUMPDEST SWAP3 POP SWAP3 SWAP1 POP JUMP JUMPDEST PUSH1 0x0 DUP1 PUSH1 0x0 DUP1 PUSH1 0x60 DUP6 DUP8 SUB SLT ISZERO PUSH2 0x921 JUMPI PUSH1 0x0 DUP1 REVERT JUMPDEST DUP5 CALLDATALOAD PUSH8 0xFFFFFFFFFFFFFFFF DUP2 GT ISZERO PUSH2 0x938 JUMPI PUSH1 0x0 DUP1 REVERT JUMPDEST PUSH2 0x944 DUP8 DUP3 DUP9 ADD PUSH2 0x8C2 JUMP JUMPDEST SWAP1 SWAP9 SWAP1 SWAP8 POP PUSH1 0x20 DUP8 ADD CALLDATALOAD SWAP7 PUSH1 0x40 ADD CALLDATALOAD SWAP6 POP SWAP4 POP POP POP POP JUMP JUMPDEST PUSH1 0x0 DUP2 MLOAD DUP1 DUP5 MSTORE PUSH1 0x0 JUMPDEST DUP2 DUP2 LT ISZERO PUSH2 0x982 JUMPI PUSH1 0x20 DUP2 DUP6 ADD DUP2 ADD MLOAD DUP7 DUP4 ADD DUP3 ADD MSTORE ADD PUSH2 0x966 JUMP JUMPDEST POP PUSH1 0x0 PUSH1 0x20 DUP3 DUP7 ADD ADD MSTORE PUSH1 0x20 PUSH1 0x1F NOT PUSH1 0x1F DUP4 ADD AND DUP6 ADD ADD SWAP2 POP POP SWAP3 SWAP2 POP POP JUMP JUMPDEST PUSH1 0x20 DUP2 MSTORE PUSH1 0x0 DUP3 MLOAD PUSH1 0x80 PUSH1 0x20 DUP5 ADD MSTORE PUSH2 0x9BE PUSH1 0xA0 DUP5 ADD DUP3 PUSH2 0x95C JUMP JUMPDEST SWAP1 POP PUSH1 0x20 DUP5 ADD MLOAD PUSH1 0x40 DUP5 ADD MSTORE PUSH1 0x40 DUP5 ADD MLOAD PUSH1 0x60 DUP5 ADD MSTORE PUSH1 0x60 DUP5 ADD MLOAD ISZERO ISZERO PUSH1 0x80 DUP5 ADD MSTORE DUP1 SWAP2 POP POP SWAP3 SWAP2 POP POP JUMP JUMPDEST PUSH1 0x0 PUSH1 0x20 DUP3 DUP5 SUB SLT ISZERO PUSH2 0x9FC JUMPI PUSH1 0x0 DUP1 REVERT JUMPDEST DUP2 CALLDATALOAD PUSH1 0x1 PUSH1 0x1 PUSH1 0xA0 SHL SUB DUP2 AND DUP2 EQ PUSH2 0xA13 JUMPI PUSH1 0x0 DUP1 REVERT JUMPDEST SWAP4 SWAP3 POP POP POP JUMP JUMPDEST PUSH1 0x80 DUP2 MSTORE PUSH1 0x0 PUSH2 0xA2D PUSH1 0x80 DUP4 ADD DUP8 PUSH2 0x95C JUMP JUMPDEST PUSH1 0x20 DUP4 ADD SWAP6 SWAP1 SWAP6 MSTORE POP PUSH1 0x40 DUP2 ADD SWAP3 SWAP1 SWAP3 MSTORE ISZERO ISZERO PUSH1 0x60 SWAP1 SWAP2 ADD MSTORE SWAP2 SWAP1 POP JUMP JUMPDEST PUSH1 0x0 DUP1 PUSH1 0x0 DUP1 PUSH1 0x0 PUSH1 0x80 DUP7 DUP9 SUB SLT ISZERO PUSH2 0xA63 JUMPI PUSH1 0x0 DUP1 REVERT JUMPDEST DUP6 CALLDATALOAD SWAP5 POP PUSH1 0x20 DUP7 ADD CALLDATALOAD PUSH8 0xFFFFFFFFFFFFFFFF DUP2 GT ISZERO PUSH2 0xA81 JUMPI PUSH1 0x0 DUP1 REVERT JUMPDEST PUSH2 0xA8D DUP9 DUP3 DUP10 ADD PUSH2 0x8C2 JUMP JUMPDEST SWAP7 SWAP10 SWAP1 SWAP9 POP SWAP6 SWAP7 PUSH1 0x40 DUP2 ADD CALLDATALOAD SWAP7 PUSH1 0x60 SWAP1 SWAP2 ADD CALLDATALOAD SWAP6 POP SWAP4 POP POP POP POP JUMP JUMPDEST PUSH4 0x4E487B71 PUSH1 0xE0 SHL PUSH1 0x0 MSTORE PUSH1 0x32 PUSH1 0x4 MSTORE PUSH1 0x24 PUSH1 0x0 REVERT JUMPDEST DUP2 DUP4 DUP3 CALLDATACOPY PUSH1 0x0 SWAP2 ADD SWAP1 DUP2 MSTORE SWAP2 SWAP1 POP JUMP JUMPDEST PUSH1 0x1 DUP2 DUP2 SHR SWAP1 DUP3 AND DUP1 PUSH2 0xAE3 JUMPI PUSH1 0x7F DUP3 AND SWAP2 POP JUMPDEST PUSH1 0x20 DUP3 LT DUP2 SUB PUSH2 0xB03 JUMPI PUSH4 0x4E487B71 PUSH1 0xE0 SHL PUSH1 0x0 MSTORE PUSH1 0x22 PUSH1 0x4 MSTORE PUSH1 0x24 PUSH1 0x0 REVERT JUMPDEST POP SWAP2 SWAP1 POP JUMP JUMPDEST PUSH1 0x0 DUP1 DUP4 SLOAD PUSH2 0xB17 DUP2 PUSH2 0xACF JUMP JUMPDEST PUSH1 0x1 DUP3 DUP2 AND DUP1 ISZERO PUSH2 0xB2F JUMPI PUSH1 0x1 DUP2 EQ PUSH2 0xB44 JUMPI PUSH2 0xB73 JUMP JUMPDEST PUSH1 0xFF NOT DUP5 AND DUP8 MSTORE DUP3 ISZERO ISZERO DUP4 MUL DUP8 ADD SWAP5 POP PUSH2 0xB73 JUMP JUMPDEST DUP8 PUSH1 0x0 MSTORE PUSH1 0x20 DUP1 PUSH1 0x0 KECCAK256 PUSH1 0x0 JUMPDEST DUP6 DUP2 LT ISZERO PUSH2 0xB6A JUMPI DUP2 SLOAD DUP11 DUP3 ADD MSTORE SWAP1 DUP5 ADD SWAP1 DUP3 ADD PUSH2 0xB51 JUMP JUMPDEST POP POP POP DUP3 DUP8 ADD SWAP5 POP JUMPDEST POP SWAP3 SWAP7 SWAP6 POP POP POP POP POP POP JUMP JUMPDEST PUSH4 0x4E487B71 PUSH1 0xE0 SHL PUSH1 0x0 MSTORE PUSH1 0x11 PUSH1 0x4 MSTORE PUSH1 0x24 PUSH1 0x0 REVERT JUMPDEST PUSH1 0x0 PUSH1 0x1 DUP3 ADD PUSH2 0xBA7 JUMPI PUSH2 0xBA7 PUSH2 0xB7F JUMP JUMPDEST POP PUSH1 0x1 ADD SWAP1 JUMP JUMPDEST PUSH4 0x4E487B71 PUSH1 0xE0 SHL PUSH1 0x0 MSTORE PUSH1 0x41 PUSH1 0x4 MSTORE PUSH1 0x24 PUSH1 0x0 REVERT JUMPDEST PUSH1 0x1F DUP3 GT ISZERO PUSH2 0xC0E JUMPI PUSH1 0x0 DUP2 DUP2 MSTORE PUSH1 0x20 DUP2 KECCAK256 PUSH1 0x1F DUP6 ADD PUSH1 0x5 SHR DUP2 ADD PUSH1 0x20 DUP7 LT ISZERO PUSH2 0xBEB JUMPI POP DUP1 JUMPDEST PUSH1 0x1F DUP6 ADD PUSH1 0x5 SHR DUP3 ADD SWAP2 POP JUMPDEST DUP2 DUP2 LT ISZERO PUSH2 0xC0A JUMPI DUP3 DUP2 SSTORE PUSH1 0x1 ADD PUSH2 0xBF7 JUMP JUMPDEST POP POP POP JUMPDEST POP POP POP JUMP JUMPDEST DUP2 MLOAD PUSH8 0xFFFFFFFFFFFFFFFF DUP2 GT ISZERO PUSH2 0xC2D JUMPI PUSH2 0xC2D PUSH2 0xBAE JUMP JUMPDEST PUSH2 0xC41 DUP2 PUSH2 0xC3B DUP5 SLOAD PUSH2 0xACF JUMP JUMPDEST DUP5 PUSH2 0xBC4 JUMP JUMPDEST PUSH1 0x20 DUP1 PUSH1 0x1F DUP4 GT PUSH1 0x1 DUP2 EQ PUSH2 0xC76 JUMPI PUSH1 0x0 DUP5 ISZERO PUSH2 0xC5E JUMPI POP DUP6 DUP4 ADD MLOAD JUMPDEST PUSH1 0x0 NOT PUSH1 0x3 DUP7 SWAP1 SHL SHR NOT AND PUSH1 0x1 DUP6 SWAP1 SHL OR DUP6 SSTORE PUSH2 0xC0A JUMP JUMPDEST PUSH1 0x0 DUP6 DUP2 MSTORE PUSH1 0x20 DUP2 KECCAK256 PUSH1 0x1F NOT DUP7 AND SWAP2 JUMPDEST DUP3 DUP2 LT ISZERO PUSH2 0xCA5 JUMPI DUP9 DUP7 ADD MLOAD DUP3 SSTORE SWAP5 DUP5 ADD SWAP5 PUSH1 0x1 SWAP1 SWAP2 ADD SWAP1 DUP5 ADD PUSH2 0xC86 JUMP JUMPDEST POP DUP6 DUP3 LT ISZERO PUSH2 0xCC3 JUMPI DUP8 DUP6 ADD MLOAD PUSH1 0x0 NOT PUSH1 0x3 DUP9 SWAP1 SHL PUSH1 0xF8 AND SHR NOT AND DUP2 SSTORE JUMPDEST POP POP POP POP POP PUSH1 0x1 SWAP1 DUP2 SHL ADD SWAP1 SSTORE POP JUMP JUMPDEST DUP2 DUP2 SUB DUP2 DUP2 GT ISZERO PUSH2 0xCE6 JUMPI PUSH2 0xCE6 PUSH2 0xB7F JUMP JUMPDEST SWAP3 SWAP2 POP POP JUMP JUMPDEST DUP6 DUP2 MSTORE PUSH1 0x80 PUSH1 0x20 DUP3 ADD MSTORE DUP4 PUSH1 0x80 DUP3 ADD MSTORE DUP4 DUP6 PUSH1 0xA0 DUP4 ADD CALLDATACOPY PUSH1 0x0 PUSH1 0xA0 DUP6 DUP4 ADD ADD MSTORE PUSH1 0x0 PUSH1 0xA0 PUSH1 0x1F NOT PUSH1 0x1F DUP8 ADD AND DUP4 ADD ADD SWAP1 POP DUP4 PUSH1 0x40 DUP4 ADD MSTORE DUP3 PUSH1 0x60 DUP4 ADD MSTORE SWAP7 SWAP6 POP POP POP POP POP POP JUMP JUMPDEST PUSH8 0xFFFFFFFFFFFFFFFF DUP4 GT ISZERO PUSH2 0xD4B JUMPI PUSH2 0xD4B PUSH2 0xBAE JUMP JUMPDEST PUSH2 0xD5F DUP4 PUSH2 0xD59 DUP4 SLOAD PUSH2 0xACF JUMP JUMPDEST DUP4 PUSH2 0xBC4 JUMP JUMPDEST PUSH1 0x0 PUSH1 0x1F DUP5 GT PUSH1 0x1 DUP2 EQ PUSH2 0xD93 JUMPI PUSH1 0x0 DUP6 ISZERO PUSH2 0xD7B JUMPI POP DUP4 DUP3 ADD CALLDATALOAD JUMPDEST PUSH1 0x0 NOT PUSH1 0x3 DUP8 SWAP1 SHL SHR NOT AND PUSH1 0x1 DUP7 SWAP1 SHL OR DUP4 SSTORE PUSH2 0xDED JUMP JUMPDEST PUSH1 0x0 DUP4 DUP2 MSTORE PUSH1 0x20 SWAP1 KECCAK256 PUSH1 0x1F NOT DUP7 AND SWAP1 DUP4 JUMPDEST DUP3 DUP2 LT ISZERO PUSH2 0xDC4 JUMPI DUP7 DUP6 ADD CALLDATALOAD DUP3 SSTORE PUSH1 0x20 SWAP5 DUP6 ADD SWAP5 PUSH1 0x1 SWAP1 SWAP3 ADD SWAP2 ADD PUSH2 0xDA4 JUMP JUMPDEST POP DUP7 DUP3 LT ISZERO PUSH2 0xDE1 JUMPI PUSH1 0x0 NOT PUSH1 0xF8 DUP9 PUSH1 0x3 SHL AND SHR NOT DUP5 DUP8 ADD CALLDATALOAD AND DUP2 SSTORE JUMPDEST POP POP PUSH1 0x1 DUP6 PUSH1 0x1 SHL ADD DUP4 SSTORE JUMPDEST POP POP POP POP POP JUMP INVALID LOG2 PUSH5 0x6970667358 0x22 SLT KECCAK256 INVALID JUMPDEST PUSH8 0xED388C2AE10295F8 STOP SWAP14 PC 0xCB 0xAD 0xDA ADDRESS CALL 0xCA 0xA7 RETURNDATASIZE 0x27 PUSH25 0xA577ED85F81D3CDD64736F6C63430008110033000000000000 "},"gasEstimates":{"creation":{"codeDepositCost":"725200","executionCost":"760","totalCost":"725960"},"external":{"addAnimal(string,uint256,uint256)":"infinite","adoptByCriteria(string,uint256,uint256)":"infinite","adoptById(uint256)":"27811","adoptedBy(address)":"infinite","animals(uint256)":"infinite","getAnimal(uint256)":"infinite","masters(address)":"2484","removeAnimal(uint256)":"infinite","setAnimal(uint256,string,uint256,uint256)":"infinite"}},"methodIdentifiers":{"addAnimal(string,uint256,uint256)":"7e6000d4","adoptByCriteria(string,uint256,uint256)":"4397dffc","adoptById(uint256)":"4238a69b","adoptedBy(address)":"79def63b","animals(uint256)":"998dd3ca","getAnimal(uint256)":"45d3cc81","masters(address)":"7a38a106","removeAnimal(uint256)":"e4910bb5","setAnimal(uint256,string,uint256,uint256)":"a0a9f551"}},"storageLayout":{"storage":[{"astId":2743,"contract":"contracts/exercices/SPA.sol:SPA","label":"animals","offset":0,"slot":"0","type":"t_array(t_struct(Animal)2739_storage)dyn_storage"},{"astId":2747,"contract":"contracts/exercices/SPA.sol:SPA","label":"masters","offset":0,"slot":"1","type":"t_mapping(t_address,t_uint256)"}],"types":{"t_address":{"encoding":"inplace","label":"address","numberOfBytes":"20"},"t_array(t_struct(Animal)2739_storage)dyn_storage":{"base":"t_struct(Animal)2739_storage","encoding":"dynamic_array","label":"struct SPA.Animal[]","numberOfBytes":"32"},"t_bool":{"encoding":"inplace","label":"bool","numberOfBytes":"1"},"t_mapping(t_address,t_uint256)":{"encoding":"mapping","key":"t_address","label":"mapping(address => uint256)","numberOfBytes":"32","value":"t_uint256"},"t_string_storage":{"encoding":"bytes","label":"string","numberOfBytes":"32"},"t_struct(Animal)2739_storage":{"encoding":"inplace","label":"struct SPA.Animal","members":[{"astId":2732,"contract":"contracts/exercices/SPA.sol:SPA","label":"race","offset":0,"slot":"0","type":"t_string_storage"},{"astId":2734,"contract":"contracts/exercices/SPA.sol:SPA","label":"taille","offset":0,"slot":"1","type":"t_uint256"},{"astId":2736,"contract":"contracts/exercices/SPA.sol:SPA","label":"age","offset":0,"slot":"2","type":"t_uint256"},{"astId":2738,"contract":"contracts/exercices/SPA.sol:SPA","label":"isAdopted","offset":0,"slot":"3","type":"t_bool"}],"numberOfBytes":"128"},"t_uint256":{"encoding":"inplace","label":"uint256","numberOfBytes":"32"}}},"userdoc":{"kind":"user","methods":{},"version":1}}}}