{"contracts/corrections/Lycee.sol":{"Notes":{"abi":[{"anonymous":false,"inputs":[{"indexed":true,"internalType":"address","name":"previousOwner","type":"address"},{"indexed":true,"internalType":"address","name":"newOwner","type":"address"}],"name":"OwnershipTransferred","type":"event"},{"anonymous":false,"inputs":[{"indexed":false,"internalType":"string","name":"_name","type":"string"},{"indexed":false,"internalType":"string","name":"_class","type":"string"},{"indexed":false,"internalType":"address","name":"_addr","type":"address"}],"name":"studentAdded","type":"event"},{"anonymous":false,"inputs":[{"indexed":false,"internalType":"string","name":"_class","type":"string"},{"indexed":false,"internalType":"string","name":"_course","type":"string"},{"indexed":false,"internalType":"address","name":"_addr","type":"address"}],"name":"teacherAdded","type":"event"},{"inputs":[{"internalType":"string","name":"_name","type":"string"},{"internalType":"string","name":"_class","type":"string"},{"internalType":"address","name":"_addr","type":"address"}],"name":"addStudent","outputs":[],"stateMutability":"nonpayable","type":"function"},{"inputs":[{"internalType":"string","name":"_class","type":"string"}],"name":"calculateMoyenneGenerale","outputs":[{"internalType":"uint256","name":"","type":"uint256"}],"stateMutability":"view","type":"function"},{"inputs":[{"internalType":"string","name":"_class","type":"string"},{"internalType":"string","name":"_course","type":"string"}],"name":"calculateMoyennePerCourse","outputs":[{"internalType":"uint256","name":"","type":"uint256"}],"stateMutability":"view","type":"function"},{"inputs":[{"internalType":"string","name":"_name","type":"string"}],"name":"calculateMoyenneStudent","outputs":[{"internalType":"uint256","name":"","type":"uint256"}],"stateMutability":"view","type":"function"},{"inputs":[{"internalType":"string","name":"_name","type":"string"}],"name":"isPassing","outputs":[{"internalType":"bool","name":"","type":"bool"}],"stateMutability":"view","type":"function"},{"inputs":[],"name":"owner","outputs":[{"internalType":"address","name":"","type":"address"}],"stateMutability":"view","type":"function"},{"inputs":[],"name":"renounceOwnership","outputs":[],"stateMutability":"nonpayable","type":"function"},{"inputs":[{"internalType":"string","name":"_course","type":"string"},{"internalType":"string","name":"_nameStudent","type":"string"},{"internalType":"uint256","name":"_note","type":"uint256"}],"name":"setNote","outputs":[],"stateMutability":"nonpayable","type":"function"},{"inputs":[{"internalType":"string","name":"_class","type":"string"},{"internalType":"string","name":"_course","type":"string"},{"internalType":"address","name":"_addr","type":"address"}],"name":"setTeacher","outputs":[],"stateMutability":"nonpayable","type":"function"},{"inputs":[{"internalType":"address","name":"newOwner","type":"address"}],"name":"transferOwnership","outputs":[],"stateMutability":"nonpayable","type":"function"}],"devdoc":{"kind":"dev","methods":{"owner()":{"details":"Returns the address of the current owner."},"renounceOwnership()":{"details":"Leaves the contract without owner. It will not be possible to call `onlyOwner` functions anymore. Can only be called by the current owner. NOTE: Renouncing ownership will leave the contract without an owner, thereby removing any functionality that is only available to the owner."},"transferOwnership(address)":{"details":"Transfers ownership of the contract to a new account (`newOwner`). Can only be called by the current owner."}},"version":1},"evm":{"bytecode":{"linkReferences":{},"object":"608060405234801561001057600080fd5b5061001a3361001f565b61006f565b600080546001600160a01b038381166001600160a01b0319831681178455604051919092169283917f8be0079c531659141344cd1fd0a4f28419497f9722a3daafe3b4186f6b6457e09190a35050565b6111ef8061007e6000396000f3fe608060405234801561001057600080fd5b506004361061009e5760003560e01c8063715018a611610066578063715018a6146101275780638da5cb5b1461012f578063c2ef37711461014a578063d304b1ea1461015d578063f2fde38b1461017057600080fd5b806302a3c89b146100a35780630b90cbc9146100c95780630dc0ffb1146100de57806327b51db21461010157806342de061914610114575b600080fd5b6100b66100b1366004610d13565b610183565b6040519081526020015b60405180910390f35b6100dc6100d7366004610d5f565b610232565b005b6100f16100ec366004610d13565b6102d5565b60405190151581526020016100c0565b6100dc61010f366004610dd3565b6102ff565b6100dc610122366004610d5f565b610533565b6100dc610647565b6000546040516001600160a01b0390911681526020016100c0565b6100b6610158366004610e40565b61065b565b6100b661016b366004610d13565b61094f565b6100dc61017e366004610ea4565b610a47565b600061018d610ac0565b600061019883610b1a565b90506003600182815481106101af576101af610ebf565b906000526020600020906006020160050154600183815481106101d4576101d4610ebf565b906000526020600020906006020160040154600184815481106101f9576101f9610ebf565b9060005260206000209060060201600301546102159190610eeb565b61021f9190610eeb565b6102299190610efe565b9150505b919050565b61023a610ac0565b8060028460405161024b9190610f44565b9081526020016040518091039020836040516102679190610f44565b90815260405190819003602001812080546001600160a01b03939093166001600160a01b0319909316929092179091557f80a01e1d3291c6b3092f33ed56018c7bf68c833d0ea02c22585a85453a95fb05906102c890859085908590610f8c565b60405180910390a1505050565b60006102df610ac0565b600a6102ea83610183565b106102f757506001919050565b506000919050565b600061030a83610b1a565b905060026001828154811061032157610321610ebf565b906000526020600020906006020160010160405161033f9190611004565b90815260200160405180910390208460405161035b9190610f44565b90815260405190819003602001902054336001600160a01b03909116146103df5760405162461bcd60e51b815260206004820152602d60248201527f796f75207265206e6f74207468652074656163686572206f662074686973207360448201526c747564656e7420636f7572736560981b60648201526084015b60405180910390fd5b610408846040518060400160405280600781526020016662696f6c6f677960c81b815250610bbf565b1561043b57816001828154811061042157610421610ebf565b90600052602060002090600602016003018190555061052d565b61046284604051806040016040528060058152602001646d6174687360d81b815250610bbf565b1561049557816001828154811061047b5761047b610ebf565b90600052602060002090600602016004018190555061052d565b6104bd84604051806040016040528060068152602001650cce4cadcc6d60d31b815250610bbf565b156104f05781600182815481106104d6576104d6610ebf565b90600052602060002090600602016005018190555061052d565b60405162461bcd60e51b8152602060048201526012602482015271747970652061207265616c20636f7572736560701b60448201526064016103d6565b50505050565b61053b610ac0565b6040805160c081018252848152602081018490526001600160a01b038316918101919091526000606082018190526080820181905260a082018190526001805480820182559152815160069091027fb10e2d527612073b26eecdfd717e6a320cf44b4afac2b0732d9fcbe2b7fa0cf6019081906105b890826110c9565b50602082015160018201906105cd90826110c9565b506040828101516002830180546001600160a01b0319166001600160a01b03909216919091179055606083015160038301556080830151600483015560a090920151600590910155517fc5a733a207b7a059be3101c664dd32331efcaa32bb12d0531ae1b7d4607a7415906102c890859085908590610f8c565b61064f610ac0565b6106596000610c20565b565b600060028360405161066d9190610f44565b9081526020016040518091039020826040516106899190610f44565b90815260405190819003602001902054336001600160a01b03909116146107065760405162461bcd60e51b815260206004820152602b60248201527f796f75277265206e6f74207468652074656163686572206f662074686973206360448201526a6c61737320636f7572736560a81b60648201526084016103d6565b60008060005b60015481101561092a576107cc866001838154811061072d5761072d610ebf565b9060005260206000209060060201600101805461074990610fca565b80601f016020809104026020016040519081016040528092919081815260200182805461077590610fca565b80156107c25780601f10610797576101008083540402835291602001916107c2565b820191906000526020600020905b8154815290600101906020018083116107a557829003601f168201915b5050505050610bbf565b15610918576107fa856040518060400160405280600781526020016662696f6c6f677960c81b815250610bbf565b1561083f576001818154811061081257610812610ebf565b9060005260206000209060060201600301548361082f9190610eeb565b925061083c600183610eeb565b91505b61086685604051806040016040528060058152602001646d6174687360d81b815250610bbf565b156108ab576001818154811061087e5761087e610ebf565b9060005260206000209060060201600401548361089b9190610eeb565b92506108a8600183610eeb565b91505b6108d385604051806040016040528060068152602001650cce4cadcc6d60d31b815250610bbf565b1561091857600181815481106108eb576108eb610ebf565b906000526020600020906006020160050154836109089190610eeb565b9250610915600183610eeb565b91505b8061092281611189565b91505061070c565b506000816109398460646111a2565b6109439190610efe565b93505050505b92915050565b6000610959610ac0565b60008060005b600154811015610a3457610980856001838154811061072d5761072d610ebf565b15610a22576001818154811061099857610998610ebf565b906000526020600020906006020160050154600182815481106109bd576109bd610ebf565b906000526020600020906006020160040154600183815481106109e2576109e2610ebf565b9060005260206000209060060201600301546109fe9190610eeb565b610a089190610eeb565b610a129084610eeb565b9250610a1f600383610eeb565b91505b80610a2c81611189565b91505061095f565b50610a3f8183610efe565b949350505050565b610a4f610ac0565b6001600160a01b038116610ab45760405162461bcd60e51b815260206004820152602660248201527f4f776e61626c653a206e6577206f776e657220697320746865207a65726f206160448201526564647265737360d01b60648201526084016103d6565b610abd81610c20565b50565b6000546001600160a01b031633146106595760405162461bcd60e51b815260206004820181905260248201527f4f776e61626c653a2063616c6c6572206973206e6f7420746865206f776e657260448201526064016103d6565b6000805b600154811015610bb65782604051602001610b399190610f44565b6040516020818303038152906040528051906020012060018281548110610b6257610b62610ebf565b9060005260206000209060060201600001604051602001610b839190611004565b6040516020818303038152906040528051906020012003610ba45792915050565b80610bae81611189565b915050610b1e565b50600092915050565b60008082604051602001610bd39190610f44565b6040516020818303038152906040528051906020012084604051602001610bfa9190610f44565b6040516020818303038152906040528051906020012003610c19575060015b9392505050565b600080546001600160a01b038381166001600160a01b0319831681178455604051919092169283917f8be0079c531659141344cd1fd0a4f28419497f9722a3daafe3b4186f6b6457e09190a35050565b634e487b7160e01b600052604160045260246000fd5b600082601f830112610c9757600080fd5b813567ffffffffffffffff80821115610cb257610cb2610c70565b604051601f8301601f19908116603f01168101908282118183101715610cda57610cda610c70565b81604052838152866020858801011115610cf357600080fd5b836020870160208301376000602085830101528094505050505092915050565b600060208284031215610d2557600080fd5b813567ffffffffffffffff811115610d3c57600080fd5b610a3f84828501610c86565b80356001600160a01b038116811461022d57600080fd5b600080600060608486031215610d7457600080fd5b833567ffffffffffffffff80821115610d8c57600080fd5b610d9887838801610c86565b94506020860135915080821115610dae57600080fd5b50610dbb86828701610c86565b925050610dca60408501610d48565b90509250925092565b600080600060608486031215610de857600080fd5b833567ffffffffffffffff80821115610e0057600080fd5b610e0c87838801610c86565b94506020860135915080821115610e2257600080fd5b50610e2f86828701610c86565b925050604084013590509250925092565b60008060408385031215610e5357600080fd5b823567ffffffffffffffff80821115610e6b57600080fd5b610e7786838701610c86565b93506020850135915080821115610e8d57600080fd5b50610e9a85828601610c86565b9150509250929050565b600060208284031215610eb657600080fd5b610c1982610d48565b634e487b7160e01b600052603260045260246000fd5b634e487b7160e01b600052601160045260246000fd5b8082018082111561094957610949610ed5565b600082610f1b57634e487b7160e01b600052601260045260246000fd5b500490565b60005b83811015610f3b578181015183820152602001610f23565b50506000910152565b60008251610f56818460208701610f20565b9190910192915050565b60008151808452610f78816020860160208601610f20565b601f01601f19169290920160200192915050565b606081526000610f9f6060830186610f60565b8281036020840152610fb18186610f60565b91505060018060a01b0383166040830152949350505050565b600181811c90821680610fde57607f821691505b602082108103610ffe57634e487b7160e01b600052602260045260246000fd5b50919050565b600080835461101281610fca565b6001828116801561102a576001811461103f5761106e565b60ff198416875282151583028701945061106e565b8760005260208060002060005b858110156110655781548a82015290840190820161104c565b50505082870194505b50929695505050505050565b601f8211156110c457600081815260208120601f850160051c810160208610156110a15750805b601f850160051c820191505b818110156110c0578281556001016110ad565b5050505b505050565b815167ffffffffffffffff8111156110e3576110e3610c70565b6110f7816110f18454610fca565b8461107a565b602080601f83116001811461112c57600084156111145750858301515b600019600386901b1c1916600185901b1785556110c0565b600085815260208120601f198616915b8281101561115b5788860151825594840194600190910190840161113c565b50858210156111795787850151600019600388901b60f8161c191681555b5050505050600190811b01905550565b60006001820161119b5761119b610ed5565b5060010190565b808202811582820484141761094957610949610ed556fea2646970667358221220eeb87f92ce1ff10f51ebe2dcb3ea933899b6c7bda2a02e6e00c40fd9dec593b764736f6c63430008110033","opcodes":"PUSH1 0x80 PUSH1 0x40 MSTORE CALLVALUE DUP1 ISZERO PUSH2 0x10 JUMPI PUSH1 0x0 DUP1 REVERT JUMPDEST POP PUSH2 0x1A CALLER PUSH2 0x1F JUMP JUMPDEST PUSH2 0x6F JUMP JUMPDEST PUSH1 0x0 DUP1 SLOAD PUSH1 0x1 PUSH1 0x1 PUSH1 0xA0 SHL SUB DUP4 DUP2 AND PUSH1 0x1 PUSH1 0x1 PUSH1 0xA0 SHL SUB NOT DUP4 AND DUP2 OR DUP5 SSTORE PUSH1 0x40 MLOAD SWAP2 SWAP1 SWAP3 AND SWAP3 DUP4 SWAP2 PUSH32 0x8BE0079C531659141344CD1FD0A4F28419497F9722A3DAAFE3B4186F6B6457E0 SWAP2 SWAP1 LOG3 POP POP JUMP JUMPDEST PUSH2 0x11EF DUP1 PUSH2 0x7E PUSH1 0x0 CODECOPY PUSH1 0x0 RETURN INVALID PUSH1 0x80 PUSH1 0x40 MSTORE CALLVALUE DUP1 ISZERO PUSH2 0x10 JUMPI PUSH1 0x0 DUP1 REVERT JUMPDEST POP PUSH1 0x4 CALLDATASIZE LT PUSH2 0x9E JUMPI PUSH1 0x0 CALLDATALOAD PUSH1 0xE0 SHR DUP1 PUSH4 0x715018A6 GT PUSH2 0x66 JUMPI DUP1 PUSH4 0x715018A6 EQ PUSH2 0x127 JUMPI DUP1 PUSH4 0x8DA5CB5B EQ PUSH2 0x12F JUMPI DUP1 PUSH4 0xC2EF3771 EQ PUSH2 0x14A JUMPI DUP1 PUSH4 0xD304B1EA EQ PUSH2 0x15D JUMPI DUP1 PUSH4 0xF2FDE38B EQ PUSH2 0x170 JUMPI PUSH1 0x0 DUP1 REVERT JUMPDEST DUP1 PUSH4 0x2A3C89B EQ PUSH2 0xA3 JUMPI DUP1 PUSH4 0xB90CBC9 EQ PUSH2 0xC9 JUMPI DUP1 PUSH4 0xDC0FFB1 EQ PUSH2 0xDE JUMPI DUP1 PUSH4 0x27B51DB2 EQ PUSH2 0x101 JUMPI DUP1 PUSH4 0x42DE0619 EQ PUSH2 0x114 JUMPI JUMPDEST PUSH1 0x0 DUP1 REVERT JUMPDEST PUSH2 0xB6 PUSH2 0xB1 CALLDATASIZE PUSH1 0x4 PUSH2 0xD13 JUMP JUMPDEST PUSH2 0x183 JUMP JUMPDEST PUSH1 0x40 MLOAD SWAP1 DUP2 MSTORE PUSH1 0x20 ADD JUMPDEST PUSH1 0x40 MLOAD DUP1 SWAP2 SUB SWAP1 RETURN JUMPDEST PUSH2 0xDC PUSH2 0xD7 CALLDATASIZE PUSH1 0x4 PUSH2 0xD5F JUMP JUMPDEST PUSH2 0x232 JUMP JUMPDEST STOP JUMPDEST PUSH2 0xF1 PUSH2 0xEC CALLDATASIZE PUSH1 0x4 PUSH2 0xD13 JUMP JUMPDEST PUSH2 0x2D5 JUMP JUMPDEST PUSH1 0x40 MLOAD SWAP1 ISZERO ISZERO DUP2 MSTORE PUSH1 0x20 ADD PUSH2 0xC0 JUMP JUMPDEST PUSH2 0xDC PUSH2 0x10F CALLDATASIZE PUSH1 0x4 PUSH2 0xDD3 JUMP JUMPDEST PUSH2 0x2FF JUMP JUMPDEST PUSH2 0xDC PUSH2 0x122 CALLDATASIZE PUSH1 0x4 PUSH2 0xD5F JUMP JUMPDEST PUSH2 0x533 JUMP JUMPDEST PUSH2 0xDC PUSH2 0x647 JUMP JUMPDEST PUSH1 0x0 SLOAD PUSH1 0x40 MLOAD PUSH1 0x1 PUSH1 0x1 PUSH1 0xA0 SHL SUB SWAP1 SWAP2 AND DUP2 MSTORE PUSH1 0x20 ADD PUSH2 0xC0 JUMP JUMPDEST PUSH2 0xB6 PUSH2 0x158 CALLDATASIZE PUSH1 0x4 PUSH2 0xE40 JUMP JUMPDEST PUSH2 0x65B JUMP JUMPDEST PUSH2 0xB6 PUSH2 0x16B CALLDATASIZE PUSH1 0x4 PUSH2 0xD13 JUMP JUMPDEST PUSH2 0x94F JUMP JUMPDEST PUSH2 0xDC PUSH2 0x17E CALLDATASIZE PUSH1 0x4 PUSH2 0xEA4 JUMP JUMPDEST PUSH2 0xA47 JUMP JUMPDEST PUSH1 0x0 PUSH2 0x18D PUSH2 0xAC0 JUMP JUMPDEST PUSH1 0x0 PUSH2 0x198 DUP4 PUSH2 0xB1A JUMP JUMPDEST SWAP1 POP PUSH1 0x3 PUSH1 0x1 DUP3 DUP2 SLOAD DUP2 LT PUSH2 0x1AF JUMPI PUSH2 0x1AF PUSH2 0xEBF JUMP JUMPDEST SWAP1 PUSH1 0x0 MSTORE PUSH1 0x20 PUSH1 0x0 KECCAK256 SWAP1 PUSH1 0x6 MUL ADD PUSH1 0x5 ADD SLOAD PUSH1 0x1 DUP4 DUP2 SLOAD DUP2 LT PUSH2 0x1D4 JUMPI PUSH2 0x1D4 PUSH2 0xEBF JUMP JUMPDEST SWAP1 PUSH1 0x0 MSTORE PUSH1 0x20 PUSH1 0x0 KECCAK256 SWAP1 PUSH1 0x6 MUL ADD PUSH1 0x4 ADD SLOAD PUSH1 0x1 DUP5 DUP2 SLOAD DUP2 LT PUSH2 0x1F9 JUMPI PUSH2 0x1F9 PUSH2 0xEBF JUMP JUMPDEST SWAP1 PUSH1 0x0 MSTORE PUSH1 0x20 PUSH1 0x0 KECCAK256 SWAP1 PUSH1 0x6 MUL ADD PUSH1 0x3 ADD SLOAD PUSH2 0x215 SWAP2 SWAP1 PUSH2 0xEEB JUMP JUMPDEST PUSH2 0x21F SWAP2 SWAP1 PUSH2 0xEEB JUMP JUMPDEST PUSH2 0x229 SWAP2 SWAP1 PUSH2 0xEFE JUMP JUMPDEST SWAP2 POP POP JUMPDEST SWAP2 SWAP1 POP JUMP JUMPDEST PUSH2 0x23A PUSH2 0xAC0 JUMP JUMPDEST DUP1 PUSH1 0x2 DUP5 PUSH1 0x40 MLOAD PUSH2 0x24B SWAP2 SWAP1 PUSH2 0xF44 JUMP JUMPDEST SWAP1 DUP2 MSTORE PUSH1 0x20 ADD PUSH1 0x40 MLOAD DUP1 SWAP2 SUB SWAP1 KECCAK256 DUP4 PUSH1 0x40 MLOAD PUSH2 0x267 SWAP2 SWAP1 PUSH2 0xF44 JUMP JUMPDEST SWAP1 DUP2 MSTORE PUSH1 0x40 MLOAD SWAP1 DUP2 SWAP1 SUB PUSH1 0x20 ADD DUP2 KECCAK256 DUP1 SLOAD PUSH1 0x1 PUSH1 0x1 PUSH1 0xA0 SHL SUB SWAP4 SWAP1 SWAP4 AND PUSH1 0x1 PUSH1 0x1 PUSH1 0xA0 SHL SUB NOT SWAP1 SWAP4 AND SWAP3 SWAP1 SWAP3 OR SWAP1 SWAP2 SSTORE PUSH32 0x80A01E1D3291C6B3092F33ED56018C7BF68C833D0EA02C22585A85453A95FB05 SWAP1 PUSH2 0x2C8 SWAP1 DUP6 SWAP1 DUP6 SWAP1 DUP6 SWAP1 PUSH2 0xF8C JUMP JUMPDEST PUSH1 0x40 MLOAD DUP1 SWAP2 SUB SWAP1 LOG1 POP POP POP JUMP JUMPDEST PUSH1 0x0 PUSH2 0x2DF PUSH2 0xAC0 JUMP JUMPDEST PUSH1 0xA PUSH2 0x2EA DUP4 PUSH2 0x183 JUMP JUMPDEST LT PUSH2 0x2F7 JUMPI POP PUSH1 0x1 SWAP2 SWAP1 POP JUMP JUMPDEST POP PUSH1 0x0 SWAP2 SWAP1 POP JUMP JUMPDEST PUSH1 0x0 PUSH2 0x30A DUP4 PUSH2 0xB1A JUMP JUMPDEST SWAP1 POP PUSH1 0x2 PUSH1 0x1 DUP3 DUP2 SLOAD DUP2 LT PUSH2 0x321 JUMPI PUSH2 0x321 PUSH2 0xEBF JUMP JUMPDEST SWAP1 PUSH1 0x0 MSTORE PUSH1 0x20 PUSH1 0x0 KECCAK256 SWAP1 PUSH1 0x6 MUL ADD PUSH1 0x1 ADD PUSH1 0x40 MLOAD PUSH2 0x33F SWAP2 SWAP1 PUSH2 0x1004 JUMP JUMPDEST SWAP1 DUP2 MSTORE PUSH1 0x20 ADD PUSH1 0x40 MLOAD DUP1 SWAP2 SUB SWAP1 KECCAK256 DUP5 PUSH1 0x40 MLOAD PUSH2 0x35B SWAP2 SWAP1 PUSH2 0xF44 JUMP JUMPDEST SWAP1 DUP2 MSTORE PUSH1 0x40 MLOAD SWAP1 DUP2 SWAP1 SUB PUSH1 0x20 ADD SWAP1 KECCAK256 SLOAD CALLER PUSH1 0x1 PUSH1 0x1 PUSH1 0xA0 SHL SUB SWAP1 SWAP2 AND EQ PUSH2 0x3DF JUMPI PUSH1 0x40 MLOAD PUSH3 0x461BCD PUSH1 0xE5 SHL DUP2 MSTORE PUSH1 0x20 PUSH1 0x4 DUP3 ADD MSTORE PUSH1 0x2D PUSH1 0x24 DUP3 ADD MSTORE PUSH32 0x796F75207265206E6F74207468652074656163686572206F6620746869732073 PUSH1 0x44 DUP3 ADD MSTORE PUSH13 0x747564656E7420636F75727365 PUSH1 0x98 SHL PUSH1 0x64 DUP3 ADD MSTORE PUSH1 0x84 ADD JUMPDEST PUSH1 0x40 MLOAD DUP1 SWAP2 SUB SWAP1 REVERT JUMPDEST PUSH2 0x408 DUP5 PUSH1 0x40 MLOAD DUP1 PUSH1 0x40 ADD PUSH1 0x40 MSTORE DUP1 PUSH1 0x7 DUP2 MSTORE PUSH1 0x20 ADD PUSH7 0x62696F6C6F6779 PUSH1 0xC8 SHL DUP2 MSTORE POP PUSH2 0xBBF JUMP JUMPDEST ISZERO PUSH2 0x43B JUMPI DUP2 PUSH1 0x1 DUP3 DUP2 SLOAD DUP2 LT PUSH2 0x421 JUMPI PUSH2 0x421 PUSH2 0xEBF JUMP JUMPDEST SWAP1 PUSH1 0x0 MSTORE PUSH1 0x20 PUSH1 0x0 KECCAK256 SWAP1 PUSH1 0x6 MUL ADD PUSH1 0x3 ADD DUP2 SWAP1 SSTORE POP PUSH2 0x52D JUMP JUMPDEST PUSH2 0x462 DUP5 PUSH1 0x40 MLOAD DUP1 PUSH1 0x40 ADD PUSH1 0x40 MSTORE DUP1 PUSH1 0x5 DUP2 MSTORE PUSH1 0x20 ADD PUSH5 0x6D61746873 PUSH1 0xD8 SHL DUP2 MSTORE POP PUSH2 0xBBF JUMP JUMPDEST ISZERO PUSH2 0x495 JUMPI DUP2 PUSH1 0x1 DUP3 DUP2 SLOAD DUP2 LT PUSH2 0x47B JUMPI PUSH2 0x47B PUSH2 0xEBF JUMP JUMPDEST SWAP1 PUSH1 0x0 MSTORE PUSH1 0x20 PUSH1 0x0 KECCAK256 SWAP1 PUSH1 0x6 MUL ADD PUSH1 0x4 ADD DUP2 SWAP1 SSTORE POP PUSH2 0x52D JUMP JUMPDEST PUSH2 0x4BD DUP5 PUSH1 0x40 MLOAD DUP1 PUSH1 0x40 ADD PUSH1 0x40 MSTORE DUP1 PUSH1 0x6 DUP2 MSTORE PUSH1 0x20 ADD PUSH6 0xCCE4CADCC6D PUSH1 0xD3 SHL DUP2 MSTORE POP PUSH2 0xBBF JUMP JUMPDEST ISZERO PUSH2 0x4F0 JUMPI DUP2 PUSH1 0x1 DUP3 DUP2 SLOAD DUP2 LT PUSH2 0x4D6 JUMPI PUSH2 0x4D6 PUSH2 0xEBF JUMP JUMPDEST SWAP1 PUSH1 0x0 MSTORE PUSH1 0x20 PUSH1 0x0 KECCAK256 SWAP1 PUSH1 0x6 MUL ADD PUSH1 0x5 ADD DUP2 SWAP1 SSTORE POP PUSH2 0x52D JUMP JUMPDEST PUSH1 0x40 MLOAD PUSH3 0x461BCD PUSH1 0xE5 SHL DUP2 MSTORE PUSH1 0x20 PUSH1 0x4 DUP3 ADD MSTORE PUSH1 0x12 PUSH1 0x24 DUP3 ADD MSTORE PUSH18 0x747970652061207265616C20636F75727365 PUSH1 0x70 SHL PUSH1 0x44 DUP3 ADD MSTORE PUSH1 0x64 ADD PUSH2 0x3D6 JUMP JUMPDEST POP POP POP POP JUMP JUMPDEST PUSH2 0x53B PUSH2 0xAC0 JUMP JUMPDEST PUSH1 0x40 DUP1 MLOAD PUSH1 0xC0 DUP2 ADD DUP3 MSTORE DUP5 DUP2 MSTORE PUSH1 0x20 DUP2 ADD DUP5 SWAP1 MSTORE PUSH1 0x1 PUSH1 0x1 PUSH1 0xA0 SHL SUB DUP4 AND SWAP2 DUP2 ADD SWAP2 SWAP1 SWAP2 MSTORE PUSH1 0x0 PUSH1 0x60 DUP3 ADD DUP2 SWAP1 MSTORE PUSH1 0x80 DUP3 ADD DUP2 SWAP1 MSTORE PUSH1 0xA0 DUP3 ADD DUP2 SWAP1 MSTORE PUSH1 0x1 DUP1 SLOAD DUP1 DUP3 ADD DUP3 SSTORE SWAP2 MSTORE DUP2 MLOAD PUSH1 0x6 SWAP1 SWAP2 MUL PUSH32 0xB10E2D527612073B26EECDFD717E6A320CF44B4AFAC2B0732D9FCBE2B7FA0CF6 ADD SWAP1 DUP2 SWAP1 PUSH2 0x5B8 SWAP1 DUP3 PUSH2 0x10C9 JUMP JUMPDEST POP PUSH1 0x20 DUP3 ADD MLOAD PUSH1 0x1 DUP3 ADD SWAP1 PUSH2 0x5CD SWAP1 DUP3 PUSH2 0x10C9 JUMP JUMPDEST POP PUSH1 0x40 DUP3 DUP2 ADD MLOAD PUSH1 0x2 DUP4 ADD DUP1 SLOAD PUSH1 0x1 PUSH1 0x1 PUSH1 0xA0 SHL SUB NOT AND PUSH1 0x1 PUSH1 0x1 PUSH1 0xA0 SHL SUB SWAP1 SWAP3 AND SWAP2 SWAP1 SWAP2 OR SWAP1 SSTORE PUSH1 0x60 DUP4 ADD MLOAD PUSH1 0x3 DUP4 ADD SSTORE PUSH1 0x80 DUP4 ADD MLOAD PUSH1 0x4 DUP4 ADD SSTORE PUSH1 0xA0 SWAP1 SWAP3 ADD MLOAD PUSH1 0x5 SWAP1 SWAP2 ADD SSTORE MLOAD PUSH32 0xC5A733A207B7A059BE3101C664DD32331EFCAA32BB12D0531AE1B7D4607A7415 SWAP1 PUSH2 0x2C8 SWAP1 DUP6 SWAP1 DUP6 SWAP1 DUP6 SWAP1 PUSH2 0xF8C JUMP JUMPDEST PUSH2 0x64F PUSH2 0xAC0 JUMP JUMPDEST PUSH2 0x659 PUSH1 0x0 PUSH2 0xC20 JUMP JUMPDEST JUMP JUMPDEST PUSH1 0x0 PUSH1 0x2 DUP4 PUSH1 0x40 MLOAD PUSH2 0x66D SWAP2 SWAP1 PUSH2 0xF44 JUMP JUMPDEST SWAP1 DUP2 MSTORE PUSH1 0x20 ADD PUSH1 0x40 MLOAD DUP1 SWAP2 SUB SWAP1 KECCAK256 DUP3 PUSH1 0x40 MLOAD PUSH2 0x689 SWAP2 SWAP1 PUSH2 0xF44 JUMP JUMPDEST SWAP1 DUP2 MSTORE PUSH1 0x40 MLOAD SWAP1 DUP2 SWAP1 SUB PUSH1 0x20 ADD SWAP1 KECCAK256 SLOAD CALLER PUSH1 0x1 PUSH1 0x1 PUSH1 0xA0 SHL SUB SWAP1 SWAP2 AND EQ PUSH2 0x706 JUMPI PUSH1 0x40 MLOAD PUSH3 0x461BCD PUSH1 0xE5 SHL DUP2 MSTORE PUSH1 0x20 PUSH1 0x4 DUP3 ADD MSTORE PUSH1 0x2B PUSH1 0x24 DUP3 ADD MSTORE PUSH32 0x796F75277265206E6F74207468652074656163686572206F6620746869732063 PUSH1 0x44 DUP3 ADD MSTORE PUSH11 0x6C61737320636F75727365 PUSH1 0xA8 SHL PUSH1 0x64 DUP3 ADD MSTORE PUSH1 0x84 ADD PUSH2 0x3D6 JUMP JUMPDEST PUSH1 0x0 DUP1 PUSH1 0x0 JUMPDEST PUSH1 0x1 SLOAD DUP2 LT ISZERO PUSH2 0x92A JUMPI PUSH2 0x7CC DUP7 PUSH1 0x1 DUP4 DUP2 SLOAD DUP2 LT PUSH2 0x72D JUMPI PUSH2 0x72D PUSH2 0xEBF JUMP JUMPDEST SWAP1 PUSH1 0x0 MSTORE PUSH1 0x20 PUSH1 0x0 KECCAK256 SWAP1 PUSH1 0x6 MUL ADD PUSH1 0x1 ADD DUP1 SLOAD PUSH2 0x749 SWAP1 PUSH2 0xFCA JUMP JUMPDEST DUP1 PUSH1 0x1F ADD PUSH1 0x20 DUP1 SWAP2 DIV MUL PUSH1 0x20 ADD PUSH1 0x40 MLOAD SWAP1 DUP2 ADD PUSH1 0x40 MSTORE DUP1 SWAP3 SWAP2 SWAP1 DUP2 DUP2 MSTORE PUSH1 0x20 ADD DUP3 DUP1 SLOAD PUSH2 0x775 SWAP1 PUSH2 0xFCA JUMP JUMPDEST DUP1 ISZERO PUSH2 0x7C2 JUMPI DUP1 PUSH1 0x1F LT PUSH2 0x797 JUMPI PUSH2 0x100 DUP1 DUP4 SLOAD DIV MUL DUP4 MSTORE SWAP2 PUSH1 0x20 ADD SWAP2 PUSH2 0x7C2 JUMP JUMPDEST DUP3 ADD SWAP2 SWAP1 PUSH1 0x0 MSTORE PUSH1 0x20 PUSH1 0x0 KECCAK256 SWAP1 JUMPDEST DUP2 SLOAD DUP2 MSTORE SWAP1 PUSH1 0x1 ADD SWAP1 PUSH1 0x20 ADD DUP1 DUP4 GT PUSH2 0x7A5 JUMPI DUP3 SWAP1 SUB PUSH1 0x1F AND DUP3 ADD SWAP2 JUMPDEST POP POP POP POP POP PUSH2 0xBBF JUMP JUMPDEST ISZERO PUSH2 0x918 JUMPI PUSH2 0x7FA DUP6 PUSH1 0x40 MLOAD DUP1 PUSH1 0x40 ADD PUSH1 0x40 MSTORE DUP1 PUSH1 0x7 DUP2 MSTORE PUSH1 0x20 ADD PUSH7 0x62696F6C6F6779 PUSH1 0xC8 SHL DUP2 MSTORE POP PUSH2 0xBBF JUMP JUMPDEST ISZERO PUSH2 0x83F JUMPI PUSH1 0x1 DUP2 DUP2 SLOAD DUP2 LT PUSH2 0x812 JUMPI PUSH2 0x812 PUSH2 0xEBF JUMP JUMPDEST SWAP1 PUSH1 0x0 MSTORE PUSH1 0x20 PUSH1 0x0 KECCAK256 SWAP1 PUSH1 0x6 MUL ADD PUSH1 0x3 ADD SLOAD DUP4 PUSH2 0x82F SWAP2 SWAP1 PUSH2 0xEEB JUMP JUMPDEST SWAP3 POP PUSH2 0x83C PUSH1 0x1 DUP4 PUSH2 0xEEB JUMP JUMPDEST SWAP2 POP JUMPDEST PUSH2 0x866 DUP6 PUSH1 0x40 MLOAD DUP1 PUSH1 0x40 ADD PUSH1 0x40 MSTORE DUP1 PUSH1 0x5 DUP2 MSTORE PUSH1 0x20 ADD PUSH5 0x6D61746873 PUSH1 0xD8 SHL DUP2 MSTORE POP PUSH2 0xBBF JUMP JUMPDEST ISZERO PUSH2 0x8AB JUMPI PUSH1 0x1 DUP2 DUP2 SLOAD DUP2 LT PUSH2 0x87E JUMPI PUSH2 0x87E PUSH2 0xEBF JUMP JUMPDEST SWAP1 PUSH1 0x0 MSTORE PUSH1 0x20 PUSH1 0x0 KECCAK256 SWAP1 PUSH1 0x6 MUL ADD PUSH1 0x4 ADD SLOAD DUP4 PUSH2 0x89B SWAP2 SWAP1 PUSH2 0xEEB JUMP JUMPDEST SWAP3 POP PUSH2 0x8A8 PUSH1 0x1 DUP4 PUSH2 0xEEB JUMP JUMPDEST SWAP2 POP JUMPDEST PUSH2 0x8D3 DUP6 PUSH1 0x40 MLOAD DUP1 PUSH1 0x40 ADD PUSH1 0x40 MSTORE DUP1 PUSH1 0x6 DUP2 MSTORE PUSH1 0x20 ADD PUSH6 0xCCE4CADCC6D PUSH1 0xD3 SHL DUP2 MSTORE POP PUSH2 0xBBF JUMP JUMPDEST ISZERO PUSH2 0x918 JUMPI PUSH1 0x1 DUP2 DUP2 SLOAD DUP2 LT PUSH2 0x8EB JUMPI PUSH2 0x8EB PUSH2 0xEBF JUMP JUMPDEST SWAP1 PUSH1 0x0 MSTORE PUSH1 0x20 PUSH1 0x0 KECCAK256 SWAP1 PUSH1 0x6 MUL ADD PUSH1 0x5 ADD SLOAD DUP4 PUSH2 0x908 SWAP2 SWAP1 PUSH2 0xEEB JUMP JUMPDEST SWAP3 POP PUSH2 0x915 PUSH1 0x1 DUP4 PUSH2 0xEEB JUMP JUMPDEST SWAP2 POP JUMPDEST DUP1 PUSH2 0x922 DUP2 PUSH2 0x1189 JUMP JUMPDEST SWAP2 POP POP PUSH2 0x70C JUMP JUMPDEST POP PUSH1 0x0 DUP2 PUSH2 0x939 DUP5 PUSH1 0x64 PUSH2 0x11A2 JUMP JUMPDEST PUSH2 0x943 SWAP2 SWAP1 PUSH2 0xEFE JUMP JUMPDEST SWAP4 POP POP POP POP JUMPDEST SWAP3 SWAP2 POP POP JUMP JUMPDEST PUSH1 0x0 PUSH2 0x959 PUSH2 0xAC0 JUMP JUMPDEST PUSH1 0x0 DUP1 PUSH1 0x0 JUMPDEST PUSH1 0x1 SLOAD DUP2 LT ISZERO PUSH2 0xA34 JUMPI PUSH2 0x980 DUP6 PUSH1 0x1 DUP4 DUP2 SLOAD DUP2 LT PUSH2 0x72D JUMPI PUSH2 0x72D PUSH2 0xEBF JUMP JUMPDEST ISZERO PUSH2 0xA22 JUMPI PUSH1 0x1 DUP2 DUP2 SLOAD DUP2 LT PUSH2 0x998 JUMPI PUSH2 0x998 PUSH2 0xEBF JUMP JUMPDEST SWAP1 PUSH1 0x0 MSTORE PUSH1 0x20 PUSH1 0x0 KECCAK256 SWAP1 PUSH1 0x6 MUL ADD PUSH1 0x5 ADD SLOAD PUSH1 0x1 DUP3 DUP2 SLOAD DUP2 LT PUSH2 0x9BD JUMPI PUSH2 0x9BD PUSH2 0xEBF JUMP JUMPDEST SWAP1 PUSH1 0x0 MSTORE PUSH1 0x20 PUSH1 0x0 KECCAK256 SWAP1 PUSH1 0x6 MUL ADD PUSH1 0x4 ADD SLOAD PUSH1 0x1 DUP4 DUP2 SLOAD DUP2 LT PUSH2 0x9E2 JUMPI PUSH2 0x9E2 PUSH2 0xEBF JUMP JUMPDEST SWAP1 PUSH1 0x0 MSTORE PUSH1 0x20 PUSH1 0x0 KECCAK256 SWAP1 PUSH1 0x6 MUL ADD PUSH1 0x3 ADD SLOAD PUSH2 0x9FE SWAP2 SWAP1 PUSH2 0xEEB JUMP JUMPDEST PUSH2 0xA08 SWAP2 SWAP1 PUSH2 0xEEB JUMP JUMPDEST PUSH2 0xA12 SWAP1 DUP5 PUSH2 0xEEB JUMP JUMPDEST SWAP3 POP PUSH2 0xA1F PUSH1 0x3 DUP4 PUSH2 0xEEB JUMP JUMPDEST SWAP2 POP JUMPDEST DUP1 PUSH2 0xA2C DUP2 PUSH2 0x1189 JUMP JUMPDEST SWAP2 POP POP PUSH2 0x95F JUMP JUMPDEST POP PUSH2 0xA3F DUP2 DUP4 PUSH2 0xEFE JUMP JUMPDEST SWAP5 SWAP4 POP POP POP POP JUMP JUMPDEST PUSH2 0xA4F PUSH2 0xAC0 JUMP JUMPDEST PUSH1 0x1 PUSH1 0x1 PUSH1 0xA0 SHL SUB DUP2 AND PUSH2 0xAB4 JUMPI PUSH1 0x40 MLOAD PUSH3 0x461BCD PUSH1 0xE5 SHL DUP2 MSTORE PUSH1 0x20 PUSH1 0x4 DUP3 ADD MSTORE PUSH1 0x26 PUSH1 0x24 DUP3 ADD MSTORE PUSH32 0x4F776E61626C653A206E6577206F776E657220697320746865207A65726F2061 PUSH1 0x44 DUP3 ADD MSTORE PUSH6 0x646472657373 PUSH1 0xD0 SHL PUSH1 0x64 DUP3 ADD MSTORE PUSH1 0x84 ADD PUSH2 0x3D6 JUMP JUMPDEST PUSH2 0xABD DUP2 PUSH2 0xC20 JUMP JUMPDEST POP JUMP JUMPDEST PUSH1 0x0 SLOAD PUSH1 0x1 PUSH1 0x1 PUSH1 0xA0 SHL SUB AND CALLER EQ PUSH2 0x659 JUMPI PUSH1 0x40 MLOAD PUSH3 0x461BCD PUSH1 0xE5 SHL DUP2 MSTORE PUSH1 0x20 PUSH1 0x4 DUP3 ADD DUP2 SWAP1 MSTORE PUSH1 0x24 DUP3 ADD MSTORE PUSH32 0x4F776E61626C653A2063616C6C6572206973206E6F7420746865206F776E6572 PUSH1 0x44 DUP3 ADD MSTORE PUSH1 0x64 ADD PUSH2 0x3D6 JUMP JUMPDEST PUSH1 0x0 DUP1 JUMPDEST PUSH1 0x1 SLOAD DUP2 LT ISZERO PUSH2 0xBB6 JUMPI DUP3 PUSH1 0x40 MLOAD PUSH1 0x20 ADD PUSH2 0xB39 SWAP2 SWAP1 PUSH2 0xF44 JUMP JUMPDEST PUSH1 0x40 MLOAD PUSH1 0x20 DUP2 DUP4 SUB SUB DUP2 MSTORE SWAP1 PUSH1 0x40 MSTORE DUP1 MLOAD SWAP1 PUSH1 0x20 ADD KECCAK256 PUSH1 0x1 DUP3 DUP2 SLOAD DUP2 LT PUSH2 0xB62 JUMPI PUSH2 0xB62 PUSH2 0xEBF JUMP JUMPDEST SWAP1 PUSH1 0x0 MSTORE PUSH1 0x20 PUSH1 0x0 KECCAK256 SWAP1 PUSH1 0x6 MUL ADD PUSH1 0x0 ADD PUSH1 0x40 MLOAD PUSH1 0x20 ADD PUSH2 0xB83 SWAP2 SWAP1 PUSH2 0x1004 JUMP JUMPDEST PUSH1 0x40 MLOAD PUSH1 0x20 DUP2 DUP4 SUB SUB DUP2 MSTORE SWAP1 PUSH1 0x40 MSTORE DUP1 MLOAD SWAP1 PUSH1 0x20 ADD KECCAK256 SUB PUSH2 0xBA4 JUMPI SWAP3 SWAP2 POP POP JUMP JUMPDEST DUP1 PUSH2 0xBAE DUP2 PUSH2 0x1189 JUMP JUMPDEST SWAP2 POP POP PUSH2 0xB1E JUMP JUMPDEST POP PUSH1 0x0 SWAP3 SWAP2 POP POP JUMP JUMPDEST PUSH1 0x0 DUP1 DUP3 PUSH1 0x40 MLOAD PUSH1 0x20 ADD PUSH2 0xBD3 SWAP2 SWAP1 PUSH2 0xF44 JUMP JUMPDEST PUSH1 0x40 MLOAD PUSH1 0x20 DUP2 DUP4 SUB SUB DUP2 MSTORE SWAP1 PUSH1 0x40 MSTORE DUP1 MLOAD SWAP1 PUSH1 0x20 ADD KECCAK256 DUP5 PUSH1 0x40 MLOAD PUSH1 0x20 ADD PUSH2 0xBFA SWAP2 SWAP1 PUSH2 0xF44 JUMP JUMPDEST PUSH1 0x40 MLOAD PUSH1 0x20 DUP2 DUP4 SUB SUB DUP2 MSTORE SWAP1 PUSH1 0x40 MSTORE DUP1 MLOAD SWAP1 PUSH1 0x20 ADD KECCAK256 SUB PUSH2 0xC19 JUMPI POP PUSH1 0x1 JUMPDEST SWAP4 SWAP3 POP POP POP JUMP JUMPDEST PUSH1 0x0 DUP1 SLOAD PUSH1 0x1 PUSH1 0x1 PUSH1 0xA0 SHL SUB DUP4 DUP2 AND PUSH1 0x1 PUSH1 0x1 PUSH1 0xA0 SHL SUB NOT DUP4 AND DUP2 OR DUP5 SSTORE PUSH1 0x40 MLOAD SWAP2 SWAP1 SWAP3 AND SWAP3 DUP4 SWAP2 PUSH32 0x8BE0079C531659141344CD1FD0A4F28419497F9722A3DAAFE3B4186F6B6457E0 SWAP2 SWAP1 LOG3 POP POP JUMP JUMPDEST PUSH4 0x4E487B71 PUSH1 0xE0 SHL PUSH1 0x0 MSTORE PUSH1 0x41 PUSH1 0x4 MSTORE PUSH1 0x24 PUSH1 0x0 REVERT JUMPDEST PUSH1 0x0 DUP3 PUSH1 0x1F DUP4 ADD SLT PUSH2 0xC97 JUMPI PUSH1 0x0 DUP1 REVERT JUMPDEST DUP2 CALLDATALOAD PUSH8 0xFFFFFFFFFFFFFFFF DUP1 DUP3 GT ISZERO PUSH2 0xCB2 JUMPI PUSH2 0xCB2 PUSH2 0xC70 JUMP JUMPDEST PUSH1 0x40 MLOAD PUSH1 0x1F DUP4 ADD PUSH1 0x1F NOT SWAP1 DUP2 AND PUSH1 0x3F ADD AND DUP2 ADD SWAP1 DUP3 DUP3 GT DUP2 DUP4 LT OR ISZERO PUSH2 0xCDA JUMPI PUSH2 0xCDA PUSH2 0xC70 JUMP JUMPDEST DUP2 PUSH1 0x40 MSTORE DUP4 DUP2 MSTORE DUP7 PUSH1 0x20 DUP6 DUP9 ADD ADD GT ISZERO PUSH2 0xCF3 JUMPI PUSH1 0x0 DUP1 REVERT JUMPDEST DUP4 PUSH1 0x20 DUP8 ADD PUSH1 0x20 DUP4 ADD CALLDATACOPY PUSH1 0x0 PUSH1 0x20 DUP6 DUP4 ADD ADD MSTORE DUP1 SWAP5 POP POP POP POP POP SWAP3 SWAP2 POP POP JUMP JUMPDEST PUSH1 0x0 PUSH1 0x20 DUP3 DUP5 SUB SLT ISZERO PUSH2 0xD25 JUMPI PUSH1 0x0 DUP1 REVERT JUMPDEST DUP2 CALLDATALOAD PUSH8 0xFFFFFFFFFFFFFFFF DUP2 GT ISZERO PUSH2 0xD3C JUMPI PUSH1 0x0 DUP1 REVERT JUMPDEST PUSH2 0xA3F DUP5 DUP3 DUP6 ADD PUSH2 0xC86 JUMP JUMPDEST DUP1 CALLDATALOAD PUSH1 0x1 PUSH1 0x1 PUSH1 0xA0 SHL SUB DUP2 AND DUP2 EQ PUSH2 0x22D JUMPI PUSH1 0x0 DUP1 REVERT JUMPDEST PUSH1 0x0 DUP1 PUSH1 0x0 PUSH1 0x60 DUP5 DUP7 SUB SLT ISZERO PUSH2 0xD74 JUMPI PUSH1 0x0 DUP1 REVERT JUMPDEST DUP4 CALLDATALOAD PUSH8 0xFFFFFFFFFFFFFFFF DUP1 DUP3 GT ISZERO PUSH2 0xD8C JUMPI PUSH1 0x0 DUP1 REVERT JUMPDEST PUSH2 0xD98 DUP8 DUP4 DUP9 ADD PUSH2 0xC86 JUMP JUMPDEST SWAP5 POP PUSH1 0x20 DUP7 ADD CALLDATALOAD SWAP2 POP DUP1 DUP3 GT ISZERO PUSH2 0xDAE JUMPI PUSH1 0x0 DUP1 REVERT JUMPDEST POP PUSH2 0xDBB DUP7 DUP3 DUP8 ADD PUSH2 0xC86 JUMP JUMPDEST SWAP3 POP POP PUSH2 0xDCA PUSH1 0x40 DUP6 ADD PUSH2 0xD48 JUMP JUMPDEST SWAP1 POP SWAP3 POP SWAP3 POP SWAP3 JUMP JUMPDEST PUSH1 0x0 DUP1 PUSH1 0x0 PUSH1 0x60 DUP5 DUP7 SUB SLT ISZERO PUSH2 0xDE8 JUMPI PUSH1 0x0 DUP1 REVERT JUMPDEST DUP4 CALLDATALOAD PUSH8 0xFFFFFFFFFFFFFFFF DUP1 DUP3 GT ISZERO PUSH2 0xE00 JUMPI PUSH1 0x0 DUP1 REVERT JUMPDEST PUSH2 0xE0C DUP8 DUP4 DUP9 ADD PUSH2 0xC86 JUMP JUMPDEST SWAP5 POP PUSH1 0x20 DUP7 ADD CALLDATALOAD SWAP2 POP DUP1 DUP3 GT ISZERO PUSH2 0xE22 JUMPI PUSH1 0x0 DUP1 REVERT JUMPDEST POP PUSH2 0xE2F DUP7 DUP3 DUP8 ADD PUSH2 0xC86 JUMP JUMPDEST SWAP3 POP POP PUSH1 0x40 DUP5 ADD CALLDATALOAD SWAP1 POP SWAP3 POP SWAP3 POP SWAP3 JUMP JUMPDEST PUSH1 0x0 DUP1 PUSH1 0x40 DUP4 DUP6 SUB SLT ISZERO PUSH2 0xE53 JUMPI PUSH1 0x0 DUP1 REVERT JUMPDEST DUP3 CALLDATALOAD PUSH8 0xFFFFFFFFFFFFFFFF DUP1 DUP3 GT ISZERO PUSH2 0xE6B JUMPI PUSH1 0x0 DUP1 REVERT JUMPDEST PUSH2 0xE77 DUP7 DUP4 DUP8 ADD PUSH2 0xC86 JUMP JUMPDEST SWAP4 POP PUSH1 0x20 DUP6 ADD CALLDATALOAD SWAP2 POP DUP1 DUP3 GT ISZERO PUSH2 0xE8D JUMPI PUSH1 0x0 DUP1 REVERT JUMPDEST POP PUSH2 0xE9A DUP6 DUP3 DUP7 ADD PUSH2 0xC86 JUMP JUMPDEST SWAP2 POP POP SWAP3 POP SWAP3 SWAP1 POP JUMP JUMPDEST PUSH1 0x0 PUSH1 0x20 DUP3 DUP5 SUB SLT ISZERO PUSH2 0xEB6 JUMPI PUSH1 0x0 DUP1 REVERT JUMPDEST PUSH2 0xC19 DUP3 PUSH2 0xD48 JUMP JUMPDEST PUSH4 0x4E487B71 PUSH1 0xE0 SHL PUSH1 0x0 MSTORE PUSH1 0x32 PUSH1 0x4 MSTORE PUSH1 0x24 PUSH1 0x0 REVERT JUMPDEST PUSH4 0x4E487B71 PUSH1 0xE0 SHL PUSH1 0x0 MSTORE PUSH1 0x11 PUSH1 0x4 MSTORE PUSH1 0x24 PUSH1 0x0 REVERT JUMPDEST DUP1 DUP3 ADD DUP1 DUP3 GT ISZERO PUSH2 0x949 JUMPI PUSH2 0x949 PUSH2 0xED5 JUMP JUMPDEST PUSH1 0x0 DUP3 PUSH2 0xF1B JUMPI PUSH4 0x4E487B71 PUSH1 0xE0 SHL PUSH1 0x0 MSTORE PUSH1 0x12 PUSH1 0x4 MSTORE PUSH1 0x24 PUSH1 0x0 REVERT JUMPDEST POP DIV SWAP1 JUMP JUMPDEST PUSH1 0x0 JUMPDEST DUP4 DUP2 LT ISZERO PUSH2 0xF3B JUMPI DUP2 DUP2 ADD MLOAD DUP4 DUP3 ADD MSTORE PUSH1 0x20 ADD PUSH2 0xF23 JUMP JUMPDEST POP POP PUSH1 0x0 SWAP2 ADD MSTORE JUMP JUMPDEST PUSH1 0x0 DUP3 MLOAD PUSH2 0xF56 DUP2 DUP5 PUSH1 0x20 DUP8 ADD PUSH2 0xF20 JUMP JUMPDEST SWAP2 SWAP1 SWAP2 ADD SWAP3 SWAP2 POP POP JUMP JUMPDEST PUSH1 0x0 DUP2 MLOAD DUP1 DUP5 MSTORE PUSH2 0xF78 DUP2 PUSH1 0x20 DUP7 ADD PUSH1 0x20 DUP7 ADD PUSH2 0xF20 JUMP JUMPDEST PUSH1 0x1F ADD PUSH1 0x1F NOT AND SWAP3 SWAP1 SWAP3 ADD PUSH1 0x20 ADD SWAP3 SWAP2 POP POP JUMP JUMPDEST PUSH1 0x60 DUP2 MSTORE PUSH1 0x0 PUSH2 0xF9F PUSH1 0x60 DUP4 ADD DUP7 PUSH2 0xF60 JUMP JUMPDEST DUP3 DUP2 SUB PUSH1 0x20 DUP5 ADD MSTORE PUSH2 0xFB1 DUP2 DUP7 PUSH2 0xF60 JUMP JUMPDEST SWAP2 POP POP PUSH1 0x1 DUP1 PUSH1 0xA0 SHL SUB DUP4 AND PUSH1 0x40 DUP4 ADD MSTORE SWAP5 SWAP4 POP POP POP POP JUMP JUMPDEST PUSH1 0x1 DUP2 DUP2 SHR SWAP1 DUP3 AND DUP1 PUSH2 0xFDE JUMPI PUSH1 0x7F DUP3 AND SWAP2 POP JUMPDEST PUSH1 0x20 DUP3 LT DUP2 SUB PUSH2 0xFFE JUMPI PUSH4 0x4E487B71 PUSH1 0xE0 SHL PUSH1 0x0 MSTORE PUSH1 0x22 PUSH1 0x4 MSTORE PUSH1 0x24 PUSH1 0x0 REVERT JUMPDEST POP SWAP2 SWAP1 POP JUMP JUMPDEST PUSH1 0x0 DUP1 DUP4 SLOAD PUSH2 0x1012 DUP2 PUSH2 0xFCA JUMP JUMPDEST PUSH1 0x1 DUP3 DUP2 AND DUP1 ISZERO PUSH2 0x102A JUMPI PUSH1 0x1 DUP2 EQ PUSH2 0x103F JUMPI PUSH2 0x106E JUMP JUMPDEST PUSH1 0xFF NOT DUP5 AND DUP8 MSTORE DUP3 ISZERO ISZERO DUP4 MUL DUP8 ADD SWAP5 POP PUSH2 0x106E JUMP JUMPDEST DUP8 PUSH1 0x0 MSTORE PUSH1 0x20 DUP1 PUSH1 0x0 KECCAK256 PUSH1 0x0 JUMPDEST DUP6 DUP2 LT ISZERO PUSH2 0x1065 JUMPI DUP2 SLOAD DUP11 DUP3 ADD MSTORE SWAP1 DUP5 ADD SWAP1 DUP3 ADD PUSH2 0x104C JUMP JUMPDEST POP POP POP DUP3 DUP8 ADD SWAP5 POP JUMPDEST POP SWAP3 SWAP7 SWAP6 POP POP POP POP POP POP JUMP JUMPDEST PUSH1 0x1F DUP3 GT ISZERO PUSH2 0x10C4 JUMPI PUSH1 0x0 DUP2 DUP2 MSTORE PUSH1 0x20 DUP2 KECCAK256 PUSH1 0x1F DUP6 ADD PUSH1 0x5 SHR DUP2 ADD PUSH1 0x20 DUP7 LT ISZERO PUSH2 0x10A1 JUMPI POP DUP1 JUMPDEST PUSH1 0x1F DUP6 ADD PUSH1 0x5 SHR DUP3 ADD SWAP2 POP JUMPDEST DUP2 DUP2 LT ISZERO PUSH2 0x10C0 JUMPI DUP3 DUP2 SSTORE PUSH1 0x1 ADD PUSH2 0x10AD JUMP JUMPDEST POP POP POP JUMPDEST POP POP POP JUMP JUMPDEST DUP2 MLOAD PUSH8 0xFFFFFFFFFFFFFFFF DUP2 GT ISZERO PUSH2 0x10E3 JUMPI PUSH2 0x10E3 PUSH2 0xC70 JUMP JUMPDEST PUSH2 0x10F7 DUP2 PUSH2 0x10F1 DUP5 SLOAD PUSH2 0xFCA JUMP JUMPDEST DUP5 PUSH2 0x107A JUMP JUMPDEST PUSH1 0x20 DUP1 PUSH1 0x1F DUP4 GT PUSH1 0x1 DUP2 EQ PUSH2 0x112C JUMPI PUSH1 0x0 DUP5 ISZERO PUSH2 0x1114 JUMPI POP DUP6 DUP4 ADD MLOAD JUMPDEST PUSH1 0x0 NOT PUSH1 0x3 DUP7 SWAP1 SHL SHR NOT AND PUSH1 0x1 DUP6 SWAP1 SHL OR DUP6 SSTORE PUSH2 0x10C0 JUMP JUMPDEST PUSH1 0x0 DUP6 DUP2 MSTORE PUSH1 0x20 DUP2 KECCAK256 PUSH1 0x1F NOT DUP7 AND SWAP2 JUMPDEST DUP3 DUP2 LT ISZERO PUSH2 0x115B JUMPI DUP9 DUP7 ADD MLOAD DUP3 SSTORE SWAP5 DUP5 ADD SWAP5 PUSH1 0x1 SWAP1 SWAP2 ADD SWAP1 DUP5 ADD PUSH2 0x113C JUMP JUMPDEST POP DUP6 DUP3 LT ISZERO PUSH2 0x1179 JUMPI DUP8 DUP6 ADD MLOAD PUSH1 0x0 NOT PUSH1 0x3 DUP9 SWAP1 SHL PUSH1 0xF8 AND SHR NOT AND DUP2 SSTORE JUMPDEST POP POP POP POP POP PUSH1 0x1 SWAP1 DUP2 SHL ADD SWAP1 SSTORE POP JUMP JUMPDEST PUSH1 0x0 PUSH1 0x1 DUP3 ADD PUSH2 0x119B JUMPI PUSH2 0x119B PUSH2 0xED5 JUMP JUMPDEST POP PUSH1 0x1 ADD SWAP1 JUMP JUMPDEST DUP1 DUP3 MUL DUP2 ISZERO DUP3 DUP3 DIV DUP5 EQ OR PUSH2 0x949 JUMPI PUSH2 0x949 PUSH2 0xED5 JUMP INVALID LOG2 PUSH5 0x6970667358 0x22 SLT KECCAK256 0xEE 0xB8 PUSH32 0x92CE1FF10F51EBE2DCB3EA933899B6C7BDA2A02E6E00C40FD9DEC593B764736F PUSH13 0x63430008110033000000000000 "},"gasEstimates":{"creation":{"codeDepositCost":"918200","executionCost":"26796","totalCost":"944996"},"external":{"addStudent(string,string,address)":"infinite","calculateMoyenneGenerale(string)":"infinite","calculateMoyennePerCourse(string,string)":"infinite","calculateMoyenneStudent(string)":"infinite","isPassing(string)":"infinite","owner()":"2323","renounceOwnership()":"infinite","setNote(string,string,uint256)":"infinite","setTeacher(string,string,address)":"infinite","transferOwnership(address)":"28421"},"internal":{"getStudentFromName(string memory)":"infinite","stringsEquals(string memory,string memory)":"infinite"}},"methodIdentifiers":{"addStudent(string,string,address)":"42de0619","calculateMoyenneGenerale(string)":"d304b1ea","calculateMoyennePerCourse(string,string)":"c2ef3771","calculateMoyenneStudent(string)":"02a3c89b","isPassing(string)":"0dc0ffb1","owner()":"8da5cb5b","renounceOwnership()":"715018a6","setNote(string,string,uint256)":"27b51db2","setTeacher(string,string,address)":"0b90cbc9","transferOwnership(address)":"f2fde38b"}},"storageLayout":{"storage":[{"astId":7,"contract":"contracts/corrections/Lycee.sol:Notes","label":"_owner","offset":0,"slot":"0","type":"t_address"},{"astId":896,"contract":"contracts/corrections/Lycee.sol:Notes","label":"students","offset":0,"slot":"1","type":"t_array(t_struct(Student)892_storage)dyn_storage"},{"astId":902,"contract":"contracts/corrections/Lycee.sol:Notes","label":"teachers","offset":0,"slot":"2","type":"t_mapping(t_string_memory_ptr,t_mapping(t_string_memory_ptr,t_address))"}],"types":{"t_address":{"encoding":"inplace","label":"address","numberOfBytes":"20"},"t_array(t_struct(Student)892_storage)dyn_storage":{"base":"t_struct(Student)892_storage","encoding":"dynamic_array","label":"struct Notes.Student[]","numberOfBytes":"32"},"t_mapping(t_string_memory_ptr,t_address)":{"encoding":"mapping","key":"t_string_memory_ptr","label":"mapping(string => address)","numberOfBytes":"32","value":"t_address"},"t_mapping(t_string_memory_ptr,t_mapping(t_string_memory_ptr,t_address))":{"encoding":"mapping","key":"t_string_memory_ptr","label":"mapping(string => mapping(string => address))","numberOfBytes":"32","value":"t_mapping(t_string_memory_ptr,t_address)"},"t_string_memory_ptr":{"encoding":"bytes","label":"string","numberOfBytes":"32"},"t_string_storage":{"encoding":"bytes","label":"string","numberOfBytes":"32"},"t_struct(Student)892_storage":{"encoding":"inplace","label":"struct Notes.Student","members":[{"astId":881,"contract":"contracts/corrections/Lycee.sol:Notes","label":"name","offset":0,"slot":"0","type":"t_string_storage"},{"astId":883,"contract":"contracts/corrections/Lycee.sol:Notes","label":"class","offset":0,"slot":"1","type":"t_string_storage"},{"astId":885,"contract":"contracts/corrections/Lycee.sol:Notes","label":"addr","offset":0,"slot":"2","type":"t_address"},{"astId":887,"contract":"contracts/corrections/Lycee.sol:Notes","label":"noteBiology","offset":0,"slot":"3","type":"t_uint256"},{"astId":889,"contract":"contracts/corrections/Lycee.sol:Notes","label":"noteMaths","offset":0,"slot":"4","type":"t_uint256"},{"astId":891,"contract":"contracts/corrections/Lycee.sol:Notes","label":"noteFr","offset":0,"slot":"5","type":"t_uint256"}],"numberOfBytes":"192"},"t_uint256":{"encoding":"inplace","label":"uint256","numberOfBytes":"32"}}},"userdoc":{"kind":"user","methods":{},"version":1}}}}