{"contracts/exercices/Whitelist.sol":{"Whitelist":{"abi":[{"anonymous":false,"inputs":[{"indexed":false,"internalType":"address","name":"_address","type":"address"}],"name":"Authorized","type":"event"},{"inputs":[{"internalType":"address","name":"_address","type":"address"}],"name":"authorize","outputs":[],"stateMutability":"nonpayable","type":"function"}],"devdoc":{"kind":"dev","methods":{},"version":1},"evm":{"bytecode":{"linkReferences":{},"object":"608060405234801561001057600080fd5b5061015c806100206000396000f3fe608060405234801561001057600080fd5b506004361061002b5760003560e01c8063b6a5d7de14610030575b600080fd5b61004361003e3660046100f6565b610045565b005b3360009081526020819052604090205460ff16151560011461009e5760405162461bcd60e51b815260206004820152600e60248201526d1b9bdd08185d5d1a1bdc9a5e995960921b604482015260640160405180910390fd5b6001600160a01b03811660008181526020818152604091829020805460ff1916600117905590519182527fdc84e3a4c83602050e3865df792a4e6800211a79ac60db94e703a820ce892924910160405180910390a150565b60006020828403121561010857600080fd5b81356001600160a01b038116811461011f57600080fd5b939250505056fea26469706673582212202e52064dcdf20729853b1154536f62db5c73149f3c9cb6d96ad1c846cdeec42464736f6c63430008110033","opcodes":"PUSH1 0x80 PUSH1 0x40 MSTORE CALLVALUE DUP1 ISZERO PUSH2 0x10 JUMPI PUSH1 0x0 DUP1 REVERT JUMPDEST POP PUSH2 0x15C DUP1 PUSH2 0x20 PUSH1 0x0 CODECOPY PUSH1 0x0 RETURN INVALID PUSH1 0x80 PUSH1 0x40 MSTORE CALLVALUE DUP1 ISZERO PUSH2 0x10 JUMPI PUSH1 0x0 DUP1 REVERT JUMPDEST POP PUSH1 0x4 CALLDATASIZE LT PUSH2 0x2B JUMPI PUSH1 0x0 CALLDATALOAD PUSH1 0xE0 SHR DUP1 PUSH4 0xB6A5D7DE EQ PUSH2 0x30 JUMPI JUMPDEST PUSH1 0x0 DUP1 REVERT JUMPDEST PUSH2 0x43 PUSH2 0x3E CALLDATASIZE PUSH1 0x4 PUSH2 0xF6 JUMP JUMPDEST PUSH2 0x45 JUMP JUMPDEST STOP JUMPDEST CALLER PUSH1 0x0 SWAP1 DUP2 MSTORE PUSH1 0x20 DUP2 SWAP1 MSTORE PUSH1 0x40 SWAP1 KECCAK256 SLOAD PUSH1 0xFF AND ISZERO ISZERO PUSH1 0x1 EQ PUSH2 0x9E JUMPI PUSH1 0x40 MLOAD PUSH3 0x461BCD PUSH1 0xE5 SHL DUP2 MSTORE PUSH1 0x20 PUSH1 0x4 DUP3 ADD MSTORE PUSH1 0xE PUSH1 0x24 DUP3 ADD MSTORE PUSH14 0x1B9BDD08185D5D1A1BDC9A5E9959 PUSH1 0x92 SHL PUSH1 0x44 DUP3 ADD MSTORE PUSH1 0x64 ADD PUSH1 0x40 MLOAD DUP1 SWAP2 SUB SWAP1 REVERT JUMPDEST PUSH1 0x1 PUSH1 0x1 PUSH1 0xA0 SHL SUB DUP2 AND PUSH1 0x0 DUP2 DUP2 MSTORE PUSH1 0x20 DUP2 DUP2 MSTORE PUSH1 0x40 SWAP2 DUP3 SWAP1 KECCAK256 DUP1 SLOAD PUSH1 0xFF NOT AND PUSH1 0x1 OR SWAP1 SSTORE SWAP1 MLOAD SWAP2 DUP3 MSTORE PUSH32 0xDC84E3A4C83602050E3865DF792A4E6800211A79AC60DB94E703A820CE892924 SWAP2 ADD PUSH1 0x40 MLOAD DUP1 SWAP2 SUB SWAP1 LOG1 POP JUMP JUMPDEST PUSH1 0x0 PUSH1 0x20 DUP3 DUP5 SUB SLT ISZERO PUSH2 0x108 JUMPI PUSH1 0x0 DUP1 REVERT JUMPDEST DUP2 CALLDATALOAD PUSH1 0x1 PUSH1 0x1 PUSH1 0xA0 SHL SUB DUP2 AND DUP2 EQ PUSH2 0x11F JUMPI PUSH1 0x0 DUP1 REVERT JUMPDEST SWAP4 SWAP3 POP POP POP JUMP INVALID LOG2 PUSH5 0x6970667358 0x22 SLT KECCAK256 0x2E MSTORE MOD 0x4D 0xCD CALLCODE SMOD 0x29 DUP6 EXTCODESIZE GT SLOAD MSTORE8 PUSH16 0x62DB5C73149F3C9CB6D96AD1C846CDEE 0xC4 0x24 PUSH5 0x736F6C6343 STOP ADDMOD GT STOP CALLER "},"gasEstimates":{"creation":{"codeDepositCost":"69600","executionCost":"117","totalCost":"69717"},"external":{"authorize(address)":"27827"}},"methodIdentifiers":{"authorize(address)":"b6a5d7de"}},"storageLayout":{"storage":[{"astId":3140,"contract":"contracts/exercices/Whitelist.sol:Whitelist","label":"whitelist","offset":0,"slot":"0","type":"t_mapping(t_address,t_bool)"}],"types":{"t_address":{"encoding":"inplace","label":"address","numberOfBytes":"20"},"t_bool":{"encoding":"inplace","label":"bool","numberOfBytes":"1"},"t_mapping(t_address,t_bool)":{"encoding":"mapping","key":"t_address","label":"mapping(address => bool)","numberOfBytes":"32","value":"t_bool"}}},"userdoc":{"kind":"user","methods":{},"version":1}}}}