{
  "_format": "hh-sol-artifact-1",
  "contractName": "GuessAndWin",
  "sourceName": "contracts/exercices/GuessAndWin.sol",
  "abi": [
    {
      "inputs": [],
      "stateMutability": "nonpayable",
      "type": "constructor"
    },
    {
      "anonymous": false,
      "inputs": [
        {
          "indexed": false,
          "internalType": "address",
          "name": "_admin",
          "type": "address"
        }
      ],
      "name": "GameRestarted",
      "type": "event"
    },
    {
      "anonymous": false,
      "inputs": [
        {
          "indexed": true,
          "internalType": "address",
          "name": "previousOwner",
          "type": "address"
        },
        {
          "indexed": true,
          "internalType": "address",
          "name": "newOwner",
          "type": "address"
        }
      ],
      "name": "OwnershipTransferred",
      "type": "event"
    },
    {
      "anonymous": false,
      "inputs": [
        {
          "indexed": false,
          "internalType": "address",
          "name": "_player",
          "type": "address"
        },
        {
          "indexed": false,
          "internalType": "string",
          "name": "_word",
          "type": "string"
        }
      ],
      "name": "PlayerWon",
      "type": "event"
    },
    {
      "inputs": [
        {
          "internalType": "string",
          "name": "_word",
          "type": "string"
        },
        {
          "internalType": "string",
          "name": "_indice",
          "type": "string"
        }
      ],
      "name": "defineWordAndIndice",
      "outputs": [],
      "stateMutability": "nonpayable",
      "type": "function"
    },
    {
      "inputs": [],
      "name": "getIndice",
      "outputs": [
        {
          "internalType": "string",
          "name": "",
          "type": "string"
        }
      ],
      "stateMutability": "view",
      "type": "function"
    },
    {
      "inputs": [
        {
          "internalType": "address",
          "name": "_newAdmin",
          "type": "address"
        }
      ],
      "name": "newGame",
      "outputs": [],
      "stateMutability": "nonpayable",
      "type": "function"
    },
    {
      "inputs": [],
      "name": "newPlayer",
      "outputs": [],
      "stateMutability": "nonpayable",
      "type": "function"
    },
    {
      "inputs": [],
      "name": "owner",
      "outputs": [
        {
          "internalType": "address",
          "name": "",
          "type": "address"
        }
      ],
      "stateMutability": "view",
      "type": "function"
    },
    {
      "inputs": [
        {
          "internalType": "string",
          "name": "_word",
          "type": "string"
        }
      ],
      "name": "proposeWord",
      "outputs": [
        {
          "internalType": "bool",
          "name": "",
          "type": "bool"
        }
      ],
      "stateMutability": "nonpayable",
      "type": "function"
    },
    {
      "inputs": [],
      "name": "renounceOwnership",
      "outputs": [],
      "stateMutability": "nonpayable",
      "type": "function"
    },
    {
      "inputs": [
        {
          "internalType": "address",
          "name": "newOwner",
          "type": "address"
        }
      ],
      "name": "transferOwnership",
      "outputs": [],
      "stateMutability": "nonpayable",
      "type": "function"
    }
  ],
  "bytecode": "0x608060405234801561001057600080fd5b5061001a33610031565b600180546001600160a01b03191633179055610081565b600080546001600160a01b038381166001600160a01b0319831681178455604051919092169283917f8be0079c531659141344cd1fd0a4f28419497f9722a3daafe3b4186f6b6457e09190a35050565b610ba5806100906000396000f3fe608060405234801561001057600080fd5b50600436106100885760003560e01c8063c2e0b1e61161005b578063c2e0b1e6146100e2578063df7b01c6146100f5578063f008179d14610108578063f2fde38b1461011d57600080fd5b8063715018a61461008d57806375479c34146100975780638da5cb5b1461009f578063bc3ba76c146100bf575b600080fd5b610095610130565b005b610095610144565b6000546040516001600160a01b0390911681526020015b60405180910390f35b6100d26100cd366004610784565b610234565b60405190151581526020016100b6565b6100956100f03660046107c1565b610427565b6100956101033660046107f1565b61049e565b6101106104bf565b6040516100b69190610879565b61009561012b3660046107c1565b6105be565b610138610637565b6101426000610691565b565b600354600090815260026020908152604080832033845290915290205460ff16156101b65760405162461bcd60e51b815260206004820152601960248201527f506c6179657220616c726561647920726567697374657265640000000000000060448201526064015b60405180910390fd5b60408051606081018252600180825260006020808401828152855180830187528381528587019081526003548452600283528684203385529092529490912083518154955161ffff1990961690151561ff0019161761010060ff90961695909502949094178455519192919082019061022f9082610934565b505050565b600354600090815260026020908152604080832033845290915281205460ff166102a05760405162461bcd60e51b815260206004820152601f60248201527f43616c6c6572206973206e6f74207265676973746572656420706c617965720060448201526064016101ad565b600380546000908152600260209081526040808320338452909152902054610100900460ff16106103135760405162461bcd60e51b815260206004820152601c60248201527f506c6179657220616c726561647920747269656420332074696d65730000000060448201526064016101ad565b600354600090815260026020908152604080832033845290915290208054610100900460ff1690600161034583610a0a565b825460ff9182166101009390930a9283029190920219909116179055506003546000908152600260209081526040808320338452909152902060010161038b8382610934565b50600060046040516020016103a09190610a29565b60405160208183030381529060405280519060200120836040516020016103c79190610a9f565b604051602081830303815290604052805190602001201490508015610421577fb2d622d09a0b6dda2e86bc41135d5f1462397cde0b7e3476bc92865e98405c02336004604051610418929190610abb565b60405180910390a15b92915050565b61042f610637565b600180546001600160a01b0319166001600160a01b0383161790556003805490600061045a83610b56565b90915550506040516001600160a01b03821681527f381778991636d7ccceb5dd63f347dc881843f9b038e9d2e004621aab8bbfb8e89060200160405180910390a150565b6104a6610637565b60046104b28382610934565b50600561022f8282610934565b600354600090815260026020908152604080832033845290915290205460609060ff1661052e5760405162461bcd60e51b815260206004820152601f60248201527f43616c6c6572206973206e6f74207265676973746572656420706c617965720060448201526064016101ad565b6005805461053b906108ac565b80601f0160208091040260200160405190810160405280929190818152602001828054610567906108ac565b80156105b45780601f10610589576101008083540402835291602001916105b4565b820191906000526020600020905b81548152906001019060200180831161059757829003601f168201915b5050505050905090565b6105c6610637565b6001600160a01b03811661062b5760405162461bcd60e51b815260206004820152602660248201527f4f776e61626c653a206e6577206f776e657220697320746865207a65726f206160448201526564647265737360d01b60648201526084016101ad565b61063481610691565b50565b6000546001600160a01b031633146101425760405162461bcd60e51b815260206004820181905260248201527f4f776e61626c653a2063616c6c6572206973206e6f7420746865206f776e657260448201526064016101ad565b600080546001600160a01b038381166001600160a01b0319831681178455604051919092169283917f8be0079c531659141344cd1fd0a4f28419497f9722a3daafe3b4186f6b6457e09190a35050565b634e487b7160e01b600052604160045260246000fd5b600082601f83011261070857600080fd5b813567ffffffffffffffff80821115610723576107236106e1565b604051601f8301601f19908116603f0116810190828211818310171561074b5761074b6106e1565b8160405283815286602085880101111561076457600080fd5b836020870160208301376000602085830101528094505050505092915050565b60006020828403121561079657600080fd5b813567ffffffffffffffff8111156107ad57600080fd5b6107b9848285016106f7565b949350505050565b6000602082840312156107d357600080fd5b81356001600160a01b03811681146107ea57600080fd5b9392505050565b6000806040838503121561080457600080fd5b823567ffffffffffffffff8082111561081c57600080fd5b610828868387016106f7565b9350602085013591508082111561083e57600080fd5b5061084b858286016106f7565b9150509250929050565b60005b83811015610870578181015183820152602001610858565b50506000910152565b6020815260008251806020840152610898816040850160208701610855565b601f01601f19169190910160400192915050565b600181811c908216806108c057607f821691505b6020821081036108e057634e487b7160e01b600052602260045260246000fd5b50919050565b601f82111561022f57600081815260208120601f850160051c8101602086101561090d5750805b601f850160051c820191505b8181101561092c57828155600101610919565b505050505050565b815167ffffffffffffffff81111561094e5761094e6106e1565b6109628161095c84546108ac565b846108e6565b602080601f831160018114610997576000841561097f5750858301515b600019600386901b1c1916600185901b17855561092c565b600085815260208120601f198616915b828110156109c6578886015182559484019460019091019084016109a7565b50858210156109e45787850151600019600388901b60f8161c191681555b5050505050600190811b01905550565b634e487b7160e01b600052601160045260246000fd5b600060ff821660ff8103610a2057610a206109f4565b60010192915050565b6000808354610a37816108ac565b60018281168015610a4f5760018114610a6457610a93565b60ff1984168752821515830287019450610a93565b8760005260208060002060005b85811015610a8a5781548a820152908401908201610a71565b50505082870194505b50929695505050505050565b60008251610ab1818460208701610855565b9190910192915050565b60018060a01b03831681526000602060408184015260008454610add816108ac565b8060408701526060600180841660008114610aff5760018114610b1957610b47565b60ff1985168984015283151560051b890183019550610b47565b896000528660002060005b85811015610b3f5781548b8201860152908301908801610b24565b8a0184019650505b50939998505050505050505050565b600060018201610b6857610b686109f4565b506001019056fea2646970667358221220909411c79f84794ccd5891b3ea50e65409fc930d2eeac970759c22d2184deaf564736f6c63430008110033",
  "linkReferences": {},
  "deployedLinkReferences": {}
}