{
  "_format": "hh-sol-artifact-1",
  "contractName": "Random",
  "sourceName": "contracts/exercices/Random.sol",
  "abi": [
    {
      "inputs": [],
      "name": "random",
      "outputs": [
        {
          "internalType": "uint256",
          "name": "",
          "type": "uint256"
        }
      ],
      "stateMutability": "nonpayable",
      "type": "function"
    }
  ],
  "bytecode": "0x60806040526000805534801561001457600080fd5b5061012f806100246000396000f3fe6080604052348015600f57600080fd5b506004361060285760003560e01c80635ec01e4d14602d575b600080fd5b60336045565b60405190815260200160405180910390f35b60008054818060528360b2565b9091555050600054604080514260208201526bffffffffffffffffffffffff193360601b169181019190915260548101919091526064906074016040516020818303038152906040528051906020012060001c60ad919060d8565b905090565b60006001820160d157634e487b7160e01b600052601160045260246000fd5b5060010190565b60008260f457634e487b7160e01b600052601260045260246000fd5b50069056fea264697066735822122044be01fd0ea301134cdc5db09d5ecc7197aff32e618307ab5b72f1b75fd859de64736f6c63430008110033",
  "linkReferences": {},
  "deployedLinkReferences": {}
}