{
  "_format": "hh-sol-artifact-1",
  "contractName": "Saving",
  "sourceName": "contracts/exercices/Saving.sol",
  "abi": [
    {
      "anonymous": false,
      "inputs": [
        {
          "indexed": false,
          "internalType": "address",
          "name": "sender",
          "type": "address"
        },
        {
          "indexed": false,
          "internalType": "uint256",
          "name": "amount",
          "type": "uint256"
        }
      ],
      "name": "Deposit",
      "type": "event"
    },
    {
      "anonymous": false,
      "inputs": [
        {
          "indexed": true,
          "internalType": "address",
          "name": "previousOwner",
          "type": "address"
        },
        {
          "indexed": true,
          "internalType": "address",
          "name": "newOwner",
          "type": "address"
        }
      ],
      "name": "OwnershipTransferred",
      "type": "event"
    },
    {
      "anonymous": false,
      "inputs": [
        {
          "indexed": false,
          "internalType": "uint256",
          "name": "amount",
          "type": "uint256"
        }
      ],
      "name": "Withdraw",
      "type": "event"
    },
    {
      "inputs": [
        {
          "internalType": "uint256",
          "name": "index",
          "type": "uint256"
        }
      ],
      "name": "getDeposit",
      "outputs": [
        {
          "internalType": "uint256",
          "name": "",
          "type": "uint256"
        }
      ],
      "stateMutability": "view",
      "type": "function"
    },
    {
      "inputs": [],
      "name": "owner",
      "outputs": [
        {
          "internalType": "address",
          "name": "",
          "type": "address"
        }
      ],
      "stateMutability": "view",
      "type": "function"
    },
    {
      "inputs": [],
      "name": "renounceOwnership",
      "outputs": [],
      "stateMutability": "nonpayable",
      "type": "function"
    },
    {
      "inputs": [
        {
          "internalType": "address",
          "name": "newOwner",
          "type": "address"
        }
      ],
      "name": "transferOwnership",
      "outputs": [],
      "stateMutability": "nonpayable",
      "type": "function"
    },
    {
      "inputs": [],
      "name": "withdraw",
      "outputs": [],
      "stateMutability": "payable",
      "type": "function"
    },
    {
      "stateMutability": "payable",
      "type": "receive"
    }
  ],
  "bytecode": "0x608060405234801561001057600080fd5b5061001a3361001f565b61006f565b600080546001600160a01b038381166001600160a01b0319831681178455604051919092169283917f8be0079c531659141344cd1fd0a4f28419497f9722a3daafe3b4186f6b6457e09190a35050565b6105638061007e6000396000f3fe60806040526004361061004e5760003560e01c80633ccfd60b146100b9578063715018a6146100c35780638da5cb5b146100d85780639f9fb96814610105578063f2fde38b1461013357600080fd5b366100b4576003805460009081526002602052604081203490558154919061007583610490565b9091555050604080513381523460208201527fe1fffcc4923d04b559f4d29a8bfc6cda04eb5b0d3c460751c2402c5c5cc9109c910160405180910390a1005b600080fd5b6100c1610153565b005b3480156100cf57600080fd5b506100c1610326565b3480156100e457600080fd5b506000546040516001600160a01b0390911681526020015b60405180910390f35b34801561011157600080fd5b506101256101203660046104a9565b61033a565b6040519081526020016100fc565b34801561013f57600080fd5b506100c161014e3660046104c2565b610357565b61015b6103d0565b6001546000036101c25760405162461bcd60e51b815260206004820152602760248201527f776974686472617720666f7262696464656e206265666f72652066697273742060448201526619195c1bdcda5d60ca1b60648201526084015b60405180910390fd5b60006018603c80426001546101d791906104f2565b6101e1919061050b565b6101eb919061050b565b6101f5919061050b565b9050605a81116102655760405162461bcd60e51b815260206004820152603560248201527f776974686472617720666f7262696464656e206265666f7265203930206461796044820152741cc818599d195c88199a5c9cdd0819195c1bdcda5d605a1b60648201526084016101b9565b604051600090339047908381818185875af1925050503d80600081146102a7576040519150601f19603f3d011682016040523d82523d6000602084013e6102ac565b606091505b50509050806102ef5760405162461bcd60e51b815260206004820152600f60248201526e1dda5d1a191c985dc819985a5b1959608a1b60448201526064016101b9565b6040513481527f5b6b431d4476a211bb7d41c20d1aab9ae2321deee0d20be3d9fc9b1093fa6e3d9060200160405180910390a15050565b61032e6103d0565b610338600061042a565b565b60006103446103d0565b5060009081526002602052604090205490565b61035f6103d0565b6001600160a01b0381166103c45760405162461bcd60e51b815260206004820152602660248201527f4f776e61626c653a206e6577206f776e657220697320746865207a65726f206160448201526564647265737360d01b60648201526084016101b9565b6103cd8161042a565b50565b6000546001600160a01b031633146103385760405162461bcd60e51b815260206004820181905260248201527f4f776e61626c653a2063616c6c6572206973206e6f7420746865206f776e657260448201526064016101b9565b600080546001600160a01b038381166001600160a01b0319831681178455604051919092169283917f8be0079c531659141344cd1fd0a4f28419497f9722a3daafe3b4186f6b6457e09190a35050565b634e487b7160e01b600052601160045260246000fd5b6000600182016104a2576104a261047a565b5060010190565b6000602082840312156104bb57600080fd5b5035919050565b6000602082840312156104d457600080fd5b81356001600160a01b03811681146104eb57600080fd5b9392505050565b818103818111156105055761050561047a565b92915050565b60008261052857634e487b7160e01b600052601260045260246000fd5b50049056fea2646970667358221220be6f2172bed5161d96039353a2e33a765cb1390d076462cc7a54c7f8c0d1539764736f6c63430008110033",
  "linkReferences": {},
  "deployedLinkReferences": {}
}