{
  "_format": "hh-sol-artifact-1",
  "contractName": "ERC20Token",
  "sourceName": "contracts/exercices/Admin.sol",
  "abi": [
    {
      "anonymous": false,
      "inputs": [
        {
          "indexed": false,
          "internalType": "address",
          "name": "_address",
          "type": "address"
        }
      ],
      "name": "Blacklisted",
      "type": "event"
    },
    {
      "anonymous": false,
      "inputs": [
        {
          "indexed": true,
          "internalType": "address",
          "name": "previousOwner",
          "type": "address"
        },
        {
          "indexed": true,
          "internalType": "address",
          "name": "newOwner",
          "type": "address"
        }
      ],
      "name": "OwnershipTransferred",
      "type": "event"
    },
    {
      "anonymous": false,
      "inputs": [
        {
          "indexed": false,
          "internalType": "address",
          "name": "_address",
          "type": "address"
        }
      ],
      "name": "Whitelisted",
      "type": "event"
    },
    {
      "inputs": [
        {
          "internalType": "address",
          "name": "_address",
          "type": "address"
        }
      ],
      "name": "blacklist",
      "outputs": [],
      "stateMutability": "nonpayable",
      "type": "function"
    },
    {
      "inputs": [
        {
          "internalType": "address",
          "name": "_address",
          "type": "address"
        }
      ],
      "name": "isBlacklisted",
      "outputs": [
        {
          "internalType": "bool",
          "name": "",
          "type": "bool"
        }
      ],
      "stateMutability": "view",
      "type": "function"
    },
    {
      "inputs": [
        {
          "internalType": "address",
          "name": "_address",
          "type": "address"
        }
      ],
      "name": "isWhitelisted",
      "outputs": [
        {
          "internalType": "bool",
          "name": "",
          "type": "bool"
        }
      ],
      "stateMutability": "view",
      "type": "function"
    },
    {
      "inputs": [],
      "name": "owner",
      "outputs": [
        {
          "internalType": "address",
          "name": "",
          "type": "address"
        }
      ],
      "stateMutability": "view",
      "type": "function"
    },
    {
      "inputs": [],
      "name": "renounceOwnership",
      "outputs": [],
      "stateMutability": "nonpayable",
      "type": "function"
    },
    {
      "inputs": [
        {
          "internalType": "address",
          "name": "newOwner",
          "type": "address"
        }
      ],
      "name": "transferOwnership",
      "outputs": [],
      "stateMutability": "nonpayable",
      "type": "function"
    },
    {
      "inputs": [
        {
          "internalType": "address",
          "name": "_address",
          "type": "address"
        }
      ],
      "name": "whitelist",
      "outputs": [],
      "stateMutability": "nonpayable",
      "type": "function"
    }
  ],
  "bytecode": "0x608060405234801561001057600080fd5b5061001a3361001f565b61006f565b600080546001600160a01b038381166001600160a01b0319831681178455604051919092169283917f8be0079c531659141344cd1fd0a4f28419497f9722a3daafe3b4186f6b6457e09190a35050565b61052b8061007e6000396000f3fe608060405234801561001057600080fd5b506004361061007d5760003560e01c80639b19251a1161005b5780639b19251a146100e8578063f2fde38b146100fb578063f9f92be41461010e578063fe575a871461012157600080fd5b80633af32abf14610082578063715018a6146100c35780638da5cb5b146100cd575b600080fd5b6100ae6100903660046104c5565b6001600160a01b031660009081526001602052604090205460ff1690565b60405190151581526020015b60405180910390f35b6100cb61014d565b005b6000546040516001600160a01b0390911681526020016100ba565b6100cb6100f63660046104c5565b610161565b6100cb6101093660046104c5565b610288565b6100cb61011c3660046104c5565b610301565b6100ae61012f3660046104c5565b6001600160a01b031660009081526002602052604090205460ff1690565b61015561041b565b61015f6000610475565b565b61016961041b565b6001600160a01b03811660009081526002602052604090205460ff16156101cd5760405162461bcd60e51b8152602060048201526013602482015272185b1c9958591e48189b1858dadb1a5cdd1959606a1b60448201526064015b60405180910390fd5b6001600160a01b03811660009081526001602052604090205460ff161561022c5760405162461bcd60e51b8152602060048201526013602482015272185b1c9958591e481dda1a5d195b1a5cdd1959606a1b60448201526064016101c4565b6001600160a01b038116600081815260016020818152604092839020805460ff191690921790915590519182527faab7954e9d246b167ef88aeddad35209ca2489d95a8aeb59e288d9b19fae5a5491015b60405180910390a150565b61029061041b565b6001600160a01b0381166102f55760405162461bcd60e51b815260206004820152602660248201527f4f776e61626c653a206e6577206f776e657220697320746865207a65726f206160448201526564647265737360d01b60648201526084016101c4565b6102fe81610475565b50565b61030961041b565b6001600160a01b03811660009081526002602052604090205460ff16156103685760405162461bcd60e51b8152602060048201526013602482015272185b1c9958591e48189b1858dadb1a5cdd1959606a1b60448201526064016101c4565b6001600160a01b03811660009081526001602052604090205460ff16156103c75760405162461bcd60e51b8152602060048201526013602482015272185b1c9958591e481dda1a5d195b1a5cdd1959606a1b60448201526064016101c4565b6001600160a01b038116600081815260026020908152604091829020805460ff1916600117905590519182527fffa4e6181777692565cf28528fc88fd1516ea86b56da075235fa575af6a4b855910161027d565b6000546001600160a01b0316331461015f5760405162461bcd60e51b815260206004820181905260248201527f4f776e61626c653a2063616c6c6572206973206e6f7420746865206f776e657260448201526064016101c4565b600080546001600160a01b038381166001600160a01b0319831681178455604051919092169283917f8be0079c531659141344cd1fd0a4f28419497f9722a3daafe3b4186f6b6457e09190a35050565b6000602082840312156104d757600080fd5b81356001600160a01b03811681146104ee57600080fd5b939250505056fea26469706673582212207bbdab4a8009d5cebf07dbf9dd18eed007da359182766c0b8b708fe4ce76245464736f6c63430008110033",
  "linkReferences": {},
  "deployedLinkReferences": {}
}