{
  "_format": "hh-sol-artifact-1",
  "contractName": "SPA",
  "sourceName": "contracts/exercices/SPA.sol",
  "abi": [
    {
      "anonymous": false,
      "inputs": [
        {
          "indexed": false,
          "internalType": "uint256",
          "name": "id",
          "type": "uint256"
        }
      ],
      "name": "AnimalAdopted",
      "type": "event"
    },
    {
      "anonymous": false,
      "inputs": [
        {
          "indexed": false,
          "internalType": "uint256",
          "name": "id",
          "type": "uint256"
        }
      ],
      "name": "AnimalDied",
      "type": "event"
    },
    {
      "anonymous": false,
      "inputs": [
        {
          "indexed": false,
          "internalType": "uint256",
          "name": "id",
          "type": "uint256"
        },
        {
          "indexed": false,
          "internalType": "string",
          "name": "race",
          "type": "string"
        },
        {
          "indexed": false,
          "internalType": "uint256",
          "name": "taille",
          "type": "uint256"
        },
        {
          "indexed": false,
          "internalType": "uint256",
          "name": "age",
          "type": "uint256"
        }
      ],
      "name": "NewAnimalAvailable",
      "type": "event"
    },
    {
      "inputs": [
        {
          "internalType": "string",
          "name": "_race",
          "type": "string"
        },
        {
          "internalType": "uint256",
          "name": "_taille",
          "type": "uint256"
        },
        {
          "internalType": "uint256",
          "name": "_age",
          "type": "uint256"
        }
      ],
      "name": "addAnimal",
      "outputs": [],
      "stateMutability": "nonpayable",
      "type": "function"
    },
    {
      "inputs": [
        {
          "internalType": "string",
          "name": "_race",
          "type": "string"
        },
        {
          "internalType": "uint256",
          "name": "_taille",
          "type": "uint256"
        },
        {
          "internalType": "uint256",
          "name": "_age",
          "type": "uint256"
        }
      ],
      "name": "adoptByCriteria",
      "outputs": [],
      "stateMutability": "nonpayable",
      "type": "function"
    },
    {
      "inputs": [
        {
          "internalType": "uint256",
          "name": "id",
          "type": "uint256"
        }
      ],
      "name": "adoptById",
      "outputs": [],
      "stateMutability": "nonpayable",
      "type": "function"
    },
    {
      "inputs": [
        {
          "internalType": "address",
          "name": "master",
          "type": "address"
        }
      ],
      "name": "adoptedBy",
      "outputs": [
        {
          "components": [
            {
              "internalType": "string",
              "name": "race",
              "type": "string"
            },
            {
              "internalType": "uint256",
              "name": "taille",
              "type": "uint256"
            },
            {
              "internalType": "uint256",
              "name": "age",
              "type": "uint256"
            },
            {
              "internalType": "bool",
              "name": "isAdopted",
              "type": "bool"
            }
          ],
          "internalType": "struct SPA.Animal",
          "name": "",
          "type": "tuple"
        }
      ],
      "stateMutability": "view",
      "type": "function"
    },
    {
      "inputs": [
        {
          "internalType": "uint256",
          "name": "",
          "type": "uint256"
        }
      ],
      "name": "animals",
      "outputs": [
        {
          "internalType": "string",
          "name": "race",
          "type": "string"
        },
        {
          "internalType": "uint256",
          "name": "taille",
          "type": "uint256"
        },
        {
          "internalType": "uint256",
          "name": "age",
          "type": "uint256"
        },
        {
          "internalType": "bool",
          "name": "isAdopted",
          "type": "bool"
        }
      ],
      "stateMutability": "view",
      "type": "function"
    },
    {
      "inputs": [
        {
          "internalType": "uint256",
          "name": "id",
          "type": "uint256"
        }
      ],
      "name": "getAnimal",
      "outputs": [
        {
          "components": [
            {
              "internalType": "string",
              "name": "race",
              "type": "string"
            },
            {
              "internalType": "uint256",
              "name": "taille",
              "type": "uint256"
            },
            {
              "internalType": "uint256",
              "name": "age",
              "type": "uint256"
            },
            {
              "internalType": "bool",
              "name": "isAdopted",
              "type": "bool"
            }
          ],
          "internalType": "struct SPA.Animal",
          "name": "",
          "type": "tuple"
        }
      ],
      "stateMutability": "view",
      "type": "function"
    },
    {
      "inputs": [
        {
          "internalType": "address",
          "name": "",
          "type": "address"
        }
      ],
      "name": "masters",
      "outputs": [
        {
          "internalType": "uint256",
          "name": "",
          "type": "uint256"
        }
      ],
      "stateMutability": "view",
      "type": "function"
    },
    {
      "inputs": [
        {
          "internalType": "uint256",
          "name": "animalId",
          "type": "uint256"
        }
      ],
      "name": "removeAnimal",
      "outputs": [],
      "stateMutability": "nonpayable",
      "type": "function"
    },
    {
      "inputs": [
        {
          "internalType": "uint256",
          "name": "id",
          "type": "uint256"
        },
        {
          "internalType": "string",
          "name": "_race",
          "type": "string"
        },
        {
          "internalType": "uint256",
          "name": "_taille",
          "type": "uint256"
        },
        {
          "internalType": "uint256",
          "name": "_age",
          "type": "uint256"
        }
      ],
      "name": "setAnimal",
      "outputs": [],
      "stateMutability": "nonpayable",
      "type": "function"
    }
  ],
  "bytecode": "0x608060405234801561001057600080fd5b50610e2a806100206000396000f3fe608060405234801561001057600080fd5b50600436106100935760003560e01c80637a38a106116100665780637a38a106146100fc5780637e6000d41461012a578063998dd3ca1461013d578063a0a9f55114610160578063e4910bb51461017357600080fd5b80634238a69b146100985780634397dffc146100ad57806345d3cc81146100c057806379def63b146100e9575b600080fd5b6100ab6100a63660046108a9565b610186565b005b6100ab6100bb36600461090b565b61024a565b6100d36100ce3660046108a9565b61041b565b6040516100e091906109a2565b60405180910390f35b6100d36100f73660046109ea565b610530565b61011c61010a3660046109ea565b60016020526000908152604090205481565b6040519081526020016100e0565b6100ab61013836600461090b565b610586565b61015061014b3660046108a9565b610682565b6040516100e09493929190610a1a565b6100ab61016e366004610a4b565b61074f565b6100ab6101813660046108a9565b6107dc565b6000818154811061019957610199610aa9565b600091825260209091206003600490920201015460ff16156101fb5760405162461bcd60e51b8152602060048201526016602482015275105b9a5b585b08185b1c9958591e4818591bdc1d195960521b60448201526064015b60405180910390fd5b3360009081526001602052604090819020829055517f5cd193ec84b5f9f73609acfec2ca9304e707b5791a9af02550e9d12027d9c6f29061023f9083815260200190565b60405180910390a150565b60005b6000548110156103c4576000818154811061026a5761026a610aa9565b600091825260209091206003600490920201015460ff161580156102fe5750848460405160200161029c929190610abf565b60405160208183030381529060405280519060200120600082815481106102c5576102c5610aa9565b90600052602060002090600402016000016040516020016102e69190610b09565b60405160208183030381529060405280519060200120145b801561032d5750826000828154811061031957610319610aa9565b906000526020600020906004020160010154105b801561035c5750816000828154811061034857610348610aa9565b906000526020600020906004020160020154105b156103b2573360009081526001602052604090819020829055517f5cd193ec84b5f9f73609acfec2ca9304e707b5791a9af02550e9d12027d9c6f2906103a59083815260200190565b60405180910390a16103c4565b806103bc81610b95565b91505061024d565b5060405162461bcd60e51b815260206004820152602560248201527f4e6f20616e696d616c206d617463686573207769746820796f75722063726974604482015264657269617360d81b60648201526084016101f2565b61044860405180608001604052806060815260200160008152602001600081526020016000151581525090565b6000828154811061045b5761045b610aa9565b906000526020600020906004020160405180608001604052908160008201805461048490610acf565b80601f01602080910402602001604051908101604052809291908181526020018280546104b090610acf565b80156104fd5780601f106104d2576101008083540402835291602001916104fd565b820191906000526020600020905b8154815290600101906020018083116104e057829003601f168201915b5050509183525050600182015460208201526002820154604082015260039091015460ff16151560609091015292915050565b61055d60405180608001604052806060815260200160008152602001600081526020016000151581525090565b6001600160a01b0382166000908152600160205260408120548154811061045b5761045b610aa9565b6040805160a06020601f870181900402820181019092526080810185815260009282919088908890819085018382808284376000920182905250938552505050602080830187905260408301869052606090920181905283546001810185559381522081519192600402019081906105fe9082610c13565b506020820151600182810191909155604083015160028301556060909201516003909101805460ff19169115159190911790556000547f839a86fcc05ab803a889343160d0929b98787c4c6da8df5c5b2594af3941af819161065f91610cd3565b85858585604051610674959493929190610cec565b60405180910390a150505050565b6000818154811061069257600080fd5b90600052602060002090600402016000915090508060000180546106b590610acf565b80601f01602080910402602001604051908101604052809291908181526020018280546106e190610acf565b801561072e5780601f106107035761010080835404028352916020019161072e565b820191906000526020600020905b81548152906001019060200180831161071157829003601f168201915b50505050600183015460028401546003909401549293909290915060ff1684565b83836000878154811061076457610764610aa9565b90600052602060002090600402016000019182610782929190610d33565b50816000868154811061079757610797610aa9565b90600052602060002090600402016001018190555080600086815481106107c0576107c0610aa9565b9060005260206000209060040201600201819055505050505050565b600081815481106107ef576107ef610aa9565b600091825260208220600490910201906108098282610853565b506000600182018190556002820155600301805460ff191690556040518181527f91fc86b9b1ddb9e194720509f8e534dc15fe24a8b52d538338696d0dd19b110c9060200161023f565b50805461085f90610acf565b6000825580601f1061086f575050565b601f01602090049060005260206000209081019061088d9190610890565b50565b5b808211156108a55760008155600101610891565b5090565b6000602082840312156108bb57600080fd5b5035919050565b60008083601f8401126108d457600080fd5b50813567ffffffffffffffff8111156108ec57600080fd5b60208301915083602082850101111561090457600080fd5b9250929050565b6000806000806060858703121561092157600080fd5b843567ffffffffffffffff81111561093857600080fd5b610944878288016108c2565b90989097506020870135966040013595509350505050565b6000815180845260005b8181101561098257602081850181015186830182015201610966565b506000602082860101526020601f19601f83011685010191505092915050565b6020815260008251608060208401526109be60a084018261095c565b905060208401516040840152604084015160608401526060840151151560808401528091505092915050565b6000602082840312156109fc57600080fd5b81356001600160a01b0381168114610a1357600080fd5b9392505050565b608081526000610a2d608083018761095c565b60208301959095525060408101929092521515606090910152919050565b600080600080600060808688031215610a6357600080fd5b85359450602086013567ffffffffffffffff811115610a8157600080fd5b610a8d888289016108c2565b9699909850959660408101359660609091013595509350505050565b634e487b7160e01b600052603260045260246000fd5b8183823760009101908152919050565b600181811c90821680610ae357607f821691505b602082108103610b0357634e487b7160e01b600052602260045260246000fd5b50919050565b6000808354610b1781610acf565b60018281168015610b2f5760018114610b4457610b73565b60ff1984168752821515830287019450610b73565b8760005260208060002060005b85811015610b6a5781548a820152908401908201610b51565b50505082870194505b50929695505050505050565b634e487b7160e01b600052601160045260246000fd5b600060018201610ba757610ba7610b7f565b5060010190565b634e487b7160e01b600052604160045260246000fd5b601f821115610c0e57600081815260208120601f850160051c81016020861015610beb5750805b601f850160051c820191505b81811015610c0a57828155600101610bf7565b5050505b505050565b815167ffffffffffffffff811115610c2d57610c2d610bae565b610c4181610c3b8454610acf565b84610bc4565b602080601f831160018114610c765760008415610c5e5750858301515b600019600386901b1c1916600185901b178555610c0a565b600085815260208120601f198616915b82811015610ca557888601518255948401946001909101908401610c86565b5085821015610cc35787850151600019600388901b60f8161c191681555b5050505050600190811b01905550565b81810381811115610ce657610ce6610b7f565b92915050565b85815260806020820152836080820152838560a0830137600060a08583010152600060a0601f19601f87011683010190508360408301528260608301529695505050505050565b67ffffffffffffffff831115610d4b57610d4b610bae565b610d5f83610d598354610acf565b83610bc4565b6000601f841160018114610d935760008515610d7b5750838201355b600019600387901b1c1916600186901b178355610ded565b600083815260209020601f19861690835b82811015610dc45786850135825560209485019460019092019101610da4565b5086821015610de15760001960f88860031b161c19848701351681555b505060018560011b0183555b505050505056fea2646970667358221220fe5b67ed388c2ae10295f8009d58cbadda30f1caa73d2778a577ed85f81d3cdd64736f6c63430008110033",
  "linkReferences": {},
  "deployedLinkReferences": {}
}