{
  "_format": "hh-sol-artifact-1",
  "contractName": "Notes",
  "sourceName": "contracts/exercices/Notes.sol",
  "abi": [
    {
      "anonymous": false,
      "inputs": [
        {
          "indexed": true,
          "internalType": "address",
          "name": "previousOwner",
          "type": "address"
        },
        {
          "indexed": true,
          "internalType": "address",
          "name": "newOwner",
          "type": "address"
        }
      ],
      "name": "OwnershipTransferred",
      "type": "event"
    },
    {
      "inputs": [
        {
          "internalType": "string",
          "name": "_studentName",
          "type": "string"
        },
        {
          "internalType": "uint8",
          "name": "_note",
          "type": "uint8"
        }
      ],
      "name": "addNote",
      "outputs": [],
      "stateMutability": "nonpayable",
      "type": "function"
    },
    {
      "inputs": [],
      "name": "getGlobalAverage",
      "outputs": [
        {
          "internalType": "uint8",
          "name": "",
          "type": "uint8"
        }
      ],
      "stateMutability": "view",
      "type": "function"
    },
    {
      "inputs": [
        {
          "internalType": "enum Notes.Subject",
          "name": "_subject",
          "type": "uint8"
        }
      ],
      "name": "getGlobalSubjectAverage",
      "outputs": [
        {
          "internalType": "uint8",
          "name": "",
          "type": "uint8"
        }
      ],
      "stateMutability": "view",
      "type": "function"
    },
    {
      "inputs": [
        {
          "internalType": "string",
          "name": "_studentName",
          "type": "string"
        },
        {
          "internalType": "enum Notes.Subject",
          "name": "_subject",
          "type": "uint8"
        },
        {
          "internalType": "uint8",
          "name": "_noteIndex",
          "type": "uint8"
        }
      ],
      "name": "getNote",
      "outputs": [
        {
          "internalType": "uint8",
          "name": "",
          "type": "uint8"
        }
      ],
      "stateMutability": "view",
      "type": "function"
    },
    {
      "inputs": [
        {
          "internalType": "string",
          "name": "_studentName",
          "type": "string"
        }
      ],
      "name": "getStudentAverage",
      "outputs": [
        {
          "internalType": "uint8",
          "name": "",
          "type": "uint8"
        }
      ],
      "stateMutability": "view",
      "type": "function"
    },
    {
      "inputs": [
        {
          "internalType": "string",
          "name": "_studentName",
          "type": "string"
        },
        {
          "internalType": "enum Notes.Subject",
          "name": "_subject",
          "type": "uint8"
        }
      ],
      "name": "getStudentSubjectAverage",
      "outputs": [
        {
          "internalType": "uint8",
          "name": "",
          "type": "uint8"
        }
      ],
      "stateMutability": "view",
      "type": "function"
    },
    {
      "inputs": [],
      "name": "owner",
      "outputs": [
        {
          "internalType": "address",
          "name": "",
          "type": "address"
        }
      ],
      "stateMutability": "view",
      "type": "function"
    },
    {
      "inputs": [
        {
          "internalType": "enum Notes.Subject",
          "name": "_subject",
          "type": "uint8"
        }
      ],
      "name": "registerTeacher",
      "outputs": [],
      "stateMutability": "nonpayable",
      "type": "function"
    },
    {
      "inputs": [],
      "name": "renounceOwnership",
      "outputs": [],
      "stateMutability": "nonpayable",
      "type": "function"
    },
    {
      "inputs": [
        {
          "internalType": "string",
          "name": "_studentName",
          "type": "string"
        },
        {
          "internalType": "uint8",
          "name": "_note",
          "type": "uint8"
        },
        {
          "internalType": "uint8",
          "name": "_noteIndex",
          "type": "uint8"
        }
      ],
      "name": "setNote",
      "outputs": [],
      "stateMutability": "nonpayable",
      "type": "function"
    },
    {
      "inputs": [
        {
          "internalType": "address",
          "name": "newOwner",
          "type": "address"
        }
      ],
      "name": "transferOwnership",
      "outputs": [],
      "stateMutability": "nonpayable",
      "type": "function"
    }
  ],
  "bytecode": "0x608060405234801561001057600080fd5b5061001a3361001f565b61006f565b600080546001600160a01b038381166001600160a01b0319831681178455604051919092169283917f8be0079c531659141344cd1fd0a4f28419497f9722a3daafe3b4186f6b6457e09190a35050565b6115578061007e6000396000f3fe608060405234801561001057600080fd5b50600436106100a95760003560e01c80638da5cb5b116100715780638da5cb5b1461011057806399b9a34c1461012b578063c04a8f7d1461013e578063d4c5ae6814610151578063f2fde38b14610164578063ffc434ad1461017757600080fd5b8063057a0629146100ae5780632c70b4db146100d8578063715018a6146100eb5780638520c08d146100f557806389ad0420146100fd575b600080fd5b6100c16100bc366004611055565b61018a565b60405160ff90911681526020015b60405180910390f35b6100c16100e63660046110ba565b61021e565b6100f3610373565b005b6100c1610387565b6100c161010b3660046110dc565b6105b0565b6000546040516001600160a01b0390911681526020016100cf565b6100c161013936600461111e565b61079d565b6100f361014c3660046110ba565b6108db565b6100f361015f366004611172565b6109cc565b6100f36101723660046111be565b610c04565b6100f36101853660046111e7565b610c7d565b60006002858560405161019e929190611232565b90815260405190819003602001902060008460028111156101c1576101c1611242565b60028111156101d2576101d2611242565b81526020019081526020016000208260ff16815481106101f4576101f4611258565b90600052602060002090602091828204019190069054906101000a900460ff169050949350505050565b60008080805b60035460ff82161015610360576000600260038360ff168154811061024b5761024b611258565b9060005260206000200160405161026291906112a8565b9081526020016040518091039020905060005b81600088600281111561028a5761028a611242565b600281111561029b5761029b611242565b815260208101919091526040016000205460ff8216101561034b578160008860028111156102cb576102cb611242565b60028111156102dc576102dc611242565b81526020019081526020016000208160ff16815481106102fe576102fe611258565b90600052602060002090602091828204019190069054906101000a900460ff16856103299190611334565b9450836103358161134d565b94505080806103439061134d565b915050610275565b505080806103589061134d565b915050610224565b5061036b818361136c565b949350505050565b61037b610e97565b6103856000610ef1565b565b60008080805b60035460ff8216101561059e576000600260038360ff16815481106103b4576103b4611258565b906000526020600020016040516103cb91906112a8565b9081526020016040518091039020905060005b600160009081526020839052604090205460ff8216101561046b5760016000908152602083905260409020805460ff831690811061041e5761041e611258565b90600052602060002090602091828204019190069054906101000a900460ff16856104499190611334565b9450836104558161134d565b94505080806104639061134d565b9150506103de565b5060005b60008080526020839052604090205460ff821610156104f8576000808052602083905260409020805460ff83169081106104ab576104ab611258565b90600052602060002090602091828204019190069054906101000a900460ff16856104d69190611334565b9450836104e28161134d565b94505080806104f09061134d565b91505061046f565b5060005b600260009081526020839052604090205460ff821610156105895760026000908152602083905260409020805460ff831690811061053c5761053c611258565b90600052602060002090602091828204019190069054906101000a900460ff16856105679190611334565b9450836105738161134d565b94505080806105819061134d565b9150506104fc565b505080806105969061134d565b91505061038d565b506105a9818361136c565b9250505090565b600080600080600286866040516105c8929190611232565b9081526020016040518091039020905060005b600160009081526020839052604090205460ff821610156106685760016000908152602083905260409020805460ff831690811061061b5761061b611258565b90600052602060002090602091828204019190069054906101000a900460ff16846106469190611334565b9350826106528161134d565b93505080806106609061134d565b9150506105db565b5060005b60008080526020839052604090205460ff821610156106f5576000808052602083905260409020805460ff83169081106106a8576106a8611258565b90600052602060002090602091828204019190069054906101000a900460ff16846106d39190611334565b9350826106df8161134d565b93505080806106ed9061134d565b91505061066c565b5060005b600260009081526020839052604090205460ff821610156107865760026000908152602083905260409020805460ff831690811061073957610739611258565b90600052602060002090602091828204019190069054906101000a900460ff16846107649190611334565b9350826107708161134d565b935050808061077e9061134d565b9150506106f9565b50610791828461136c565b93505050505b92915050565b600080600285856040516107b2929190611232565b90815260405190819003602001902090506000805b8260008660028111156107dc576107dc611242565b60028111156107ed576107ed611242565b815260208101919091526040016000205460ff8216101561088f5782600086600281111561081d5761081d611242565b600281111561082e5761082e611242565b81526020019081526020016000208160ff168154811061085057610850611258565b90600052602060002090602091828204019190069054906101000a900460ff168261087b9190611334565b9150806108878161134d565b9150506107c7565b508160008560028111156108a5576108a5611242565b60028111156108b6576108b6611242565b81526020810191909152604001600020546108d1908261136c565b9695505050505050565b60006001818360028111156108f2576108f2611242565b600281111561090357610903611242565b81526020810191909152604001600020546001600160a01b03161461096f5760405162461bcd60e51b815260206004820152601a60248201527f5465616368657220616c7265616479207265676973746572656400000000000060448201526064015b60405180910390fd5b336001600083600281111561098657610986611242565b600281111561099757610997611242565b815260200190815260200160002060006101000a8154816001600160a01b0302191690836001600160a01b0316021790555050565b60026000526001602052600080516020611502833981519152546001600160a01b0316331480610a1c57506000805260016020526000805160206114c2833981519152546001600160a01b031633145b80610a485750600160008190526020526000805160206114e2833981519152546001600160a01b031633145b610a8c5760405162461bcd60e51b81526020600482015260156024820152741bdb9b1e481d195858da195c9cc819dc985b9d1959605a1b6044820152606401610966565b610a968484610f41565b600060028585604051610aaa929190611232565b9081526040516020918190038201902060026000526001909152600080516020611502833981519152549091506001600160a01b03163303610b4f578281600060025b6002811115610afe57610afe611242565b81526020019081526020016000208360ff1681548110610b2057610b20611258565b90600052602060002090602091828204019190066101000a81548160ff021916908360ff160217905550610bfd565b6000805260016020526000805160206114c2833981519152546001600160a01b03163303610b81578281600080610aed565b600160008190526020526000805160206114e2833981519152546001600160a01b03163303610bfd5782816000600181526020019081526020016000208360ff1681548110610bd257610bd2611258565b90600052602060002090602091828204019190066101000a81548160ff021916908360ff1602179055505b5050505050565b610c0c610e97565b6001600160a01b038116610c715760405162461bcd60e51b815260206004820152602660248201527f4f776e61626c653a206e6577206f776e657220697320746865207a65726f206160448201526564647265737360d01b6064820152608401610966565b610c7a81610ef1565b50565b60026000526001602052600080516020611502833981519152546001600160a01b0316331480610ccd57506000805260016020526000805160206114c2833981519152546001600160a01b031633145b80610cf95750600160008190526020526000805160206114e2833981519152546001600160a01b031633145b610d3d5760405162461bcd60e51b81526020600482015260156024820152741bdb9b1e481d195858da195c9cc819dc985b9d1959605a1b6044820152606401610966565b610d478383610f41565b600060028484604051610d5b929190611232565b9081526040516020918190038201902060026000526001909152600080516020611502833981519152549091506001600160a01b03163303610df85780600060025b6002811115610dae57610dae611242565b81526020808201929092526040016000908120805460018101825590825290829020918104909101805460ff808616601f9094166101000a93840293021916919091179055610e91565b6000805260016020526000805160206114c2833981519152546001600160a01b03163303610e295780600080610d9d565b600160008190526020526000805160206114e2833981519152546001600160a01b03163303610e9157600160008181526020838152604082208054938401815582529081902090820401805460ff858116601f9094166101000a938402930219169190911790555b50505050565b6000546001600160a01b031633146103855760405162461bcd60e51b815260206004820181905260248201527f4f776e61626c653a2063616c6c6572206973206e6f7420746865206f776e65726044820152606401610966565b600080546001600160a01b038381166001600160a01b0319831681178455604051919092169283917f8be0079c531659141344cd1fd0a4f28419497f9722a3daafe3b4186f6b6457e09190a35050565b60028282604051610f53929190611232565b9081526040519081900360200190206001015460ff16610fe357600380546001810182556000919091527fc2575a0e9e593c00f959f8c92f12db2869c3395a3b0502d05e2516446f71f85b01610faa828483611401565b50600160028383604051610fbf929190611232565b908152604051908190036020019020600101805491151560ff199092169190911790555b5050565b60008083601f840112610ff957600080fd5b50813567ffffffffffffffff81111561101157600080fd5b60208301915083602082850101111561102957600080fd5b9250929050565b80356003811061103f57600080fd5b919050565b803560ff8116811461103f57600080fd5b6000806000806060858703121561106b57600080fd5b843567ffffffffffffffff81111561108257600080fd5b61108e87828801610fe7565b90955093506110a1905060208601611030565b91506110af60408601611044565b905092959194509250565b6000602082840312156110cc57600080fd5b6110d582611030565b9392505050565b600080602083850312156110ef57600080fd5b823567ffffffffffffffff81111561110657600080fd5b61111285828601610fe7565b90969095509350505050565b60008060006040848603121561113357600080fd5b833567ffffffffffffffff81111561114a57600080fd5b61115686828701610fe7565b9094509250611169905060208501611030565b90509250925092565b6000806000806060858703121561118857600080fd5b843567ffffffffffffffff81111561119f57600080fd5b6111ab87828801610fe7565b90955093506110a1905060208601611044565b6000602082840312156111d057600080fd5b81356001600160a01b03811681146110d557600080fd5b6000806000604084860312156111fc57600080fd5b833567ffffffffffffffff81111561121357600080fd5b61121f86828701610fe7565b9094509250611169905060208501611044565b8183823760009101908152919050565b634e487b7160e01b600052602160045260246000fd5b634e487b7160e01b600052603260045260246000fd5b600181811c9082168061128257607f821691505b6020821081036112a257634e487b7160e01b600052602260045260246000fd5b50919050565b60008083546112b68161126e565b600182811680156112ce57600181146112e357611312565b60ff1984168752821515830287019450611312565b8760005260208060002060005b858110156113095781548a8201529084019082016112f0565b50505082870194505b50929695505050505050565b634e487b7160e01b600052601160045260246000fd5b60ff81811683821601908111156107975761079761131e565b600060ff821660ff81036113635761136361131e565b60010192915050565b600060ff83168061138d57634e487b7160e01b600052601260045260246000fd5b8060ff84160491505092915050565b634e487b7160e01b600052604160045260246000fd5b601f8211156113fc57600081815260208120601f850160051c810160208610156113d95750805b601f850160051c820191505b818110156113f8578281556001016113e5565b5050505b505050565b67ffffffffffffffff8311156114195761141961139c565b61142d83611427835461126e565b836113b2565b6000601f84116001811461146157600085156114495750838201355b600019600387901b1c1916600186901b178355610bfd565b600083815260209020601f19861690835b828110156114925786850135825560209485019460019092019101611472565b50868210156114af5760001960f88860031b161c19848701351681555b505060018560011b018355505050505056fea6eef7e35abe7026729641147f7915573c7e97b47efa546f5f6e3230263bcb49cc69885fda6bcc1a4ace058b4a62bf5e179ea78fd58a1ccd71c22cc9b688792fd9d16d34ffb15ba3a3d852f0d403e2ce1d691fb54de27ac87cd2f993f3ec330fa2646970667358221220419269415e3be7a3399066bc51fbd6f062ff4685e1ef4d8d339abc5d690ac4ad64736f6c63430008110033",
  "linkReferences": {},
  "deployedLinkReferences": {}
}