{
  "_format": "hh-sol-artifact-1",
  "contractName": "Caller",
  "sourceName": "contracts/exercices/Inheritage.sol",
  "abi": [
    {
      "inputs": [],
      "name": "child",
      "outputs": [
        {
          "internalType": "contract Child",
          "name": "",
          "type": "address"
        }
      ],
      "stateMutability": "view",
      "type": "function"
    },
    {
      "inputs": [],
      "name": "getChildValue",
      "outputs": [
        {
          "internalType": "uint256",
          "name": "",
          "type": "uint256"
        }
      ],
      "stateMutability": "nonpayable",
      "type": "function"
    }
  ],
  "bytecode": "0x60806040526040516100109061005f565b604051809103906000f08015801561002c573d6000803e3d6000fd5b50600080546001600160a01b0319166001600160a01b039290921691909117905534801561005957600080fd5b5061006b565b60ca8061022383390190565b6101a98061007a6000396000f3fe608060405234801561001057600080fd5b50600436106100365760003560e01c8063237b5e961461003b578063cfd110161461006b575b600080fd5b60005461004e906001600160a01b031681565b6040516001600160a01b0390911681526020015b60405180910390f35b610073610081565b604051908152602001610062565b60008054604051635524107760e01b8152600a60048201526001600160a01b0390911690635524107790602401600060405180830381600087803b1580156100c857600080fd5b505af11580156100dc573d6000803e3d6000fd5b5050505060008054906101000a90046001600160a01b03166001600160a01b031663209652556040518163ffffffff1660e01b8152600401602060405180830381865afa158015610131573d6000803e3d6000fd5b505050506040513d601f19601f82011682018060405250810190610155919061015a565b905090565b60006020828403121561016c57600080fd5b505191905056fea2646970667358221220b7cc914598b03cd1460cbdbd9418c95eccdaecc608fdb31afccd6191a81dc7b864736f6c634300081100336080604052348015600f57600080fd5b5060ac8061001e6000396000f3fe6080604052348015600f57600080fd5b506004361060325760003560e01c8063209652551460375780635524107714604c575b600080fd5b60005460405190815260200160405180910390f35b605c6057366004605e565b600055565b005b600060208284031215606f57600080fd5b503591905056fea2646970667358221220d0c21af54e245460f0afd5d539e90abe9f2a72ca5acc188d9427180b8ce86cc464736f6c63430008110033",
  "linkReferences": {},
  "deployedLinkReferences": {}
}