{
  "_format": "hh-sol-artifact-1",
  "contractName": "Crowdsale",
  "sourceName": "contracts/exercices/Crowdsale.sol",
  "abi": [
    {
      "inputs": [
        {
          "internalType": "uint256",
          "name": "initialSupply",
          "type": "uint256"
        }
      ],
      "stateMutability": "nonpayable",
      "type": "constructor"
    },
    {
      "inputs": [],
      "name": "rate",
      "outputs": [
        {
          "internalType": "uint256",
          "name": "",
          "type": "uint256"
        }
      ],
      "stateMutability": "view",
      "type": "function"
    },
    {
      "inputs": [],
      "name": "token",
      "outputs": [
        {
          "internalType": "contract AlyraERC20Token",
          "name": "",
          "type": "address"
        }
      ],
      "stateMutability": "view",
      "type": "function"
    },
    {
      "stateMutability": "payable",
      "type": "receive"
    }
  ],
  "bytecode": "0x608060405260c860005534801561001557600080fd5b50604051610eb1380380610eb183398101604081905261003491610097565b806040516100419061008a565b908152602001604051809103906000f080158015610063573d6000803e3d6000fd5b50600180546001600160a01b0319166001600160a01b0392909216919091179055506100b0565b610bd5806102dc83390190565b6000602082840312156100a957600080fd5b5051919050565b61021d806100bf6000396000f3fe60806040526004361061002d5760003560e01c80632c4e722e146100a9578063fc0c546a146100d257600080fd5b366100a45767016345785d8a00003410156100995760405162461bcd60e51b815260206004820152602260248201527f796f752063616e27742073656e64206c657373207468616e20302e312065746860448201526132b960f11b606482015260840160405180910390fd5b6100a23461010a565b005b600080fd5b3480156100b557600080fd5b506100bf60005481565b6040519081526020015b60405180910390f35b3480156100de57600080fd5b506001546100f2906001600160a01b031681565b6040516001600160a01b0390911681526020016100c9565b600080546101189083610193565b60015460405163a9059cbb60e01b8152336004820152602481018390529192506001600160a01b03169063a9059cbb906044016020604051808303816000875af115801561016a573d6000803e3d6000fd5b505050506040513d601f19601f8201168201806040525081019061018e91906101be565b505050565b80820281158282048414176101b857634e487b7160e01b600052601160045260246000fd5b92915050565b6000602082840312156101d057600080fd5b815180151581146101e057600080fd5b939250505056fea2646970667358221220a9331988bcf35b6b6f3c2d9a9bc3a3c8a0f8afe92cf23f973912e186cd9ccd3364736f6c6343000811003360806040523480156200001157600080fd5b5060405162000bd538038062000bd5833981016040819052620000349162000197565b60405180604001604052806005815260200164416c79726160d81b81525060405180604001604052806003815260200162414c5960e81b81525081600390816200007f919062000255565b5060046200008e828262000255565b505050620000a33382620000aa60201b60201c565b5062000349565b6001600160a01b038216620001055760405162461bcd60e51b815260206004820152601f60248201527f45524332303a206d696e7420746f20746865207a65726f206164647265737300604482015260640160405180910390fd5b806002600082825462000119919062000321565b90915550506001600160a01b038216600090815260208190526040812080548392906200014890849062000321565b90915550506040518181526001600160a01b038316906000907fddf252ad1be2c89b69c2b068fc378daa952ba7f163c4a11628f55a4df523b3ef9060200160405180910390a35050565b505050565b600060208284031215620001aa57600080fd5b5051919050565b634e487b7160e01b600052604160045260246000fd5b600181811c90821680620001dc57607f821691505b602082108103620001fd57634e487b7160e01b600052602260045260246000fd5b50919050565b601f8211156200019257600081815260208120601f850160051c810160208610156200022c5750805b601f850160051c820191505b818110156200024d5782815560010162000238565b505050505050565b81516001600160401b03811115620002715762000271620001b1565b6200028981620002828454620001c7565b8462000203565b602080601f831160018114620002c15760008415620002a85750858301515b600019600386901b1c1916600185901b1785556200024d565b600085815260208120601f198616915b82811015620002f257888601518255948401946001909101908401620002d1565b5085821015620003115787850151600019600388901b60f8161c191681555b5050505050600190811b01905550565b808201808211156200034357634e487b7160e01b600052601160045260246000fd5b92915050565b61087c80620003596000396000f3fe608060405234801561001057600080fd5b50600436106100a95760003560e01c80633950935111610071578063395093511461012357806370a082311461013657806395d89b411461015f578063a457c2d714610167578063a9059cbb1461017a578063dd62ed3e1461018d57600080fd5b806306fdde03146100ae578063095ea7b3146100cc57806318160ddd146100ef57806323b872dd14610101578063313ce56714610114575b600080fd5b6100b66101a0565b6040516100c391906106c6565b60405180910390f35b6100df6100da366004610730565b610232565b60405190151581526020016100c3565b6002545b6040519081526020016100c3565b6100df61010f36600461075a565b61024c565b604051601281526020016100c3565b6100df610131366004610730565b610270565b6100f3610144366004610796565b6001600160a01b031660009081526020819052604090205490565b6100b6610292565b6100df610175366004610730565b6102a1565b6100df610188366004610730565b610321565b6100f361019b3660046107b8565b61032f565b6060600380546101af906107eb565b80601f01602080910402602001604051908101604052809291908181526020018280546101db906107eb565b80156102285780601f106101fd57610100808354040283529160200191610228565b820191906000526020600020905b81548152906001019060200180831161020b57829003601f168201915b5050505050905090565b60003361024081858561035a565b60019150505b92915050565b60003361025a85828561047e565b6102658585856104f8565b506001949350505050565b600033610240818585610283838361032f565b61028d9190610825565b61035a565b6060600480546101af906107eb565b600033816102af828661032f565b9050838110156103145760405162461bcd60e51b815260206004820152602560248201527f45524332303a2064656372656173656420616c6c6f77616e63652062656c6f77604482015264207a65726f60d81b60648201526084015b60405180910390fd5b610265828686840361035a565b6000336102408185856104f8565b6001600160a01b03918216600090815260016020908152604080832093909416825291909152205490565b6001600160a01b0383166103bc5760405162461bcd60e51b8152602060048201526024808201527f45524332303a20617070726f76652066726f6d20746865207a65726f206164646044820152637265737360e01b606482015260840161030b565b6001600160a01b03821661041d5760405162461bcd60e51b815260206004820152602260248201527f45524332303a20617070726f766520746f20746865207a65726f206164647265604482015261737360f01b606482015260840161030b565b6001600160a01b0383811660008181526001602090815260408083209487168084529482529182902085905590518481527f8c5be1e5ebec7d5bd14f71427d1e84f3dd0314c0f7b2291e5b200ac8c7c3b925910160405180910390a3505050565b600061048a848461032f565b905060001981146104f257818110156104e55760405162461bcd60e51b815260206004820152601d60248201527f45524332303a20696e73756666696369656e7420616c6c6f77616e6365000000604482015260640161030b565b6104f2848484840361035a565b50505050565b6001600160a01b03831661055c5760405162461bcd60e51b815260206004820152602560248201527f45524332303a207472616e736665722066726f6d20746865207a65726f206164604482015264647265737360d81b606482015260840161030b565b6001600160a01b0382166105be5760405162461bcd60e51b815260206004820152602360248201527f45524332303a207472616e7366657220746f20746865207a65726f206164647260448201526265737360e81b606482015260840161030b565b6001600160a01b038316600090815260208190526040902054818110156106365760405162461bcd60e51b815260206004820152602660248201527f45524332303a207472616e7366657220616d6f756e7420657863656564732062604482015265616c616e636560d01b606482015260840161030b565b6001600160a01b0380851660009081526020819052604080822085850390559185168152908120805484929061066d908490610825565b92505081905550826001600160a01b0316846001600160a01b03167fddf252ad1be2c89b69c2b068fc378daa952ba7f163c4a11628f55a4df523b3ef846040516106b991815260200190565b60405180910390a36104f2565b600060208083528351808285015260005b818110156106f3578581018301518582016040015282016106d7565b506000604082860101526040601f19601f8301168501019250505092915050565b80356001600160a01b038116811461072b57600080fd5b919050565b6000806040838503121561074357600080fd5b61074c83610714565b946020939093013593505050565b60008060006060848603121561076f57600080fd5b61077884610714565b925061078660208501610714565b9150604084013590509250925092565b6000602082840312156107a857600080fd5b6107b182610714565b9392505050565b600080604083850312156107cb57600080fd5b6107d483610714565b91506107e260208401610714565b90509250929050565b600181811c908216806107ff57607f821691505b60208210810361081f57634e487b7160e01b600052602260045260246000fd5b50919050565b8082018082111561024657634e487b7160e01b600052601160045260246000fdfea26469706673582212207a11ddc311b6ae2bc6af25f83a86610712e6dadc4c9be7236465ae63fbd1331364736f6c63430008110033",
  "linkReferences": {},
  "deployedLinkReferences": {}
}