{
  "_format": "hh-sol-artifact-1",
  "contractName": "Whitelist",
  "sourceName": "contracts/exercices/Whitelist.sol",
  "abi": [
    {
      "anonymous": false,
      "inputs": [
        {
          "indexed": false,
          "internalType": "address",
          "name": "_address",
          "type": "address"
        }
      ],
      "name": "Authorized",
      "type": "event"
    },
    {
      "inputs": [
        {
          "internalType": "address",
          "name": "_address",
          "type": "address"
        }
      ],
      "name": "authorize",
      "outputs": [],
      "stateMutability": "nonpayable",
      "type": "function"
    }
  ],
  "bytecode": "0x608060405234801561001057600080fd5b5061015c806100206000396000f3fe608060405234801561001057600080fd5b506004361061002b5760003560e01c8063b6a5d7de14610030575b600080fd5b61004361003e3660046100f6565b610045565b005b3360009081526020819052604090205460ff16151560011461009e5760405162461bcd60e51b815260206004820152600e60248201526d1b9bdd08185d5d1a1bdc9a5e995960921b604482015260640160405180910390fd5b6001600160a01b03811660008181526020818152604091829020805460ff1916600117905590519182527fdc84e3a4c83602050e3865df792a4e6800211a79ac60db94e703a820ce892924910160405180910390a150565b60006020828403121561010857600080fd5b81356001600160a01b038116811461011f57600080fd5b939250505056fea2646970667358221220114bc12b146c20ae5fa3eb81b46d3b5d9f5beea61f2c6427d6959e6162c69fbe64736f6c63430008110033",
  "linkReferences": {},
  "deployedLinkReferences": {}
}