{
  "_format": "hh-sol-artifact-1",
  "contractName": "People",
  "sourceName": "contracts/exercices/People.sol",
  "abi": [
    {
      "inputs": [
        {
          "internalType": "string",
          "name": "_name",
          "type": "string"
        },
        {
          "internalType": "uint256",
          "name": "_age",
          "type": "uint256"
        }
      ],
      "name": "add",
      "outputs": [],
      "stateMutability": "nonpayable",
      "type": "function"
    },
    {
      "inputs": [
        {
          "internalType": "string",
          "name": "_name",
          "type": "string"
        },
        {
          "internalType": "uint256",
          "name": "_age",
          "type": "uint256"
        }
      ],
      "name": "modifyPerson",
      "outputs": [],
      "stateMutability": "nonpayable",
      "type": "function"
    },
    {
      "inputs": [],
      "name": "moi",
      "outputs": [
        {
          "internalType": "string",
          "name": "name",
          "type": "string"
        },
        {
          "internalType": "uint256",
          "name": "age",
          "type": "uint256"
        }
      ],
      "stateMutability": "view",
      "type": "function"
    },
    {
      "inputs": [
        {
          "internalType": "uint256",
          "name": "",
          "type": "uint256"
        }
      ],
      "name": "persons",
      "outputs": [
        {
          "internalType": "string",
          "name": "name",
          "type": "string"
        },
        {
          "internalType": "uint256",
          "name": "age",
          "type": "uint256"
        }
      ],
      "stateMutability": "view",
      "type": "function"
    },
    {
      "inputs": [],
      "name": "remove",
      "outputs": [],
      "stateMutability": "nonpayable",
      "type": "function"
    }
  ],
  "bytecode": "0x608060405234801561001057600080fd5b5061056b806100206000396000f3fe608060405234801561001057600080fd5b50600436106100575760003560e01c806313bc01941461005c57806336555b85146100715780639073613014610084578063a2f9eac6146100a3578063a7f43779146100b6575b600080fd5b61006f61006a3660046102b3565b6100be565b005b61006f61007f3660046102b3565b6100d1565b61008c61013d565b60405161009a929190610368565b60405180910390f35b61008c6100b13660046103bd565b6101d5565b61006f610208565b60006100ca838261045f565b5060015550565b604080518082019091528281526020810182905260028054600181018255600082905282518392919091027f405787fa12a823e0f2b7631cc41b3ba8828b3321ca811111fa75cd3aa3bb5ace0190819061012b908261045f565b50602082015181600101555050505050565b60008054819061014c906103d6565b80601f0160208091040260200160405190810160405280929190818152602001828054610178906103d6565b80156101c55780601f1061019a576101008083540402835291602001916101c5565b820191906000526020600020905b8154815290600101906020018083116101a857829003601f168201915b5050505050908060010154905082565b600281815481106101e557600080fd5b906000526020600020906002020160009150905080600001805461014c906103d6565b60028054806102195761021961051f565b600082815260208120600019909201916002830201906102398282610247565b600182016000905550509055565b508054610253906103d6565b6000825580601f10610263575050565b601f0160209004906000526020600020908101906102819190610284565b50565b5b808211156102995760008155600101610285565b5090565b634e487b7160e01b600052604160045260246000fd5b600080604083850312156102c657600080fd5b823567ffffffffffffffff808211156102de57600080fd5b818501915085601f8301126102f257600080fd5b8135818111156103045761030461029d565b604051601f8201601f19908116603f0116810190838211818310171561032c5761032c61029d565b8160405282815288602084870101111561034557600080fd5b826020860160208301376000602093820184015298969091013596505050505050565b604081526000835180604084015260005b818110156103965760208187018101516060868401015201610379565b506000606082850101526060601f19601f8301168401019150508260208301529392505050565b6000602082840312156103cf57600080fd5b5035919050565b600181811c908216806103ea57607f821691505b60208210810361040a57634e487b7160e01b600052602260045260246000fd5b50919050565b601f82111561045a57600081815260208120601f850160051c810160208610156104375750805b601f850160051c820191505b8181101561045657828155600101610443565b5050505b505050565b815167ffffffffffffffff8111156104795761047961029d565b61048d8161048784546103d6565b84610410565b602080601f8311600181146104c257600084156104aa5750858301515b600019600386901b1c1916600185901b178555610456565b600085815260208120601f198616915b828110156104f1578886015182559484019460019091019084016104d2565b508582101561050f5787850151600019600388901b60f8161c191681555b5050505050600190811b01905550565b634e487b7160e01b600052603160045260246000fdfea26469706673582212207b584a3b6829279df63d4a4ec08d1d9fa80bb38c4765ae7000db803df649b49664736f6c63430008110033",
  "linkReferences": {},
  "deployedLinkReferences": {}
}