{
  "_format": "hh-sol-artifact-1",
  "contractName": "Bank",
  "sourceName": "contracts/exercices/Bank.sol",
  "abi": [
    {
      "inputs": [
        {
          "internalType": "address",
          "name": "_address",
          "type": "address"
        }
      ],
      "name": "balanceOf",
      "outputs": [
        {
          "internalType": "uint256",
          "name": "",
          "type": "uint256"
        }
      ],
      "stateMutability": "view",
      "type": "function"
    },
    {
      "inputs": [
        {
          "internalType": "uint256",
          "name": "_amout",
          "type": "uint256"
        }
      ],
      "name": "deposit",
      "outputs": [],
      "stateMutability": "nonpayable",
      "type": "function"
    },
    {
      "inputs": [
        {
          "internalType": "address",
          "name": "_recipient",
          "type": "address"
        },
        {
          "internalType": "uint256",
          "name": "_amout",
          "type": "uint256"
        }
      ],
      "name": "transer",
      "outputs": [],
      "stateMutability": "nonpayable",
      "type": "function"
    }
  ],
  "bytecode": "0x608060405234801561001057600080fd5b506102dd806100206000396000f3fe608060405234801561001057600080fd5b50600436106100415760003560e01c806370a0823114610046578063b6b55f2514610081578063e4f02c3a14610096575b600080fd5b61006f610054366004610200565b6001600160a01b031660009081526020819052604090205490565b60405190815260200160405180910390f35b61009461008f366004610222565b6100a9565b005b6100946100a436600461023b565b6100d0565b33600090815260208190526040812080548392906100c890849061027b565b909155505050565b6001600160a01b03821661013b5760405162461bcd60e51b815260206004820152602760248201527f596f752063616e6e6f74207472616e7366657220746f207468652061646472656044820152667373207a65726f60c81b60648201526084015b60405180910390fd5b3360009081526020819052604090205481111561018f5760405162461bcd60e51b815260206004820152601260248201527162616c616e636520697320746f6f206c6f7760701b6044820152606401610132565b33600090815260208190526040812080548392906101ae908490610294565b90915550506001600160a01b038216600090815260208190526040812080548392906101db90849061027b565b90915550505050565b80356001600160a01b03811681146101fb57600080fd5b919050565b60006020828403121561021257600080fd5b61021b826101e4565b9392505050565b60006020828403121561023457600080fd5b5035919050565b6000806040838503121561024e57600080fd5b610257836101e4565b946020939093013593505050565b634e487b7160e01b600052601160045260246000fd5b8082018082111561028e5761028e610265565b92915050565b8181038181111561028e5761028e61026556fea2646970667358221220f1303096bcfcb787cb1d4420fd76134f4e09b79c9aae018c5a8b019e6df6c8ab64736f6c63430008110033",
  "linkReferences": {},
  "deployedLinkReferences": {}
}